{
  "contractName": "CroSkullsAmbassador",
  "abi": [
    {
      "inputs": [],
      "stateMutability": "nonpayable",
      "type": "constructor"
    },
    {
      "anonymous": false,
      "inputs": [
        {
          "indexed": true,
          "internalType": "address",
          "name": "owner",
          "type": "address"
        },
        {
          "indexed": true,
          "internalType": "address",
          "name": "approved",
          "type": "address"
        },
        {
          "indexed": true,
          "internalType": "uint256",
          "name": "tokenId",
          "type": "uint256"
        }
      ],
      "name": "Approval",
      "type": "event"
    },
    {
      "anonymous": false,
      "inputs": [
        {
          "indexed": true,
          "internalType": "address",
          "name": "owner",
          "type": "address"
        },
        {
          "indexed": true,
          "internalType": "address",
          "name": "operator",
          "type": "address"
        },
        {
          "indexed": false,
          "internalType": "bool",
          "name": "approved",
          "type": "bool"
        }
      ],
      "name": "ApprovalForAll",
      "type": "event"
    },
    {
      "anonymous": false,
      "inputs": [
        {
          "indexed": true,
          "internalType": "address",
          "name": "from",
          "type": "address"
        },
        {
          "indexed": true,
          "internalType": "address",
          "name": "to",
          "type": "address"
        },
        {
          "indexed": true,
          "internalType": "uint256",
          "name": "tokenId",
          "type": "uint256"
        }
      ],
      "name": "Transfer",
      "type": "event"
    },
    {
      "inputs": [
        {
          "internalType": "address",
          "name": "",
          "type": "address"
        }
      ],
      "name": "addressMintedBalance",
      "outputs": [
        {
          "internalType": "uint256",
          "name": "",
          "type": "uint256"
        }
      ],
      "stateMutability": "view",
      "type": "function"
    },
    {
      "inputs": [
        {
          "internalType": "uint256",
          "name": "",
          "type": "uint256"
        }
      ],
      "name": "allCroSkulls",
      "outputs": [
        {
          "internalType": "uint256",
          "name": "tokenId",
          "type": "uint256"
        },
        {
          "internalType": "address",
          "name": "mintedBy",
          "type": "address"
        },
        {
          "internalType": "address",
          "name": "currentOwner",
          "type": "address"
        },
        {
          "internalType": "address",
          "name": "previousOwner",
          "type": "address"
        }
      ],
      "stateMutability": "view",
      "type": "function"
    },
    {
      "inputs": [
        {
          "internalType": "address",
          "name": "to",
          "type": "address"
        },
        {
          "internalType": "uint256",
          "name": "tokenId",
          "type": "uint256"
        }
      ],
      "name": "approve",
      "outputs": [],
      "stateMutability": "nonpayable",
      "type": "function"
    },
    {
      "inputs": [
        {
          "internalType": "address",
          "name": "owner",
          "type": "address"
        }
      ],
      "name": "balanceOf",
      "outputs": [
        {
          "internalType": "uint256",
          "name": "",
          "type": "uint256"
        }
      ],
      "stateMutability": "view",
      "type": "function"
    },
    {
      "inputs": [],
      "name": "baseURI",
      "outputs": [
        {
          "internalType": "string",
          "name": "",
          "type": "string"
        }
      ],
      "stateMutability": "view",
      "type": "function"
    },
    {
      "inputs": [],
      "name": "collectionName",
      "outputs": [
        {
          "internalType": "string",
          "name": "",
          "type": "string"
        }
      ],
      "stateMutability": "view",
      "type": "function"
    },
    {
      "inputs": [],
      "name": "collectionNameSymbol",
      "outputs": [
        {
          "internalType": "string",
          "name": "",
          "type": "string"
        }
      ],
      "stateMutability": "view",
      "type": "function"
    },
    {
      "inputs": [],
      "name": "croSkullCounter",
      "outputs": [
        {
          "internalType": "uint256",
          "name": "",
          "type": "uint256"
        }
      ],
      "stateMutability": "view",
      "type": "function"
    },
    {
      "inputs": [
        {
          "internalType": "uint256",
          "name": "tokenId",
          "type": "uint256"
        }
      ],
      "name": "getApproved",
      "outputs": [
        {
          "internalType": "address",
          "name": "",
          "type": "address"
        }
      ],
      "stateMutability": "view",
      "type": "function"
    },
    {
      "inputs": [
        {
          "internalType": "address",
          "name": "owner",
          "type": "address"
        },
        {
          "internalType": "address",
          "name": "operator",
          "type": "address"
        }
      ],
      "name": "isApprovedForAll",
      "outputs": [
        {
          "internalType": "bool",
          "name": "",
          "type": "bool"
        }
      ],
      "stateMutability": "view",
      "type": "function"
    },
    {
      "inputs": [
        {
          "internalType": "address",
          "name": "",
          "type": "address"
        }
      ],
      "name": "lastMintTimestamps",
      "outputs": [
        {
          "internalType": "uint256",
          "name": "",
          "type": "uint256"
        }
      ],
      "stateMutability": "view",
      "type": "function"
    },
    {
      "inputs": [],
      "name": "name",
      "outputs": [
        {
          "internalType": "string",
          "name": "",
          "type": "string"
        }
      ],
      "stateMutability": "view",
      "type": "function"
    },
    {
      "inputs": [],
      "name": "owner",
      "outputs": [
        {
          "internalType": "address",
          "name": "",
          "type": "address"
        }
      ],
      "stateMutability": "view",
      "type": "function"
    },
    {
      "inputs": [
        {
          "internalType": "uint256",
          "name": "tokenId",
          "type": "uint256"
        }
      ],
      "name": "ownerOf",
      "outputs": [
        {
          "internalType": "address",
          "name": "",
          "type": "address"
        }
      ],
      "stateMutability": "view",
      "type": "function"
    },
    {
      "inputs": [
        {
          "internalType": "address",
          "name": "from",
          "type": "address"
        },
        {
          "internalType": "address",
          "name": "to",
          "type": "address"
        },
        {
          "internalType": "uint256",
          "name": "tokenId",
          "type": "uint256"
        }
      ],
      "name": "safeTransferFrom",
      "outputs": [],
      "stateMutability": "nonpayable",
      "type": "function"
    },
    {
      "inputs": [
        {
          "internalType": "address",
          "name": "from",
          "type": "address"
        },
        {
          "internalType": "address",
          "name": "to",
          "type": "address"
        },
        {
          "internalType": "uint256",
          "name": "tokenId",
          "type": "uint256"
        },
        {
          "internalType": "bytes",
          "name": "_data",
          "type": "bytes"
        }
      ],
      "name": "safeTransferFrom",
      "outputs": [],
      "stateMutability": "nonpayable",
      "type": "function"
    },
    {
      "inputs": [
        {
          "internalType": "address",
          "name": "operator",
          "type": "address"
        },
        {
          "internalType": "bool",
          "name": "approved",
          "type": "bool"
        }
      ],
      "name": "setApprovalForAll",
      "outputs": [],
      "stateMutability": "nonpayable",
      "type": "function"
    },
    {
      "inputs": [
        {
          "internalType": "bytes4",
          "name": "interfaceId",
          "type": "bytes4"
        }
      ],
      "name": "supportsInterface",
      "outputs": [
        {
          "internalType": "bool",
          "name": "",
          "type": "bool"
        }
      ],
      "stateMutability": "view",
      "type": "function"
    },
    {
      "inputs": [],
      "name": "symbol",
      "outputs": [
        {
          "internalType": "string",
          "name": "",
          "type": "string"
        }
      ],
      "stateMutability": "view",
      "type": "function"
    },
    {
      "inputs": [
        {
          "internalType": "uint256",
          "name": "index",
          "type": "uint256"
        }
      ],
      "name": "tokenByIndex",
      "outputs": [
        {
          "internalType": "uint256",
          "name": "",
          "type": "uint256"
        }
      ],
      "stateMutability": "view",
      "type": "function"
    },
    {
      "inputs": [
        {
          "internalType": "address",
          "name": "owner",
          "type": "address"
        },
        {
          "internalType": "uint256",
          "name": "index",
          "type": "uint256"
        }
      ],
      "name": "tokenOfOwnerByIndex",
      "outputs": [
        {
          "internalType": "uint256",
          "name": "",
          "type": "uint256"
        }
      ],
      "stateMutability": "view",
      "type": "function"
    },
    {
      "inputs": [
        {
          "internalType": "uint256",
          "name": "tokenId",
          "type": "uint256"
        }
      ],
      "name": "tokenURI",
      "outputs": [
        {
          "internalType": "string",
          "name": "",
          "type": "string"
        }
      ],
      "stateMutability": "view",
      "type": "function"
    },
    {
      "inputs": [],
      "name": "totalSupply",
      "outputs": [
        {
          "internalType": "uint256",
          "name": "",
          "type": "uint256"
        }
      ],
      "stateMutability": "view",
      "type": "function"
    },
    {
      "inputs": [
        {
          "internalType": "address",
          "name": "from",
          "type": "address"
        },
        {
          "internalType": "address",
          "name": "to",
          "type": "address"
        },
        {
          "internalType": "uint256",
          "name": "tokenId",
          "type": "uint256"
        }
      ],
      "name": "transferFrom",
      "outputs": [],
      "stateMutability": "nonpayable",
      "type": "function"
    },
    {
      "inputs": [],
      "name": "waitDuration",
      "outputs": [
        {
          "internalType": "uint256",
          "name": "",
          "type": "uint256"
        }
      ],
      "stateMutability": "view",
      "type": "function"
    },
    {
      "inputs": [
        {
          "internalType": "string",
          "name": "baseURI",
          "type": "string"
        }
      ],
      "name": "setBaseURI",
      "outputs": [],
      "stateMutability": "nonpayable",
      "type": "function"
    },
    {
      "inputs": [],
      "name": "mintCroSkulls",
      "outputs": [],
      "stateMutability": "nonpayable",
      "type": "function"
    },
    {
      "inputs": [],
      "name": "getOwner",
      "outputs": [
        {
          "internalType": "address",
          "name": "",
          "type": "address"
        }
      ],
      "stateMutability": "view",
      "type": "function"
    },
    {
      "inputs": [
        {
          "internalType": "uint256",
          "name": "_tokenId",
          "type": "uint256"
        }
      ],
      "name": "getTokenOwner",
      "outputs": [
        {
          "internalType": "address",
          "name": "",
          "type": "address"
        }
      ],
      "stateMutability": "view",
      "type": "function"
    },
    {
      "inputs": [
        {
          "internalType": "uint256",
          "name": "_tokenId",
          "type": "uint256"
        }
      ],
      "name": "getTokenMetaData",
      "outputs": [
        {
          "internalType": "string",
          "name": "",
          "type": "string"
        }
      ],
      "stateMutability": "view",
      "type": "function"
    },
    {
      "inputs": [],
      "name": "getNumberOfTokensMinted",
      "outputs": [
        {
          "internalType": "uint256",
          "name": "",
          "type": "uint256"
        }
      ],
      "stateMutability": "view",
      "type": "function"
    },
    {
      "inputs": [
        {
          "internalType": "address",
          "name": "_owner",
          "type": "address"
        }
      ],
      "name": "getTotalNumberOfTokensOwnedByAnAddress",
      "outputs": [
        {
          "internalType": "uint256",
          "name": "",
          "type": "uint256"
        }
      ],
      "stateMutability": "view",
      "type": "function"
    },
    {
      "inputs": [
        {
          "internalType": "uint256",
          "name": "_tokenId",
          "type": "uint256"
        }
      ],
      "name": "getTokenExists",
      "outputs": [
        {
          "internalType": "bool",
          "name": "",
          "type": "bool"
        }
      ],
      "stateMutability": "view",
      "type": "function"
    }
  ],
  "bytecode": "0x608060405262015180600e553480156200001857600080fd5b506040518060400160405280600e81526020017f43726f536b756c6c7320546573740000000000000000000000000000000000008152506040518060400160405280600381526020017f43535400000000000000000000000000000000000000000000000000000000008152506200009d6301ffc9a760e01b620001b060201b60201c565b8160069080519060200190620000b5929190620003bc565b508060079080519060200190620000ce929190620003bc565b50620000e76380ac58cd60e01b620001b060201b60201c565b620000ff635b5e139f60e01b620001b060201b60201c565b6200011763780e9d6360e01b620001b060201b60201c565b505033600d60006101000a81548173ffffffffffffffffffffffffffffffffffffffff021916908373ffffffffffffffffffffffffffffffffffffffff1602179055506200016a6200028860201b60201c565b600a908051906020019062000181929190620003bc565b50620001926200032260201b60201c565b600b9080519060200190620001a9929190620003bc565b5062000546565b63ffffffff60e01b817bffffffffffffffffffffffffffffffffffffffffffffffffffffffff191614156200021c576040517f08c379a00000000000000000000000000000000000000000000000000000000081526004016200021390620004ae565b60405180910390fd5b6001600080837bffffffffffffffffffffffffffffffffffffffffffffffffffffffff19167bffffffffffffffffffffffffffffffffffffffffffffffffffffffff1916815260200190815260200160002060006101000a81548160ff02191690831515021790555050565b6060600680546200029990620004e1565b80601f0160208091040260200160405190810160405280929190818152602001828054620002c790620004e1565b8015620003185780601f10620002ec5761010080835404028352916020019162000318565b820191906000526020600020905b815481529060010190602001808311620002fa57829003601f168201915b5050505050905090565b6060600780546200033390620004e1565b80601f01602080910402602001604051908101604052809291908181526020018280546200036190620004e1565b8015620003b25780601f106200038657610100808354040283529160200191620003b2565b820191906000526020600020905b8154815290600101906020018083116200039457829003601f168201915b5050505050905090565b828054620003ca90620004e1565b90600052602060002090601f016020900481019282620003ee57600085556200043a565b82601f106200040957805160ff19168380011785556200043a565b828001600101855582156200043a579182015b82811115620004395782518255916020019190600101906200041c565b5b5090506200044991906200044d565b5090565b5b80821115620004685760008160009055506001016200044e565b5090565b60006200047b601c83620004d0565b91507f4552433136353a20696e76616c696420696e74657266616365206964000000006000830152602082019050919050565b60006020820190508181036000830152620004c9816200046c565b9050919050565b600082825260208201905092915050565b60006002820490506001821680620004fa57607f821691505b6020821081141562000511576200051062000517565b5b50919050565b7f4e487b7100000000000000000000000000000000000000000000000000000000600052602260045260246000fd5b613bd180620005566000396000f3fe608060405234801561001057600080fd5b50600436106101fb5760003560e01c806367c623cf1161011a5780639a59758f116100ad578063c87b56dd1161007c578063c87b56dd14610615578063cc151f3a14610645578063d34f6ecb14610663578063e5326ab114610681578063e985e9c51461069f576101fb565b80639a59758f1461057a578063a22cb465146105ad578063a5cd761f146105c9578063b88d4fde146105f9576101fb565b80637a67ab86116100e95780637a67ab86146104f0578063893d20e8146105205780638da5cb5b1461053e57806395d89b411461055c576101fb565b806367c623cf146104545780636c0360eb146104845780636f9507f9146104a257806370a08231146104c0576101fb565b80631d86c0ee11610192578063439028501161016157806343902850146103a85780634f6ccce7146103d857806355f804b3146104085780636352211e14610424576101fb565b80631d86c0ee1461032257806323b872dd146103405780632f745c591461035c57806342842e0e1461038c576101fb565b80630dc8c860116101ce5780630dc8c8601461029a578063142687f3146102a457806318160ddd146102d457806318cae269146102f2576101fb565b806301ffc9a71461020057806306fdde0314610230578063081812fc1461024e578063095ea7b31461027e575b600080fd5b61021a60048036038101906102159190612b47565b6106cf565b6040516102279190613414565b60405180910390f35b610238610736565b604051610245919061342f565b60405180910390f35b61026860048036038101906102639190612bda565b6107c8565b60405161027591906133ad565b60405180910390f35b61029860048036038101906102939190612b0b565b61084d565b005b6102a2610965565b005b6102be60048036038101906102b99190612bda565b610c66565b6040516102cb9190613414565b60405180910390f35b6102dc610c7d565b6040516102e99190613691565b60405180910390f35b61030c600480360381019061030791906129a0565b610c8e565b6040516103199190613691565b60405180910390f35b61032a610ca6565b6040516103379190613691565b60405180910390f35b61035a60048036038101906103559190612a05565b610cac565b005b61037660048036038101906103719190612b0b565b610d0c565b6040516103839190613691565b60405180910390f35b6103a660048036038101906103a19190612a05565b610d67565b005b6103c260048036038101906103bd91906129a0565b610d87565b6040516103cf9190613691565b60405180910390f35b6103f260048036038101906103ed9190612bda565b610d9e565b6040516103ff9190613691565b60405180910390f35b610422600480360381019061041d9190612b99565b610dc1565b005b61043e60048036038101906104399190612bda565b610e27565b60405161044b91906133ad565b60405180910390f35b61046e60048036038101906104699190612bda565b610e5e565b60405161047b919061342f565b60405180910390f35b61048c610e76565b604051610499919061342f565b60405180910390f35b6104aa610f08565b6040516104b7919061342f565b60405180910390f35b6104da60048036038101906104d591906129a0565b610f96565b6040516104e79190613691565b60405180910390f35b61050a600480360381019061050591906129a0565b611055565b6040516105179190613691565b60405180910390f35b61052861106d565b60405161053591906133ad565b60405180910390f35b610546611097565b60405161055391906133ad565b60405180910390f35b6105646110bd565b604051610571919061342f565b60405180910390f35b610594600480360381019061058f9190612bda565b61114f565b6040516105a494939291906136ac565b60405180910390f35b6105c760048036038101906105c29190612acf565b6111df565b005b6105e360048036038101906105de9190612bda565b611360565b6040516105f091906133ad565b60405180910390f35b610613600480360381019061060e9190612a54565b611377565b005b61062f600480360381019061062a9190612bda565b6113d9565b60405161063c919061342f565b60405180910390f35b61064d61154c565b60405161065a9190613691565b60405180910390f35b61066b611560565b6040516106789190613691565b60405180910390f35b610689611566565b604051610696919061342f565b60405180910390f35b6106b960048036038101906106b491906129c9565b6115f4565b6040516106c69190613414565b60405180910390f35b6000806000837bffffffffffffffffffffffffffffffffffffffffffffffffffffffff19167bffffffffffffffffffffffffffffffffffffffffffffffffffffffff1916815260200190815260200160002060009054906101000a900460ff169050919050565b6060600680546107459061396b565b80601f01602080910402602001604051908101604052809291908181526020018280546107719061396b565b80156107be5780601f10610793576101008083540402835291602001916107be565b820191906000526020600020905b8154815290600101906020018083116107a157829003601f168201915b5050505050905090565b60006107d382611688565b610812576040517f08c379a0000000000000000000000000000000000000000000000000000000008152600401610809906135b1565b60405180910390fd5b6004600083815260200190815260200160002060009054906101000a900473ffffffffffffffffffffffffffffffffffffffff169050919050565b600061085882610e27565b90508073ffffffffffffffffffffffffffffffffffffffff168373ffffffffffffffffffffffffffffffffffffffff1614156108c9576040517f08c379a00000000000000000000000000000000000000000000000000000000081526004016108c090613611565b60405180910390fd5b8073ffffffffffffffffffffffffffffffffffffffff166108e86116a5565b73ffffffffffffffffffffffffffffffffffffffff1614806109175750610916816109116116a5565b6115f4565b5b610956576040517f08c379a000000000000000000000000000000000000000000000000000000000815260040161094d90613531565b60405180910390fd5b61096083836116ad565b505050565b60003390506000601160008373ffffffffffffffffffffffffffffffffffffffff1673ffffffffffffffffffffffffffffffffffffffff1681526020019081526020016000205490506000429050600082826109c19190613857565b9050600e54811015610a08576040517f08c379a00000000000000000000000000000000000000000000000000000000081526004016109ff90613631565b60405180910390fd5b81601160008673ffffffffffffffffffffffffffffffffffffffff1673ffffffffffffffffffffffffffffffffffffffff168152602001908152602001600020819055506000600190505b600a8111610c5f57600c6000815480929190610a6e9061399d565b9190505550610a7e600c54611688565b15610a8857600080fd5b601060008673ffffffffffffffffffffffffffffffffffffffff1673ffffffffffffffffffffffffffffffffffffffff1681526020019081526020016000206000815480929190610ad89061399d565b9190505550610ae985600c54611766565b60006040518060800160405280600c5481526020018773ffffffffffffffffffffffffffffffffffffffff1681526020018773ffffffffffffffffffffffffffffffffffffffff168152602001600073ffffffffffffffffffffffffffffffffffffffff16815250905080600f6000600c5481526020019081526020016000206000820151816000015560208201518160010160006101000a81548173ffffffffffffffffffffffffffffffffffffffff021916908373ffffffffffffffffffffffffffffffffffffffff16021790555060408201518160020160006101000a81548173ffffffffffffffffffffffffffffffffffffffff021916908373ffffffffffffffffffffffffffffffffffffffff16021790555060608201518160030160006101000a81548173ffffffffffffffffffffffffffffffffffffffff021916908373ffffffffffffffffffffffffffffffffffffffff160217905550905050508080610c579061399d565b915050610a53565b5050505050565b600080610c7283611688565b905080915050919050565b6000610c8960026118f4565b905090565b60106020528060005260406000206000915090505481565b600e5481565b610cbd610cb76116a5565b82611909565b610cfc576040517f08c379a0000000000000000000000000000000000000000000000000000000008152600401610cf390613651565b60405180910390fd5b610d078383836119e7565b505050565b6000610d5f82600160008673ffffffffffffffffffffffffffffffffffffffff1673ffffffffffffffffffffffffffffffffffffffff168152602001908152602001600020611bfe90919063ffffffff16565b905092915050565b610d8283838360405180602001604052806000815250611377565b505050565b600080610d9383610f96565b905080915050919050565b600080610db5836002611c1890919063ffffffff16565b50905080915050919050565b600d60009054906101000a900473ffffffffffffffffffffffffffffffffffffffff1673ffffffffffffffffffffffffffffffffffffffff163373ffffffffffffffffffffffffffffffffffffffff1614610e1b57600080fd5b610e2481611c44565b50565b6000610e5782604051806060016040528060298152602001613b73602991396002611c5e9092919063ffffffff16565b9050919050565b60606000610e6b836113d9565b905080915050919050565b606060098054610e859061396b565b80601f0160208091040260200160405190810160405280929190818152602001828054610eb19061396b565b8015610efe5780601f10610ed357610100808354040283529160200191610efe565b820191906000526020600020905b815481529060010190602001808311610ee157829003601f168201915b5050505050905090565b600b8054610f159061396b565b80601f0160208091040260200160405190810160405280929190818152602001828054610f419061396b565b8015610f8e5780601f10610f6357610100808354040283529160200191610f8e565b820191906000526020600020905b815481529060010190602001808311610f7157829003601f168201915b505050505081565b60008073ffffffffffffffffffffffffffffffffffffffff168273ffffffffffffffffffffffffffffffffffffffff161415611007576040517f08c379a0000000000000000000000000000000000000000000000000000000008152600401610ffe90613551565b60405180910390fd5b61104e600160008473ffffffffffffffffffffffffffffffffffffffff1673ffffffffffffffffffffffffffffffffffffffff168152602001908152602001600020611c7d565b9050919050565b60116020528060005260406000206000915090505481565b6000600d60009054906101000a900473ffffffffffffffffffffffffffffffffffffffff16905090565b600d60009054906101000a900473ffffffffffffffffffffffffffffffffffffffff1681565b6060600780546110cc9061396b565b80601f01602080910402602001604051908101604052809291908181526020018280546110f89061396b565b80156111455780601f1061111a57610100808354040283529160200191611145565b820191906000526020600020905b81548152906001019060200180831161112857829003601f168201915b5050505050905090565b600f6020528060005260406000206000915090508060000154908060010160009054906101000a900473ffffffffffffffffffffffffffffffffffffffff16908060020160009054906101000a900473ffffffffffffffffffffffffffffffffffffffff16908060030160009054906101000a900473ffffffffffffffffffffffffffffffffffffffff16905084565b6111e76116a5565b73ffffffffffffffffffffffffffffffffffffffff168273ffffffffffffffffffffffffffffffffffffffff161415611255576040517f08c379a000000000000000000000000000000000000000000000000000000000815260040161124c906134d1565b60405180910390fd5b80600560006112626116a5565b73ffffffffffffffffffffffffffffffffffffffff1673ffffffffffffffffffffffffffffffffffffffff16815260200190815260200160002060008473ffffffffffffffffffffffffffffffffffffffff1673ffffffffffffffffffffffffffffffffffffffff16815260200190815260200160002060006101000a81548160ff0219169083151502179055508173ffffffffffffffffffffffffffffffffffffffff1661130f6116a5565b73ffffffffffffffffffffffffffffffffffffffff167f17307eab39ab6107e8899845ad3d59bd9653f200f220920489ca2b5937696c31836040516113549190613414565b60405180910390a35050565b60008061136c83610e27565b905080915050919050565b6113886113826116a5565b83611909565b6113c7576040517f08c379a00000000000000000000000000000000000000000000000000000000081526004016113be90613651565b60405180910390fd5b6113d384848484611c92565b50505050565b60606113e482611688565b611423576040517f08c379a000000000000000000000000000000000000000000000000000000000815260040161141a906135f1565b60405180910390fd5b60006008600084815260200190815260200160002080546114439061396b565b80601f016020809104026020016040519081016040528092919081815260200182805461146f9061396b565b80156114bc5780601f10611491576101008083540402835291602001916114bc565b820191906000526020600020905b81548152906001019060200180831161149f57829003601f168201915b5050505050905060006114cd610e76565b90506000815114156114e3578192505050611547565b600082511115611518578082604051602001611500929190613389565b60405160208183030381529060405292505050611547565b8061152285611cee565b604051602001611533929190613389565b604051602081830303815290604052925050505b919050565b600080611557610c7d565b90508091505090565b600c5481565b600a80546115739061396b565b80601f016020809104026020016040519081016040528092919081815260200182805461159f9061396b565b80156115ec5780601f106115c1576101008083540402835291602001916115ec565b820191906000526020600020905b8154815290600101906020018083116115cf57829003601f168201915b505050505081565b6000600560008473ffffffffffffffffffffffffffffffffffffffff1673ffffffffffffffffffffffffffffffffffffffff16815260200190815260200160002060008373ffffffffffffffffffffffffffffffffffffffff1673ffffffffffffffffffffffffffffffffffffffff16815260200190815260200160002060009054906101000a900460ff16905092915050565b600061169e826002611ead90919063ffffffff16565b9050919050565b600033905090565b816004600083815260200190815260200160002060006101000a81548173ffffffffffffffffffffffffffffffffffffffff021916908373ffffffffffffffffffffffffffffffffffffffff160217905550808273ffffffffffffffffffffffffffffffffffffffff1661172083610e27565b73ffffffffffffffffffffffffffffffffffffffff167f8c5be1e5ebec7d5bd14f71427d1e84f3dd0314c0f7b2291e5b200ac8c7c3b92560405160405180910390a45050565b600073ffffffffffffffffffffffffffffffffffffffff168273ffffffffffffffffffffffffffffffffffffffff1614156117d6576040517f08c379a00000000000000000000000000000000000000000000000000000000081526004016117cd90613591565b60405180910390fd5b6117df81611688565b1561181f576040517f08c379a000000000000000000000000000000000000000000000000000000000815260040161181690613491565b60405180910390fd5b61182b60008383611ec7565b61187c81600160008573ffffffffffffffffffffffffffffffffffffffff1673ffffffffffffffffffffffffffffffffffffffff168152602001908152602001600020611ecc90919063ffffffff16565b5061189381836002611ee69092919063ffffffff16565b50808273ffffffffffffffffffffffffffffffffffffffff16600073ffffffffffffffffffffffffffffffffffffffff167fddf252ad1be2c89b69c2b068fc378daa952ba7f163c4a11628f55a4df523b3ef60405160405180910390a45050565b600061190282600001611f1b565b9050919050565b600061191482611688565b611953576040517f08c379a000000000000000000000000000000000000000000000000000000000815260040161194a90613511565b60405180910390fd5b600061195e83610e27565b90508073ffffffffffffffffffffffffffffffffffffffff168473ffffffffffffffffffffffffffffffffffffffff1614806119cd57508373ffffffffffffffffffffffffffffffffffffffff166119b5846107c8565b73ffffffffffffffffffffffffffffffffffffffff16145b806119de57506119dd81856115f4565b5b91505092915050565b8273ffffffffffffffffffffffffffffffffffffffff16611a0782610e27565b73ffffffffffffffffffffffffffffffffffffffff1614611a5d576040517f08c379a0000000000000000000000000000000000000000000000000000000008152600401611a54906135d1565b60405180910390fd5b600073ffffffffffffffffffffffffffffffffffffffff168273ffffffffffffffffffffffffffffffffffffffff161415611acd576040517f08c379a0000000000000000000000000000000000000000000000000000000008152600401611ac4906134b1565b60405180910390fd5b611ad8838383611ec7565b611ae36000826116ad565b611b3481600160008673ffffffffffffffffffffffffffffffffffffffff1673ffffffffffffffffffffffffffffffffffffffff168152602001908152602001600020611f2c90919063ffffffff16565b50611b8681600160008573ffffffffffffffffffffffffffffffffffffffff1673ffffffffffffffffffffffffffffffffffffffff168152602001908152602001600020611ecc90919063ffffffff16565b50611b9d81836002611ee69092919063ffffffff16565b50808273ffffffffffffffffffffffffffffffffffffffff168473ffffffffffffffffffffffffffffffffffffffff167fddf252ad1be2c89b69c2b068fc378daa952ba7f163c4a11628f55a4df523b3ef60405160405180910390a4505050565b6000611c0d8360000183611f46565b60001c905092915050565b600080600080611c2b8660000186611fe0565b915091508160001c8160001c9350935050509250929050565b8060099080519060200190611c5a9291906127c4565b5050565b6000611c71846000018460001b84612090565b60001c90509392505050565b6000611c8b82600001612157565b9050919050565b611c9d8484846119e7565b611ca984848484612168565b611ce8576040517f08c379a0000000000000000000000000000000000000000000000000000000008152600401611cdf90613471565b60405180910390fd5b50505050565b60606000821415611d36576040518060400160405280600181526020017f30000000000000000000000000000000000000000000000000000000000000008152509050611ea8565b600082905060005b60008214611d68578080611d519061399d565b915050600a82611d619190613826565b9150611d3e565b60008167ffffffffffffffff811115611daa577f4e487b7100000000000000000000000000000000000000000000000000000000600052604160045260246000fd5b6040519080825280601f01601f191660200182016040528015611ddc5781602001600182028036833780820191505090505b5090506000600183611dee9190613857565b90508593505b60008414611ea057600a84611e0991906139e6565b6030611e1591906137d0565b60f81b828280611e2490613941565b935081518110611e5d577f4e487b7100000000000000000000000000000000000000000000000000000000600052603260045260246000fd5b60200101907effffffffffffffffffffffffffffffffffffffffffffffffffffffffffffff1916908160001a905350600a84611e999190613826565b9350611df4565b819450505050505b919050565b6000611ebf836000018360001b6122cc565b905092915050565b505050565b6000611ede836000018360001b6122ef565b905092915050565b6000611f12846000018460001b8473ffffffffffffffffffffffffffffffffffffffff1660001b61235f565b90509392505050565b600081600001805490509050919050565b6000611f3e836000018360001b612471565b905092915050565b600081836000018054905011611f91576040517f08c379a0000000000000000000000000000000000000000000000000000000008152600401611f8890613451565b60405180910390fd5b826000018281548110611fcd577f4e487b7100000000000000000000000000000000000000000000000000000000600052603260045260246000fd5b9060005260206000200154905092915050565b6000808284600001805490501161202c576040517f08c379a000000000000000000000000000000000000000000000000000000000815260040161202390613571565b60405180910390fd5b600084600001848154811061206a577f4e487b7100000000000000000000000000000000000000000000000000000000600052603260045260246000fd5b906000526020600020906002020190508060000154816001015492509250509250929050565b600080846001016000858152602001908152602001600020549050600081141583906120f2576040517f08c379a00000000000000000000000000000000000000000000000000000000081526004016120e9919061342f565b60405180910390fd5b50846000016001826121049190613857565b8154811061213b577f4e487b7100000000000000000000000000000000000000000000000000000000600052603260045260246000fd5b9060005260206000209060020201600101549150509392505050565b600081600001805490509050919050565b60006121898473ffffffffffffffffffffffffffffffffffffffff166125fb565b61219657600190506122c4565b600061225d63150b7a0260e01b6121ab6116a5565b8887876040516024016121c194939291906133c8565b604051602081830303815290604052907bffffffffffffffffffffffffffffffffffffffffffffffffffffffff19166020820180517bffffffffffffffffffffffffffffffffffffffffffffffffffffffff8381831617835250505050604051806060016040528060328152602001613b41603291398773ffffffffffffffffffffffffffffffffffffffff1661260e9092919063ffffffff16565b90506000818060200190518101906122759190612b70565b905063150b7a0260e01b7bffffffffffffffffffffffffffffffffffffffffffffffffffffffff1916817bffffffffffffffffffffffffffffffffffffffffffffffffffffffff191614925050505b949350505050565b600080836001016000848152602001908152602001600020541415905092915050565b60006122fb8383612626565b612354578260000182908060018154018082558091505060019003906000526020600020016000909190919091505582600001805490508360010160008481526020019081526020016000208190555060019050612359565b600090505b92915050565b60008084600101600085815260200190815260200160002054905060008114156124065784600001604051806040016040528086815260200185815250908060018154018082558091505060019003906000526020600020906002020160009091909190915060008201518160000155602082015181600101555050846000018054905085600101600086815260200190815260200160002081905550600191505061246a565b82856000016001836124189190613857565b8154811061244f577f4e487b7100000000000000000000000000000000000000000000000000000000600052603260045260246000fd5b90600052602060002090600202016001018190555060009150505b9392505050565b600080836001016000848152602001908152602001600020549050600081146125ef5760006001826124a39190613857565b90506000600186600001805490506124bb9190613857565b905060008660000182815481106124fb577f4e487b7100000000000000000000000000000000000000000000000000000000600052603260045260246000fd5b9060005260206000200154905080876000018481548110612545577f4e487b7100000000000000000000000000000000000000000000000000000000600052603260045260246000fd5b906000526020600020018190555060018361256091906137d0565b87600101600083815260200190815260200160002081905550866000018054806125b3577f4e487b7100000000000000000000000000000000000000000000000000000000600052603160045260246000fd5b600190038181906000526020600020016000905590558660010160008781526020019081526020016000206000905560019450505050506125f5565b60009150505b92915050565b600080823b905060008111915050919050565b606061261d8484600085612649565b90509392505050565b600080836001016000848152602001908152602001600020541415905092915050565b60608247101561268e576040517f08c379a0000000000000000000000000000000000000000000000000000000008152600401612685906134f1565b60405180910390fd5b612697856125fb565b6126d6576040517f08c379a00000000000000000000000000000000000000000000000000000000081526004016126cd90613671565b60405180910390fd5b6000808673ffffffffffffffffffffffffffffffffffffffff1685876040516126ff9190613372565b60006040518083038185875af1925050503d806000811461273c576040519150601f19603f3d011682016040523d82523d6000602084013e612741565b606091505b509150915061275182828661275d565b92505050949350505050565b6060831561276d578290506127bd565b6000835111156127805782518084602001fd5b816040517f08c379a00000000000000000000000000000000000000000000000000000000081526004016127b4919061342f565b60405180910390fd5b9392505050565b8280546127d09061396b565b90600052602060002090601f0160209004810192826127f25760008555612839565b82601f1061280b57805160ff1916838001178555612839565b82800160010185558215612839579182015b8281111561283857825182559160200191906001019061281d565b5b509050612846919061284a565b5090565b5b8082111561286357600081600090555060010161284b565b5090565b600061287a61287584613722565b6136f1565b90508281526020810184848401111561289257600080fd5b61289d8482856138ff565b509392505050565b60006128b86128b384613752565b6136f1565b9050828152602081018484840111156128d057600080fd5b6128db8482856138ff565b509392505050565b6000813590506128f281613ae4565b92915050565b60008135905061290781613afb565b92915050565b60008135905061291c81613b12565b92915050565b60008151905061293181613b12565b92915050565b600082601f83011261294857600080fd5b8135612958848260208601612867565b91505092915050565b600082601f83011261297257600080fd5b81356129828482602086016128a5565b91505092915050565b60008135905061299a81613b29565b92915050565b6000602082840312156129b257600080fd5b60006129c0848285016128e3565b91505092915050565b600080604083850312156129dc57600080fd5b60006129ea858286016128e3565b92505060206129fb858286016128e3565b9150509250929050565b600080600060608486031215612a1a57600080fd5b6000612a28868287016128e3565b9350506020612a39868287016128e3565b9250506040612a4a8682870161298b565b9150509250925092565b60008060008060808587031215612a6a57600080fd5b6000612a78878288016128e3565b9450506020612a89878288016128e3565b9350506040612a9a8782880161298b565b925050606085013567ffffffffffffffff811115612ab757600080fd5b612ac387828801612937565b91505092959194509250565b60008060408385031215612ae257600080fd5b6000612af0858286016128e3565b9250506020612b01858286016128f8565b9150509250929050565b60008060408385031215612b1e57600080fd5b6000612b2c858286016128e3565b9250506020612b3d8582860161298b565b9150509250929050565b600060208284031215612b5957600080fd5b6000612b678482850161290d565b91505092915050565b600060208284031215612b8257600080fd5b6000612b9084828501612922565b91505092915050565b600060208284031215612bab57600080fd5b600082013567ffffffffffffffff811115612bc557600080fd5b612bd184828501612961565b91505092915050565b600060208284031215612bec57600080fd5b6000612bfa8482850161298b565b91505092915050565b612c0c8161388b565b82525050565b612c1b8161389d565b82525050565b6000612c2c82613782565b612c368185613798565b9350612c4681856020860161390e565b612c4f81613ad3565b840191505092915050565b6000612c6582613782565b612c6f81856137a9565b9350612c7f81856020860161390e565b80840191505092915050565b6000612c968261378d565b612ca081856137b4565b9350612cb081856020860161390e565b612cb981613ad3565b840191505092915050565b6000612ccf8261378d565b612cd981856137c5565b9350612ce981856020860161390e565b80840191505092915050565b6000612d026022836137b4565b91507f456e756d657261626c655365743a20696e646578206f7574206f6620626f756e60008301527f64730000000000000000000000000000000000000000000000000000000000006020830152604082019050919050565b6000612d686032836137b4565b91507f4552433732313a207472616e7366657220746f206e6f6e20455243373231526560008301527f63656976657220696d706c656d656e74657200000000000000000000000000006020830152604082019050919050565b6000612dce601c836137b4565b91507f4552433732313a20746f6b656e20616c7265616479206d696e746564000000006000830152602082019050919050565b6000612e0e6024836137b4565b91507f4552433732313a207472616e7366657220746f20746865207a65726f2061646460008301527f72657373000000000000000000000000000000000000000000000000000000006020830152604082019050919050565b6000612e746019836137b4565b91507f4552433732313a20617070726f766520746f2063616c6c6572000000000000006000830152602082019050919050565b6000612eb46026836137b4565b91507f416464726573733a20696e73756666696369656e742062616c616e636520666f60008301527f722063616c6c00000000000000000000000000000000000000000000000000006020830152604082019050919050565b6000612f1a602c836137b4565b91507f4552433732313a206f70657261746f7220717565727920666f72206e6f6e657860008301527f697374656e7420746f6b656e00000000000000000000000000000000000000006020830152604082019050919050565b6000612f806038836137b4565b91507f4552433732313a20617070726f76652063616c6c6572206973206e6f74206f7760008301527f6e6572206e6f7220617070726f76656420666f7220616c6c00000000000000006020830152604082019050919050565b6000612fe6602a836137b4565b91507f4552433732313a2062616c616e636520717565727920666f7220746865207a6560008301527f726f2061646472657373000000000000000000000000000000000000000000006020830152604082019050919050565b600061304c6022836137b4565b91507f456e756d657261626c654d61703a20696e646578206f7574206f6620626f756e60008301527f64730000000000000000000000000000000000000000000000000000000000006020830152604082019050919050565b60006130b26020836137b4565b91507f4552433732313a206d696e7420746f20746865207a65726f20616464726573736000830152602082019050919050565b60006130f2602c836137b4565b91507f4552433732313a20617070726f76656420717565727920666f72206e6f6e657860008301527f697374656e7420746f6b656e00000000000000000000000000000000000000006020830152604082019050919050565b60006131586029836137b4565b91507f4552433732313a207472616e73666572206f6620746f6b656e2074686174206960008301527f73206e6f74206f776e00000000000000000000000000000000000000000000006020830152604082019050919050565b60006131be602f836137b4565b91507f4552433732314d657461646174613a2055524920717565727920666f72206e6f60008301527f6e6578697374656e7420746f6b656e00000000000000000000000000000000006020830152604082019050919050565b60006132246021836137b4565b91507f4552433732313a20617070726f76616c20746f2063757272656e74206f776e6560008301527f72000000000000000000000000000000000000000000000000000000000000006020830152604082019050919050565b600061328a6011836137b4565b91507f4552525f4c494d49545f524541434845440000000000000000000000000000006000830152602082019050919050565b60006132ca6031836137b4565b91507f4552433732313a207472616e736665722063616c6c6572206973206e6f74206f60008301527f776e6572206e6f7220617070726f7665640000000000000000000000000000006020830152604082019050919050565b6000613330601d836137b4565b91507f416464726573733a2063616c6c20746f206e6f6e2d636f6e74726163740000006000830152602082019050919050565b61336c816138f5565b82525050565b600061337e8284612c5a565b915081905092915050565b60006133958285612cc4565b91506133a18284612cc4565b91508190509392505050565b60006020820190506133c26000830184612c03565b92915050565b60006080820190506133dd6000830187612c03565b6133ea6020830186612c03565b6133f76040830185613363565b81810360608301526134098184612c21565b905095945050505050565b60006020820190506134296000830184612c12565b92915050565b600060208201905081810360008301526134498184612c8b565b905092915050565b6000602082019050818103600083015261346a81612cf5565b9050919050565b6000602082019050818103600083015261348a81612d5b565b9050919050565b600060208201905081810360008301526134aa81612dc1565b9050919050565b600060208201905081810360008301526134ca81612e01565b9050919050565b600060208201905081810360008301526134ea81612e67565b9050919050565b6000602082019050818103600083015261350a81612ea7565b9050919050565b6000602082019050818103600083015261352a81612f0d565b9050919050565b6000602082019050818103600083015261354a81612f73565b9050919050565b6000602082019050818103600083015261356a81612fd9565b9050919050565b6000602082019050818103600083015261358a8161303f565b9050919050565b600060208201905081810360008301526135aa816130a5565b9050919050565b600060208201905081810360008301526135ca816130e5565b9050919050565b600060208201905081810360008301526135ea8161314b565b9050919050565b6000602082019050818103600083015261360a816131b1565b9050919050565b6000602082019050818103600083015261362a81613217565b9050919050565b6000602082019050818103600083015261364a8161327d565b9050919050565b6000602082019050818103600083015261366a816132bd565b9050919050565b6000602082019050818103600083015261368a81613323565b9050919050565b60006020820190506136a66000830184613363565b92915050565b60006080820190506136c16000830187613363565b6136ce6020830186612c03565b6136db6040830185612c03565b6136e86060830184612c03565b95945050505050565b6000604051905081810181811067ffffffffffffffff8211171561371857613717613aa4565b5b8060405250919050565b600067ffffffffffffffff82111561373d5761373c613aa4565b5b601f19601f8301169050602081019050919050565b600067ffffffffffffffff82111561376d5761376c613aa4565b5b601f19601f8301169050602081019050919050565b600081519050919050565b600081519050919050565b600082825260208201905092915050565b600081905092915050565b600082825260208201905092915050565b600081905092915050565b60006137db826138f5565b91506137e6836138f5565b9250827fffffffffffffffffffffffffffffffffffffffffffffffffffffffffffffffff0382111561381b5761381a613a17565b5b828201905092915050565b6000613831826138f5565b915061383c836138f5565b92508261384c5761384b613a46565b5b828204905092915050565b6000613862826138f5565b915061386d836138f5565b9250828210156138805761387f613a17565b5b828203905092915050565b6000613896826138d5565b9050919050565b60008115159050919050565b60007fffffffff0000000000000000000000000000000000000000000000000000000082169050919050565b600073ffffffffffffffffffffffffffffffffffffffff82169050919050565b6000819050919050565b82818337600083830152505050565b60005b8381101561392c578082015181840152602081019050613911565b8381111561393b576000848401525b50505050565b600061394c826138f5565b915060008214156139605761395f613a17565b5b600182039050919050565b6000600282049050600182168061398357607f821691505b6020821081141561399757613996613a75565b5b50919050565b60006139a8826138f5565b91507fffffffffffffffffffffffffffffffffffffffffffffffffffffffffffffffff8214156139db576139da613a17565b5b600182019050919050565b60006139f1826138f5565b91506139fc836138f5565b925082613a0c57613a0b613a46565b5b828206905092915050565b7f4e487b7100000000000000000000000000000000000000000000000000000000600052601160045260246000fd5b7f4e487b7100000000000000000000000000000000000000000000000000000000600052601260045260246000fd5b7f4e487b7100000000000000000000000000000000000000000000000000000000600052602260045260246000fd5b7f4e487b7100000000000000000000000000000000000000000000000000000000600052604160045260246000fd5b6000601f19601f8301169050919050565b613aed8161388b565b8114613af857600080fd5b50565b613b048161389d565b8114613b0f57600080fd5b50565b613b1b816138a9565b8114613b2657600080fd5b50565b613b32816138f5565b8114613b3d57600080fd5b5056fe4552433732313a207472616e7366657220746f206e6f6e20455243373231526563656976657220696d706c656d656e7465724552433732313a206f776e657220717565727920666f72206e6f6e6578697374656e7420746f6b656ea264697066735822122096fb205bea41206db0a7f35950db456aa4efe3ed50203d1f46060b61b378901064736f6c63430008000033",
  "immutableReferences": {},
  "source": "// SPDX-License-Identifier: MIT\npragma solidity  <=0.8.0; //use 0.7.6 compiler\npragma abicoder v2;\n\n// import ERC721 iterface\nimport \"./ERC721.sol\";\n\n// CroSkulls smart contract inherits ERC721 interface\ncontract CroSkullsAmbassador is ERC721 {\n  using SafeMath for uint256;\n\n  string public collectionName;\n  string public collectionNameSymbol;\n  uint256 public croSkullCounter;\n  address public owner;\n  uint256 public waitDuration = 1 days;\n\n  mapping(uint256 => CroSkull) public allCroSkulls;\n  mapping(address => uint256) public addressMintedBalance;\n  mapping(address => uint256) public lastMintTimestamps;\n\n  struct CroSkull {\n    uint256 tokenId;\n    address mintedBy;\n    address currentOwner;\n    address previousOwner;\n  }\n\n  modifier onlyOwner() {\n    require(msg.sender == owner);\n    _;\n  }\n\n  // initialize contract while deployment with contract's collection name and token\n  constructor( ) ERC721(\"CroSkulls Test\", \"CST\") {\n    owner = msg.sender;\n    collectionName = name();\n    collectionNameSymbol = symbol();\n  }\n\n  function setBaseURI( string memory baseURI ) public onlyOwner {\n    _setBaseURI(baseURI);\n  }\n\n  // mint a new crypto boy\n  function mintCroSkulls() public {\n    address _to = msg.sender;\n    uint256 lastMint = lastMintTimestamps[_to];\n    uint256 currentTimestamp = block.timestamp;\n    uint256 timeDiff = currentTimestamp - lastMint;\n    require(  timeDiff >= waitDuration, \"ERR_LIMIT_REACHED\" );\n    lastMintTimestamps[_to] = currentTimestamp;\n    for (uint256 i = 1; i <= 10; i++) {\n      croSkullCounter++;\n      require(!_exists(croSkullCounter));\n      addressMintedBalance[_to]++;\n      _mint(_to, croSkullCounter);\n      CroSkull memory newCroSkull = CroSkull(\n        croSkullCounter,\n        _to,\n        _to,\n        address(0)\n      );\n      allCroSkulls[croSkullCounter] = newCroSkull;\n    }\n  }\n\n  function getOwner() public view returns(address) {\n    return owner;\n  }\n\n  function getTokenOwner(uint256 _tokenId) public view returns(address) {\n    address _tokenOwner = ownerOf(_tokenId);\n    return _tokenOwner;\n  }\n\n  function getTokenMetaData(uint _tokenId) public view returns(string memory) {\n    string memory tokenMetaData = tokenURI(_tokenId);\n    return tokenMetaData;\n  }\n\n  function getNumberOfTokensMinted() public view returns(uint256) {\n    uint256 totalNumberOfTokensMinted = totalSupply();\n    return totalNumberOfTokensMinted;\n  }\n\n  function getTotalNumberOfTokensOwnedByAnAddress(address _owner) public view returns(uint256) {\n    uint256 totalNumberOfTokensOwned = balanceOf(_owner);\n    return totalNumberOfTokensOwned;\n  }\n\n  function getTokenExists(uint256 _tokenId) public view returns(bool) {\n    bool tokenExists = _exists(_tokenId);\n    return tokenExists;\n  }\n}",
  "sourcePath": "/Users/alessandrodecristofaro/Desktop/DeFi Code/croskull-repo/src/contracts/CroSkullsAmbassador.sol",
  "compiler": {
    "name": "solc",
    "version": "0.8.0+commit.c7dfd78e.Emscripten.clang"
  },
  "schemaVersion": "3.4.3",
  "updatedAt": "2022-03-03T18:07:05.539Z",
  "devdoc": {
    "kind": "dev",
    "methods": {
      "approve(address,uint256)": {
        "details": "See {IERC721-approve}."
      },
      "balanceOf(address)": {
        "details": "See {IERC721-balanceOf}."
      },
      "baseURI()": {
        "details": "Returns the base URI set via {_setBaseURI}. This will be automatically added as a prefix in {tokenURI} to each token's URI, or to the token ID if no specific URI is set for that token ID."
      },
      "getApproved(uint256)": {
        "details": "See {IERC721-getApproved}."
      },
      "isApprovedForAll(address,address)": {
        "details": "See {IERC721-isApprovedForAll}."
      },
      "name()": {
        "details": "See {IERC721Metadata-name}."
      },
      "ownerOf(uint256)": {
        "details": "See {IERC721-ownerOf}."
      },
      "safeTransferFrom(address,address,uint256)": {
        "details": "See {IERC721-safeTransferFrom}."
      },
      "safeTransferFrom(address,address,uint256,bytes)": {
        "details": "See {IERC721-safeTransferFrom}."
      },
      "setApprovalForAll(address,bool)": {
        "details": "See {IERC721-setApprovalForAll}."
      },
      "supportsInterface(bytes4)": {
        "details": "See {IERC165-supportsInterface}. Time complexity O(1), guaranteed to always use less than 30 000 gas."
      },
      "symbol()": {
        "details": "See {IERC721Metadata-symbol}."
      },
      "tokenByIndex(uint256)": {
        "details": "See {IERC721Enumerable-tokenByIndex}."
      },
      "tokenOfOwnerByIndex(address,uint256)": {
        "details": "See {IERC721Enumerable-tokenOfOwnerByIndex}."
      },
      "tokenURI(uint256)": {
        "details": "See {IERC721Metadata-tokenURI}."
      },
      "totalSupply()": {
        "details": "See {IERC721Enumerable-totalSupply}."
      },
      "transferFrom(address,address,uint256)": {
        "details": "See {IERC721-transferFrom}."
      }
    },
    "version": 1
  },
  "userdoc": {
    "kind": "user",
    "methods": {},
    "version": 1
  }
}