{
  "contractName": "CroSkulls",
  "abi": [
    {
      "inputs": [
        {
          "internalType": "bool",
          "name": "_isMarketplace",
          "type": "bool"
        },
        {
          "internalType": "bool",
          "name": "_isWhitelist",
          "type": "bool"
        },
        {
          "internalType": "bool",
          "name": "_isWithdraw",
          "type": "bool"
        },
        {
          "internalType": "bool",
          "name": "_isMintable",
          "type": "bool"
        }
      ],
      "stateMutability": "nonpayable",
      "type": "constructor"
    },
    {
      "anonymous": false,
      "inputs": [
        {
          "indexed": true,
          "internalType": "address",
          "name": "owner",
          "type": "address"
        },
        {
          "indexed": true,
          "internalType": "address",
          "name": "approved",
          "type": "address"
        },
        {
          "indexed": true,
          "internalType": "uint256",
          "name": "tokenId",
          "type": "uint256"
        }
      ],
      "name": "Approval",
      "type": "event"
    },
    {
      "anonymous": false,
      "inputs": [
        {
          "indexed": true,
          "internalType": "address",
          "name": "owner",
          "type": "address"
        },
        {
          "indexed": true,
          "internalType": "address",
          "name": "operator",
          "type": "address"
        },
        {
          "indexed": false,
          "internalType": "bool",
          "name": "approved",
          "type": "bool"
        }
      ],
      "name": "ApprovalForAll",
      "type": "event"
    },
    {
      "anonymous": false,
      "inputs": [
        {
          "indexed": true,
          "internalType": "address",
          "name": "from",
          "type": "address"
        },
        {
          "indexed": true,
          "internalType": "address",
          "name": "to",
          "type": "address"
        },
        {
          "indexed": true,
          "internalType": "uint256",
          "name": "tokenId",
          "type": "uint256"
        }
      ],
      "name": "Transfer",
      "type": "event"
    },
    {
      "inputs": [
        {
          "internalType": "address",
          "name": "",
          "type": "address"
        }
      ],
      "name": "addressMintedBalance",
      "outputs": [
        {
          "internalType": "uint256",
          "name": "",
          "type": "uint256"
        }
      ],
      "stateMutability": "view",
      "type": "function"
    },
    {
      "inputs": [
        {
          "internalType": "uint256",
          "name": "",
          "type": "uint256"
        }
      ],
      "name": "allCroSkulls",
      "outputs": [
        {
          "internalType": "uint256",
          "name": "tokenId",
          "type": "uint256"
        },
        {
          "internalType": "address payable",
          "name": "mintedBy",
          "type": "address"
        },
        {
          "internalType": "address payable",
          "name": "currentOwner",
          "type": "address"
        },
        {
          "internalType": "address payable",
          "name": "previousOwner",
          "type": "address"
        },
        {
          "internalType": "uint256",
          "name": "price",
          "type": "uint256"
        },
        {
          "internalType": "uint256",
          "name": "numberOfTransfers",
          "type": "uint256"
        },
        {
          "internalType": "bool",
          "name": "forSale",
          "type": "bool"
        }
      ],
      "stateMutability": "view",
      "type": "function"
    },
    {
      "inputs": [
        {
          "internalType": "address",
          "name": "to",
          "type": "address"
        },
        {
          "internalType": "uint256",
          "name": "tokenId",
          "type": "uint256"
        }
      ],
      "name": "approve",
      "outputs": [],
      "stateMutability": "nonpayable",
      "type": "function"
    },
    {
      "inputs": [
        {
          "internalType": "address",
          "name": "owner",
          "type": "address"
        }
      ],
      "name": "balanceOf",
      "outputs": [
        {
          "internalType": "uint256",
          "name": "",
          "type": "uint256"
        }
      ],
      "stateMutability": "view",
      "type": "function"
    },
    {
      "inputs": [],
      "name": "baseURI",
      "outputs": [
        {
          "internalType": "string",
          "name": "",
          "type": "string"
        }
      ],
      "stateMutability": "view",
      "type": "function"
    },
    {
      "inputs": [],
      "name": "collectionName",
      "outputs": [
        {
          "internalType": "string",
          "name": "",
          "type": "string"
        }
      ],
      "stateMutability": "view",
      "type": "function"
    },
    {
      "inputs": [],
      "name": "collectionNameSymbol",
      "outputs": [
        {
          "internalType": "string",
          "name": "",
          "type": "string"
        }
      ],
      "stateMutability": "view",
      "type": "function"
    },
    {
      "inputs": [],
      "name": "cost",
      "outputs": [
        {
          "internalType": "uint256",
          "name": "",
          "type": "uint256"
        }
      ],
      "stateMutability": "view",
      "type": "function"
    },
    {
      "inputs": [],
      "name": "croSkullCounter",
      "outputs": [
        {
          "internalType": "uint256",
          "name": "",
          "type": "uint256"
        }
      ],
      "stateMutability": "view",
      "type": "function"
    },
    {
      "inputs": [
        {
          "internalType": "uint256",
          "name": "tokenId",
          "type": "uint256"
        }
      ],
      "name": "getApproved",
      "outputs": [
        {
          "internalType": "address",
          "name": "",
          "type": "address"
        }
      ],
      "stateMutability": "view",
      "type": "function"
    },
    {
      "inputs": [
        {
          "internalType": "address",
          "name": "owner",
          "type": "address"
        },
        {
          "internalType": "address",
          "name": "operator",
          "type": "address"
        }
      ],
      "name": "isApprovedForAll",
      "outputs": [
        {
          "internalType": "bool",
          "name": "",
          "type": "bool"
        }
      ],
      "stateMutability": "view",
      "type": "function"
    },
    {
      "inputs": [],
      "name": "manager",
      "outputs": [
        {
          "internalType": "address",
          "name": "",
          "type": "address"
        }
      ],
      "stateMutability": "view",
      "type": "function"
    },
    {
      "inputs": [],
      "name": "marketplaceFee",
      "outputs": [
        {
          "internalType": "uint256",
          "name": "",
          "type": "uint256"
        }
      ],
      "stateMutability": "view",
      "type": "function"
    },
    {
      "inputs": [],
      "name": "maxMintAmount",
      "outputs": [
        {
          "internalType": "uint256",
          "name": "",
          "type": "uint256"
        }
      ],
      "stateMutability": "view",
      "type": "function"
    },
    {
      "inputs": [],
      "name": "maxSupply",
      "outputs": [
        {
          "internalType": "uint256",
          "name": "",
          "type": "uint256"
        }
      ],
      "stateMutability": "view",
      "type": "function"
    },
    {
      "inputs": [],
      "name": "name",
      "outputs": [
        {
          "internalType": "string",
          "name": "",
          "type": "string"
        }
      ],
      "stateMutability": "view",
      "type": "function"
    },
    {
      "inputs": [],
      "name": "nftPerAddressLimit",
      "outputs": [
        {
          "internalType": "uint256",
          "name": "",
          "type": "uint256"
        }
      ],
      "stateMutability": "view",
      "type": "function"
    },
    {
      "inputs": [],
      "name": "owner",
      "outputs": [
        {
          "internalType": "address",
          "name": "",
          "type": "address"
        }
      ],
      "stateMutability": "view",
      "type": "function"
    },
    {
      "inputs": [
        {
          "internalType": "uint256",
          "name": "tokenId",
          "type": "uint256"
        }
      ],
      "name": "ownerOf",
      "outputs": [
        {
          "internalType": "address",
          "name": "",
          "type": "address"
        }
      ],
      "stateMutability": "view",
      "type": "function"
    },
    {
      "inputs": [
        {
          "internalType": "address",
          "name": "",
          "type": "address"
        }
      ],
      "name": "rewardableUsers",
      "outputs": [
        {
          "internalType": "uint256",
          "name": "",
          "type": "uint256"
        }
      ],
      "stateMutability": "view",
      "type": "function"
    },
    {
      "inputs": [
        {
          "internalType": "address",
          "name": "from",
          "type": "address"
        },
        {
          "internalType": "address",
          "name": "to",
          "type": "address"
        },
        {
          "internalType": "uint256",
          "name": "tokenId",
          "type": "uint256"
        }
      ],
      "name": "safeTransferFrom",
      "outputs": [],
      "stateMutability": "nonpayable",
      "type": "function"
    },
    {
      "inputs": [
        {
          "internalType": "address",
          "name": "from",
          "type": "address"
        },
        {
          "internalType": "address",
          "name": "to",
          "type": "address"
        },
        {
          "internalType": "uint256",
          "name": "tokenId",
          "type": "uint256"
        },
        {
          "internalType": "bytes",
          "name": "_data",
          "type": "bytes"
        }
      ],
      "name": "safeTransferFrom",
      "outputs": [],
      "stateMutability": "nonpayable",
      "type": "function"
    },
    {
      "inputs": [
        {
          "internalType": "address",
          "name": "operator",
          "type": "address"
        },
        {
          "internalType": "bool",
          "name": "approved",
          "type": "bool"
        }
      ],
      "name": "setApprovalForAll",
      "outputs": [],
      "stateMutability": "nonpayable",
      "type": "function"
    },
    {
      "inputs": [
        {
          "internalType": "string",
          "name": "",
          "type": "string"
        }
      ],
      "name": "settings",
      "outputs": [
        {
          "internalType": "bool",
          "name": "",
          "type": "bool"
        }
      ],
      "stateMutability": "view",
      "type": "function"
    },
    {
      "inputs": [
        {
          "internalType": "bytes4",
          "name": "interfaceId",
          "type": "bytes4"
        }
      ],
      "name": "supportsInterface",
      "outputs": [
        {
          "internalType": "bool",
          "name": "",
          "type": "bool"
        }
      ],
      "stateMutability": "view",
      "type": "function"
    },
    {
      "inputs": [],
      "name": "symbol",
      "outputs": [
        {
          "internalType": "string",
          "name": "",
          "type": "string"
        }
      ],
      "stateMutability": "view",
      "type": "function"
    },
    {
      "inputs": [
        {
          "internalType": "uint256",
          "name": "index",
          "type": "uint256"
        }
      ],
      "name": "tokenByIndex",
      "outputs": [
        {
          "internalType": "uint256",
          "name": "",
          "type": "uint256"
        }
      ],
      "stateMutability": "view",
      "type": "function"
    },
    {
      "inputs": [
        {
          "internalType": "address",
          "name": "owner",
          "type": "address"
        },
        {
          "internalType": "uint256",
          "name": "index",
          "type": "uint256"
        }
      ],
      "name": "tokenOfOwnerByIndex",
      "outputs": [
        {
          "internalType": "uint256",
          "name": "",
          "type": "uint256"
        }
      ],
      "stateMutability": "view",
      "type": "function"
    },
    {
      "inputs": [
        {
          "internalType": "uint256",
          "name": "tokenId",
          "type": "uint256"
        }
      ],
      "name": "tokenURI",
      "outputs": [
        {
          "internalType": "string",
          "name": "",
          "type": "string"
        }
      ],
      "stateMutability": "view",
      "type": "function"
    },
    {
      "inputs": [],
      "name": "totalCROVolume",
      "outputs": [
        {
          "internalType": "uint256",
          "name": "",
          "type": "uint256"
        }
      ],
      "stateMutability": "view",
      "type": "function"
    },
    {
      "inputs": [],
      "name": "totalRewardPercent",
      "outputs": [
        {
          "internalType": "uint256",
          "name": "",
          "type": "uint256"
        }
      ],
      "stateMutability": "view",
      "type": "function"
    },
    {
      "inputs": [],
      "name": "totalSupply",
      "outputs": [
        {
          "internalType": "uint256",
          "name": "",
          "type": "uint256"
        }
      ],
      "stateMutability": "view",
      "type": "function"
    },
    {
      "inputs": [
        {
          "internalType": "address",
          "name": "from",
          "type": "address"
        },
        {
          "internalType": "address",
          "name": "to",
          "type": "address"
        },
        {
          "internalType": "uint256",
          "name": "tokenId",
          "type": "uint256"
        }
      ],
      "name": "transferFrom",
      "outputs": [],
      "stateMutability": "nonpayable",
      "type": "function"
    },
    {
      "inputs": [
        {
          "internalType": "address",
          "name": "",
          "type": "address"
        }
      ],
      "name": "userClaimedRewards",
      "outputs": [
        {
          "internalType": "uint256",
          "name": "",
          "type": "uint256"
        }
      ],
      "stateMutability": "view",
      "type": "function"
    },
    {
      "inputs": [
        {
          "internalType": "address",
          "name": "",
          "type": "address"
        }
      ],
      "name": "whitelist",
      "outputs": [
        {
          "internalType": "bool",
          "name": "",
          "type": "bool"
        }
      ],
      "stateMutability": "view",
      "type": "function"
    },
    {
      "inputs": [
        {
          "internalType": "string",
          "name": "baseURI",
          "type": "string"
        }
      ],
      "name": "setBaseURI",
      "outputs": [],
      "stateMutability": "nonpayable",
      "type": "function"
    },
    {
      "inputs": [],
      "name": "getMaxSupply",
      "outputs": [
        {
          "internalType": "uint256",
          "name": "",
          "type": "uint256"
        }
      ],
      "stateMutability": "view",
      "type": "function"
    },
    {
      "inputs": [],
      "name": "getCost",
      "outputs": [
        {
          "internalType": "uint256",
          "name": "",
          "type": "uint256"
        }
      ],
      "stateMutability": "view",
      "type": "function"
    },
    {
      "inputs": [
        {
          "internalType": "address",
          "name": "_address",
          "type": "address"
        }
      ],
      "name": "addToWhitelist",
      "outputs": [],
      "stateMutability": "nonpayable",
      "type": "function"
    },
    {
      "inputs": [
        {
          "internalType": "uint256",
          "name": "_fee",
          "type": "uint256"
        }
      ],
      "name": "setMarketplaceFee",
      "outputs": [],
      "stateMutability": "nonpayable",
      "type": "function"
    },
    {
      "inputs": [
        {
          "internalType": "uint256",
          "name": "_mintAmount",
          "type": "uint256"
        }
      ],
      "name": "mintCroSkull",
      "outputs": [],
      "stateMutability": "payable",
      "type": "function"
    },
    {
      "inputs": [],
      "name": "getOwner",
      "outputs": [
        {
          "internalType": "address",
          "name": "",
          "type": "address"
        }
      ],
      "stateMutability": "view",
      "type": "function"
    },
    {
      "inputs": [],
      "name": "getManager",
      "outputs": [
        {
          "internalType": "address",
          "name": "",
          "type": "address"
        }
      ],
      "stateMutability": "view",
      "type": "function"
    },
    {
      "inputs": [
        {
          "internalType": "address",
          "name": "_manager",
          "type": "address"
        }
      ],
      "name": "setManager",
      "outputs": [],
      "stateMutability": "nonpayable",
      "type": "function"
    },
    {
      "inputs": [
        {
          "internalType": "uint256",
          "name": "_tokenId",
          "type": "uint256"
        }
      ],
      "name": "getTokenOwner",
      "outputs": [
        {
          "internalType": "address",
          "name": "",
          "type": "address"
        }
      ],
      "stateMutability": "view",
      "type": "function"
    },
    {
      "inputs": [
        {
          "internalType": "uint256",
          "name": "_tokenId",
          "type": "uint256"
        }
      ],
      "name": "getTokenMetaData",
      "outputs": [
        {
          "internalType": "string",
          "name": "",
          "type": "string"
        }
      ],
      "stateMutability": "view",
      "type": "function"
    },
    {
      "inputs": [],
      "name": "getNumberOfTokensMinted",
      "outputs": [
        {
          "internalType": "uint256",
          "name": "",
          "type": "uint256"
        }
      ],
      "stateMutability": "view",
      "type": "function"
    },
    {
      "inputs": [
        {
          "internalType": "address",
          "name": "_owner",
          "type": "address"
        }
      ],
      "name": "getTotalNumberOfTokensOwnedByAnAddress",
      "outputs": [
        {
          "internalType": "uint256",
          "name": "",
          "type": "uint256"
        }
      ],
      "stateMutability": "view",
      "type": "function"
    },
    {
      "inputs": [
        {
          "internalType": "uint256",
          "name": "_tokenId",
          "type": "uint256"
        }
      ],
      "name": "getTokenExists",
      "outputs": [
        {
          "internalType": "bool",
          "name": "",
          "type": "bool"
        }
      ],
      "stateMutability": "view",
      "type": "function"
    },
    {
      "inputs": [
        {
          "internalType": "uint256",
          "name": "_tokenId",
          "type": "uint256"
        }
      ],
      "name": "buyToken",
      "outputs": [],
      "stateMutability": "payable",
      "type": "function"
    },
    {
      "inputs": [
        {
          "internalType": "uint256",
          "name": "_tokenId",
          "type": "uint256"
        },
        {
          "internalType": "uint256",
          "name": "_newPrice",
          "type": "uint256"
        }
      ],
      "name": "changeTokenPrice",
      "outputs": [],
      "stateMutability": "nonpayable",
      "type": "function"
    },
    {
      "inputs": [
        {
          "internalType": "uint256",
          "name": "_tokenId",
          "type": "uint256"
        }
      ],
      "name": "toggleForSale",
      "outputs": [],
      "stateMutability": "nonpayable",
      "type": "function"
    },
    {
      "inputs": [
        {
          "internalType": "string",
          "name": "_settings",
          "type": "string"
        }
      ],
      "name": "toggleSetting",
      "outputs": [],
      "stateMutability": "nonpayable",
      "type": "function"
    },
    {
      "inputs": [
        {
          "internalType": "uint256",
          "name": "_limit",
          "type": "uint256"
        }
      ],
      "name": "setNftPerAddressLimit",
      "outputs": [],
      "stateMutability": "nonpayable",
      "type": "function"
    },
    {
      "inputs": [
        {
          "internalType": "uint256",
          "name": "_newCost",
          "type": "uint256"
        }
      ],
      "name": "setCost",
      "outputs": [],
      "stateMutability": "nonpayable",
      "type": "function"
    },
    {
      "inputs": [
        {
          "internalType": "uint256",
          "name": "_newmaxMintAmount",
          "type": "uint256"
        }
      ],
      "name": "setmaxMintAmount",
      "outputs": [],
      "stateMutability": "nonpayable",
      "type": "function"
    },
    {
      "inputs": [
        {
          "internalType": "address",
          "name": "_rewardableAddress",
          "type": "address"
        },
        {
          "internalType": "uint256",
          "name": "_percent",
          "type": "uint256"
        }
      ],
      "name": "addRewardable",
      "outputs": [],
      "stateMutability": "nonpayable",
      "type": "function"
    },
    {
      "inputs": [],
      "name": "withdrawReward",
      "outputs": [],
      "stateMutability": "payable",
      "type": "function"
    },
    {
      "inputs": [],
      "name": "getRewardValue",
      "outputs": [
        {
          "internalType": "uint256",
          "name": "",
          "type": "uint256"
        }
      ],
      "stateMutability": "view",
      "type": "function"
    },
    {
      "inputs": [],
      "name": "getRewardFee",
      "outputs": [
        {
          "internalType": "uint256",
          "name": "",
          "type": "uint256"
        }
      ],
      "stateMutability": "view",
      "type": "function"
    }
  ],
  "bytecode": "0x60806040526000600d55611a0a600e556005600f556005601055600460115560006015553480156200003057600080fd5b50604051620066f6380380620066f68339818101604052810190620000569190620005eb565b6040518060400160405280600881526020017f43524f536b756c6c0000000000000000000000000000000000000000000000008152506040518060400160405280600381526020017f4352530000000000000000000000000000000000000000000000000000000000815250620000da6301ffc9a760e01b620002c960201b60201c565b8160069080519060200190620000f29291906200051e565b5080600790805190602001906200010b9291906200051e565b50620001246380ac58cd60e01b620002c960201b60201c565b6200013c635b5e139f60e01b620002c960201b60201c565b6200015463780e9d6360e01b620002c960201b60201c565b505033601360006101000a81548173ffffffffffffffffffffffffffffffffffffffff021916908373ffffffffffffffffffffffffffffffffffffffff160217905550620001a7620003d260201b60201c565b600a9080519060200190620001be9291906200051e565b50620001cf6200047860201b60201c565b600b9080519060200190620001e69291906200051e565b50836018604051620001f890620007a4565b908152602001604051809103902060006101000a81548160ff0219169083151502179055508260186040516200022e906200075f565b908152602001604051809103902060006101000a81548160ff02191690831515021790555081601860405162000264906200078d565b908152602001604051809103902060006101000a81548160ff0219169083151502179055508060186040516200029a9062000776565b908152602001604051809103902060006101000a81548160ff02191690831515021790555050505050620007ec565b63ffffffff60e01b817bffffffffffffffffffffffffffffffffffffffffffffffffffffffff1916141562000366576040517f08c379a000000000000000000000000000000000000000000000000000000000815260040180806020018281038252601c8152602001807f4552433136353a20696e76616c696420696e746572666163652069640000000081525060200191505060405180910390fd5b6001600080837bffffffffffffffffffffffffffffffffffffffffffffffffffffffff19167bffffffffffffffffffffffffffffffffffffffffffffffffffffffff1916815260200190815260200160002060006101000a81548160ff02191690831515021790555050565b606060068054600181600116156101000203166002900480601f0160208091040260200160405190810160405280929190818152602001828054600181600116156101000203166002900480156200046e5780601f1062000442576101008083540402835291602001916200046e565b820191906000526020600020905b8154815290600101906020018083116200045057829003601f168201915b5050505050905090565b606060078054600181600116156101000203166002900480601f016020809104026020016040519081016040528092919081815260200182805460018160011615610100020316600290048015620005145780601f10620004e85761010080835404028352916020019162000514565b820191906000526020600020905b815481529060010190602001808311620004f657829003601f168201915b5050505050905090565b828054600181600116156101000203166002900490600052602060002090601f016020900481019282620005565760008555620005a2565b82601f106200057157805160ff1916838001178555620005a2565b82800160010185558215620005a2579182015b82811115620005a157825182559160200191906001019062000584565b5b509050620005b19190620005b5565b5090565b5b80821115620005d0576000816000905550600101620005b6565b5090565b600081519050620005e581620007d2565b92915050565b600080600080608085870312156200060257600080fd5b60006200061287828801620005d4565b94505060206200062587828801620005d4565b93505060406200063887828801620005d4565b92505060606200064b87828801620005d4565b91505092959194509250565b600062000666600b83620007bb565b91507f697357686974656c6973740000000000000000000000000000000000000000006000830152600b82019050919050565b6000620006a8600a83620007bb565b91507f69734d696e7461626c65000000000000000000000000000000000000000000006000830152600a82019050919050565b6000620006ea600a83620007bb565b91507f69735769746864726177000000000000000000000000000000000000000000006000830152600a82019050919050565b60006200072c600d83620007bb565b91507f69734d61726b6574706c616365000000000000000000000000000000000000006000830152600d82019050919050565b60006200076c8262000657565b9150819050919050565b6000620007838262000699565b9150819050919050565b60006200079a82620006db565b9150819050919050565b6000620007b1826200071d565b9150819050919050565b600081905092915050565b60008115159050919050565b620007dd81620007c6565b8114620007e957600080fd5b50565b615efa80620007fc6000396000f3fe6080604052600436106103965760003560e01c806370a08231116101dc578063b46fcf6d11610102578063d0eb26b0116100a0578063d5abeb011161006f578063d5abeb0114610dde578063e43252d714610e09578063e5326ab114610e32578063e985e9c514610e5d57610396565b8063d0eb26b014610d36578063d0ebdbe714610d5f578063d34f6ecb14610d88578063d500958414610db357610396565b8063bd3e19d4116100dc578063bd3e19d414610c99578063c87b56dd14610cc4578063c885bc5814610d01578063cc151f3a14610d0b57610396565b8063b46fcf6d14610c1a578063b88d4fde14610c45578063ba7d2c7614610c6e57610396565b80638da5cb5b1161017a5780639b19251a116101495780639b19251a14610b4e578063a22cb46514610b8b578063a32018b914610bb4578063a5cd761f14610bdd57610396565b80638da5cb5b14610a8c5780639407ea9814610ab757806395d89b4114610ae05780639a59758f14610b0b57610396565b80637f00c7a6116101b65780637f00c7a6146109e45780637fe6303c14610a0d578063893d20e814610a385780638b84eaad14610a6357610396565b806370a0823114610953578063710559ac1461099057806376289f38146109b957610396565b806342842e0e116102c157806362e8e8ac1161025f5780636a1669641161022e5780636a166964146108955780636c0360eb146108c05780636d7ad395146108eb5780636f9507f91461092857610396565b806362e8e8ac146107d65780636352211e146107ff57806367c623cf1461083c5780636943ed941461087957610396565b8063481c6a751161029b578063481c6a751461071a5780634c0f38c2146107455780634f6ccce71461077057806355f804b3146107ad57610396565b806342842e0e1461068b57806343902850146106b457806344a0d68a146106f157610396565b8063142687f31161033957806323b872dd1161030857806323b872dd146105cc5780632d296bf1146105f55780632f745c59146106115780633687a4411461064e57610396565b8063142687f3146104fc57806318160ddd1461053957806318cae26914610564578063239c70ae146105a157610396565b8063081812fc11610375578063081812fc14610440578063095ea7b31461047d5780630f2bdef6146104a657806313faede6146104d157610396565b8062f1197c1461039b57806301ffc9a7146103d857806306fdde0314610415575b600080fd5b3480156103a757600080fd5b506103c260048036038101906103bd91906152a9565b610e9a565b6040516103cf91906159d2565b60405180910390f35b3480156103e457600080fd5b506103ff60048036038101906103fa9190615450565b610eb2565b60405161040c91906158f5565b60405180910390f35b34801561042157600080fd5b5061042a610f19565b6040516104379190615910565b60405180910390f35b34801561044c57600080fd5b50610467600480360381019061046291906154ff565b610fbb565b60405161047491906158da565b60405180910390f35b34801561048957600080fd5b506104a4600480360381019061049f9190615414565b611056565b005b3480156104b257600080fd5b506104bb61119a565b6040516104c891906159d2565b60405180910390f35b3480156104dd57600080fd5b506104e6611257565b6040516104f391906159d2565b60405180910390f35b34801561050857600080fd5b50610523600480360381019061051e91906154ff565b61125d565b60405161053091906158f5565b60405180910390f35b34801561054557600080fd5b5061054e611274565b60405161055b91906159d2565b60405180910390f35b34801561057057600080fd5b5061058b600480360381019061058691906152a9565b611285565b60405161059891906159d2565b60405180910390f35b3480156105ad57600080fd5b506105b661129d565b6040516105c391906159d2565b60405180910390f35b3480156105d857600080fd5b506105f360048036038101906105ee919061530e565b6112a3565b005b61060f600480360381019061060a91906154ff565b611319565b005b34801561061d57600080fd5b5061063860048036038101906106339190615414565b61187b565b60405161064591906159d2565b60405180910390f35b34801561065a57600080fd5b50610675600480360381019061067091906152a9565b6118d6565b60405161068291906159d2565b60405180910390f35b34801561069757600080fd5b506106b260048036038101906106ad919061530e565b6118ee565b005b3480156106c057600080fd5b506106db60048036038101906106d691906152a9565b61190e565b6040516106e891906159d2565b60405180910390f35b3480156106fd57600080fd5b50610718600480360381019061071391906154ff565b611925565b005b34801561072657600080fd5b5061072f611a15565b60405161073c91906158da565b60405180910390f35b34801561075157600080fd5b5061075a611a3b565b60405161076791906159d2565b60405180910390f35b34801561077c57600080fd5b50610797600480360381019061079291906154ff565b611a45565b6040516107a491906159d2565b60405180910390f35b3480156107b957600080fd5b506107d460048036038101906107cf91906154be565b611a68565b005b3480156107e257600080fd5b506107fd60048036038101906107f89190615528565b611ace565b005b34801561080b57600080fd5b50610826600480360381019061082191906154ff565b611e5f565b60405161083391906158da565b60405180910390f35b34801561084857600080fd5b50610863600480360381019061085e91906154ff565b611e96565b6040516108709190615910565b60405180910390f35b610893600480360381019061088e91906154ff565b611eae565b005b3480156108a157600080fd5b506108aa612374565b6040516108b791906159d2565b60405180910390f35b3480156108cc57600080fd5b506108d561237a565b6040516108e29190615910565b60405180910390f35b3480156108f757600080fd5b50610912600480360381019061090d91906154be565b61241c565b60405161091f91906158f5565b60405180910390f35b34801561093457600080fd5b5061093d612452565b60405161094a9190615910565b60405180910390f35b34801561095f57600080fd5b5061097a600480360381019061097591906152a9565b6124f0565b60405161098791906159d2565b60405180910390f35b34801561099c57600080fd5b506109b760048036038101906109b29190615479565b6125c5565b005b3480156109c557600080fd5b506109ce612715565b6040516109db91906159d2565b60405180910390f35b3480156109f057600080fd5b50610a0b6004803603810190610a0691906154ff565b61275c565b005b348015610a1957600080fd5b50610a2261284c565b604051610a2f91906159d2565b60405180910390f35b348015610a4457600080fd5b50610a4d612852565b604051610a5a91906158da565b60405180910390f35b348015610a6f57600080fd5b50610a8a6004803603810190610a859190615414565b61287c565b005b348015610a9857600080fd5b50610aa16129a6565b604051610aae91906158da565b60405180910390f35b348015610ac357600080fd5b50610ade6004803603810190610ad991906154ff565b6129cc565b005b348015610aec57600080fd5b50610af5612acb565b604051610b029190615910565b60405180910390f35b348015610b1757600080fd5b50610b326004803603810190610b2d91906154ff565b612b6d565b604051610b4597969594939291906159ed565b60405180910390f35b348015610b5a57600080fd5b50610b756004803603810190610b7091906152a9565b612c1c565b604051610b8291906158f5565b60405180910390f35b348015610b9757600080fd5b50610bb26004803603810190610bad91906153d8565b612c3c565b005b348015610bc057600080fd5b50610bdb6004803603810190610bd691906154ff565b612df2565b005b348015610be957600080fd5b50610c046004803603810190610bff91906154ff565b6131aa565b604051610c1191906158da565b60405180910390f35b348015610c2657600080fd5b50610c2f6131c1565b604051610c3c91906159d2565b60405180910390f35b348015610c5157600080fd5b50610c6c6004803603810190610c67919061535d565b6131c7565b005b348015610c7a57600080fd5b50610c8361323f565b604051610c9091906159d2565b60405180910390f35b348015610ca557600080fd5b50610cae613245565b604051610cbb91906159d2565b60405180910390f35b348015610cd057600080fd5b50610ceb6004803603810190610ce691906154ff565b61324f565b604051610cf89190615910565b60405180910390f35b610d09613520565b005b348015610d1757600080fd5b50610d206136b3565b604051610d2d91906159d2565b60405180910390f35b348015610d4257600080fd5b50610d5d6004803603810190610d5891906154ff565b6136c7565b005b348015610d6b57600080fd5b50610d866004803603810190610d8191906152a9565b6137b7565b005b348015610d9457600080fd5b50610d9d6138ea565b604051610daa91906159d2565b60405180910390f35b348015610dbf57600080fd5b50610dc86138f0565b604051610dd591906158da565b60405180910390f35b348015610dea57600080fd5b50610df361391a565b604051610e0091906159d2565b60405180910390f35b348015610e1557600080fd5b50610e306004803603810190610e2b91906152a9565b613920565b005b348015610e3e57600080fd5b50610e47613aeb565b604051610e549190615910565b60405180910390f35b348015610e6957600080fd5b50610e846004803603810190610e7f91906152d2565b613b89565b604051610e9191906158f5565b60405180910390f35b601b6020528060005260406000206000915090505481565b6000806000837bffffffffffffffffffffffffffffffffffffffffffffffffffffffff19167bffffffffffffffffffffffffffffffffffffffffffffffffffffffff1916815260200190815260200160002060009054906101000a900460ff169050919050565b606060068054600181600116156101000203166002900480601f016020809104026020016040519081016040528092919081815260200182805460018160011615610100020316600290048015610fb15780601f10610f8657610100808354040283529160200191610fb1565b820191906000526020600020905b815481529060010190602001808311610f9457829003601f168201915b5050505050905090565b6000610fc682613c1d565b61101b576040517f08c379a000000000000000000000000000000000000000000000000000000000815260040180806020018281038252602c815260200180615def602c913960400191505060405180910390fd5b6004600083815260200190815260200160002060009054906101000a900473ffffffffffffffffffffffffffffffffffffffff169050919050565b600061106182611e5f565b90508073ffffffffffffffffffffffffffffffffffffffff168373ffffffffffffffffffffffffffffffffffffffff1614156110e8576040517f08c379a0000000000000000000000000000000000000000000000000000000008152600401808060200182810382526021815260200180615e736021913960400191505060405180910390fd5b8073ffffffffffffffffffffffffffffffffffffffff16611107613c3a565b73ffffffffffffffffffffffffffffffffffffffff161480611136575061113581611130613c3a565b613b89565b5b61118b576040517f08c379a0000000000000000000000000000000000000000000000000000000008152600401808060200182810382526038815260200180615d216038913960400191505060405180910390fd5b6111958383613c42565b505050565b6000806111a5612715565b905060008082116111b557600080fd5b60006111e0836111d26103e8601554613cfb90919063ffffffff16565b613d8490919063ffffffff16565b90506000601b60003373ffffffffffffffffffffffffffffffffffffffff1673ffffffffffffffffffffffffffffffffffffffff1681526020019081526020016000205490506000811115611249576112428183613e0a90919063ffffffff16565b925061124d565b8192505b8294505050505090565b600d5481565b60008061126983613c1d565b905080915050919050565b60006112806002613e8d565b905090565b60176020528060005260406000206000915090505481565b600f5481565b6112b46112ae613c3a565b82613ea2565b611309576040517f08c379a0000000000000000000000000000000000000000000000000000000008152600401808060200182810382526031815260200180615e946031913960400191505060405180910390fd5b611314838383613f96565b505050565b6018604051611327906158c5565b908152602001604051809103902060009054906101000a900460ff16611382576040517f08c379a000000000000000000000000000000000000000000000000000000000815260040161137990615952565b60405180910390fd5b6018604051611390906158c5565b908152602001604051809103902060009054906101000a900460ff166113b557600080fd5b600073ffffffffffffffffffffffffffffffffffffffff163373ffffffffffffffffffffffffffffffffffffffff1614156113ef57600080fd5b6113f881613c1d565b61140157600080fd5b600061140c82611e5f565b9050600073ffffffffffffffffffffffffffffffffffffffff168173ffffffffffffffffffffffffffffffffffffffff16141561144857600080fd5b3373ffffffffffffffffffffffffffffffffffffffff168173ffffffffffffffffffffffffffffffffffffffff16141561148157600080fd5b6000601660008481526020019081526020016000206040518060e0016040529081600082015481526020016001820160009054906101000a900473ffffffffffffffffffffffffffffffffffffffff1673ffffffffffffffffffffffffffffffffffffffff1673ffffffffffffffffffffffffffffffffffffffff1681526020016002820160009054906101000a900473ffffffffffffffffffffffffffffffffffffffff1673ffffffffffffffffffffffffffffffffffffffff1673ffffffffffffffffffffffffffffffffffffffff1681526020016003820160009054906101000a900473ffffffffffffffffffffffffffffffffffffffff1673ffffffffffffffffffffffffffffffffffffffff1673ffffffffffffffffffffffffffffffffffffffff16815260200160048201548152602001600582015481526020016006820160009054906101000a900460ff161515151581525050905080608001513410156115ef57600080fd5b8060c001516115fd57600080fd5b611608823385613f96565b600081604001519050600061163e606461163060115460640334613d8490919063ffffffff16565b613cfb90919063ffffffff16565b90508173ffffffffffffffffffffffffffffffffffffffff166108fc829081150290604051600060405180830381858888f19350505050158015611686573d6000803e3d6000fd5b508260400151836060019073ffffffffffffffffffffffffffffffffffffffff16908173ffffffffffffffffffffffffffffffffffffffff168152505033836040019073ffffffffffffffffffffffffffffffffffffffff16908173ffffffffffffffffffffffffffffffffffffffff168152505060018360a001818151019150818152505060008360c001901515908115158152505082601660008781526020019081526020016000206000820151816000015560208201518160010160006101000a81548173ffffffffffffffffffffffffffffffffffffffff021916908373ffffffffffffffffffffffffffffffffffffffff16021790555060408201518160020160006101000a81548173ffffffffffffffffffffffffffffffffffffffff021916908373ffffffffffffffffffffffffffffffffffffffff16021790555060608201518160030160006101000a81548173ffffffffffffffffffffffffffffffffffffffff021916908373ffffffffffffffffffffffffffffffffffffffff1602179055506080820151816004015560a0820151816005015560c08201518160060160006101000a81548160ff02191690831515021790555090505061186e61185d8234613e0a90919063ffffffff16565b6015546141d990919063ffffffff16565b6015819055505050505050565b60006118ce82600160008673ffffffffffffffffffffffffffffffffffffffff1673ffffffffffffffffffffffffffffffffffffffff16815260200190815260200160002061426190919063ffffffff16565b905092915050565b601a6020528060005260406000206000915090505481565b611909838383604051806020016040528060008152506131c7565b505050565b60008061191a836124f0565b905080915050919050565b601360009054906101000a900473ffffffffffffffffffffffffffffffffffffffff1673ffffffffffffffffffffffffffffffffffffffff163373ffffffffffffffffffffffffffffffffffffffff1614611a0b57601460009054906101000a900473ffffffffffffffffffffffffffffffffffffffff1673ffffffffffffffffffffffffffffffffffffffff163373ffffffffffffffffffffffffffffffffffffffff1614611a0a576040517f08c379a0000000000000000000000000000000000000000000000000000000008152600401611a01906159b2565b60405180910390fd5b5b80600d8190555050565b601460009054906101000a900473ffffffffffffffffffffffffffffffffffffffff1681565b6000600e54905090565b600080611a5c83600261427b90919063ffffffff16565b50905080915050919050565b601360009054906101000a900473ffffffffffffffffffffffffffffffffffffffff1673ffffffffffffffffffffffffffffffffffffffff163373ffffffffffffffffffffffffffffffffffffffff1614611ac257600080fd5b611acb816142a7565b50565b6018604051611adc906158c5565b908152602001604051809103902060009054906101000a900460ff16611b37576040517f08c379a0000000000000000000000000000000000000000000000000000000008152600401611b2e90615952565b60405180910390fd5b600073ffffffffffffffffffffffffffffffffffffffff163373ffffffffffffffffffffffffffffffffffffffff161415611b7157600080fd5b611b7a82613c1d565b611b8357600080fd5b6000611b8e83611e5f565b90503373ffffffffffffffffffffffffffffffffffffffff168173ffffffffffffffffffffffffffffffffffffffff1614611bc857600080fd5b6000601660008581526020019081526020016000206040518060e0016040529081600082015481526020016001820160009054906101000a900473ffffffffffffffffffffffffffffffffffffffff1673ffffffffffffffffffffffffffffffffffffffff1673ffffffffffffffffffffffffffffffffffffffff1681526020016002820160009054906101000a900473ffffffffffffffffffffffffffffffffffffffff1673ffffffffffffffffffffffffffffffffffffffff1673ffffffffffffffffffffffffffffffffffffffff1681526020016003820160009054906101000a900473ffffffffffffffffffffffffffffffffffffffff1673ffffffffffffffffffffffffffffffffffffffff1673ffffffffffffffffffffffffffffffffffffffff16815260200160048201548152602001600582015481526020016006820160009054906101000a900460ff16151515158152505090508281608001818152505080601660008681526020019081526020016000206000820151816000015560208201518160010160006101000a81548173ffffffffffffffffffffffffffffffffffffffff021916908373ffffffffffffffffffffffffffffffffffffffff16021790555060408201518160020160006101000a81548173ffffffffffffffffffffffffffffffffffffffff021916908373ffffffffffffffffffffffffffffffffffffffff16021790555060608201518160030160006101000a81548173ffffffffffffffffffffffffffffffffffffffff021916908373ffffffffffffffffffffffffffffffffffffffff1602179055506080820151816004015560a0820151816005015560c08201518160060160006101000a81548160ff02191690831515021790555090505050505050565b6000611e8f82604051806060016040528060298152602001615d836029913960026142c19092919063ffffffff16565b9050919050565b60606000611ea38361324f565b905080915050919050565b6018604051611ebc90615871565b908152602001604051809103902060009054906101000a900460ff1615611f6a57601960003373ffffffffffffffffffffffffffffffffffffffff1673ffffffffffffffffffffffffffffffffffffffff16815260200190815260200160002060009054906101000a900460ff16611f69576040517f08c379a0000000000000000000000000000000000000000000000000000000008152600401611f6090615992565b60405180910390fd5b5b601360009054906101000a900473ffffffffffffffffffffffffffffffffffffffff1673ffffffffffffffffffffffffffffffffffffffff163373ffffffffffffffffffffffffffffffffffffffff161415806120155750601460009054906101000a900473ffffffffffffffffffffffffffffffffffffffff1673ffffffffffffffffffffffffffffffffffffffff163373ffffffffffffffffffffffffffffffffffffffff1614155b1561208457601860405161202890615886565b908152602001604051809103902060009054906101000a900460ff16612083576040517f08c379a000000000000000000000000000000000000000000000000000000000815260040161207a90615972565b60405180910390fd5b5b600073ffffffffffffffffffffffffffffffffffffffff163373ffffffffffffffffffffffffffffffffffffffff1614156120be57600080fd5b600081116120cb57600080fd5b600f548111156120da57600080fd5b80600d54023410156120eb57600080fd5b60006120f5611274565b9050600e54828201111561210857600080fd5b6000600190505b82811161235457600c60008154809291906001019190505550612133600c54613c1d565b1561213d57600080fd5b601760003373ffffffffffffffffffffffffffffffffffffffff1673ffffffffffffffffffffffffffffffffffffffff1681526020019081526020016000206000815480929190600101919050555061219833600c546142e0565b60006040518060e00160405280600c5481526020013373ffffffffffffffffffffffffffffffffffffffff1681526020013373ffffffffffffffffffffffffffffffffffffffff168152602001600073ffffffffffffffffffffffffffffffffffffffff168152602001600d548152602001600081526020016000151581525090508060166000600c5481526020019081526020016000206000820151816000015560208201518160010160006101000a81548173ffffffffffffffffffffffffffffffffffffffff021916908373ffffffffffffffffffffffffffffffffffffffff16021790555060408201518160020160006101000a81548173ffffffffffffffffffffffffffffffffffffffff021916908373ffffffffffffffffffffffffffffffffffffffff16021790555060608201518160030160006101000a81548173ffffffffffffffffffffffffffffffffffffffff021916908373ffffffffffffffffffffffffffffffffffffffff1602179055506080820151816004015560a0820151816005015560c08201518160060160006101000a81548160ff02191690831515021790555090505050808060010191505061210f565b5061236a346015546141d990919063ffffffff16565b6015819055505050565b60115481565b606060098054600181600116156101000203166002900480601f0160208091040260200160405190810160405280929190818152602001828054600181600116156101000203166002900480156124125780601f106123e757610100808354040283529160200191612412565b820191906000526020600020905b8154815290600101906020018083116123f557829003601f168201915b5050505050905090565b6018818051602081018201805184825260208301602085012081835280955050505050506000915054906101000a900460ff1681565b600b8054600181600116156101000203166002900480601f0160208091040260200160405190810160405280929190818152602001828054600181600116156101000203166002900480156124e85780601f106124bd576101008083540402835291602001916124e8565b820191906000526020600020905b8154815290600101906020018083116124cb57829003601f168201915b505050505081565b60008073ffffffffffffffffffffffffffffffffffffffff168273ffffffffffffffffffffffffffffffffffffffff161415612577576040517f08c379a000000000000000000000000000000000000000000000000000000000815260040180806020018281038252602a815260200180615d59602a913960400191505060405180910390fd5b6125be600160008473ffffffffffffffffffffffffffffffffffffffff1673ffffffffffffffffffffffffffffffffffffffff1681526020019081526020016000206144d4565b9050919050565b601360009054906101000a900473ffffffffffffffffffffffffffffffffffffffff1673ffffffffffffffffffffffffffffffffffffffff163373ffffffffffffffffffffffffffffffffffffffff16146126ab57601460009054906101000a900473ffffffffffffffffffffffffffffffffffffffff1673ffffffffffffffffffffffffffffffffffffffff163373ffffffffffffffffffffffffffffffffffffffff16146126aa576040517f08c379a00000000000000000000000000000000000000000000000000000000081526004016126a1906159b2565b60405180910390fd5b5b601882826040516126bd929190615858565b908152602001604051809103902060009054906101000a900460ff1615601883836040516126ec929190615858565b908152602001604051809103902060006101000a81548160ff0219169083151502179055505050565b6000601a60003373ffffffffffffffffffffffffffffffffffffffff1673ffffffffffffffffffffffffffffffffffffffff16815260200190815260200160002054905090565b601360009054906101000a900473ffffffffffffffffffffffffffffffffffffffff1673ffffffffffffffffffffffffffffffffffffffff163373ffffffffffffffffffffffffffffffffffffffff161461284257601460009054906101000a900473ffffffffffffffffffffffffffffffffffffffff1673ffffffffffffffffffffffffffffffffffffffff163373ffffffffffffffffffffffffffffffffffffffff1614612841576040517f08c379a0000000000000000000000000000000000000000000000000000000008152600401612838906159b2565b60405180910390fd5b5b80600f8190555050565b60155481565b6000601360009054906101000a900473ffffffffffffffffffffffffffffffffffffffff16905090565b601360009054906101000a900473ffffffffffffffffffffffffffffffffffffffff1673ffffffffffffffffffffffffffffffffffffffff163373ffffffffffffffffffffffffffffffffffffffff16146128d657600080fd5b6000601a60008473ffffffffffffffffffffffffffffffffffffffff1673ffffffffffffffffffffffffffffffffffffffff16815260200190815260200160002054111561292357600080fd5b6103e88160125401111561293657600080fd5b60e7811061294357600080fd5b612958816012546141d990919063ffffffff16565b60128190555080601a60008473ffffffffffffffffffffffffffffffffffffffff1673ffffffffffffffffffffffffffffffffffffffff168152602001908152602001600020819055505050565b601360009054906101000a900473ffffffffffffffffffffffffffffffffffffffff1681565b601360009054906101000a900473ffffffffffffffffffffffffffffffffffffffff1673ffffffffffffffffffffffffffffffffffffffff163373ffffffffffffffffffffffffffffffffffffffff1614612ab257601460009054906101000a900473ffffffffffffffffffffffffffffffffffffffff1673ffffffffffffffffffffffffffffffffffffffff163373ffffffffffffffffffffffffffffffffffffffff1614612ab1576040517f08c379a0000000000000000000000000000000000000000000000000000000008152600401612aa8906159b2565b60405180910390fd5b5b806011541415612ac157600080fd5b8060118190555050565b606060078054600181600116156101000203166002900480601f016020809104026020016040519081016040528092919081815260200182805460018160011615610100020316600290048015612b635780601f10612b3857610100808354040283529160200191612b63565b820191906000526020600020905b815481529060010190602001808311612b4657829003601f168201915b5050505050905090565b60166020528060005260406000206000915090508060000154908060010160009054906101000a900473ffffffffffffffffffffffffffffffffffffffff16908060020160009054906101000a900473ffffffffffffffffffffffffffffffffffffffff16908060030160009054906101000a900473ffffffffffffffffffffffffffffffffffffffff16908060040154908060050154908060060160009054906101000a900460ff16905087565b60196020528060005260406000206000915054906101000a900460ff1681565b612c44613c3a565b73ffffffffffffffffffffffffffffffffffffffff168273ffffffffffffffffffffffffffffffffffffffff161415612ce5576040517f08c379a00000000000000000000000000000000000000000000000000000000081526004018080602001828103825260198152602001807f4552433732313a20617070726f766520746f2063616c6c65720000000000000081525060200191505060405180910390fd5b8060056000612cf2613c3a565b73ffffffffffffffffffffffffffffffffffffffff1673ffffffffffffffffffffffffffffffffffffffff16815260200190815260200160002060008473ffffffffffffffffffffffffffffffffffffffff1673ffffffffffffffffffffffffffffffffffffffff16815260200190815260200160002060006101000a81548160ff0219169083151502179055508173ffffffffffffffffffffffffffffffffffffffff16612d9f613c3a565b73ffffffffffffffffffffffffffffffffffffffff167f17307eab39ab6107e8899845ad3d59bd9653f200f220920489ca2b5937696c318360405180821515815260200191505060405180910390a35050565b6018604051612e00906158c5565b908152602001604051809103902060009054906101000a900460ff16612e5b576040517f08c379a0000000000000000000000000000000000000000000000000000000008152600401612e5290615952565b60405180910390fd5b600073ffffffffffffffffffffffffffffffffffffffff163373ffffffffffffffffffffffffffffffffffffffff161415612e9557600080fd5b612e9e81613c1d565b612ea757600080fd5b6000612eb282611e5f565b90503373ffffffffffffffffffffffffffffffffffffffff168173ffffffffffffffffffffffffffffffffffffffff1614612eec57600080fd5b6000601660008481526020019081526020016000206040518060e0016040529081600082015481526020016001820160009054906101000a900473ffffffffffffffffffffffffffffffffffffffff1673ffffffffffffffffffffffffffffffffffffffff1673ffffffffffffffffffffffffffffffffffffffff1681526020016002820160009054906101000a900473ffffffffffffffffffffffffffffffffffffffff1673ffffffffffffffffffffffffffffffffffffffff1673ffffffffffffffffffffffffffffffffffffffff1681526020016003820160009054906101000a900473ffffffffffffffffffffffffffffffffffffffff1673ffffffffffffffffffffffffffffffffffffffff1673ffffffffffffffffffffffffffffffffffffffff16815260200160048201548152602001600582015481526020016006820160009054906101000a900460ff16151515158152505090508060c00151156130695760008160c001901515908115158152505061307b565b60018160c00190151590811515815250505b80601660008581526020019081526020016000206000820151816000015560208201518160010160006101000a81548173ffffffffffffffffffffffffffffffffffffffff021916908373ffffffffffffffffffffffffffffffffffffffff16021790555060408201518160020160006101000a81548173ffffffffffffffffffffffffffffffffffffffff021916908373ffffffffffffffffffffffffffffffffffffffff16021790555060608201518160030160006101000a81548173ffffffffffffffffffffffffffffffffffffffff021916908373ffffffffffffffffffffffffffffffffffffffff1602179055506080820151816004015560a0820151816005015560c08201518160060160006101000a81548160ff021916908315150217905550905050505050565b6000806131b683611e5f565b905080915050919050565b60125481565b6131d86131d2613c3a565b83613ea2565b61322d576040517f08c379a0000000000000000000000000000000000000000000000000000000008152600401808060200182810382526031815260200180615e946031913960400191505060405180910390fd5b613239848484846144e9565b50505050565b60105481565b6000600d54905090565b606061325a82613c1d565b6132af576040517f08c379a000000000000000000000000000000000000000000000000000000000815260040180806020018281038252602f815260200180615e44602f913960400191505060405180910390fd5b6000600860008481526020019081526020016000208054600181600116156101000203166002900480601f0160208091040260200160405190810160405280929190818152602001828054600181600116156101000203166002900480156133585780601f1061332d57610100808354040283529160200191613358565b820191906000526020600020905b81548152906001019060200180831161333b57829003601f168201915b50505050509050600061336961237a565b905060008151141561337f57819250505061351b565b6000825111156134505780826040516020018083805190602001908083835b602083106133c1578051825260208201915060208101905060208303925061339e565b6001836020036101000a03801982511681845116808217855250505050505090500182805190602001908083835b6020831061341257805182526020820191506020810190506020830392506133ef565b6001836020036101000a038019825116818451168082178552505050505050905001925050506040516020818303038152906040529250505061351b565b8061345a8561455b565b6040516020018083805190602001908083835b60208310613490578051825260208201915060208101905060208303925061346d565b6001836020036101000a03801982511681845116808217855250505050505090500182805190602001908083835b602083106134e157805182526020820191506020810190506020830392506134be565b6001836020036101000a03801982511681845116808217855250505050505090500192505050604051602081830303815290604052925050505b919050565b601860405161352e9061589b565b908152602001604051809103902060009054906101000a900460ff16613589576040517f08c379a000000000000000000000000000000000000000000000000000000000815260040161358090615932565b60405180910390fd5b600061359361119a565b90506015548111156135a457600080fd5b6135f681601b60003373ffffffffffffffffffffffffffffffffffffffff1673ffffffffffffffffffffffffffffffffffffffff168152602001908152602001600020546141d990919063ffffffff16565b601b60003373ffffffffffffffffffffffffffffffffffffffff1673ffffffffffffffffffffffffffffffffffffffff1681526020019081526020016000208190555060003373ffffffffffffffffffffffffffffffffffffffff168260405161365f906158b0565b60006040518083038185875af1925050503d806000811461369c576040519150601f19603f3d011682016040523d82523d6000602084013e6136a1565b606091505b50509050806136af57600080fd5b5050565b6000806136be611274565b90508091505090565b601360009054906101000a900473ffffffffffffffffffffffffffffffffffffffff1673ffffffffffffffffffffffffffffffffffffffff163373ffffffffffffffffffffffffffffffffffffffff16146137ad57601460009054906101000a900473ffffffffffffffffffffffffffffffffffffffff1673ffffffffffffffffffffffffffffffffffffffff163373ffffffffffffffffffffffffffffffffffffffff16146137ac576040517f08c379a00000000000000000000000000000000000000000000000000000000081526004016137a3906159b2565b60405180910390fd5b5b8060108190555050565b601360009054906101000a900473ffffffffffffffffffffffffffffffffffffffff1673ffffffffffffffffffffffffffffffffffffffff163373ffffffffffffffffffffffffffffffffffffffff161461381157600080fd5b600073ffffffffffffffffffffffffffffffffffffffff168173ffffffffffffffffffffffffffffffffffffffff16141561384b57600080fd5b601460009054906101000a900473ffffffffffffffffffffffffffffffffffffffff1673ffffffffffffffffffffffffffffffffffffffff168173ffffffffffffffffffffffffffffffffffffffff1614156138a657600080fd5b80601460006101000a81548173ffffffffffffffffffffffffffffffffffffffff021916908373ffffffffffffffffffffffffffffffffffffffff16021790555050565b600c5481565b6000601460009054906101000a900473ffffffffffffffffffffffffffffffffffffffff16905090565b600e5481565b601360009054906101000a900473ffffffffffffffffffffffffffffffffffffffff1673ffffffffffffffffffffffffffffffffffffffff163373ffffffffffffffffffffffffffffffffffffffff1614613a0657601460009054906101000a900473ffffffffffffffffffffffffffffffffffffffff1673ffffffffffffffffffffffffffffffffffffffff163373ffffffffffffffffffffffffffffffffffffffff1614613a05576040517f08c379a00000000000000000000000000000000000000000000000000000000081526004016139fc906159b2565b60405180910390fd5b5b6018604051613a1490615871565b908152602001604051809103902060009054906101000a900460ff16613a3957600080fd5b601960008273ffffffffffffffffffffffffffffffffffffffff1673ffffffffffffffffffffffffffffffffffffffff16815260200190815260200160002060009054906101000a900460ff1615613a9057600080fd5b6001601960008373ffffffffffffffffffffffffffffffffffffffff1673ffffffffffffffffffffffffffffffffffffffff16815260200190815260200160002060006101000a81548160ff02191690831515021790555050565b600a8054600181600116156101000203166002900480601f016020809104026020016040519081016040528092919081815260200182805460018160011615610100020316600290048015613b815780601f10613b5657610100808354040283529160200191613b81565b820191906000526020600020905b815481529060010190602001808311613b6457829003601f168201915b505050505081565b6000600560008473ffffffffffffffffffffffffffffffffffffffff1673ffffffffffffffffffffffffffffffffffffffff16815260200190815260200160002060008373ffffffffffffffffffffffffffffffffffffffff1673ffffffffffffffffffffffffffffffffffffffff16815260200190815260200160002060009054906101000a900460ff16905092915050565b6000613c338260026146a290919063ffffffff16565b9050919050565b600033905090565b816004600083815260200190815260200160002060006101000a81548173ffffffffffffffffffffffffffffffffffffffff021916908373ffffffffffffffffffffffffffffffffffffffff160217905550808273ffffffffffffffffffffffffffffffffffffffff16613cb583611e5f565b73ffffffffffffffffffffffffffffffffffffffff167f8c5be1e5ebec7d5bd14f71427d1e84f3dd0314c0f7b2291e5b200ac8c7c3b92560405160405180910390a45050565b6000808211613d72576040517f08c379a000000000000000000000000000000000000000000000000000000000815260040180806020018281038252601a8152602001807f536166654d6174683a206469766973696f6e206279207a65726f00000000000081525060200191505060405180910390fd5b818381613d7b57fe5b04905092915050565b600080831415613d975760009050613e04565b6000828402905082848281613da857fe5b0414613dff576040517f08c379a0000000000000000000000000000000000000000000000000000000008152600401808060200182810382526021815260200180615dce6021913960400191505060405180910390fd5b809150505b92915050565b600082821115613e82576040517f08c379a000000000000000000000000000000000000000000000000000000000815260040180806020018281038252601e8152602001807f536166654d6174683a207375627472616374696f6e206f766572666c6f77000081525060200191505060405180910390fd5b818303905092915050565b6000613e9b826000016146bc565b9050919050565b6000613ead82613c1d565b613f02576040517f08c379a000000000000000000000000000000000000000000000000000000000815260040180806020018281038252602c815260200180615cf5602c913960400191505060405180910390fd5b6000613f0d83611e5f565b90508073ffffffffffffffffffffffffffffffffffffffff168473ffffffffffffffffffffffffffffffffffffffff161480613f7c57508373ffffffffffffffffffffffffffffffffffffffff16613f6484610fbb565b73ffffffffffffffffffffffffffffffffffffffff16145b80613f8d5750613f8c8185613b89565b5b91505092915050565b8273ffffffffffffffffffffffffffffffffffffffff16613fb682611e5f565b73ffffffffffffffffffffffffffffffffffffffff1614614022576040517f08c379a0000000000000000000000000000000000000000000000000000000008152600401808060200182810382526029815260200180615e1b6029913960400191505060405180910390fd5b600073ffffffffffffffffffffffffffffffffffffffff168273ffffffffffffffffffffffffffffffffffffffff1614156140a8576040517f08c379a0000000000000000000000000000000000000000000000000000000008152600401808060200182810382526024815260200180615cab6024913960400191505060405180910390fd5b6140b38383836146cd565b6140be600082613c42565b61410f81600160008673ffffffffffffffffffffffffffffffffffffffff1673ffffffffffffffffffffffffffffffffffffffff1681526020019081526020016000206146d290919063ffffffff16565b5061416181600160008573ffffffffffffffffffffffffffffffffffffffff1673ffffffffffffffffffffffffffffffffffffffff1681526020019081526020016000206146ec90919063ffffffff16565b50614178818360026147069092919063ffffffff16565b50808273ffffffffffffffffffffffffffffffffffffffff168473ffffffffffffffffffffffffffffffffffffffff167fddf252ad1be2c89b69c2b068fc378daa952ba7f163c4a11628f55a4df523b3ef60405160405180910390a4505050565b600080828401905083811015614257576040517f08c379a000000000000000000000000000000000000000000000000000000000815260040180806020018281038252601b8152602001807f536166654d6174683a206164646974696f6e206f766572666c6f77000000000081525060200191505060405180910390fd5b8091505092915050565b6000614270836000018361473b565b60001c905092915050565b60008060008061428e86600001866147be565b915091508160001c8160001c9350935050509250929050565b80600990805190602001906142bd929190615090565b5050565b60006142d4846000018460001b84614857565b60001c90509392505050565b600073ffffffffffffffffffffffffffffffffffffffff168273ffffffffffffffffffffffffffffffffffffffff161415614383576040517f08c379a00000000000000000000000000000000000000000000000000000000081526004018080602001828103825260208152602001807f4552433732313a206d696e7420746f20746865207a65726f206164647265737381525060200191505060405180910390fd5b61438c81613c1d565b156143ff576040517f08c379a000000000000000000000000000000000000000000000000000000000815260040180806020018281038252601c8152602001807f4552433732313a20746f6b656e20616c7265616479206d696e7465640000000081525060200191505060405180910390fd5b61440b600083836146cd565b61445c81600160008573ffffffffffffffffffffffffffffffffffffffff1673ffffffffffffffffffffffffffffffffffffffff1681526020019081526020016000206146ec90919063ffffffff16565b50614473818360026147069092919063ffffffff16565b50808273ffffffffffffffffffffffffffffffffffffffff16600073ffffffffffffffffffffffffffffffffffffffff167fddf252ad1be2c89b69c2b068fc378daa952ba7f163c4a11628f55a4df523b3ef60405160405180910390a45050565b60006144e28260000161494d565b9050919050565b6144f4848484613f96565b6145008484848461495e565b614555576040517f08c379a0000000000000000000000000000000000000000000000000000000008152600401808060200182810382526032815260200180615c796032913960400191505060405180910390fd5b50505050565b606060008214156145a3576040518060400160405280600181526020017f3000000000000000000000000000000000000000000000000000000000000000815250905061469d565b600082905060005b600082146145cd578080600101915050600a82816145c557fe5b0491506145ab565b60008167ffffffffffffffff811180156145e657600080fd5b506040519080825280601f01601f1916602001820160405280156146195781602001600182028036833780820191505090505b50905060006001830390508593505b6000841461469557600a848161463a57fe5b0660300160f81b8282806001900393508151811061465457fe5b60200101907effffffffffffffffffffffffffffffffffffffffffffffffffffffffffffff1916908160001a905350600a848161468d57fe5b049350614628565b819450505050505b919050565b60006146b4836000018360001b614b77565b905092915050565b600081600001805490509050919050565b505050565b60006146e4836000018360001b614b9a565b905092915050565b60006146fe836000018360001b614c82565b905092915050565b6000614732846000018460001b8473ffffffffffffffffffffffffffffffffffffffff1660001b614cf2565b90509392505050565b60008183600001805490501161479c576040517f08c379a0000000000000000000000000000000000000000000000000000000008152600401808060200182810382526022815260200180615c576022913960400191505060405180910390fd5b8260000182815481106147ab57fe5b9060005260206000200154905092915050565b60008082846000018054905011614820576040517f08c379a0000000000000000000000000000000000000000000000000000000008152600401808060200182810382526022815260200180615dac6022913960400191505060405180910390fd5b600084600001848154811061483157fe5b906000526020600020906002020190508060000154816001015492509250509250929050565b6000808460010160008581526020019081526020016000205490506000811415839061491e576040517f08c379a00000000000000000000000000000000000000000000000000000000081526004018080602001828103825283818151815260200191508051906020019080838360005b838110156148e35780820151818401526020810190506148c8565b50505050905090810190601f1680156149105780820380516001836020036101000a031916815260200191505b509250505060405180910390fd5b5084600001600182038154811061493157fe5b9060005260206000209060020201600101549150509392505050565b600081600001805490509050919050565b600061497f8473ffffffffffffffffffffffffffffffffffffffff16614dce565b61498c5760019050614b6f565b6000614af663150b7a0260e01b6149a1613c3a565b888787604051602401808573ffffffffffffffffffffffffffffffffffffffff1681526020018473ffffffffffffffffffffffffffffffffffffffff16815260200183815260200180602001828103825283818151815260200191508051906020019080838360005b83811015614a25578082015181840152602081019050614a0a565b50505050905090810190601f168015614a525780820380516001836020036101000a031916815260200191505b5095505050505050604051602081830303815290604052907bffffffffffffffffffffffffffffffffffffffffffffffffffffffff19166020820180517bffffffffffffffffffffffffffffffffffffffffffffffffffffffff8381831617835250505050604051806060016040528060328152602001615c79603291398773ffffffffffffffffffffffffffffffffffffffff16614de19092919063ffffffff16565b90506000818060200190516020811015614b0f57600080fd5b8101908080519060200190929190505050905063150b7a0260e01b7bffffffffffffffffffffffffffffffffffffffffffffffffffffffff1916817bffffffffffffffffffffffffffffffffffffffffffffffffffffffff191614925050505b949350505050565b600080836001016000848152602001908152602001600020541415905092915050565b60008083600101600084815260200190815260200160002054905060008114614c765760006001820390506000600186600001805490500390506000866000018281548110614be557fe5b9060005260206000200154905080876000018481548110614c0257fe5b9060005260206000200181905550600183018760010160008381526020019081526020016000208190555086600001805480614c3a57fe5b60019003818190600052602060002001600090559055866001016000878152602001908152602001600020600090556001945050505050614c7c565b60009150505b92915050565b6000614c8e8383614df9565b614ce7578260000182908060018154018082558091505060019003906000526020600020016000909190919091505582600001805490508360010160008481526020019081526020016000208190555060019050614cec565b600090505b92915050565b6000808460010160008581526020019081526020016000205490506000811415614d9957846000016040518060400160405280868152602001858152509080600181540180825580915050600190039060005260206000209060020201600090919091909150600082015181600001556020820151816001015550508460000180549050856001016000868152602001908152602001600020819055506001915050614dc7565b82856000016001830381548110614dac57fe5b90600052602060002090600202016001018190555060009150505b9392505050565b600080823b905060008111915050919050565b6060614df08484600085614e1c565b90509392505050565b600080836001016000848152602001908152602001600020541415905092915050565b606082471015614e77576040517f08c379a0000000000000000000000000000000000000000000000000000000008152600401808060200182810382526026815260200180615ccf6026913960400191505060405180910390fd5b614e8085614dce565b614ef2576040517f08c379a000000000000000000000000000000000000000000000000000000000815260040180806020018281038252601d8152602001807f416464726573733a2063616c6c20746f206e6f6e2d636f6e747261637400000081525060200191505060405180910390fd5b6000808673ffffffffffffffffffffffffffffffffffffffff1685876040518082805190602001908083835b60208310614f415780518252602082019150602081019050602083039250614f1e565b6001836020036101000a03801982511681845116808217855250505050505090500191505060006040518083038185875af1925050503d8060008114614fa3576040519150601f19603f3d011682016040523d82523d6000602084013e614fa8565b606091505b5091509150614fb8828286614fc4565b92505050949350505050565b60608315614fd457829050615089565b600083511115614fe75782518084602001fd5b816040517f08c379a00000000000000000000000000000000000000000000000000000000081526004018080602001828103825283818151815260200191508051906020019080838360005b8381101561504e578082015181840152602081019050615033565b50505050905090810190601f16801561507b5780820380516001836020036101000a031916815260200191505b509250505060405180910390fd5b9392505050565b828054600181600116156101000203166002900490600052602060002090601f0160209004810192826150c6576000855561510d565b82601f106150df57805160ff191683800117855561510d565b8280016001018555821561510d579182015b8281111561510c5782518255916020019190600101906150f1565b5b50905061511a919061511e565b5090565b5b8082111561513757600081600090555060010161511f565b5090565b600061514e61514984615a8d565b615a5c565b90508281526020810184848401111561516657600080fd5b615171848285615ba5565b509392505050565b600061518c61518784615abd565b615a5c565b9050828152602081018484840111156151a457600080fd5b6151af848285615ba5565b509392505050565b6000813590506151c681615bfa565b92915050565b6000813590506151db81615c11565b92915050565b6000813590506151f081615c28565b92915050565b600082601f83011261520757600080fd5b813561521784826020860161513b565b91505092915050565b60008083601f84011261523257600080fd5b8235905067ffffffffffffffff81111561524b57600080fd5b60208301915083600182028301111561526357600080fd5b9250929050565b600082601f83011261527b57600080fd5b813561528b848260208601615179565b91505092915050565b6000813590506152a381615c3f565b92915050565b6000602082840312156152bb57600080fd5b60006152c9848285016151b7565b91505092915050565b600080604083850312156152e557600080fd5b60006152f3858286016151b7565b9250506020615304858286016151b7565b9150509250929050565b60008060006060848603121561532357600080fd5b6000615331868287016151b7565b9350506020615342868287016151b7565b925050604061535386828701615294565b9150509250925092565b6000806000806080858703121561537357600080fd5b6000615381878288016151b7565b9450506020615392878288016151b7565b93505060406153a387828801615294565b925050606085013567ffffffffffffffff8111156153c057600080fd5b6153cc878288016151f6565b91505092959194509250565b600080604083850312156153eb57600080fd5b60006153f9858286016151b7565b925050602061540a858286016151cc565b9150509250929050565b6000806040838503121561542757600080fd5b6000615435858286016151b7565b925050602061544685828601615294565b9150509250929050565b60006020828403121561546257600080fd5b6000615470848285016151e1565b91505092915050565b6000806020838503121561548c57600080fd5b600083013567ffffffffffffffff8111156154a657600080fd5b6154b285828601615220565b92509250509250929050565b6000602082840312156154d057600080fd5b600082013567ffffffffffffffff8111156154ea57600080fd5b6154f68482850161526a565b91505092915050565b60006020828403121561551157600080fd5b600061551f84828501615294565b91505092915050565b6000806040838503121561553b57600080fd5b600061554985828601615294565b925050602061555a85828601615294565b9150509250929050565b61556d81615b31565b82525050565b61557c81615b1f565b82525050565b61558b81615b43565b82525050565b600061559d8385615b14565b93506155aa838584615ba5565b82840190509392505050565b60006155c182615aed565b6155cb8185615b03565b93506155db818560208601615bb4565b6155e481615be9565b840191505092915050565b60006155fc600b83615b14565b91507f697357686974656c6973740000000000000000000000000000000000000000006000830152600b82019050919050565b600061563c601183615b03565b91507f57697468647261772064697361626c65640000000000000000000000000000006000830152602082019050919050565b600061567c601583615b03565b91507f4d61726b6574706c6163652064697361626c65642e00000000000000000000006000830152602082019050919050565b60006156bc600a83615b14565b91507f69734d696e7461626c65000000000000000000000000000000000000000000006000830152600a82019050919050565b60006156fc600a83615b14565b91507f69735769746864726177000000000000000000000000000000000000000000006000830152600a82019050919050565b600061573c600d83615b03565b91507f4d696e742044697361626c6564000000000000000000000000000000000000006000830152602082019050919050565b600061577c600083615af8565b9150600082019050919050565b6000615796601083615b03565b91507f206e6f742077686974656c6973746564000000000000000000000000000000006000830152602082019050919050565b60006157d6600d83615b14565b91507f69734d61726b6574706c616365000000000000000000000000000000000000006000830152600d82019050919050565b6000615816600d83615b03565b91507f6e6f742061206d616e61676572000000000000000000000000000000000000006000830152602082019050919050565b61585281615b9b565b82525050565b6000615865828486615591565b91508190509392505050565b600061587c826155ef565b9150819050919050565b6000615891826156af565b9150819050919050565b60006158a6826156ef565b9150819050919050565b60006158bb8261576f565b9150819050919050565b60006158d0826157c9565b9150819050919050565b60006020820190506158ef6000830184615573565b92915050565b600060208201905061590a6000830184615582565b92915050565b6000602082019050818103600083015261592a81846155b6565b905092915050565b6000602082019050818103600083015261594b8161562f565b9050919050565b6000602082019050818103600083015261596b8161566f565b9050919050565b6000602082019050818103600083015261598b8161572f565b9050919050565b600060208201905081810360008301526159ab81615789565b9050919050565b600060208201905081810360008301526159cb81615809565b9050919050565b60006020820190506159e76000830184615849565b92915050565b600060e082019050615a02600083018a615849565b615a0f6020830189615564565b615a1c6040830188615564565b615a296060830187615564565b615a366080830186615849565b615a4360a0830185615849565b615a5060c0830184615582565b98975050505050505050565b6000604051905081810181811067ffffffffffffffff82111715615a8357615a82615be7565b5b8060405250919050565b600067ffffffffffffffff821115615aa857615aa7615be7565b5b601f19601f8301169050602081019050919050565b600067ffffffffffffffff821115615ad857615ad7615be7565b5b601f19601f8301169050602081019050919050565b600081519050919050565b600081905092915050565b600082825260208201905092915050565b600081905092915050565b6000615b2a82615b7b565b9050919050565b6000615b3c82615b7b565b9050919050565b60008115159050919050565b60007fffffffff0000000000000000000000000000000000000000000000000000000082169050919050565b600073ffffffffffffffffffffffffffffffffffffffff82169050919050565b6000819050919050565b82818337600083830152505050565b60005b83811015615bd2578082015181840152602081019050615bb7565b83811115615be1576000848401525b50505050565bfe5b6000601f19601f8301169050919050565b615c0381615b1f565b8114615c0e57600080fd5b50565b615c1a81615b43565b8114615c2557600080fd5b50565b615c3181615b4f565b8114615c3c57600080fd5b50565b615c4881615b9b565b8114615c5357600080fd5b5056fe456e756d657261626c655365743a20696e646578206f7574206f6620626f756e64734552433732313a207472616e7366657220746f206e6f6e20455243373231526563656976657220696d706c656d656e7465724552433732313a207472616e7366657220746f20746865207a65726f2061646472657373416464726573733a20696e73756666696369656e742062616c616e636520666f722063616c6c4552433732313a206f70657261746f7220717565727920666f72206e6f6e6578697374656e7420746f6b656e4552433732313a20617070726f76652063616c6c6572206973206e6f74206f776e6572206e6f7220617070726f76656420666f7220616c6c4552433732313a2062616c616e636520717565727920666f7220746865207a65726f20616464726573734552433732313a206f776e657220717565727920666f72206e6f6e6578697374656e7420746f6b656e456e756d657261626c654d61703a20696e646578206f7574206f6620626f756e6473536166654d6174683a206d756c7469706c69636174696f6e206f766572666c6f774552433732313a20617070726f76656420717565727920666f72206e6f6e6578697374656e7420746f6b656e4552433732313a207472616e73666572206f6620746f6b656e2074686174206973206e6f74206f776e4552433732314d657461646174613a2055524920717565727920666f72206e6f6e6578697374656e7420746f6b656e4552433732313a20617070726f76616c20746f2063757272656e74206f776e65724552433732313a207472616e736665722063616c6c6572206973206e6f74206f776e6572206e6f7220617070726f766564a264697066735822122003e6844f674232b6775b63f4430dc54fa4600b5562c22684a4166e3e9fb1c7d764736f6c63430007060033",
  "immutableReferences": {},
  "source": "// SPDX-License-Identifier: MIT\npragma solidity <0.8.0;\npragma abicoder v2;\n\n// import ERC721 iterface\nimport \"./ERC721.sol\";\n\n// CroSkulls smart contract inherits ERC721 interface\ncontract CroSkulls is ERC721 {\n  using SafeMath for uint256;\n\n  string public collectionName;\n  string public collectionNameSymbol;\n  uint256 public croSkullCounter;\n  uint256 public cost = 0 ether;\n  uint256 public maxSupply = 6666;\n  uint256 public maxMintAmount = 5;\n  uint256 public nftPerAddressLimit = 5;\n  uint256 public marketplaceFee = 4;\n  uint256 public totalRewardPercent;\n  address public owner;\n  address public manager;\n  uint256 public totalCROVolume = 0;\n\n  mapping(uint256 => CroSkull) public allCroSkulls;\n  mapping(address => uint256) public addressMintedBalance;\n  mapping(string => bool) public settings;\n  mapping(address => bool) public whitelist;\n  mapping(address => uint256) public rewardableUsers;\n  mapping(address => uint256) public userClaimedRewards;\n\n  struct CroSkull {\n    uint256 tokenId;\n    address payable mintedBy;\n    address payable currentOwner;\n    address payable previousOwner;\n    uint256 price;\n    uint256 numberOfTransfers;\n    bool forSale;\n  }\n\n  modifier isWithdrable() {\n    require(settings['isWithdraw'], \"Withdraw disabled\");\n    _;\n  }\n\n  modifier isMintable () {\n    if( msg.sender != owner || msg.sender != manager ){\n      require(settings['isMintable'], \"Mint Disabled\");\n    }\n    _;\n  }\n\n  modifier onlyManager() {\n    if( msg.sender != owner ){\n      require(msg.sender == manager, \"not a manager\");\n    }\n    _;\n  }\n\n  modifier onlyOwner() {\n    require(msg.sender == owner);\n    _;\n  }\n\n  modifier isWhitelisted() {\n    if( settings['isWhitelist'] ){\n      require( whitelist[msg.sender], \" not whitelisted\" );\n    }\n    _;\n  }\n\n  modifier marketplaceEnabled() {\n    require( settings['isMarketplace'], \"Marketplace disabled.\");\n    _;\n  }\n\n  // initialize contract while deployment with contract's collection name and token\n  constructor( bool _isMarketplace, bool _isWhitelist, bool _isWithdraw, bool _isMintable ) ERC721(\"CROSkull\", \"CRS\") {\n    owner = msg.sender;\n    collectionName = name();\n    collectionNameSymbol = symbol();\n    settings['isMarketplace'] = _isMarketplace;\n    settings['isWhitelist'] = _isWhitelist;\n    settings['isWithdraw'] = _isWithdraw;\n    settings['isMintable'] = _isMintable;\n  }\n\n  function setBaseURI( string memory baseURI ) public onlyOwner {\n    _setBaseURI(baseURI);\n  }\n\n  //retunr allowed max supply\n  function getMaxSupply( ) public view returns(uint256){\n    return maxSupply;\n  }\n\n  function getCost() public view returns(uint256){\n    return cost;\n  }\n\n  function addToWhitelist( address _address ) public onlyManager {\n    require( settings['isWhitelist'] );\n    require( ! whitelist[_address]);\n    whitelist[_address] = true; \n  }\n\n  function setMarketplaceFee( uint _fee) public onlyManager {\n    require(marketplaceFee != _fee);\n    marketplaceFee = _fee;\n  }\n\n  // mint a new crypto boy\n  function mintCroSkull(uint256 _mintAmount ) isWhitelisted isMintable payable external {\n    require(msg.sender != address(0));\n    require(_mintAmount > 0);\n    require(_mintAmount <= maxMintAmount);\n    require(msg.value >= cost * _mintAmount);\n\n    uint256 supply = totalSupply();\n    require(supply + _mintAmount <= maxSupply);\n    \n    for (uint256 i = 1; i <= _mintAmount; i++) {\n      croSkullCounter++;\n      require(!_exists(croSkullCounter));\n\n      addressMintedBalance[msg.sender]++;\n      _mint(msg.sender, croSkullCounter);\n      CroSkull memory newCroSkull = CroSkull(\n        croSkullCounter,\n        msg.sender,\n        msg.sender,\n        address(0),\n        cost,\n        0,\n        false\n      );\n      allCroSkulls[croSkullCounter] = newCroSkull;\n    }\n    totalCROVolume = totalCROVolume.add( msg.value );\n  }\n\n  function getOwner() public view returns(address) {\n    return owner;\n  }\n\n  function getManager() public view returns(address) {\n    return manager;\n  }\n\n  function setManager(address _manager) public onlyOwner() {\n    require(_manager != address(0));\n    require(_manager != manager);\n    manager = _manager;\n  }\n  function getTokenOwner(uint256 _tokenId) public view returns(address) {\n    address _tokenOwner = ownerOf(_tokenId);\n    return _tokenOwner;\n  }\n\n  function getTokenMetaData(uint _tokenId) public view returns(string memory) {\n    string memory tokenMetaData = tokenURI(_tokenId);\n    return tokenMetaData;\n  }\n\n  function getNumberOfTokensMinted() public view returns(uint256) {\n    uint256 totalNumberOfTokensMinted = totalSupply();\n    return totalNumberOfTokensMinted;\n  }\n\n  function getTotalNumberOfTokensOwnedByAnAddress(address _owner) public view returns(uint256) {\n    uint256 totalNumberOfTokensOwned = balanceOf(_owner);\n    return totalNumberOfTokensOwned;\n  }\n\n  function getTokenExists(uint256 _tokenId) public view returns(bool) {\n    bool tokenExists = _exists(_tokenId);\n    return tokenExists;\n  }\n\n  function buyToken(uint256 _tokenId) public marketplaceEnabled payable {\n    require( settings['isMarketplace']);\n    require(msg.sender != address(0));\n    require(_exists(_tokenId));\n\n    address tokenOwner = ownerOf(_tokenId);\n\n    require(tokenOwner != address(0));\n    require(tokenOwner != msg.sender);\n\n    CroSkull memory croskull = allCroSkulls[_tokenId];\n\n    require(msg.value >= croskull.price);\n    require(croskull.forSale);\n\n    _transfer(tokenOwner, msg.sender, _tokenId);\n    address payable sendTo = croskull.currentOwner;\n    uint256 sellerAmout = msg.value\n      .mul( 100 - marketplaceFee )\n      .div(100);\n    sendTo.transfer(sellerAmout);\n    croskull.previousOwner = croskull.currentOwner;\n    croskull.currentOwner = msg.sender;\n    croskull.numberOfTransfers += 1;\n    croskull.forSale = false;\n    allCroSkulls[_tokenId] = croskull;\n    \n    totalCROVolume = totalCROVolume.add( msg.value.sub(sellerAmout) );\n  }\n\n  function changeTokenPrice(uint256 _tokenId, uint256 _newPrice) public marketplaceEnabled {\n    require(msg.sender != address(0));\n    require(_exists(_tokenId));\n    address tokenOwner = ownerOf(_tokenId);\n    require(tokenOwner == msg.sender);\n    CroSkull memory croskull = allCroSkulls[_tokenId];\n    croskull.price = _newPrice;\n    allCroSkulls[_tokenId] = croskull;\n  }\n\n  function toggleForSale(uint256 _tokenId) public marketplaceEnabled {\n    require(msg.sender != address(0));\n    require(_exists(_tokenId));\n    address tokenOwner = ownerOf(_tokenId);\n    require(tokenOwner == msg.sender);\n    CroSkull memory croskull = allCroSkulls[_tokenId];\n    if(croskull.forSale) {\n      croskull.forSale = false;\n    } else {\n      croskull.forSale = true;\n    }\n    allCroSkulls[_tokenId] = croskull;\n  }\n\n  function toggleSetting( string calldata _settings) public onlyManager {\n    settings[_settings] = !settings[_settings];\n  }\n\n  function setNftPerAddressLimit(uint256 _limit) public onlyManager {\n    nftPerAddressLimit = _limit;\n  }\n  \n  function setCost(uint256 _newCost) public onlyManager {\n    cost = _newCost;\n  }\n\n  function setmaxMintAmount(uint256 _newmaxMintAmount) public onlyManager {\n    maxMintAmount = _newmaxMintAmount;\n  }\n\n  function addRewardable(address _rewardableAddress, uint256 _percent) public onlyOwner {\n    require( rewardableUsers[_rewardableAddress] <= 0 );\n    require( totalRewardPercent + _percent <= 1000 );\n    require( _percent < 231);\n    totalRewardPercent = totalRewardPercent.add(_percent);\n    rewardableUsers[_rewardableAddress] = _percent;\n  }\n\n  function withdrawReward() public payable isWithdrable {\n    uint256 calculatedReward = getRewardValue();\n    require( calculatedReward <= totalCROVolume );\n    userClaimedRewards[msg.sender] = userClaimedRewards[msg.sender].add(calculatedReward);\n    (bool os, ) = payable(msg.sender).call{value: calculatedReward}(\"\");\n    require(os);\n  }\n\n  function getRewardValue() public view returns(uint256){\n    uint256 fee = getRewardFee();\n    uint256 claimableRewards;\n    require( fee > 0);\n    //check already recived rewards\n    uint256 rawRewards = totalCROVolume\n      .div(1000)\n      .mul(fee);\n\n    uint256 alreadyClaimed = userClaimedRewards[msg.sender];\n    if( alreadyClaimed > 0 ){\n      claimableRewards = rawRewards.sub(alreadyClaimed);\n    }else{\n      claimableRewards = rawRewards;\n    }\n    return claimableRewards;\n  }\n\n  function getRewardFee() public view returns(uint256){\n    return rewardableUsers[msg.sender];\n  }\n}",
  "sourcePath": "/Users/alessandrodecristofaro/Desktop/DeFi Code/cryptoboys-nft-marketplace/src/contracts/CroSkulls.sol",
  "compiler": {
    "name": "solc",
    "version": "0.7.6+commit.7338295f.Emscripten.clang"
  },
  "schemaVersion": "3.4.3",
  "updatedAt": "2022-02-03T13:01:49.987Z",
  "networkType": "ethereum",
  "devdoc": {
    "kind": "dev",
    "methods": {
      "approve(address,uint256)": {
        "details": "See {IERC721-approve}."
      },
      "balanceOf(address)": {
        "details": "See {IERC721-balanceOf}."
      },
      "baseURI()": {
        "details": "Returns the base URI set via {_setBaseURI}. This will be automatically added as a prefix in {tokenURI} to each token's URI, or to the token ID if no specific URI is set for that token ID."
      },
      "getApproved(uint256)": {
        "details": "See {IERC721-getApproved}."
      },
      "isApprovedForAll(address,address)": {
        "details": "See {IERC721-isApprovedForAll}."
      },
      "name()": {
        "details": "See {IERC721Metadata-name}."
      },
      "ownerOf(uint256)": {
        "details": "See {IERC721-ownerOf}."
      },
      "safeTransferFrom(address,address,uint256)": {
        "details": "See {IERC721-safeTransferFrom}."
      },
      "safeTransferFrom(address,address,uint256,bytes)": {
        "details": "See {IERC721-safeTransferFrom}."
      },
      "setApprovalForAll(address,bool)": {
        "details": "See {IERC721-setApprovalForAll}."
      },
      "supportsInterface(bytes4)": {
        "details": "See {IERC165-supportsInterface}. Time complexity O(1), guaranteed to always use less than 30 000 gas."
      },
      "symbol()": {
        "details": "See {IERC721Metadata-symbol}."
      },
      "tokenByIndex(uint256)": {
        "details": "See {IERC721Enumerable-tokenByIndex}."
      },
      "tokenOfOwnerByIndex(address,uint256)": {
        "details": "See {IERC721Enumerable-tokenOfOwnerByIndex}."
      },
      "tokenURI(uint256)": {
        "details": "See {IERC721Metadata-tokenURI}."
      },
      "totalSupply()": {
        "details": "See {IERC721Enumerable-totalSupply}."
      },
      "transferFrom(address,address,uint256)": {
        "details": "See {IERC721-transferFrom}."
      }
    },
    "version": 1
  },
  "userdoc": {
    "kind": "user",
    "methods": {},
    "version": 1
  }
}