{
  "contractName": "Locker",
  "abi": [
    {
      "inputs": [],
      "stateMutability": "nonpayable",
      "type": "constructor"
    },
    {
      "anonymous": false,
      "inputs": [
        {
          "indexed": false,
          "internalType": "uint256",
          "name": "lockerId",
          "type": "uint256"
        },
        {
          "indexed": false,
          "internalType": "address",
          "name": "tokenAddress",
          "type": "address"
        },
        {
          "indexed": false,
          "internalType": "string",
          "name": "name",
          "type": "string"
        },
        {
          "indexed": false,
          "internalType": "uint256",
          "name": "amount",
          "type": "uint256"
        },
        {
          "indexed": false,
          "internalType": "address",
          "name": "owner",
          "type": "address"
        },
        {
          "indexed": false,
          "internalType": "uint256",
          "name": "unlockTimestamp",
          "type": "uint256"
        }
      ],
      "name": "LockerCreated",
      "type": "event"
    },
    {
      "anonymous": false,
      "inputs": [
        {
          "indexed": false,
          "internalType": "uint256",
          "name": "lockerId",
          "type": "uint256"
        },
        {
          "indexed": false,
          "internalType": "address",
          "name": "tokenAddress",
          "type": "address"
        },
        {
          "indexed": false,
          "internalType": "string",
          "name": "name",
          "type": "string"
        },
        {
          "indexed": false,
          "internalType": "uint256",
          "name": "amount",
          "type": "uint256"
        },
        {
          "indexed": false,
          "internalType": "address",
          "name": "owner",
          "type": "address"
        },
        {
          "indexed": false,
          "internalType": "uint256",
          "name": "withdrawTimestamp",
          "type": "uint256"
        }
      ],
      "name": "Withdraw",
      "type": "event"
    },
    {
      "inputs": [],
      "name": "lockCount",
      "outputs": [
        {
          "internalType": "uint256",
          "name": "",
          "type": "uint256"
        }
      ],
      "stateMutability": "view",
      "type": "function"
    },
    {
      "inputs": [
        {
          "internalType": "uint256",
          "name": "",
          "type": "uint256"
        }
      ],
      "name": "locks",
      "outputs": [
        {
          "internalType": "uint256",
          "name": "unlockTimestamp",
          "type": "uint256"
        },
        {
          "internalType": "uint256",
          "name": "amount",
          "type": "uint256"
        },
        {
          "internalType": "address",
          "name": "tokenAddress",
          "type": "address"
        },
        {
          "internalType": "address",
          "name": "owner",
          "type": "address"
        },
        {
          "internalType": "string",
          "name": "name",
          "type": "string"
        }
      ],
      "stateMutability": "view",
      "type": "function"
    },
    {
      "inputs": [],
      "name": "owner",
      "outputs": [
        {
          "internalType": "address",
          "name": "",
          "type": "address"
        }
      ],
      "stateMutability": "view",
      "type": "function"
    },
    {
      "inputs": [
        {
          "internalType": "address",
          "name": "_tokenAddress",
          "type": "address"
        },
        {
          "internalType": "uint256",
          "name": "_amount",
          "type": "uint256"
        },
        {
          "internalType": "uint256",
          "name": "_unlockTimestamp",
          "type": "uint256"
        },
        {
          "internalType": "string",
          "name": "_name",
          "type": "string"
        }
      ],
      "name": "createLocker",
      "outputs": [],
      "stateMutability": "nonpayable",
      "type": "function"
    },
    {
      "inputs": [
        {
          "internalType": "uint256",
          "name": "_lockId",
          "type": "uint256"
        }
      ],
      "name": "withdraw",
      "outputs": [],
      "stateMutability": "nonpayable",
      "type": "function"
    },
    {
      "inputs": [],
      "name": "getTimestamp",
      "outputs": [
        {
          "internalType": "uint256",
          "name": "",
          "type": "uint256"
        }
      ],
      "stateMutability": "view",
      "type": "function"
    },
    {
      "inputs": [
        {
          "internalType": "uint256",
          "name": "_lockId",
          "type": "uint256"
        }
      ],
      "name": "getRemainingTime",
      "outputs": [
        {
          "internalType": "uint256",
          "name": "",
          "type": "uint256"
        }
      ],
      "stateMutability": "view",
      "type": "function"
    }
  ],
  "bytecode": "0x608060405234801561001057600080fd5b50336000806101000a81548173ffffffffffffffffffffffffffffffffffffffff021916908373ffffffffffffffffffffffffffffffffffffffff16021790555060006001819055506116ab806100686000396000f3fe608060405234801561001057600080fd5b506004361061007d5760003560e01c80632e1a7d4d1161005b5780632e1a7d4d146100ec5780638da5cb5b146101085780639b10b6f514610126578063f4dadc61146101445761007d565b80630511a50614610082578063181e01241461009e578063188ec356146100ce575b600080fd5b61009c60048036038101906100979190610c8b565b610178565b005b6100b860048036038101906100b39190610d2f565b6105a0565b6040516100c59190611114565b60405180910390f35b6100d6610607565b6040516100e39190611114565b60405180910390f35b61010660048036038101906101019190610d2f565b610614565b005b610110610a04565b60405161011d9190610f70565b60405180910390f35b61012e610a28565b60405161013b9190611114565b60405180910390f35b61015e60048036038101906101599190610d2f565b610a2e565b60405161016f9594939291906111ff565b60405180910390f35b60008054906101000a900473ffffffffffffffffffffffffffffffffffffffff1673ffffffffffffffffffffffffffffffffffffffff163373ffffffffffffffffffffffffffffffffffffffff1614610206576040517f08c379a00000000000000000000000000000000000000000000000000000000081526004016101fd90611034565b60405180910390fd5b8383808273ffffffffffffffffffffffffffffffffffffffff1663dd62ed3e33306040518363ffffffff1660e01b8152600401610244929190610f8b565b60206040518083038186803b15801561025c57600080fd5b505afa158015610270573d6000803e3d6000fd5b505050506040513d601f19601f820116820180604052508101906102949190610d58565b10156102d5576040517f08c379a00000000000000000000000000000000000000000000000000000000081526004016102cc90611094565b60405180910390fd5b428411610317576040517f08c379a000000000000000000000000000000000000000000000000000000000815260040161030e906110f4565b60405180910390fd5b6000851161035a576040517f08c379a000000000000000000000000000000000000000000000000000000000815260040161035190611074565b60405180910390fd5b8573ffffffffffffffffffffffffffffffffffffffff166323b872dd3330886040518463ffffffff1660e01b815260040161039793929190610fb4565b602060405180830381600087803b1580156103b157600080fd5b505af11580156103c5573d6000803e3d6000fd5b505050506040513d601f19601f820116820180604052508101906103e99190610d06565b610428576040517f08c379a000000000000000000000000000000000000000000000000000000000815260040161041f906110b4565b60405180910390fd5b8560026000600154815260200190815260200160002060020160006101000a81548173ffffffffffffffffffffffffffffffffffffffff021916908373ffffffffffffffffffffffffffffffffffffffff160217905550836002600060015481526020019081526020016000206000018190555084600260006001548152602001908152602001600020600101819055503360026000600154815260200190815260200160002060030160006101000a81548173ffffffffffffffffffffffffffffffffffffffff021916908373ffffffffffffffffffffffffffffffffffffffff16021790555082600260006001548152602001908152602001600020600401908051906020019061053c929190610b2c565b507f90cc03e03b015b3d577833e2ccea883f0ce6f935429ba7cc64c67caf681d273a60015487858833896040516105789695949392919061112f565b60405180910390a16001600081548092919061059390611401565b9190505550505050505050565b60006105aa610607565b600260008481526020019081526020016000206000015411156105fd5760006105d1610607565b60026000858152602001908152602001600020600001546105f291906112e0565b905080915050610602565b600090505b919050565b6000804290508091505090565b60008054906101000a900473ffffffffffffffffffffffffffffffffffffffff1673ffffffffffffffffffffffffffffffffffffffff163373ffffffffffffffffffffffffffffffffffffffff16146106a2576040517f08c379a000000000000000000000000000000000000000000000000000000000815260040161069990611034565b60405180910390fd5b3373ffffffffffffffffffffffffffffffffffffffff166002600083815260200190815260200160002060030160009054906101000a900473ffffffffffffffffffffffffffffffffffffffff1673ffffffffffffffffffffffffffffffffffffffff1614610746576040517f08c379a000000000000000000000000000000000000000000000000000000000815260040161073d90611054565b60405180910390fd5b600060026000838152602001908152602001600020600101541161079f576040517f08c379a0000000000000000000000000000000000000000000000000000000008152600401610796906110d4565b60405180910390fd5b60026000828152602001908152602001600020600001546107be610607565b116107fe576040517f08c379a00000000000000000000000000000000000000000000000000000000081526004016107f590611014565b60405180910390fd5b6000600260008381526020019081526020016000206001015490506002600083815260200190815260200160002060020160009054906101000a900473ffffffffffffffffffffffffffffffffffffffff1673ffffffffffffffffffffffffffffffffffffffff1663a9059cbb33836040518363ffffffff1660e01b815260040161088a929190610feb565b602060405180830381600087803b1580156108a457600080fd5b505af11580156108b8573d6000803e3d6000fd5b505050506040513d601f19601f820116820180604052508101906108dc9190610d06565b61091b576040517f08c379a0000000000000000000000000000000000000000000000000000000008152600401610912906110b4565b60405180910390fd5b600060026000848152602001908152602001600020600101819055507f3a0ffec265973870ee7839cc458911826ad63d47e56691a615b2a0180c2336c6826002600085815260200190815260200160002060020160009054906101000a900473ffffffffffffffffffffffffffffffffffffffff1660026000868152602001908152602001600020600401846002600088815260200190815260200160002060030160009054906101000a900473ffffffffffffffffffffffffffffffffffffffff166109e6610607565b6040516109f896959493929190611197565b60405180910390a15050565b60008054906101000a900473ffffffffffffffffffffffffffffffffffffffff1681565b60015481565b60026020528060005260406000206000915090508060000154908060010154908060020160009054906101000a900473ffffffffffffffffffffffffffffffffffffffff16908060030160009054906101000a900473ffffffffffffffffffffffffffffffffffffffff1690806004018054610aa99061139e565b80601f0160208091040260200160405190810160405280929190818152602001828054610ad59061139e565b8015610b225780601f10610af757610100808354040283529160200191610b22565b820191906000526020600020905b815481529060010190602001808311610b0557829003601f168201915b5050505050905085565b828054610b389061139e565b90600052602060002090601f016020900481019282610b5a5760008555610ba1565b82601f10610b7357805160ff1916838001178555610ba1565b82800160010185558215610ba1579182015b82811115610ba0578251825591602001919060010190610b85565b5b509050610bae9190610bb2565b5090565b5b80821115610bcb576000816000905550600101610bb3565b5090565b6000610be2610bdd8461127e565b611259565b905082815260208101848484011115610bfa57600080fd5b610c0584828561135c565b509392505050565b600081359050610c1c81611630565b92915050565b600081519050610c3181611647565b92915050565b600082601f830112610c4857600080fd5b8135610c58848260208601610bcf565b91505092915050565b600081359050610c708161165e565b92915050565b600081519050610c858161165e565b92915050565b60008060008060808587031215610ca157600080fd5b6000610caf87828801610c0d565b9450506020610cc087828801610c61565b9350506040610cd187828801610c61565b925050606085013567ffffffffffffffff811115610cee57600080fd5b610cfa87828801610c37565b91505092959194509250565b600060208284031215610d1857600080fd5b6000610d2684828501610c22565b91505092915050565b600060208284031215610d4157600080fd5b6000610d4f84828501610c61565b91505092915050565b600060208284031215610d6a57600080fd5b6000610d7884828501610c76565b91505092915050565b610d8a81611314565b82525050565b6000610d9b826112c4565b610da581856112cf565b9350610db581856020860161136b565b610dbe816114d7565b840191505092915050565b60008154610dd68161139e565b610de081866112cf565b94506001821660008114610dfb5760018114610e0d57610e40565b60ff1983168652602086019350610e40565b610e16856112af565b60005b83811015610e3857815481890152600182019150602081019050610e19565b808801955050505b50505092915050565b6000610e566013836112cf565b9150610e61826114e8565b602082019050919050565b6000610e79600d836112cf565b9150610e8482611511565b602082019050919050565b6000610e9c6012836112cf565b9150610ea78261153a565b602082019050919050565b6000610ebf6010836112cf565b9150610eca82611563565b602082019050919050565b6000610ee26016836112cf565b9150610eed8261158c565b602082019050919050565b6000610f05600b836112cf565b9150610f10826115b5565b602082019050919050565b6000610f286013836112cf565b9150610f33826115de565b602082019050919050565b6000610f4b601e836112cf565b9150610f5682611607565b602082019050919050565b610f6a81611352565b82525050565b6000602082019050610f856000830184610d81565b92915050565b6000604082019050610fa06000830185610d81565b610fad6020830184610d81565b9392505050565b6000606082019050610fc96000830186610d81565b610fd66020830185610d81565b610fe36040830184610f61565b949350505050565b60006040820190506110006000830185610d81565b61100d6020830184610f61565b9392505050565b6000602082019050818103600083015261102d81610e49565b9050919050565b6000602082019050818103600083015261104d81610e6c565b9050919050565b6000602082019050818103600083015261106d81610e8f565b9050919050565b6000602082019050818103600083015261108d81610eb2565b9050919050565b600060208201905081810360008301526110ad81610ed5565b9050919050565b600060208201905081810360008301526110cd81610ef8565b9050919050565b600060208201905081810360008301526110ed81610f1b565b9050919050565b6000602082019050818103600083015261110d81610f3e565b9050919050565b60006020820190506111296000830184610f61565b92915050565b600060c0820190506111446000830189610f61565b6111516020830188610d81565b81810360408301526111638187610d90565b90506111726060830186610f61565b61117f6080830185610d81565b61118c60a0830184610f61565b979650505050505050565b600060c0820190506111ac6000830189610f61565b6111b96020830188610d81565b81810360408301526111cb8187610dc9565b90506111da6060830186610f61565b6111e76080830185610d81565b6111f460a0830184610f61565b979650505050505050565b600060a0820190506112146000830188610f61565b6112216020830187610f61565b61122e6040830186610d81565b61123b6060830185610d81565b818103608083015261124d8184610d90565b90509695505050505050565b6000611263611274565b905061126f82826113d0565b919050565b6000604051905090565b600067ffffffffffffffff821115611299576112986114a8565b5b6112a2826114d7565b9050602081019050919050565b60008190508160005260206000209050919050565b600081519050919050565b600082825260208201905092915050565b60006112eb82611352565b91506112f683611352565b9250828210156113095761130861144a565b5b828203905092915050565b600061131f82611332565b9050919050565b60008115159050919050565b600073ffffffffffffffffffffffffffffffffffffffff82169050919050565b6000819050919050565b82818337600083830152505050565b60005b8381101561138957808201518184015260208101905061136e565b83811115611398576000848401525b50505050565b600060028204905060018216806113b657607f821691505b602082108114156113ca576113c9611479565b5b50919050565b6113d9826114d7565b810181811067ffffffffffffffff821117156113f8576113f76114a8565b5b80604052505050565b600061140c82611352565b91507fffffffffffffffffffffffffffffffffffffffffffffffffffffffffffffffff82141561143f5761143e61144a565b5b600182019050919050565b7f4e487b7100000000000000000000000000000000000000000000000000000000600052601160045260246000fd5b7f4e487b7100000000000000000000000000000000000000000000000000000000600052602260045260246000fd5b7f4e487b7100000000000000000000000000000000000000000000000000000000600052604160045260246000fd5b6000601f19601f8301169050919050565b7f4552525f4e4f545f554e4c4f434b5f4441544500000000000000000000000000600082015250565b7f4552525f4e4f545f4f574e455200000000000000000000000000000000000000600082015250565b7f4552525f4e4f545f4c4f434b5f4f574e45520000000000000000000000000000600082015250565b7f4552525f414d4f554e545f4e4f545f3000000000000000000000000000000000600082015250565b7f4552525f494e4352454153455f414c4c4f57414e434500000000000000000000600082015250565b7f4552525f54585f4641494c000000000000000000000000000000000000000000600082015250565b7f4552525f4c4f434b5f5749544844524157454400000000000000000000000000600082015250565b7f4552525f554e4c4f434b5f4849474845525f43555252454e545f444154450000600082015250565b61163981611314565b811461164457600080fd5b50565b61165081611326565b811461165b57600080fd5b50565b61166781611352565b811461167257600080fd5b5056fea2646970667358221220473e16284196280279fe66da0a91f31b459f7402760326dafefef13d68f2d13064736f6c63430008010033",
  "immutableReferences": {},
  "source": "// SPDX-License-Identifier: MIT\npragma solidity <=0.8.2;\n\nimport \"./interface/IERC20Burnable.sol\";\nimport \"@openzeppelin/contracts/token/ERC20/IERC20.sol\";\n\ncontract Locker {\n    address public owner;\n\n    uint public lockCount;\n\n    mapping( uint => Lock ) public locks;\n\n    struct Lock {\n        uint unlockTimestamp;\n        uint amount;\n        address tokenAddress;\n        address owner;\n        string name;\n    }\n\n    modifier onlyOwner {\n        require( \n            msg.sender == owner,\n            \"ERR_NOT_OWNER\"\n        );\n        _;\n    }\n\n    modifier isApproved( address _token, uint _amount ) {\n        require(\n            IERC20(_token).allowance( msg.sender, address(this) ) >= _amount,\n            \"ERR_INCREASE_ALLOWANCE\"\n        );\n        _;\n    }\n\n    event LockerCreated( uint lockerId, address tokenAddress, string name, uint amount, address owner, uint unlockTimestamp );\n    event Withdraw( uint lockerId, address tokenAddress, string name, uint amount, address owner, uint withdrawTimestamp );\n\n    constructor () {\n        owner = msg.sender;\n        lockCount = 0;\n    }\n\n    function createLocker( address _tokenAddress, uint _amount, uint _unlockTimestamp, string memory _name ) public onlyOwner isApproved( _tokenAddress, _amount ) {\n        require( \n            _unlockTimestamp > block.timestamp,\n            \"ERR_UNLOCK_HIGHER_CURRENT_DATE\"\n        );\n        require(\n            _amount > 0,\n            \"ERR_AMOUNT_NOT_0\"\n        );\n        require( \n            IERC20(_tokenAddress).transferFrom( msg.sender, address(this), _amount ),\n            \"ERR_TX_FAIL\"\n        );\n        locks[lockCount].tokenAddress = _tokenAddress;\n        locks[lockCount].unlockTimestamp = _unlockTimestamp;\n        locks[lockCount].amount = _amount;\n        locks[lockCount].owner = msg.sender;\n        locks[lockCount].name = _name;\n        emit LockerCreated( lockCount, _tokenAddress, _name, _amount, msg.sender, _unlockTimestamp );\n        lockCount++;\n    }\n\n    function withdraw( uint _lockId ) public onlyOwner {\n        require(\n            locks[_lockId].owner == msg.sender,\n            \"ERR_NOT_LOCK_OWNER\"\n        );\n        require( \n            locks[_lockId].amount > 0,\n            \"ERR_LOCK_WITHDRAWED\"\n        );\n        require(\n            getTimestamp() > locks[_lockId].unlockTimestamp,\n            \"ERR_NOT_UNLOCK_DATE\"\n        );\n        uint amount = locks[_lockId].amount;\n        require(\n            IERC20(\n                locks[_lockId].tokenAddress\n            ).transfer( \n                msg.sender, \n                amount \n            ),\n            \"ERR_TX_FAIL\"\n        );\n        locks[_lockId].amount = 0;\n        emit Withdraw( _lockId, locks[_lockId].tokenAddress,  locks[_lockId].name, amount, locks[_lockId].owner, getTimestamp() );\n    }\n\n    function getTimestamp() public view returns( uint ) {\n        uint timestamp = block.timestamp;\n        return timestamp;\n    }\n\n    function getRemainingTime( uint _lockId ) public view returns( uint ) {\n        if( locks[_lockId].unlockTimestamp > getTimestamp() ) {\n            uint diff = locks[_lockId].unlockTimestamp - getTimestamp();\n            return diff;\n        }else{\n            return 0;\n        }\n    }\n\n}",
  "sourcePath": "/Users/alessandrodecristofaro/Desktop/DeFi Code/croskull-repo/src/contracts/Locker.sol",
  "compiler": {
    "name": "solc",
    "version": "0.8.1+commit.df193b15.Emscripten.clang"
  },
  "schemaVersion": "3.4.3",
  "updatedAt": "2022-02-28T23:32:50.755Z",
  "devdoc": {
    "kind": "dev",
    "methods": {},
    "version": 1
  },
  "userdoc": {
    "kind": "user",
    "methods": {},
    "version": 1
  }
}