{
  "contractName": "petEggs",
  "abi": [
    {
      "inputs": [
        {
          "internalType": "contract IERC20Burnable",
          "name": "_grave",
          "type": "address"
        }
      ],
      "stateMutability": "nonpayable",
      "type": "constructor"
    },
    {
      "anonymous": false,
      "inputs": [
        {
          "indexed": true,
          "internalType": "address",
          "name": "owner",
          "type": "address"
        },
        {
          "indexed": true,
          "internalType": "address",
          "name": "approved",
          "type": "address"
        },
        {
          "indexed": true,
          "internalType": "uint256",
          "name": "tokenId",
          "type": "uint256"
        }
      ],
      "name": "Approval",
      "type": "event"
    },
    {
      "anonymous": false,
      "inputs": [
        {
          "indexed": true,
          "internalType": "address",
          "name": "owner",
          "type": "address"
        },
        {
          "indexed": true,
          "internalType": "address",
          "name": "operator",
          "type": "address"
        },
        {
          "indexed": false,
          "internalType": "bool",
          "name": "approved",
          "type": "bool"
        }
      ],
      "name": "ApprovalForAll",
      "type": "event"
    },
    {
      "anonymous": false,
      "inputs": [
        {
          "indexed": true,
          "internalType": "address",
          "name": "from",
          "type": "address"
        },
        {
          "indexed": true,
          "internalType": "address",
          "name": "to",
          "type": "address"
        },
        {
          "indexed": true,
          "internalType": "uint256",
          "name": "tokenId",
          "type": "uint256"
        }
      ],
      "name": "Transfer",
      "type": "event"
    },
    {
      "inputs": [],
      "name": "GRAVE",
      "outputs": [
        {
          "internalType": "contract IERC20Burnable",
          "name": "",
          "type": "address"
        }
      ],
      "stateMutability": "view",
      "type": "function"
    },
    {
      "inputs": [
        {
          "internalType": "address",
          "name": "to",
          "type": "address"
        },
        {
          "internalType": "uint256",
          "name": "tokenId",
          "type": "uint256"
        }
      ],
      "name": "approve",
      "outputs": [],
      "stateMutability": "nonpayable",
      "type": "function"
    },
    {
      "inputs": [
        {
          "internalType": "address",
          "name": "owner",
          "type": "address"
        }
      ],
      "name": "balanceOf",
      "outputs": [
        {
          "internalType": "uint256",
          "name": "",
          "type": "uint256"
        }
      ],
      "stateMutability": "view",
      "type": "function"
    },
    {
      "inputs": [],
      "name": "baseURI",
      "outputs": [
        {
          "internalType": "string",
          "name": "",
          "type": "string"
        }
      ],
      "stateMutability": "view",
      "type": "function"
    },
    {
      "inputs": [],
      "name": "eggCost",
      "outputs": [
        {
          "internalType": "uint256",
          "name": "",
          "type": "uint256"
        }
      ],
      "stateMutability": "view",
      "type": "function"
    },
    {
      "inputs": [],
      "name": "eggsCounter",
      "outputs": [
        {
          "internalType": "uint256",
          "name": "",
          "type": "uint256"
        }
      ],
      "stateMutability": "view",
      "type": "function"
    },
    {
      "inputs": [],
      "name": "eggsLimit",
      "outputs": [
        {
          "internalType": "uint256",
          "name": "",
          "type": "uint256"
        }
      ],
      "stateMutability": "view",
      "type": "function"
    },
    {
      "inputs": [],
      "name": "eggsPerAddress",
      "outputs": [
        {
          "internalType": "uint256",
          "name": "",
          "type": "uint256"
        }
      ],
      "stateMutability": "view",
      "type": "function"
    },
    {
      "inputs": [
        {
          "internalType": "uint256",
          "name": "tokenId",
          "type": "uint256"
        }
      ],
      "name": "getApproved",
      "outputs": [
        {
          "internalType": "address",
          "name": "",
          "type": "address"
        }
      ],
      "stateMutability": "view",
      "type": "function"
    },
    {
      "inputs": [
        {
          "internalType": "address",
          "name": "owner",
          "type": "address"
        },
        {
          "internalType": "address",
          "name": "operator",
          "type": "address"
        }
      ],
      "name": "isApprovedForAll",
      "outputs": [
        {
          "internalType": "bool",
          "name": "",
          "type": "bool"
        }
      ],
      "stateMutability": "view",
      "type": "function"
    },
    {
      "inputs": [
        {
          "internalType": "address",
          "name": "",
          "type": "address"
        }
      ],
      "name": "minterList",
      "outputs": [
        {
          "internalType": "uint256",
          "name": "",
          "type": "uint256"
        }
      ],
      "stateMutability": "view",
      "type": "function"
    },
    {
      "inputs": [],
      "name": "name",
      "outputs": [
        {
          "internalType": "string",
          "name": "",
          "type": "string"
        }
      ],
      "stateMutability": "view",
      "type": "function"
    },
    {
      "inputs": [
        {
          "internalType": "uint256",
          "name": "tokenId",
          "type": "uint256"
        }
      ],
      "name": "ownerOf",
      "outputs": [
        {
          "internalType": "address",
          "name": "",
          "type": "address"
        }
      ],
      "stateMutability": "view",
      "type": "function"
    },
    {
      "inputs": [
        {
          "internalType": "address",
          "name": "from",
          "type": "address"
        },
        {
          "internalType": "address",
          "name": "to",
          "type": "address"
        },
        {
          "internalType": "uint256",
          "name": "tokenId",
          "type": "uint256"
        }
      ],
      "name": "safeTransferFrom",
      "outputs": [],
      "stateMutability": "nonpayable",
      "type": "function"
    },
    {
      "inputs": [
        {
          "internalType": "address",
          "name": "from",
          "type": "address"
        },
        {
          "internalType": "address",
          "name": "to",
          "type": "address"
        },
        {
          "internalType": "uint256",
          "name": "tokenId",
          "type": "uint256"
        },
        {
          "internalType": "bytes",
          "name": "_data",
          "type": "bytes"
        }
      ],
      "name": "safeTransferFrom",
      "outputs": [],
      "stateMutability": "nonpayable",
      "type": "function"
    },
    {
      "inputs": [
        {
          "internalType": "address",
          "name": "operator",
          "type": "address"
        },
        {
          "internalType": "bool",
          "name": "approved",
          "type": "bool"
        }
      ],
      "name": "setApprovalForAll",
      "outputs": [],
      "stateMutability": "nonpayable",
      "type": "function"
    },
    {
      "inputs": [
        {
          "internalType": "bytes4",
          "name": "interfaceId",
          "type": "bytes4"
        }
      ],
      "name": "supportsInterface",
      "outputs": [
        {
          "internalType": "bool",
          "name": "",
          "type": "bool"
        }
      ],
      "stateMutability": "view",
      "type": "function"
    },
    {
      "inputs": [],
      "name": "symbol",
      "outputs": [
        {
          "internalType": "string",
          "name": "",
          "type": "string"
        }
      ],
      "stateMutability": "view",
      "type": "function"
    },
    {
      "inputs": [
        {
          "internalType": "uint256",
          "name": "index",
          "type": "uint256"
        }
      ],
      "name": "tokenByIndex",
      "outputs": [
        {
          "internalType": "uint256",
          "name": "",
          "type": "uint256"
        }
      ],
      "stateMutability": "view",
      "type": "function"
    },
    {
      "inputs": [
        {
          "internalType": "address",
          "name": "owner",
          "type": "address"
        },
        {
          "internalType": "uint256",
          "name": "index",
          "type": "uint256"
        }
      ],
      "name": "tokenOfOwnerByIndex",
      "outputs": [
        {
          "internalType": "uint256",
          "name": "",
          "type": "uint256"
        }
      ],
      "stateMutability": "view",
      "type": "function"
    },
    {
      "inputs": [
        {
          "internalType": "uint256",
          "name": "tokenId",
          "type": "uint256"
        }
      ],
      "name": "tokenURI",
      "outputs": [
        {
          "internalType": "string",
          "name": "",
          "type": "string"
        }
      ],
      "stateMutability": "view",
      "type": "function"
    },
    {
      "inputs": [],
      "name": "totalSupply",
      "outputs": [
        {
          "internalType": "uint256",
          "name": "",
          "type": "uint256"
        }
      ],
      "stateMutability": "view",
      "type": "function"
    },
    {
      "inputs": [
        {
          "internalType": "address",
          "name": "from",
          "type": "address"
        },
        {
          "internalType": "address",
          "name": "to",
          "type": "address"
        },
        {
          "internalType": "uint256",
          "name": "tokenId",
          "type": "uint256"
        }
      ],
      "name": "transferFrom",
      "outputs": [],
      "stateMutability": "nonpayable",
      "type": "function"
    },
    {
      "inputs": [
        {
          "internalType": "address",
          "name": "_to",
          "type": "address"
        }
      ],
      "name": "purchaseEgg",
      "outputs": [],
      "stateMutability": "nonpayable",
      "type": "function"
    },
    {
      "inputs": [
        {
          "internalType": "string",
          "name": "baseURI",
          "type": "string"
        }
      ],
      "name": "setBaseURI",
      "outputs": [],
      "stateMutability": "nonpayable",
      "type": "function"
    },
    {
      "inputs": [
        {
          "internalType": "address",
          "name": "_to",
          "type": "address"
        },
        {
          "internalType": "uint256",
          "name": "amount",
          "type": "uint256"
        }
      ],
      "name": "adminMintEgg",
      "outputs": [],
      "stateMutability": "nonpayable",
      "type": "function"
    },
    {
      "inputs": [
        {
          "internalType": "uint256",
          "name": "_cost",
          "type": "uint256"
        }
      ],
      "name": "adminSetCost",
      "outputs": [],
      "stateMutability": "nonpayable",
      "type": "function"
    },
    {
      "inputs": [
        {
          "internalType": "contract IERC20Burnable",
          "name": "_contractAddress",
          "type": "address"
        }
      ],
      "name": "adminSetToken",
      "outputs": [],
      "stateMutability": "nonpayable",
      "type": "function"
    },
    {
      "inputs": [
        {
          "internalType": "uint256",
          "name": "_newCap",
          "type": "uint256"
        }
      ],
      "name": "adminSetMaxCap",
      "outputs": [],
      "stateMutability": "nonpayable",
      "type": "function"
    },
    {
      "inputs": [
        {
          "internalType": "uint256",
          "name": "_newLimit",
          "type": "uint256"
        }
      ],
      "name": "adminSetMaxLimitPerAddress",
      "outputs": [],
      "stateMutability": "nonpayable",
      "type": "function"
    }
  ],
  "bytecode": "0x6080604052681b1ae4d6e2ef500000600c556000600d55610898600e556002600f553480156200002e57600080fd5b50604051620047c4380380620047c483398181016040528101906200005491906200037c565b6040518060400160405280601281526020017f43726f536b756c6c7320506574204567677300000000000000000000000000008152506040518060400160405280600481526020017f4352504500000000000000000000000000000000000000000000000000000000815250620000d86301ffc9a760e01b620001dd60201b60201c565b8160069080519060200190620000f0929190620002b5565b50806007908051906020019062000109929190620002b5565b50620001226380ac58cd60e01b620001dd60201b60201c565b6200013a635b5e139f60e01b620001dd60201b60201c565b6200015263780e9d6360e01b620001dd60201b60201c565b505033600a60006101000a81548173ffffffffffffffffffffffffffffffffffffffff021916908373ffffffffffffffffffffffffffffffffffffffff16021790555080600b60006101000a81548173ffffffffffffffffffffffffffffffffffffffff021916908373ffffffffffffffffffffffffffffffffffffffff16021790555050620004e4565b63ffffffff60e01b817bffffffffffffffffffffffffffffffffffffffffffffffffffffffff1916141562000249576040517f08c379a00000000000000000000000000000000000000000000000000000000081526004016200024090620003ea565b60405180910390fd5b6001600080837bffffffffffffffffffffffffffffffffffffffffffffffffffffffff19167bffffffffffffffffffffffffffffffffffffffffffffffffffffffff1916815260200190815260200160002060006101000a81548160ff02191690831515021790555050565b828054620002c39062000465565b90600052602060002090601f016020900481019282620002e7576000855562000333565b82601f106200030257805160ff191683800117855562000333565b8280016001018555821562000333579182015b828111156200033257825182559160200191906001019062000315565b5b50905062000342919062000346565b5090565b5b808211156200036157600081600090555060010162000347565b5090565b6000815190506200037681620004ca565b92915050565b6000602082840312156200038f57600080fd5b60006200039f8482850162000365565b91505092915050565b6000620003b7601c836200040c565b91507f4552433136353a20696e76616c696420696e74657266616365206964000000006000830152602082019050919050565b600060208201905081810360008301526200040581620003a8565b9050919050565b600082825260208201905092915050565b60006200042a8262000445565b9050919050565b60006200043e826200041d565b9050919050565b600073ffffffffffffffffffffffffffffffffffffffff82169050919050565b600060028204905060018216806200047e57607f821691505b602082108114156200049557620004946200049b565b5b50919050565b7f4e487b7100000000000000000000000000000000000000000000000000000000600052602260045260246000fd5b620004d58162000431565b8114620004e157600080fd5b50565b6142d080620004f46000396000f3fe608060405234801561001057600080fd5b50600436106101da5760003560e01c8063513f286211610104578063825bc019116100a2578063b88d4fde11610071578063b88d4fde14610555578063c56cdb0914610571578063c87b56dd1461058d578063e985e9c5146105bd576101da565b8063825bc019146104e157806395d89b41146104ff578063a22cb4651461051d578063a947e47614610539576101da565b80635c30f940116100de5780635c30f940146104475780636352211e146104635780636c0360eb1461049357806370a08231146104b1576101da565b8063513f2862146103df57806352a5ec86146103fb57806355f804b31461042b576101da565b806323b872dd1161017c57806342842e0e1161014b57806342842e0e1461035757806347a80620146103735780634b7f4f19146103915780634f6ccce7146103af576101da565b806323b872dd146102d15780632f745c59146102ed5780633b330b901461031d5780633c4f09271461033b576101da565b8063081812fc116101b8578063081812fc1461024b578063095ea7b31461027b57806318160ddd146102975780631fadde4b146102b5576101da565b806301ffc9a7146101df578063056e06bd1461020f57806306fdde031461022d575b600080fd5b6101f960048036038101906101f49190612e70565b6105ed565b60405161020691906139f0565b60405180910390f35b610217610654565b6040516102249190613d88565b60405180910390f35b61023561065a565b6040516102429190613a26565b60405180910390f35b61026560048036038101906102609190612f2c565b6106ec565b6040516102729190613937565b60405180910390f35b61029560048036038101906102909190612e34565b610771565b005b61029f610889565b6040516102ac9190613d88565b60405180910390f35b6102cf60048036038101906102ca9190612f2c565b61089a565b005b6102eb60048036038101906102e69190612d2e565b610977565b005b61030760048036038101906103029190612e34565b6109d7565b6040516103149190613d88565b60405180910390f35b610325610a32565b6040516103329190613d88565b60405180910390f35b61035560048036038101906103509190612f2c565b610a38565b005b610371600480360381019061036c9190612d2e565b610b5a565b005b61037b610b7a565b6040516103889190613a0b565b60405180910390f35b610399610ba0565b6040516103a69190613d88565b60405180910390f35b6103c960048036038101906103c49190612f2c565b610ba6565b6040516103d69190613d88565b60405180910390f35b6103f960048036038101906103f49190612ec2565b610bc9565b005b61041560048036038101906104109190612cc9565b610d0d565b6040516104229190613d88565b60405180910390f35b61044560048036038101906104409190612eeb565b610d25565b005b610461600480360381019061045c9190612cc9565b610dc1565b005b61047d60048036038101906104789190612f2c565b611177565b60405161048a9190613937565b60405180910390f35b61049b6111ae565b6040516104a89190613a26565b60405180910390f35b6104cb60048036038101906104c69190612cc9565b611240565b6040516104d89190613d88565b60405180910390f35b6104e96112ff565b6040516104f69190613d88565b60405180910390f35b610507611305565b6040516105149190613a26565b60405180910390f35b61053760048036038101906105329190612df8565b611397565b005b610553600480360381019061054e9190612e34565b611518565b005b61056f600480360381019061056a9190612d7d565b611641565b005b61058b60048036038101906105869190612f2c565b6116a3565b005b6105a760048036038101906105a29190612f2c565b611780565b6040516105b49190613a26565b60405180910390f35b6105d760048036038101906105d29190612cf2565b6118f3565b6040516105e491906139f0565b60405180910390f35b6000806000837bffffffffffffffffffffffffffffffffffffffffffffffffffffffff19167bffffffffffffffffffffffffffffffffffffffffffffffffffffffff1916815260200190815260200160002060009054906101000a900460ff169050919050565b600e5481565b60606006805461066990614053565b80601f016020809104026020016040519081016040528092919081815260200182805461069590614053565b80156106e25780601f106106b7576101008083540402835291602001916106e2565b820191906000526020600020905b8154815290600101906020018083116106c557829003601f168201915b5050505050905090565b60006106f782611987565b610736576040517f08c379a000000000000000000000000000000000000000000000000000000000815260040161072d90613c48565b60405180910390fd5b6004600083815260200190815260200160002060009054906101000a900473ffffffffffffffffffffffffffffffffffffffff169050919050565b600061077c82611177565b90508073ffffffffffffffffffffffffffffffffffffffff168373ffffffffffffffffffffffffffffffffffffffff1614156107ed576040517f08c379a00000000000000000000000000000000000000000000000000000000081526004016107e490613ce8565b60405180910390fd5b8073ffffffffffffffffffffffffffffffffffffffff1661080c6119a4565b73ffffffffffffffffffffffffffffffffffffffff16148061083b575061083a816108356119a4565b6118f3565b5b61087a576040517f08c379a000000000000000000000000000000000000000000000000000000000815260040161087190613b88565b60405180910390fd5b61088483836119ac565b505050565b60006108956002611a65565b905090565b3373ffffffffffffffffffffffffffffffffffffffff16600a60009054906101000a900473ffffffffffffffffffffffffffffffffffffffff1673ffffffffffffffffffffffffffffffffffffffff161461092a576040517f08c379a000000000000000000000000000000000000000000000000000000000815260040161092190613a68565b60405180910390fd5b6000811161096d576040517f08c379a000000000000000000000000000000000000000000000000000000000815260040161096490613d28565b60405180910390fd5b80600e8190555050565b6109886109826119a4565b82611a7a565b6109c7576040517f08c379a00000000000000000000000000000000000000000000000000000000081526004016109be90613d08565b60405180910390fd5b6109d2838383611b58565b505050565b6000610a2a82600160008673ffffffffffffffffffffffffffffffffffffffff1673ffffffffffffffffffffffffffffffffffffffff168152602001908152602001600020611d6f90919063ffffffff16565b905092915050565b600c5481565b3373ffffffffffffffffffffffffffffffffffffffff16600a60009054906101000a900473ffffffffffffffffffffffffffffffffffffffff1673ffffffffffffffffffffffffffffffffffffffff1614610ac8576040517f08c379a0000000000000000000000000000000000000000000000000000000008152600401610abf90613a68565b60405180910390fd5b80600c541415610b0d576040517f08c379a0000000000000000000000000000000000000000000000000000000008152600401610b0490613cc8565b60405180910390fd5b60008111610b50576040517f08c379a0000000000000000000000000000000000000000000000000000000008152600401610b4790613ba8565b60405180910390fd5b80600c8190555050565b610b7583838360405180602001604052806000815250611641565b505050565b600b60009054906101000a900473ffffffffffffffffffffffffffffffffffffffff1681565b600f5481565b600080610bbd836002611d8990919063ffffffff16565b50905080915050919050565b3373ffffffffffffffffffffffffffffffffffffffff16600a60009054906101000a900473ffffffffffffffffffffffffffffffffffffffff1673ffffffffffffffffffffffffffffffffffffffff1614610c59576040517f08c379a0000000000000000000000000000000000000000000000000000000008152600401610c5090613a68565b60405180910390fd5b600073ffffffffffffffffffffffffffffffffffffffff168173ffffffffffffffffffffffffffffffffffffffff161415610cc9576040517f08c379a0000000000000000000000000000000000000000000000000000000008152600401610cc090613b68565b60405180910390fd5b80600b60006101000a81548173ffffffffffffffffffffffffffffffffffffffff021916908373ffffffffffffffffffffffffffffffffffffffff16021790555050565b60106020528060005260406000206000915090505481565b3373ffffffffffffffffffffffffffffffffffffffff16600a60009054906101000a900473ffffffffffffffffffffffffffffffffffffffff1673ffffffffffffffffffffffffffffffffffffffff1614610db5576040517f08c379a0000000000000000000000000000000000000000000000000000000008152600401610dac90613a68565b60405180910390fd5b610dbe81611db5565b50565b600c54600b60009054906101000a900473ffffffffffffffffffffffffffffffffffffffff1673ffffffffffffffffffffffffffffffffffffffff166370a08231336040518263ffffffff1660e01b8152600401610e1f9190613937565b60206040518083038186803b158015610e3757600080fd5b505afa158015610e4b573d6000803e3d6000fd5b505050506040513d601f19601f82011682018060405250810190610e6f9190612f55565b1015610eb0576040517f08c379a0000000000000000000000000000000000000000000000000000000008152600401610ea790613d68565b60405180910390fd5b600c54600b60009054906101000a900473ffffffffffffffffffffffffffffffffffffffff1673ffffffffffffffffffffffffffffffffffffffff1663dd62ed3e33306040518363ffffffff1660e01b8152600401610f10929190613952565b60206040518083038186803b158015610f2857600080fd5b505afa158015610f3c573d6000803e3d6000fd5b505050506040513d601f19601f82011682018060405250810190610f609190612f55565b1015610fa1576040517f08c379a0000000000000000000000000000000000000000000000000000000008152600401610f9890613b08565b60405180910390fd5b600e54600d5410610fe7576040517f08c379a0000000000000000000000000000000000000000000000000000000008152600401610fde90613c28565b60405180910390fd5b600f54601060003373ffffffffffffffffffffffffffffffffffffffff1673ffffffffffffffffffffffffffffffffffffffff168152602001908152602001600020541061106a576040517f08c379a000000000000000000000000000000000000000000000000000000000815260040161106190613ca8565b60405180910390fd5b600b60009054906101000a900473ffffffffffffffffffffffffffffffffffffffff1673ffffffffffffffffffffffffffffffffffffffff166379cc679033600c546040518363ffffffff1660e01b81526004016110c99291906139c7565b600060405180830381600087803b1580156110e357600080fd5b505af11580156110f7573d6000803e3d6000fd5b50505050600d600081548092919061110e90614085565b9190505550601060003373ffffffffffffffffffffffffffffffffffffffff1673ffffffffffffffffffffffffffffffffffffffff168152602001908152602001600020600081548092919061116390614085565b919050555061117481600d54611dcf565b50565b60006111a782604051806060016040528060298152602001614272602991396002611f5d9092919063ffffffff16565b9050919050565b6060600980546111bd90614053565b80601f01602080910402602001604051908101604052809291908181526020018280546111e990614053565b80156112365780601f1061120b57610100808354040283529160200191611236565b820191906000526020600020905b81548152906001019060200180831161121957829003601f168201915b5050505050905090565b60008073ffffffffffffffffffffffffffffffffffffffff168273ffffffffffffffffffffffffffffffffffffffff1614156112b1576040517f08c379a00000000000000000000000000000000000000000000000000000000081526004016112a890613bc8565b60405180910390fd5b6112f8600160008473ffffffffffffffffffffffffffffffffffffffff1673ffffffffffffffffffffffffffffffffffffffff168152602001908152602001600020611f7c565b9050919050565b600d5481565b60606007805461131490614053565b80601f016020809104026020016040519081016040528092919081815260200182805461134090614053565b801561138d5780601f106113625761010080835404028352916020019161138d565b820191906000526020600020905b81548152906001019060200180831161137057829003601f168201915b5050505050905090565b61139f6119a4565b73ffffffffffffffffffffffffffffffffffffffff168273ffffffffffffffffffffffffffffffffffffffff16141561140d576040517f08c379a000000000000000000000000000000000000000000000000000000000815260040161140490613ae8565b60405180910390fd5b806005600061141a6119a4565b73ffffffffffffffffffffffffffffffffffffffff1673ffffffffffffffffffffffffffffffffffffffff16815260200190815260200160002060008473ffffffffffffffffffffffffffffffffffffffff1673ffffffffffffffffffffffffffffffffffffffff16815260200190815260200160002060006101000a81548160ff0219169083151502179055508173ffffffffffffffffffffffffffffffffffffffff166114c76119a4565b73ffffffffffffffffffffffffffffffffffffffff167f17307eab39ab6107e8899845ad3d59bd9653f200f220920489ca2b5937696c318360405161150c91906139f0565b60405180910390a35050565b3373ffffffffffffffffffffffffffffffffffffffff16600a60009054906101000a900473ffffffffffffffffffffffffffffffffffffffff1673ffffffffffffffffffffffffffffffffffffffff16146115a8576040517f08c379a000000000000000000000000000000000000000000000000000000000815260040161159f90613a68565b60405180910390fd5b600e5481600d546115b99190613e82565b11156115fa576040517f08c379a00000000000000000000000000000000000000000000000000000000081526004016115f190613c28565b60405180910390fd5b60005b8181101561163c57600d600081548092919061161890614085565b919050555061162983600d54611dcf565b808061163490614085565b9150506115fd565b505050565b61165261164c6119a4565b83611a7a565b611691576040517f08c379a000000000000000000000000000000000000000000000000000000000815260040161168890613d08565b60405180910390fd5b61169d84848484611f91565b50505050565b3373ffffffffffffffffffffffffffffffffffffffff16600a60009054906101000a900473ffffffffffffffffffffffffffffffffffffffff1673ffffffffffffffffffffffffffffffffffffffff1614611733576040517f08c379a000000000000000000000000000000000000000000000000000000000815260040161172a90613a68565b60405180910390fd5b60008111611776576040517f08c379a000000000000000000000000000000000000000000000000000000000815260040161176d90613d28565b60405180910390fd5b80600f8190555050565b606061178b82611987565b6117ca576040517f08c379a00000000000000000000000000000000000000000000000000000000081526004016117c190613c88565b60405180910390fd5b60006008600084815260200190815260200160002080546117ea90614053565b80601f016020809104026020016040519081016040528092919081815260200182805461181690614053565b80156118635780601f1061183857610100808354040283529160200191611863565b820191906000526020600020905b81548152906001019060200180831161184657829003601f168201915b5050505050905060006118746111ae565b905060008151141561188a5781925050506118ee565b6000825111156118bf5780826040516020016118a7929190613913565b604051602081830303815290604052925050506118ee565b806118c985611fed565b6040516020016118da929190613913565b604051602081830303815290604052925050505b919050565b6000600560008473ffffffffffffffffffffffffffffffffffffffff1673ffffffffffffffffffffffffffffffffffffffff16815260200190815260200160002060008373ffffffffffffffffffffffffffffffffffffffff1673ffffffffffffffffffffffffffffffffffffffff16815260200190815260200160002060009054906101000a900460ff16905092915050565b600061199d8260026121ac90919063ffffffff16565b9050919050565b600033905090565b816004600083815260200190815260200160002060006101000a81548173ffffffffffffffffffffffffffffffffffffffff021916908373ffffffffffffffffffffffffffffffffffffffff160217905550808273ffffffffffffffffffffffffffffffffffffffff16611a1f83611177565b73ffffffffffffffffffffffffffffffffffffffff167f8c5be1e5ebec7d5bd14f71427d1e84f3dd0314c0f7b2291e5b200ac8c7c3b92560405160405180910390a45050565b6000611a73826000016121c6565b9050919050565b6000611a8582611987565b611ac4576040517f08c379a0000000000000000000000000000000000000000000000000000000008152600401611abb90613b48565b60405180910390fd5b6000611acf83611177565b90508073ffffffffffffffffffffffffffffffffffffffff168473ffffffffffffffffffffffffffffffffffffffff161480611b3e57508373ffffffffffffffffffffffffffffffffffffffff16611b26846106ec565b73ffffffffffffffffffffffffffffffffffffffff16145b80611b4f5750611b4e81856118f3565b5b91505092915050565b8273ffffffffffffffffffffffffffffffffffffffff16611b7882611177565b73ffffffffffffffffffffffffffffffffffffffff1614611bce576040517f08c379a0000000000000000000000000000000000000000000000000000000008152600401611bc590613c68565b60405180910390fd5b600073ffffffffffffffffffffffffffffffffffffffff168273ffffffffffffffffffffffffffffffffffffffff161415611c3e576040517f08c379a0000000000000000000000000000000000000000000000000000000008152600401611c3590613ac8565b60405180910390fd5b611c498383836121d7565b611c546000826119ac565b611ca581600160008673ffffffffffffffffffffffffffffffffffffffff1673ffffffffffffffffffffffffffffffffffffffff1681526020019081526020016000206121dc90919063ffffffff16565b50611cf781600160008573ffffffffffffffffffffffffffffffffffffffff1673ffffffffffffffffffffffffffffffffffffffff1681526020019081526020016000206121f690919063ffffffff16565b50611d0e818360026122109092919063ffffffff16565b50808273ffffffffffffffffffffffffffffffffffffffff168473ffffffffffffffffffffffffffffffffffffffff167fddf252ad1be2c89b69c2b068fc378daa952ba7f163c4a11628f55a4df523b3ef60405160405180910390a4505050565b6000611d7e8360000183612245565b60001c905092915050565b600080600080611d9c86600001866122df565b915091508160001c8160001c9350935050509250929050565b8060099080519060200190611dcb929190612ac3565b5050565b600073ffffffffffffffffffffffffffffffffffffffff168273ffffffffffffffffffffffffffffffffffffffff161415611e3f576040517f08c379a0000000000000000000000000000000000000000000000000000000008152600401611e3690613c08565b60405180910390fd5b611e4881611987565b15611e88576040517f08c379a0000000000000000000000000000000000000000000000000000000008152600401611e7f90613aa8565b60405180910390fd5b611e94600083836121d7565b611ee581600160008573ffffffffffffffffffffffffffffffffffffffff1673ffffffffffffffffffffffffffffffffffffffff1681526020019081526020016000206121f690919063ffffffff16565b50611efc818360026122109092919063ffffffff16565b50808273ffffffffffffffffffffffffffffffffffffffff16600073ffffffffffffffffffffffffffffffffffffffff167fddf252ad1be2c89b69c2b068fc378daa952ba7f163c4a11628f55a4df523b3ef60405160405180910390a45050565b6000611f70846000018460001b8461238f565b60001c90509392505050565b6000611f8a82600001612456565b9050919050565b611f9c848484611b58565b611fa884848484612467565b611fe7576040517f08c379a0000000000000000000000000000000000000000000000000000000008152600401611fde90613a88565b60405180910390fd5b50505050565b60606000821415612035576040518060400160405280600181526020017f300000000000000000000000000000000000000000000000000000000000000081525090506121a7565b600082905060005b6000821461206757808061205090614085565b915050600a826120609190613ed8565b915061203d565b60008167ffffffffffffffff8111156120a9577f4e487b7100000000000000000000000000000000000000000000000000000000600052604160045260246000fd5b6040519080825280601f01601f1916602001820160405280156120db5781602001600182028036833780820191505090505b50905060006001836120ed9190613f09565b90508593505b6000841461219f57600a8461210891906140ce565b60306121149190613e82565b60f81b82828061212390614029565b93508151811061215c577f4e487b7100000000000000000000000000000000000000000000000000000000600052603260045260246000fd5b60200101907effffffffffffffffffffffffffffffffffffffffffffffffffffffffffffff1916908160001a905350600a846121989190613ed8565b93506120f3565b819450505050505b919050565b60006121be836000018360001b6125cb565b905092915050565b600081600001805490509050919050565b505050565b60006121ee836000018360001b6125ee565b905092915050565b6000612208836000018360001b612778565b905092915050565b600061223c846000018460001b8473ffffffffffffffffffffffffffffffffffffffff1660001b6127e8565b90509392505050565b600081836000018054905011612290576040517f08c379a000000000000000000000000000000000000000000000000000000000815260040161228790613a48565b60405180910390fd5b8260000182815481106122cc577f4e487b7100000000000000000000000000000000000000000000000000000000600052603260045260246000fd5b9060005260206000200154905092915050565b6000808284600001805490501161232b576040517f08c379a000000000000000000000000000000000000000000000000000000000815260040161232290613be8565b60405180910390fd5b6000846000018481548110612369577f4e487b7100000000000000000000000000000000000000000000000000000000600052603260045260246000fd5b906000526020600020906002020190508060000154816001015492509250509250929050565b600080846001016000858152602001908152602001600020549050600081141583906123f1576040517f08c379a00000000000000000000000000000000000000000000000000000000081526004016123e89190613a26565b60405180910390fd5b50846000016001826124039190613f09565b8154811061243a577f4e487b7100000000000000000000000000000000000000000000000000000000600052603260045260246000fd5b9060005260206000209060020201600101549150509392505050565b600081600001805490509050919050565b60006124888473ffffffffffffffffffffffffffffffffffffffff166128fa565b61249557600190506125c3565b600061255c63150b7a0260e01b6124aa6119a4565b8887876040516024016124c0949392919061397b565b604051602081830303815290604052907bffffffffffffffffffffffffffffffffffffffffffffffffffffffff19166020820180517bffffffffffffffffffffffffffffffffffffffffffffffffffffffff8381831617835250505050604051806060016040528060328152602001614240603291398773ffffffffffffffffffffffffffffffffffffffff1661290d9092919063ffffffff16565b90506000818060200190518101906125749190612e99565b905063150b7a0260e01b7bffffffffffffffffffffffffffffffffffffffffffffffffffffffff1916817bffffffffffffffffffffffffffffffffffffffffffffffffffffffff191614925050505b949350505050565b600080836001016000848152602001908152602001600020541415905092915050565b6000808360010160008481526020019081526020016000205490506000811461276c5760006001826126209190613f09565b90506000600186600001805490506126389190613f09565b90506000866000018281548110612678577f4e487b7100000000000000000000000000000000000000000000000000000000600052603260045260246000fd5b90600052602060002001549050808760000184815481106126c2577f4e487b7100000000000000000000000000000000000000000000000000000000600052603260045260246000fd5b90600052602060002001819055506001836126dd9190613e82565b8760010160008381526020019081526020016000208190555086600001805480612730577f4e487b7100000000000000000000000000000000000000000000000000000000600052603160045260246000fd5b60019003818190600052602060002001600090559055866001016000878152602001908152602001600020600090556001945050505050612772565b60009150505b92915050565b60006127848383612925565b6127dd5782600001829080600181540180825580915050600190039060005260206000200160009091909190915055826000018054905083600101600084815260200190815260200160002081905550600190506127e2565b600090505b92915050565b600080846001016000858152602001908152602001600020549050600081141561288f578460000160405180604001604052808681526020018581525090806001815401808255809150506001900390600052602060002090600202016000909190919091506000820151816000015560208201518160010155505084600001805490508560010160008681526020019081526020016000208190555060019150506128f3565b82856000016001836128a19190613f09565b815481106128d8577f4e487b7100000000000000000000000000000000000000000000000000000000600052603260045260246000fd5b90600052602060002090600202016001018190555060009150505b9392505050565b600080823b905060008111915050919050565b606061291c8484600085612948565b90509392505050565b600080836001016000848152602001908152602001600020541415905092915050565b60608247101561298d576040517f08c379a000000000000000000000000000000000000000000000000000000000815260040161298490613b28565b60405180910390fd5b612996856128fa565b6129d5576040517f08c379a00000000000000000000000000000000000000000000000000000000081526004016129cc90613d48565b60405180910390fd5b6000808673ffffffffffffffffffffffffffffffffffffffff1685876040516129fe91906138fc565b60006040518083038185875af1925050503d8060008114612a3b576040519150601f19603f3d011682016040523d82523d6000602084013e612a40565b606091505b5091509150612a50828286612a5c565b92505050949350505050565b60608315612a6c57829050612abc565b600083511115612a7f5782518084602001fd5b816040517f08c379a0000000000000000000000000000000000000000000000000000000008152600401612ab39190613a26565b60405180910390fd5b9392505050565b828054612acf90614053565b90600052602060002090601f016020900481019282612af15760008555612b38565b82601f10612b0a57805160ff1916838001178555612b38565b82800160010185558215612b38579182015b82811115612b37578251825591602001919060010190612b1c565b5b509050612b459190612b49565b5090565b5b80821115612b62576000816000905550600101612b4a565b5090565b6000612b79612b7484613dd4565b613da3565b905082815260208101848484011115612b9157600080fd5b612b9c848285613fe7565b509392505050565b6000612bb7612bb284613e04565b613da3565b905082815260208101848484011115612bcf57600080fd5b612bda848285613fe7565b509392505050565b600081359050612bf1816141cc565b92915050565b600081359050612c06816141e3565b92915050565b600081359050612c1b816141fa565b92915050565b600081519050612c30816141fa565b92915050565b600082601f830112612c4757600080fd5b8135612c57848260208601612b66565b91505092915050565b600081359050612c6f81614211565b92915050565b600082601f830112612c8657600080fd5b8135612c96848260208601612ba4565b91505092915050565b600081359050612cae81614228565b92915050565b600081519050612cc381614228565b92915050565b600060208284031215612cdb57600080fd5b6000612ce984828501612be2565b91505092915050565b60008060408385031215612d0557600080fd5b6000612d1385828601612be2565b9250506020612d2485828601612be2565b9150509250929050565b600080600060608486031215612d4357600080fd5b6000612d5186828701612be2565b9350506020612d6286828701612be2565b9250506040612d7386828701612c9f565b9150509250925092565b60008060008060808587031215612d9357600080fd5b6000612da187828801612be2565b9450506020612db287828801612be2565b9350506040612dc387828801612c9f565b925050606085013567ffffffffffffffff811115612de057600080fd5b612dec87828801612c36565b91505092959194509250565b60008060408385031215612e0b57600080fd5b6000612e1985828601612be2565b9250506020612e2a85828601612bf7565b9150509250929050565b60008060408385031215612e4757600080fd5b6000612e5585828601612be2565b9250506020612e6685828601612c9f565b9150509250929050565b600060208284031215612e8257600080fd5b6000612e9084828501612c0c565b91505092915050565b600060208284031215612eab57600080fd5b6000612eb984828501612c21565b91505092915050565b600060208284031215612ed457600080fd5b6000612ee284828501612c60565b91505092915050565b600060208284031215612efd57600080fd5b600082013567ffffffffffffffff811115612f1757600080fd5b612f2384828501612c75565b91505092915050565b600060208284031215612f3e57600080fd5b6000612f4c84828501612c9f565b91505092915050565b600060208284031215612f6757600080fd5b6000612f7584828501612cb4565b91505092915050565b612f8781613f3d565b82525050565b612f9681613f4f565b82525050565b6000612fa782613e34565b612fb18185613e4a565b9350612fc1818560208601613ff6565b612fca816141bb565b840191505092915050565b6000612fe082613e34565b612fea8185613e5b565b9350612ffa818560208601613ff6565b80840191505092915050565b61300f81613fc3565b82525050565b600061302082613e3f565b61302a8185613e66565b935061303a818560208601613ff6565b613043816141bb565b840191505092915050565b600061305982613e3f565b6130638185613e77565b9350613073818560208601613ff6565b80840191505092915050565b600061308c602283613e66565b91507f456e756d657261626c655365743a20696e646578206f7574206f6620626f756e60008301527f64730000000000000000000000000000000000000000000000000000000000006020830152604082019050919050565b60006130f2600d83613e66565b91507f4552525f4e4f545f4f574e4552000000000000000000000000000000000000006000830152602082019050919050565b6000613132603283613e66565b91507f4552433732313a207472616e7366657220746f206e6f6e20455243373231526560008301527f63656976657220696d706c656d656e74657200000000000000000000000000006020830152604082019050919050565b6000613198601c83613e66565b91507f4552433732313a20746f6b656e20616c7265616479206d696e746564000000006000830152602082019050919050565b60006131d8602483613e66565b91507f4552433732313a207472616e7366657220746f20746865207a65726f2061646460008301527f72657373000000000000000000000000000000000000000000000000000000006020830152604082019050919050565b600061323e601983613e66565b91507f4552433732313a20617070726f766520746f2063616c6c6572000000000000006000830152602082019050919050565b600061327e601683613e66565b91507f4552525f494e4352454153455f414c4c4f57414e4345000000000000000000006000830152602082019050919050565b60006132be602683613e66565b91507f416464726573733a20696e73756666696369656e742062616c616e636520666f60008301527f722063616c6c00000000000000000000000000000000000000000000000000006020830152604082019050919050565b6000613324602c83613e66565b91507f4552433732313a206f70657261746f7220717565727920666f72206e6f6e657860008301527f697374656e7420746f6b656e00000000000000000000000000000000000000006020830152604082019050919050565b600061338a601283613e66565b91507f4552525f434f4e54524143545f4e4f545f3000000000000000000000000000006000830152602082019050919050565b60006133ca603883613e66565b91507f4552433732313a20617070726f76652063616c6c6572206973206e6f74206f7760008301527f6e6572206e6f7220617070726f76656420666f7220616c6c00000000000000006020830152604082019050919050565b6000613430601483613e66565b91507f4552525f434f53545f4d4f52455f5448414e5f300000000000000000000000006000830152602082019050919050565b6000613470602a83613e66565b91507f4552433732313a2062616c616e636520717565727920666f7220746865207a6560008301527f726f2061646472657373000000000000000000000000000000000000000000006020830152604082019050919050565b60006134d6602283613e66565b91507f456e756d657261626c654d61703a20696e646578206f7574206f6620626f756e60008301527f64730000000000000000000000000000000000000000000000000000000000006020830152604082019050919050565b600061353c602083613e66565b91507f4552433732313a206d696e7420746f20746865207a65726f20616464726573736000830152602082019050919050565b600061357c601183613e66565b91507f4552525f4d41585f4341505f52454143480000000000000000000000000000006000830152602082019050919050565b60006135bc602c83613e66565b91507f4552433732313a20617070726f76656420717565727920666f72206e6f6e657860008301527f697374656e7420746f6b656e00000000000000000000000000000000000000006020830152604082019050919050565b6000613622602983613e66565b91507f4552433732313a207472616e73666572206f6620746f6b656e2074686174206960008301527f73206e6f74206f776e00000000000000000000000000000000000000000000006020830152604082019050919050565b6000613688602f83613e66565b91507f4552433732314d657461646174613a2055524920717565727920666f72206e6f60008301527f6e6578697374656e7420746f6b656e00000000000000000000000000000000006020830152604082019050919050565b60006136ee601b83613e66565b91507f4552525f4c494d49545f5045525f414444524553535f524541434800000000006000830152602082019050919050565b600061372e600d83613e66565b91507f4552525f53414d455f434f5354000000000000000000000000000000000000006000830152602082019050919050565b600061376e602183613e66565b91507f4552433732313a20617070726f76616c20746f2063757272656e74206f776e6560008301527f72000000000000000000000000000000000000000000000000000000000000006020830152604082019050919050565b60006137d4603183613e66565b91507f4552433732313a207472616e736665722063616c6c6572206973206e6f74206f60008301527f776e6572206e6f7220617070726f7665640000000000000000000000000000006020830152604082019050919050565b600061383a600e83613e66565b91507f4552525f4341505f4d4f52455f300000000000000000000000000000000000006000830152602082019050919050565b600061387a601d83613e66565b91507f416464726573733a2063616c6c20746f206e6f6e2d636f6e74726163740000006000830152602082019050919050565b60006138ba601883613e66565b91507f4552525f494e53554646494349454e545f42414c414e434500000000000000006000830152602082019050919050565b6138f681613fb9565b82525050565b60006139088284612fd5565b915081905092915050565b600061391f828561304e565b915061392b828461304e565b91508190509392505050565b600060208201905061394c6000830184612f7e565b92915050565b60006040820190506139676000830185612f7e565b6139746020830184612f7e565b9392505050565b60006080820190506139906000830187612f7e565b61399d6020830186612f7e565b6139aa60408301856138ed565b81810360608301526139bc8184612f9c565b905095945050505050565b60006040820190506139dc6000830185612f7e565b6139e960208301846138ed565b9392505050565b6000602082019050613a056000830184612f8d565b92915050565b6000602082019050613a206000830184613006565b92915050565b60006020820190508181036000830152613a408184613015565b905092915050565b60006020820190508181036000830152613a618161307f565b9050919050565b60006020820190508181036000830152613a81816130e5565b9050919050565b60006020820190508181036000830152613aa181613125565b9050919050565b60006020820190508181036000830152613ac18161318b565b9050919050565b60006020820190508181036000830152613ae1816131cb565b9050919050565b60006020820190508181036000830152613b0181613231565b9050919050565b60006020820190508181036000830152613b2181613271565b9050919050565b60006020820190508181036000830152613b41816132b1565b9050919050565b60006020820190508181036000830152613b6181613317565b9050919050565b60006020820190508181036000830152613b818161337d565b9050919050565b60006020820190508181036000830152613ba1816133bd565b9050919050565b60006020820190508181036000830152613bc181613423565b9050919050565b60006020820190508181036000830152613be181613463565b9050919050565b60006020820190508181036000830152613c01816134c9565b9050919050565b60006020820190508181036000830152613c218161352f565b9050919050565b60006020820190508181036000830152613c418161356f565b9050919050565b60006020820190508181036000830152613c61816135af565b9050919050565b60006020820190508181036000830152613c8181613615565b9050919050565b60006020820190508181036000830152613ca18161367b565b9050919050565b60006020820190508181036000830152613cc1816136e1565b9050919050565b60006020820190508181036000830152613ce181613721565b9050919050565b60006020820190508181036000830152613d0181613761565b9050919050565b60006020820190508181036000830152613d21816137c7565b9050919050565b60006020820190508181036000830152613d418161382d565b9050919050565b60006020820190508181036000830152613d618161386d565b9050919050565b60006020820190508181036000830152613d81816138ad565b9050919050565b6000602082019050613d9d60008301846138ed565b92915050565b6000604051905081810181811067ffffffffffffffff82111715613dca57613dc961418c565b5b8060405250919050565b600067ffffffffffffffff821115613def57613dee61418c565b5b601f19601f8301169050602081019050919050565b600067ffffffffffffffff821115613e1f57613e1e61418c565b5b601f19601f8301169050602081019050919050565b600081519050919050565b600081519050919050565b600082825260208201905092915050565b600081905092915050565b600082825260208201905092915050565b600081905092915050565b6000613e8d82613fb9565b9150613e9883613fb9565b9250827fffffffffffffffffffffffffffffffffffffffffffffffffffffffffffffffff03821115613ecd57613ecc6140ff565b5b828201905092915050565b6000613ee382613fb9565b9150613eee83613fb9565b925082613efe57613efd61412e565b5b828204905092915050565b6000613f1482613fb9565b9150613f1f83613fb9565b925082821015613f3257613f316140ff565b5b828203905092915050565b6000613f4882613f99565b9050919050565b60008115159050919050565b60007fffffffff0000000000000000000000000000000000000000000000000000000082169050919050565b6000613f9282613f3d565b9050919050565b600073ffffffffffffffffffffffffffffffffffffffff82169050919050565b6000819050919050565b6000613fce82613fd5565b9050919050565b6000613fe082613f99565b9050919050565b82818337600083830152505050565b60005b83811015614014578082015181840152602081019050613ff9565b83811115614023576000848401525b50505050565b600061403482613fb9565b91506000821415614048576140476140ff565b5b600182039050919050565b6000600282049050600182168061406b57607f821691505b6020821081141561407f5761407e61415d565b5b50919050565b600061409082613fb9565b91507fffffffffffffffffffffffffffffffffffffffffffffffffffffffffffffffff8214156140c3576140c26140ff565b5b600182019050919050565b60006140d982613fb9565b91506140e483613fb9565b9250826140f4576140f361412e565b5b828206905092915050565b7f4e487b7100000000000000000000000000000000000000000000000000000000600052601160045260246000fd5b7f4e487b7100000000000000000000000000000000000000000000000000000000600052601260045260246000fd5b7f4e487b7100000000000000000000000000000000000000000000000000000000600052602260045260246000fd5b7f4e487b7100000000000000000000000000000000000000000000000000000000600052604160045260246000fd5b6000601f19601f8301169050919050565b6141d581613f3d565b81146141e057600080fd5b50565b6141ec81613f4f565b81146141f757600080fd5b50565b61420381613f5b565b811461420e57600080fd5b50565b61421a81613f87565b811461422557600080fd5b50565b61423181613fb9565b811461423c57600080fd5b5056fe4552433732313a207472616e7366657220746f206e6f6e20455243373231526563656976657220696d706c656d656e7465724552433732313a206f776e657220717565727920666f72206e6f6e6578697374656e7420746f6b656ea26469706673582212205cefb4138f9b04a121b1d3bbfedc287be19ee61bb322f93b5f7dd130a836269e64736f6c63430008000033",
  "immutableReferences": {},
  "source": "// SPDX-License-Identifier: MITev\npragma solidity <=0.8.0;\n\nimport \"@openzeppelin/contracts/token/ERC20/IERC20.sol\";\nimport \"./ERC721.sol\";\n\ncontract petEggs is ERC721 {\n    using SafeMath for uint;\n\n    address owner;\n\n    IERC20Burnable public GRAVE;\n\n    uint public eggCost = 500000000000000000000;\n    uint public eggsCounter = 0;\n    uint public eggsLimit = 2200;\n    uint public eggsPerAddress = 2;\n\n    mapping( address => uint ) public minterList;\n\n    constructor (\n        IERC20Burnable _grave\n    ) ERC721( \"CroSkulls Pet Eggs\", \"CRPE\") {\n        owner = msg.sender;\n        GRAVE = _grave;\n    }\n\n    function purchaseEgg( address _to ) public hasBalance hasAllowance {\n        require( eggsCounter < eggsLimit, \"ERR_MAX_CAP_REACH\" );\n        require( minterList[msg.sender] < eggsPerAddress, \"ERR_LIMIT_PER_ADDRESS_REACH\" );\n        GRAVE.burnFrom( msg.sender, eggCost );\n        eggsCounter++;\n        minterList[msg.sender]++;\n        _mint(\n            _to, \n            eggsCounter\n        );\n    }\n\n\n    /**\n        internal functions\n     */\n\n    \n\n    /**\n        admin functions \n     */\n    \n    function setBaseURI( string memory baseURI ) public onlyOwner {\n        _setBaseURI(baseURI);\n    }\n\n    function adminMintEgg( address _to, uint amount ) public onlyOwner {\n        require( eggsCounter + amount <= eggsLimit, \"ERR_MAX_CAP_REACH\" );\n        for( uint i = 0; i < amount; i++ ){\n            eggsCounter++;\n            _mint(\n                _to, \n                eggsCounter\n            );\n        }\n    }\n\n    function adminSetCost( uint _cost ) public onlyOwner {\n        require( eggCost != _cost, \"ERR_SAME_COST\");\n        require( _cost > 0, \"ERR_COST_MORE_THAN_0\");\n        eggCost = _cost;\n    }\n\n    function adminSetToken( IERC20Burnable _contractAddress ) public onlyOwner {\n        require( _contractAddress != IERC20Burnable(address(0)), \"ERR_CONTRACT_NOT_0\");\n        GRAVE = _contractAddress;\n    }\n\n    function adminSetMaxCap( uint _newCap ) public onlyOwner {\n        require( _newCap > 0, \"ERR_CAP_MORE_0\");\n        eggsLimit = _newCap;\n    }\n\n    function adminSetMaxLimitPerAddress( uint _newLimit ) public onlyOwner {\n        require( _newLimit > 0, \"ERR_CAP_MORE_0\" );\n        eggsPerAddress = _newLimit;\n    }\n\n    /**\n         modifier functions\n     */\n\n    modifier onlyOwner() {\n        require( \n            owner == msg.sender,\n            \"ERR_NOT_OWNER\"\n        );\n        _;\n    }\n\n    modifier hasBalance() {\n        require( \n            GRAVE.balanceOf(msg.sender) >= eggCost,\n            \"ERR_INSUFFICIENT_BALANCE\"\n        );\n        _;\n    }\n\n    modifier hasAllowance() {\n        require(\n            GRAVE.allowance(msg.sender, address(this)) >= eggCost,\n            \"ERR_INCREASE_ALLOWANCE\"\n        );\n        _;\n    }\n}\n\ninterface IERC20Burnable is IERC20 {\n    function burnFrom(address account, uint256 amount) external;\n    function burn(uint256 amount) external;\n}\n",
  "sourcePath": "/Users/alessandrodecristofaro/Desktop/DeFi Code/croskull-repo/src/contracts/petEggs.sol",
  "compiler": {
    "name": "solc",
    "version": "0.8.0+commit.c7dfd78e.Emscripten.clang"
  },
  "schemaVersion": "3.4.3",
  "updatedAt": "2022-02-22T16:27:28.483Z",
  "devdoc": {
    "kind": "dev",
    "methods": {
      "approve(address,uint256)": {
        "details": "See {IERC721-approve}."
      },
      "balanceOf(address)": {
        "details": "See {IERC721-balanceOf}."
      },
      "baseURI()": {
        "details": "Returns the base URI set via {_setBaseURI}. This will be automatically added as a prefix in {tokenURI} to each token's URI, or to the token ID if no specific URI is set for that token ID."
      },
      "getApproved(uint256)": {
        "details": "See {IERC721-getApproved}."
      },
      "isApprovedForAll(address,address)": {
        "details": "See {IERC721-isApprovedForAll}."
      },
      "name()": {
        "details": "See {IERC721Metadata-name}."
      },
      "ownerOf(uint256)": {
        "details": "See {IERC721-ownerOf}."
      },
      "safeTransferFrom(address,address,uint256)": {
        "details": "See {IERC721-safeTransferFrom}."
      },
      "safeTransferFrom(address,address,uint256,bytes)": {
        "details": "See {IERC721-safeTransferFrom}."
      },
      "setApprovalForAll(address,bool)": {
        "details": "See {IERC721-setApprovalForAll}."
      },
      "supportsInterface(bytes4)": {
        "details": "See {IERC165-supportsInterface}. Time complexity O(1), guaranteed to always use less than 30 000 gas."
      },
      "symbol()": {
        "details": "See {IERC721Metadata-symbol}."
      },
      "tokenByIndex(uint256)": {
        "details": "See {IERC721Enumerable-tokenByIndex}."
      },
      "tokenOfOwnerByIndex(address,uint256)": {
        "details": "See {IERC721Enumerable-tokenOfOwnerByIndex}."
      },
      "tokenURI(uint256)": {
        "details": "See {IERC721Metadata-tokenURI}."
      },
      "totalSupply()": {
        "details": "See {IERC721Enumerable-totalSupply}."
      },
      "transferFrom(address,address,uint256)": {
        "details": "See {IERC721-transferFrom}."
      }
    },
    "version": 1
  },
  "userdoc": {
    "kind": "user",
    "methods": {
      "setBaseURI(string)": {
        "notice": "admin functions "
      }
    },
    "version": 1
  }
}