{
  "contractName": "Rude",
  "abi": [
    {
      "inputs": [],
      "stateMutability": "nonpayable",
      "type": "constructor"
    },
    {
      "anonymous": false,
      "inputs": [
        {
          "indexed": true,
          "internalType": "address",
          "name": "owner",
          "type": "address"
        },
        {
          "indexed": true,
          "internalType": "address",
          "name": "spender",
          "type": "address"
        },
        {
          "indexed": false,
          "internalType": "uint256",
          "name": "value",
          "type": "uint256"
        }
      ],
      "name": "Approval",
      "type": "event"
    },
    {
      "anonymous": false,
      "inputs": [
        {
          "indexed": true,
          "internalType": "address",
          "name": "delegator",
          "type": "address"
        },
        {
          "indexed": true,
          "internalType": "address",
          "name": "fromDelegate",
          "type": "address"
        },
        {
          "indexed": true,
          "internalType": "address",
          "name": "toDelegate",
          "type": "address"
        }
      ],
      "name": "DelegateChanged",
      "type": "event"
    },
    {
      "anonymous": false,
      "inputs": [
        {
          "indexed": true,
          "internalType": "address",
          "name": "delegate",
          "type": "address"
        },
        {
          "indexed": false,
          "internalType": "uint256",
          "name": "previousBalance",
          "type": "uint256"
        },
        {
          "indexed": false,
          "internalType": "uint256",
          "name": "newBalance",
          "type": "uint256"
        }
      ],
      "name": "DelegateVotesChanged",
      "type": "event"
    },
    {
      "anonymous": false,
      "inputs": [
        {
          "indexed": true,
          "internalType": "bytes32",
          "name": "role",
          "type": "bytes32"
        },
        {
          "indexed": true,
          "internalType": "bytes32",
          "name": "previousAdminRole",
          "type": "bytes32"
        },
        {
          "indexed": true,
          "internalType": "bytes32",
          "name": "newAdminRole",
          "type": "bytes32"
        }
      ],
      "name": "RoleAdminChanged",
      "type": "event"
    },
    {
      "anonymous": false,
      "inputs": [
        {
          "indexed": true,
          "internalType": "bytes32",
          "name": "role",
          "type": "bytes32"
        },
        {
          "indexed": true,
          "internalType": "address",
          "name": "account",
          "type": "address"
        },
        {
          "indexed": true,
          "internalType": "address",
          "name": "sender",
          "type": "address"
        }
      ],
      "name": "RoleGranted",
      "type": "event"
    },
    {
      "anonymous": false,
      "inputs": [
        {
          "indexed": true,
          "internalType": "bytes32",
          "name": "role",
          "type": "bytes32"
        },
        {
          "indexed": true,
          "internalType": "address",
          "name": "account",
          "type": "address"
        },
        {
          "indexed": true,
          "internalType": "address",
          "name": "sender",
          "type": "address"
        }
      ],
      "name": "RoleRevoked",
      "type": "event"
    },
    {
      "anonymous": false,
      "inputs": [
        {
          "indexed": true,
          "internalType": "address",
          "name": "from",
          "type": "address"
        },
        {
          "indexed": true,
          "internalType": "address",
          "name": "to",
          "type": "address"
        },
        {
          "indexed": false,
          "internalType": "uint256",
          "name": "value",
          "type": "uint256"
        }
      ],
      "name": "Transfer",
      "type": "event"
    },
    {
      "inputs": [],
      "name": "DEFAULT_ADMIN_ROLE",
      "outputs": [
        {
          "internalType": "bytes32",
          "name": "",
          "type": "bytes32"
        }
      ],
      "stateMutability": "view",
      "type": "function"
    },
    {
      "inputs": [],
      "name": "DOMAIN_SEPARATOR",
      "outputs": [
        {
          "internalType": "bytes32",
          "name": "",
          "type": "bytes32"
        }
      ],
      "stateMutability": "view",
      "type": "function"
    },
    {
      "inputs": [],
      "name": "MINTER_ROLE",
      "outputs": [
        {
          "internalType": "bytes32",
          "name": "",
          "type": "bytes32"
        }
      ],
      "stateMutability": "view",
      "type": "function"
    },
    {
      "inputs": [
        {
          "internalType": "address",
          "name": "owner",
          "type": "address"
        },
        {
          "internalType": "address",
          "name": "spender",
          "type": "address"
        }
      ],
      "name": "allowance",
      "outputs": [
        {
          "internalType": "uint256",
          "name": "",
          "type": "uint256"
        }
      ],
      "stateMutability": "view",
      "type": "function"
    },
    {
      "inputs": [
        {
          "internalType": "address",
          "name": "spender",
          "type": "address"
        },
        {
          "internalType": "uint256",
          "name": "amount",
          "type": "uint256"
        }
      ],
      "name": "approve",
      "outputs": [
        {
          "internalType": "bool",
          "name": "",
          "type": "bool"
        }
      ],
      "stateMutability": "nonpayable",
      "type": "function"
    },
    {
      "inputs": [
        {
          "internalType": "address",
          "name": "account",
          "type": "address"
        }
      ],
      "name": "balanceOf",
      "outputs": [
        {
          "internalType": "uint256",
          "name": "",
          "type": "uint256"
        }
      ],
      "stateMutability": "view",
      "type": "function"
    },
    {
      "inputs": [
        {
          "internalType": "uint256",
          "name": "amount",
          "type": "uint256"
        }
      ],
      "name": "burn",
      "outputs": [],
      "stateMutability": "nonpayable",
      "type": "function"
    },
    {
      "inputs": [
        {
          "internalType": "address",
          "name": "account",
          "type": "address"
        },
        {
          "internalType": "uint256",
          "name": "amount",
          "type": "uint256"
        }
      ],
      "name": "burnFrom",
      "outputs": [],
      "stateMutability": "nonpayable",
      "type": "function"
    },
    {
      "inputs": [
        {
          "internalType": "address",
          "name": "account",
          "type": "address"
        },
        {
          "internalType": "uint32",
          "name": "pos",
          "type": "uint32"
        }
      ],
      "name": "checkpoints",
      "outputs": [
        {
          "components": [
            {
              "internalType": "uint32",
              "name": "fromBlock",
              "type": "uint32"
            },
            {
              "internalType": "uint224",
              "name": "votes",
              "type": "uint224"
            }
          ],
          "internalType": "struct ERC20Votes.Checkpoint",
          "name": "",
          "type": "tuple"
        }
      ],
      "stateMutability": "view",
      "type": "function"
    },
    {
      "inputs": [],
      "name": "decimals",
      "outputs": [
        {
          "internalType": "uint8",
          "name": "",
          "type": "uint8"
        }
      ],
      "stateMutability": "view",
      "type": "function"
    },
    {
      "inputs": [
        {
          "internalType": "address",
          "name": "spender",
          "type": "address"
        },
        {
          "internalType": "uint256",
          "name": "subtractedValue",
          "type": "uint256"
        }
      ],
      "name": "decreaseAllowance",
      "outputs": [
        {
          "internalType": "bool",
          "name": "",
          "type": "bool"
        }
      ],
      "stateMutability": "nonpayable",
      "type": "function"
    },
    {
      "inputs": [
        {
          "internalType": "address",
          "name": "delegatee",
          "type": "address"
        }
      ],
      "name": "delegate",
      "outputs": [],
      "stateMutability": "nonpayable",
      "type": "function"
    },
    {
      "inputs": [
        {
          "internalType": "address",
          "name": "delegatee",
          "type": "address"
        },
        {
          "internalType": "uint256",
          "name": "nonce",
          "type": "uint256"
        },
        {
          "internalType": "uint256",
          "name": "expiry",
          "type": "uint256"
        },
        {
          "internalType": "uint8",
          "name": "v",
          "type": "uint8"
        },
        {
          "internalType": "bytes32",
          "name": "r",
          "type": "bytes32"
        },
        {
          "internalType": "bytes32",
          "name": "s",
          "type": "bytes32"
        }
      ],
      "name": "delegateBySig",
      "outputs": [],
      "stateMutability": "nonpayable",
      "type": "function"
    },
    {
      "inputs": [
        {
          "internalType": "address",
          "name": "account",
          "type": "address"
        }
      ],
      "name": "delegates",
      "outputs": [
        {
          "internalType": "address",
          "name": "",
          "type": "address"
        }
      ],
      "stateMutability": "view",
      "type": "function"
    },
    {
      "inputs": [
        {
          "internalType": "uint256",
          "name": "blockNumber",
          "type": "uint256"
        }
      ],
      "name": "getPastTotalSupply",
      "outputs": [
        {
          "internalType": "uint256",
          "name": "",
          "type": "uint256"
        }
      ],
      "stateMutability": "view",
      "type": "function"
    },
    {
      "inputs": [
        {
          "internalType": "address",
          "name": "account",
          "type": "address"
        },
        {
          "internalType": "uint256",
          "name": "blockNumber",
          "type": "uint256"
        }
      ],
      "name": "getPastVotes",
      "outputs": [
        {
          "internalType": "uint256",
          "name": "",
          "type": "uint256"
        }
      ],
      "stateMutability": "view",
      "type": "function"
    },
    {
      "inputs": [
        {
          "internalType": "bytes32",
          "name": "role",
          "type": "bytes32"
        }
      ],
      "name": "getRoleAdmin",
      "outputs": [
        {
          "internalType": "bytes32",
          "name": "",
          "type": "bytes32"
        }
      ],
      "stateMutability": "view",
      "type": "function"
    },
    {
      "inputs": [
        {
          "internalType": "address",
          "name": "account",
          "type": "address"
        }
      ],
      "name": "getVotes",
      "outputs": [
        {
          "internalType": "uint256",
          "name": "",
          "type": "uint256"
        }
      ],
      "stateMutability": "view",
      "type": "function"
    },
    {
      "inputs": [
        {
          "internalType": "bytes32",
          "name": "role",
          "type": "bytes32"
        },
        {
          "internalType": "address",
          "name": "account",
          "type": "address"
        }
      ],
      "name": "grantRole",
      "outputs": [],
      "stateMutability": "nonpayable",
      "type": "function"
    },
    {
      "inputs": [
        {
          "internalType": "bytes32",
          "name": "role",
          "type": "bytes32"
        },
        {
          "internalType": "address",
          "name": "account",
          "type": "address"
        }
      ],
      "name": "hasRole",
      "outputs": [
        {
          "internalType": "bool",
          "name": "",
          "type": "bool"
        }
      ],
      "stateMutability": "view",
      "type": "function"
    },
    {
      "inputs": [
        {
          "internalType": "address",
          "name": "spender",
          "type": "address"
        },
        {
          "internalType": "uint256",
          "name": "addedValue",
          "type": "uint256"
        }
      ],
      "name": "increaseAllowance",
      "outputs": [
        {
          "internalType": "bool",
          "name": "",
          "type": "bool"
        }
      ],
      "stateMutability": "nonpayable",
      "type": "function"
    },
    {
      "inputs": [],
      "name": "name",
      "outputs": [
        {
          "internalType": "string",
          "name": "",
          "type": "string"
        }
      ],
      "stateMutability": "view",
      "type": "function"
    },
    {
      "inputs": [
        {
          "internalType": "address",
          "name": "owner",
          "type": "address"
        }
      ],
      "name": "nonces",
      "outputs": [
        {
          "internalType": "uint256",
          "name": "",
          "type": "uint256"
        }
      ],
      "stateMutability": "view",
      "type": "function"
    },
    {
      "inputs": [
        {
          "internalType": "address",
          "name": "account",
          "type": "address"
        }
      ],
      "name": "numCheckpoints",
      "outputs": [
        {
          "internalType": "uint32",
          "name": "",
          "type": "uint32"
        }
      ],
      "stateMutability": "view",
      "type": "function"
    },
    {
      "inputs": [
        {
          "internalType": "address",
          "name": "owner",
          "type": "address"
        },
        {
          "internalType": "address",
          "name": "spender",
          "type": "address"
        },
        {
          "internalType": "uint256",
          "name": "value",
          "type": "uint256"
        },
        {
          "internalType": "uint256",
          "name": "deadline",
          "type": "uint256"
        },
        {
          "internalType": "uint8",
          "name": "v",
          "type": "uint8"
        },
        {
          "internalType": "bytes32",
          "name": "r",
          "type": "bytes32"
        },
        {
          "internalType": "bytes32",
          "name": "s",
          "type": "bytes32"
        }
      ],
      "name": "permit",
      "outputs": [],
      "stateMutability": "nonpayable",
      "type": "function"
    },
    {
      "inputs": [
        {
          "internalType": "bytes32",
          "name": "role",
          "type": "bytes32"
        },
        {
          "internalType": "address",
          "name": "account",
          "type": "address"
        }
      ],
      "name": "renounceRole",
      "outputs": [],
      "stateMutability": "nonpayable",
      "type": "function"
    },
    {
      "inputs": [
        {
          "internalType": "bytes32",
          "name": "role",
          "type": "bytes32"
        },
        {
          "internalType": "address",
          "name": "account",
          "type": "address"
        }
      ],
      "name": "revokeRole",
      "outputs": [],
      "stateMutability": "nonpayable",
      "type": "function"
    },
    {
      "inputs": [
        {
          "internalType": "bytes4",
          "name": "interfaceId",
          "type": "bytes4"
        }
      ],
      "name": "supportsInterface",
      "outputs": [
        {
          "internalType": "bool",
          "name": "",
          "type": "bool"
        }
      ],
      "stateMutability": "view",
      "type": "function"
    },
    {
      "inputs": [],
      "name": "symbol",
      "outputs": [
        {
          "internalType": "string",
          "name": "",
          "type": "string"
        }
      ],
      "stateMutability": "view",
      "type": "function"
    },
    {
      "inputs": [],
      "name": "totalSupply",
      "outputs": [
        {
          "internalType": "uint256",
          "name": "",
          "type": "uint256"
        }
      ],
      "stateMutability": "view",
      "type": "function"
    },
    {
      "inputs": [
        {
          "internalType": "address",
          "name": "recipient",
          "type": "address"
        },
        {
          "internalType": "uint256",
          "name": "amount",
          "type": "uint256"
        }
      ],
      "name": "transfer",
      "outputs": [
        {
          "internalType": "bool",
          "name": "",
          "type": "bool"
        }
      ],
      "stateMutability": "nonpayable",
      "type": "function"
    },
    {
      "inputs": [
        {
          "internalType": "address",
          "name": "sender",
          "type": "address"
        },
        {
          "internalType": "address",
          "name": "recipient",
          "type": "address"
        },
        {
          "internalType": "uint256",
          "name": "amount",
          "type": "uint256"
        }
      ],
      "name": "transferFrom",
      "outputs": [
        {
          "internalType": "bool",
          "name": "",
          "type": "bool"
        }
      ],
      "stateMutability": "nonpayable",
      "type": "function"
    },
    {
      "inputs": [
        {
          "internalType": "address",
          "name": "to",
          "type": "address"
        },
        {
          "internalType": "uint256",
          "name": "amount",
          "type": "uint256"
        }
      ],
      "name": "mint",
      "outputs": [],
      "stateMutability": "nonpayable",
      "type": "function"
    }
  ],
  "bytecode": "0x6101606040527f6e71edae12b1b97f4d1f60370fef10105fa2faae0126114a169c64845d6126c9610140908152503480156200003a57600080fd5b506040518060400160405280600481526020017f5275646500000000000000000000000000000000000000000000000000000000815250806040518060400160405280600181526020017f31000000000000000000000000000000000000000000000000000000000000008152506040518060400160405280600481526020017f52756465000000000000000000000000000000000000000000000000000000008152506040518060400160405280600481526020017f525544450000000000000000000000000000000000000000000000000000000081525081600390805190602001906200012c929190620003ec565b50806004908051906020019062000145929190620003ec565b50505060008280519060200120905060008280519060200120905060007f8b73c3c69bb8fe3d512ecc4cf759cc79239f7b179b0ffacaa9a75d522b39400f90508260e081815250508161010081815250504660a08181525050620001b18184846200024b60201b60201c565b608081815250503073ffffffffffffffffffffffffffffffffffffffff1660c08173ffffffffffffffffffffffffffffffffffffffff1660601b81525050806101208181525050505050505050620002136000801b336200028760201b60201c565b620002457f9f2df0fed2c77648de5860a4cc508cd0818c85b8b8a1ab4ceeef8d981c8956a6336200028760201b60201c565b620005d9565b6000838383463060405160200162000268959493929190620004cf565b6040516020818303038152906040528051906020012090509392505050565b6200029982826200037960201b60201c565b620003755760016005600084815260200190815260200160002060000160008373ffffffffffffffffffffffffffffffffffffffff1673ffffffffffffffffffffffffffffffffffffffff16815260200190815260200160002060006101000a81548160ff0219169083151502179055506200031a620003e460201b60201c565b73ffffffffffffffffffffffffffffffffffffffff168173ffffffffffffffffffffffffffffffffffffffff16837f2f8788117e7eff1d82e926ec794901d17c78024a50270940304540a733656f0d60405160405180910390a45b5050565b60006005600084815260200190815260200160002060000160008373ffffffffffffffffffffffffffffffffffffffff1673ffffffffffffffffffffffffffffffffffffffff16815260200190815260200160002060009054906101000a900460ff16905092915050565b600033905090565b828054620003fa9062000574565b90600052602060002090601f0160209004810192826200041e57600085556200046a565b82601f106200043957805160ff19168380011785556200046a565b828001600101855582156200046a579182015b82811115620004695782518255916020019190600101906200044c565b5b5090506200047991906200047d565b5090565b5b80821115620004985760008160009055506001016200047e565b5090565b620004a7816200052c565b82525050565b620004b88162000540565b82525050565b620004c9816200056a565b82525050565b600060a082019050620004e66000830188620004ad565b620004f56020830187620004ad565b620005046040830186620004ad565b620005136060830185620004be565b6200052260808301846200049c565b9695505050505050565b600062000539826200054a565b9050919050565b6000819050919050565b600073ffffffffffffffffffffffffffffffffffffffff82169050919050565b6000819050919050565b600060028204905060018216806200058d57607f821691505b60208210811415620005a457620005a3620005aa565b5b50919050565b7f4e487b7100000000000000000000000000000000000000000000000000000000600052602260045260246000fd5b60805160a05160c05160601c60e051610100516101205161014051614b1c62000637600039600061126c01526000611c5b01526000611c9d01526000611c7c01526000611bb101526000611c0701526000611c300152614b1c6000f3fe608060405234801561001057600080fd5b50600436106101fb5760003560e01c80636fcfff451161011a578063a217fddf116100ad578063d505accf1161007c578063d505accf14610648578063d539139314610664578063d547741f14610682578063dd62ed3e1461069e578063f1127ed8146106ce576101fb565b8063a217fddf146105ae578063a457c2d7146105cc578063a9059cbb146105fc578063c3cda5201461062c576101fb565b80638e539e8c116100e95780638e539e8c1461050057806391d148541461053057806395d89b41146105605780639ab24eb01461057e576101fb565b80636fcfff451461045457806370a082311461048457806379cc6790146104b45780637ecebe00146104d0576101fb565b80633644e5151161019257806340c10f191161016157806340c10f19146103d057806342966c68146103ec578063587cde1e146104085780635c19a95c14610438576101fb565b80633644e5151461033657806336568abe1461035457806339509351146103705780633a46b1a8146103a0576101fb565b806323b872dd116101ce57806323b872dd1461029c578063248a9ca3146102cc5780632f2ff15d146102fc578063313ce56714610318576101fb565b806301ffc9a71461020057806306fdde0314610230578063095ea7b31461024e57806318160ddd1461027e575b600080fd5b61021a60048036038101906102159190613675565b6106fe565b60405161022791906141db565b60405180910390f35b610238610778565b604051610245919061434f565b60405180910390f35b6102686004803603810190610263919061350f565b61080a565b60405161027591906141db565b60405180910390f35b610286610828565b60405161029391906146ac565b60405180910390f35b6102b660048036038101906102b19190613422565b610832565b6040516102c391906141db565b60405180910390f35b6102e660048036038101906102e19190613610565b61092a565b6040516102f391906141f6565b60405180910390f35b61031660048036038101906103119190613639565b61094a565b005b610320610973565b60405161032d919061470b565b60405180910390f35b61033e61097c565b60405161034b91906141f6565b60405180910390f35b61036e60048036038101906103699190613639565b61098b565b005b61038a6004803603810190610385919061350f565b610a0e565b60405161039791906141db565b60405180910390f35b6103ba60048036038101906103b5919061350f565b610aba565b6040516103c791906146ac565b60405180910390f35b6103ea60048036038101906103e5919061350f565b610b4e565b005b6104066004803603810190610401919061369e565b610b8f565b005b610422600480360381019061041d91906133bd565b610ba3565b60405161042f91906141c0565b60405180910390f35b610452600480360381019061044d91906133bd565b610c0c565b005b61046e600480360381019061046991906133bd565b610c20565b60405161047b91906146f0565b60405180910390f35b61049e600480360381019061049991906133bd565b610c74565b6040516104ab91906146ac565b60405180910390f35b6104ce60048036038101906104c9919061350f565b610cbc565b005b6104ea60048036038101906104e591906133bd565b610d37565b6040516104f791906146ac565b60405180910390f35b61051a6004803603810190610515919061369e565b610d87565b60405161052791906146ac565b60405180910390f35b61054a60048036038101906105459190613639565b610ddd565b60405161055791906141db565b60405180910390f35b610568610e48565b604051610575919061434f565b60405180910390f35b610598600480360381019061059391906133bd565b610eda565b6040516105a591906146ac565b60405180910390f35b6105b6611011565b6040516105c391906141f6565b60405180910390f35b6105e660048036038101906105e1919061350f565b611018565b6040516105f391906141db565b60405180910390f35b6106166004803603810190610611919061350f565b611103565b60405161062391906141db565b60405180910390f35b6106466004803603810190610641919061354b565b611121565b005b610662600480360381019061065d9190613471565b611225565b005b61066c611367565b60405161067991906141f6565b60405180910390f35b61069c60048036038101906106979190613639565b61138b565b005b6106b860048036038101906106b391906133e6565b6113b4565b6040516106c591906146ac565b60405180910390f35b6106e860048036038101906106e391906135d4565b61143b565b6040516106f59190614691565b60405180910390f35b60007f7965db0b000000000000000000000000000000000000000000000000000000007bffffffffffffffffffffffffffffffffffffffffffffffffffffffff1916827bffffffffffffffffffffffffffffffffffffffffffffffffffffffff19161480610771575061077082611571565b5b9050919050565b60606003805461078790614982565b80601f01602080910402602001604051908101604052809291908181526020018280546107b390614982565b80156108005780601f106107d557610100808354040283529160200191610800565b820191906000526020600020905b8154815290600101906020018083116107e357829003601f168201915b5050505050905090565b600061081e6108176115db565b84846115e3565b6001905092915050565b6000600254905090565b600061083f8484846117ae565b6000600160008673ffffffffffffffffffffffffffffffffffffffff1673ffffffffffffffffffffffffffffffffffffffff168152602001908152602001600020600061088a6115db565b73ffffffffffffffffffffffffffffffffffffffff1673ffffffffffffffffffffffffffffffffffffffff1681526020019081526020016000205490508281101561090a576040517f08c379a000000000000000000000000000000000000000000000000000000000815260040161090190614531565b60405180910390fd5b61091e856109166115db565b8584036115e3565b60019150509392505050565b600060056000838152602001908152602001600020600101549050919050565b6109538261092a565b6109648161095f6115db565b611a2f565b61096e8383611acc565b505050565b60006012905090565b6000610986611bad565b905090565b6109936115db565b73ffffffffffffffffffffffffffffffffffffffff168173ffffffffffffffffffffffffffffffffffffffff1614610a00576040517f08c379a00000000000000000000000000000000000000000000000000000000081526004016109f790614651565b60405180910390fd5b610a0a8282611cc7565b5050565b6000610ab0610a1b6115db565b848460016000610a296115db565b73ffffffffffffffffffffffffffffffffffffffff1673ffffffffffffffffffffffffffffffffffffffff16815260200190815260200160002060008873ffffffffffffffffffffffffffffffffffffffff1673ffffffffffffffffffffffffffffffffffffffff16815260200190815260200160002054610aab919061474d565b6115e3565b6001905092915050565b6000438210610afe576040517f08c379a0000000000000000000000000000000000000000000000000000000008152600401610af5906143d1565b60405180910390fd5b610b46600860008573ffffffffffffffffffffffffffffffffffffffff1673ffffffffffffffffffffffffffffffffffffffff16815260200190815260200160002083611da9565b905092915050565b7f9f2df0fed2c77648de5860a4cc508cd0818c85b8b8a1ab4ceeef8d981c8956a6610b8081610b7b6115db565b611a2f565b610b8a8383611f01565b505050565b610ba0610b9a6115db565b82611f0f565b50565b6000600760008373ffffffffffffffffffffffffffffffffffffffff1673ffffffffffffffffffffffffffffffffffffffff16815260200190815260200160002060009054906101000a900473ffffffffffffffffffffffffffffffffffffffff169050919050565b610c1d610c176115db565b82611f1d565b50565b6000610c6d600860008473ffffffffffffffffffffffffffffffffffffffff1673ffffffffffffffffffffffffffffffffffffffff16815260200190815260200160002080549050612037565b9050919050565b60008060008373ffffffffffffffffffffffffffffffffffffffff1673ffffffffffffffffffffffffffffffffffffffff168152602001908152602001600020549050919050565b6000610ccf83610cca6115db565b6113b4565b905081811015610d14576040517f08c379a0000000000000000000000000000000000000000000000000000000008152600401610d0b90614591565b60405180910390fd5b610d2883610d206115db565b8484036115e3565b610d328383611f0f565b505050565b6000610d80600660008473ffffffffffffffffffffffffffffffffffffffff1673ffffffffffffffffffffffffffffffffffffffff16815260200190815260200160002061208a565b9050919050565b6000438210610dcb576040517f08c379a0000000000000000000000000000000000000000000000000000000008152600401610dc2906143d1565b60405180910390fd5b610dd6600983611da9565b9050919050565b60006005600084815260200190815260200160002060000160008373ffffffffffffffffffffffffffffffffffffffff1673ffffffffffffffffffffffffffffffffffffffff16815260200190815260200160002060009054906101000a900460ff16905092915050565b606060048054610e5790614982565b80601f0160208091040260200160405190810160405280929190818152602001828054610e8390614982565b8015610ed05780601f10610ea557610100808354040283529160200191610ed0565b820191906000526020600020905b815481529060010190602001808311610eb357829003601f168201915b5050505050905090565b600080600860008473ffffffffffffffffffffffffffffffffffffffff1673ffffffffffffffffffffffffffffffffffffffff16815260200190815260200160002080549050905060008114610fe857600860008473ffffffffffffffffffffffffffffffffffffffff1673ffffffffffffffffffffffffffffffffffffffff168152602001908152602001600020600182610f76919061482e565b81548110610fad577f4e487b7100000000000000000000000000000000000000000000000000000000600052603260045260246000fd5b9060005260206000200160000160049054906101000a90047bffffffffffffffffffffffffffffffffffffffffffffffffffffffff16610feb565b60005b7bffffffffffffffffffffffffffffffffffffffffffffffffffffffff16915050919050565b6000801b81565b600080600160006110276115db565b73ffffffffffffffffffffffffffffffffffffffff1673ffffffffffffffffffffffffffffffffffffffff16815260200190815260200160002060008573ffffffffffffffffffffffffffffffffffffffff1673ffffffffffffffffffffffffffffffffffffffff168152602001908152602001600020549050828110156110e4576040517f08c379a00000000000000000000000000000000000000000000000000000000081526004016110db90614631565b60405180910390fd5b6110f86110ef6115db565b858584036115e3565b600191505092915050565b60006111176111106115db565b84846117ae565b6001905092915050565b83421115611164576040517f08c379a000000000000000000000000000000000000000000000000000000000815260040161115b906143f1565b60405180910390fd5b60006111c66111be7fe48329057bfd03d55e49b547132e39cffd9c1820ad7b9d4c5307691425d15adf8989896040516020016111a39493929190614272565b60405160208183030381529060405280519060200120612098565b8585856120b2565b90506111d1816120dd565b8614611212576040517f08c379a000000000000000000000000000000000000000000000000000000000815260040161120990614451565b60405180910390fd5b61121c8188611f1d565b50505050505050565b83421115611268576040517f08c379a000000000000000000000000000000000000000000000000000000000815260040161125f90614491565b60405180910390fd5b60007f00000000000000000000000000000000000000000000000000000000000000008888886112978c6120dd565b896040516020016112ad96959493929190614211565b60405160208183030381529060405280519060200120905060006112d082612098565b905060006112e0828787876120b2565b90508973ffffffffffffffffffffffffffffffffffffffff168173ffffffffffffffffffffffffffffffffffffffff1614611350576040517f08c379a000000000000000000000000000000000000000000000000000000000815260040161134790614511565b60405180910390fd5b61135b8a8a8a6115e3565b50505050505050505050565b7f9f2df0fed2c77648de5860a4cc508cd0818c85b8b8a1ab4ceeef8d981c8956a681565b6113948261092a565b6113a5816113a06115db565b611a2f565b6113af8383611cc7565b505050565b6000600160008473ffffffffffffffffffffffffffffffffffffffff1673ffffffffffffffffffffffffffffffffffffffff16815260200190815260200160002060008373ffffffffffffffffffffffffffffffffffffffff1673ffffffffffffffffffffffffffffffffffffffff16815260200190815260200160002054905092915050565b611443613301565b600860008473ffffffffffffffffffffffffffffffffffffffff1673ffffffffffffffffffffffffffffffffffffffff1681526020019081526020016000208263ffffffff16815481106114c0577f4e487b7100000000000000000000000000000000000000000000000000000000600052603260045260246000fd5b906000526020600020016040518060400160405290816000820160009054906101000a900463ffffffff1663ffffffff1663ffffffff1681526020016000820160049054906101000a90047bffffffffffffffffffffffffffffffffffffffffffffffffffffffff167bffffffffffffffffffffffffffffffffffffffffffffffffffffffff167bffffffffffffffffffffffffffffffffffffffffffffffffffffffff1681525050905092915050565b60007f01ffc9a7000000000000000000000000000000000000000000000000000000007bffffffffffffffffffffffffffffffffffffffffffffffffffffffff1916827bffffffffffffffffffffffffffffffffffffffffffffffffffffffff1916149050919050565b600033905090565b600073ffffffffffffffffffffffffffffffffffffffff168373ffffffffffffffffffffffffffffffffffffffff161415611653576040517f08c379a000000000000000000000000000000000000000000000000000000000815260040161164a90614611565b60405180910390fd5b600073ffffffffffffffffffffffffffffffffffffffff168273ffffffffffffffffffffffffffffffffffffffff1614156116c3576040517f08c379a00000000000000000000000000000000000000000000000000000000081526004016116ba90614471565b60405180910390fd5b80600160008573ffffffffffffffffffffffffffffffffffffffff1673ffffffffffffffffffffffffffffffffffffffff16815260200190815260200160002060008473ffffffffffffffffffffffffffffffffffffffff1673ffffffffffffffffffffffffffffffffffffffff168152602001908152602001600020819055508173ffffffffffffffffffffffffffffffffffffffff168373ffffffffffffffffffffffffffffffffffffffff167f8c5be1e5ebec7d5bd14f71427d1e84f3dd0314c0f7b2291e5b200ac8c7c3b925836040516117a191906146ac565b60405180910390a3505050565b600073ffffffffffffffffffffffffffffffffffffffff168373ffffffffffffffffffffffffffffffffffffffff16141561181e576040517f08c379a0000000000000000000000000000000000000000000000000000000008152600401611815906145d1565b60405180910390fd5b600073ffffffffffffffffffffffffffffffffffffffff168273ffffffffffffffffffffffffffffffffffffffff16141561188e576040517f08c379a0000000000000000000000000000000000000000000000000000000008152600401611885906143b1565b60405180910390fd5b61189983838361213b565b60008060008573ffffffffffffffffffffffffffffffffffffffff1673ffffffffffffffffffffffffffffffffffffffff1681526020019081526020016000205490508181101561191f576040517f08c379a0000000000000000000000000000000000000000000000000000000008152600401611916906144b1565b60405180910390fd5b8181036000808673ffffffffffffffffffffffffffffffffffffffff1673ffffffffffffffffffffffffffffffffffffffff16815260200190815260200160002081905550816000808573ffffffffffffffffffffffffffffffffffffffff1673ffffffffffffffffffffffffffffffffffffffff16815260200190815260200160002060008282546119b2919061474d565b925050819055508273ffffffffffffffffffffffffffffffffffffffff168473ffffffffffffffffffffffffffffffffffffffff167fddf252ad1be2c89b69c2b068fc378daa952ba7f163c4a11628f55a4df523b3ef84604051611a1691906146ac565b60405180910390a3611a29848484612140565b50505050565b611a398282610ddd565b611ac857611a5e8173ffffffffffffffffffffffffffffffffffffffff166014612150565b611a6c8360001c6020612150565b604051602001611a7d929190614186565b6040516020818303038152906040526040517f08c379a0000000000000000000000000000000000000000000000000000000008152600401611abf919061434f565b60405180910390fd5b5050565b611ad68282610ddd565b611ba95760016005600084815260200190815260200160002060000160008373ffffffffffffffffffffffffffffffffffffffff1673ffffffffffffffffffffffffffffffffffffffff16815260200190815260200160002060006101000a81548160ff021916908315150217905550611b4e6115db565b73ffffffffffffffffffffffffffffffffffffffff168173ffffffffffffffffffffffffffffffffffffffff16837f2f8788117e7eff1d82e926ec794901d17c78024a50270940304540a733656f0d60405160405180910390a45b5050565b60007f000000000000000000000000000000000000000000000000000000000000000073ffffffffffffffffffffffffffffffffffffffff163073ffffffffffffffffffffffffffffffffffffffff16148015611c2957507f000000000000000000000000000000000000000000000000000000000000000046145b15611c56577f00000000000000000000000000000000000000000000000000000000000000009050611cc4565b611cc17f00000000000000000000000000000000000000000000000000000000000000007f00000000000000000000000000000000000000000000000000000000000000007f000000000000000000000000000000000000000000000000000000000000000061244a565b90505b90565b611cd18282610ddd565b15611da55760006005600084815260200190815260200160002060000160008373ffffffffffffffffffffffffffffffffffffffff1673ffffffffffffffffffffffffffffffffffffffff16815260200190815260200160002060006101000a81548160ff021916908315150217905550611d4a6115db565b73ffffffffffffffffffffffffffffffffffffffff168173ffffffffffffffffffffffffffffffffffffffff16837ff6391f5c32d9c69d2a47ea670b442974b53935d1edc7fd64eb21e047a839171b60405160405180910390a45b5050565b6000808380549050905060005b81811015611e4e576000611dca8284612484565b905084868281548110611e06577f4e487b7100000000000000000000000000000000000000000000000000000000600052603260045260246000fd5b9060005260206000200160000160009054906101000a900463ffffffff1663ffffffff161115611e3857809250611e48565b600181611e45919061474d565b91505b50611db6565b60008214611ed65784600183611e64919061482e565b81548110611e9b577f4e487b7100000000000000000000000000000000000000000000000000000000600052603260045260246000fd5b9060005260206000200160000160049054906101000a90047bffffffffffffffffffffffffffffffffffffffffffffffffffffffff16611ed9565b60005b7bffffffffffffffffffffffffffffffffffffffffffffffffffffffff169250505092915050565b611f0b82826124aa565b5050565b611f198282612537565b5050565b6000611f2883610ba3565b90506000611f3584610c74565b905082600760008673ffffffffffffffffffffffffffffffffffffffff1673ffffffffffffffffffffffffffffffffffffffff16815260200190815260200160002060006101000a81548173ffffffffffffffffffffffffffffffffffffffff021916908373ffffffffffffffffffffffffffffffffffffffff1602179055508273ffffffffffffffffffffffffffffffffffffffff168273ffffffffffffffffffffffffffffffffffffffff168573ffffffffffffffffffffffffffffffffffffffff167f3134e8a2e6d97e929a7e54011ea5485d7d196dd5f0ba4d4ef95803e8e3fc257f60405160405180910390a4612031828483612555565b50505050565b600063ffffffff8016821115612082576040517f08c379a0000000000000000000000000000000000000000000000000000000008152600401612079906145f1565b60405180910390fd5b819050919050565b600081600001549050919050565b60006120ab6120a5611bad565b8361274e565b9050919050565b60008060006120c387878787612781565b915091506120d08161288e565b8192505050949350505050565b600080600660008473ffffffffffffffffffffffffffffffffffffffff1673ffffffffffffffffffffffffffffffffffffffff168152602001908152602001600020905061212a8161208a565b915061213581612bdf565b50919050565b505050565b61214b838383612bf5565b505050565b60606000600283600261216391906147d4565b61216d919061474d565b67ffffffffffffffff8111156121ac577f4e487b7100000000000000000000000000000000000000000000000000000000600052604160045260246000fd5b6040519080825280601f01601f1916602001820160405280156121de5781602001600182028036833780820191505090505b5090507f30000000000000000000000000000000000000000000000000000000000000008160008151811061223c577f4e487b7100000000000000000000000000000000000000000000000000000000600052603260045260246000fd5b60200101907effffffffffffffffffffffffffffffffffffffffffffffffffffffffffffff1916908160001a9053507f7800000000000000000000000000000000000000000000000000000000000000816001815181106122c6577f4e487b7100000000000000000000000000000000000000000000000000000000600052603260045260246000fd5b60200101907effffffffffffffffffffffffffffffffffffffffffffffffffffffffffffff1916908160001a9053506000600184600261230691906147d4565b612310919061474d565b90505b60018111156123fc577f3031323334353637383961626364656600000000000000000000000000000000600f861660108110612378577f4e487b7100000000000000000000000000000000000000000000000000000000600052603260045260246000fd5b1a60f81b8282815181106123b5577f4e487b7100000000000000000000000000000000000000000000000000000000600052603260045260246000fd5b60200101907effffffffffffffffffffffffffffffffffffffffffffffffffffffffffffff1916908160001a905350600485901c9450806123f590614958565b9050612313565b5060008414612440576040517f08c379a000000000000000000000000000000000000000000000000000000000815260040161243790614391565b60405180910390fd5b8091505092915050565b600083838346306040516020016124659594939291906142b7565b6040516020818303038152906040528051906020012090509392505050565b6000600282841861249591906147a3565b8284166124a2919061474d565b905092915050565b6124b48282612c20565b6124bc612d80565b7bffffffffffffffffffffffffffffffffffffffffffffffffffffffff166124e2610828565b1115612523576040517f08c379a000000000000000000000000000000000000000000000000000000000815260040161251a90614551565b60405180910390fd5b6125316009612da483612dba565b50505050565b61254182826130a4565b61254f600961327b83612dba565b50505050565b8173ffffffffffffffffffffffffffffffffffffffff168373ffffffffffffffffffffffffffffffffffffffff16141580156125915750600081115b1561274957600073ffffffffffffffffffffffffffffffffffffffff168373ffffffffffffffffffffffffffffffffffffffff161461266f57600080612618600860008773ffffffffffffffffffffffffffffffffffffffff1673ffffffffffffffffffffffffffffffffffffffff16815260200190815260200160002061327b85612dba565b915091508473ffffffffffffffffffffffffffffffffffffffff167fdec2bacdd2f05b59de34da9b523dff8be42e5e38e818c82fdb0bae774387a72483836040516126649291906146c7565b60405180910390a250505b600073ffffffffffffffffffffffffffffffffffffffff168273ffffffffffffffffffffffffffffffffffffffff1614612748576000806126f1600860008673ffffffffffffffffffffffffffffffffffffffff1673ffffffffffffffffffffffffffffffffffffffff168152602001908152602001600020612da485612dba565b915091508373ffffffffffffffffffffffffffffffffffffffff167fdec2bacdd2f05b59de34da9b523dff8be42e5e38e818c82fdb0bae774387a724838360405161273d9291906146c7565b60405180910390a250505b5b505050565b6000828260405160200161276392919061414f565b60405160208183030381529060405280519060200120905092915050565b6000807f7fffffffffffffffffffffffffffffff5d576e7357a4501ddfe92f46681b20a08360001c11156127bc576000600391509150612885565b601b8560ff16141580156127d45750601c8560ff1614155b156127e6576000600491509150612885565b60006001878787876040516000815260200160405260405161280b949392919061430a565b6020604051602081039080840390855afa15801561282d573d6000803e3d6000fd5b505050602060405103519050600073ffffffffffffffffffffffffffffffffffffffff168173ffffffffffffffffffffffffffffffffffffffff16141561287c57600060019250925050612885565b80600092509250505b94509492505050565b600060048111156128c8577f4e487b7100000000000000000000000000000000000000000000000000000000600052602160045260246000fd5b816004811115612901577f4e487b7100000000000000000000000000000000000000000000000000000000600052602160045260246000fd5b141561290c57612bdc565b60016004811115612946577f4e487b7100000000000000000000000000000000000000000000000000000000600052602160045260246000fd5b81600481111561297f577f4e487b7100000000000000000000000000000000000000000000000000000000600052602160045260246000fd5b14156129c0576040517f08c379a00000000000000000000000000000000000000000000000000000000081526004016129b790614371565b60405180910390fd5b600260048111156129fa577f4e487b7100000000000000000000000000000000000000000000000000000000600052602160045260246000fd5b816004811115612a33577f4e487b7100000000000000000000000000000000000000000000000000000000600052602160045260246000fd5b1415612a74576040517f08c379a0000000000000000000000000000000000000000000000000000000008152600401612a6b90614431565b60405180910390fd5b60036004811115612aae577f4e487b7100000000000000000000000000000000000000000000000000000000600052602160045260246000fd5b816004811115612ae7577f4e487b7100000000000000000000000000000000000000000000000000000000600052602160045260246000fd5b1415612b28576040517f08c379a0000000000000000000000000000000000000000000000000000000008152600401612b1f906144d1565b60405180910390fd5b600480811115612b61577f4e487b7100000000000000000000000000000000000000000000000000000000600052602160045260246000fd5b816004811115612b9a577f4e487b7100000000000000000000000000000000000000000000000000000000600052602160045260246000fd5b1415612bdb576040517f08c379a0000000000000000000000000000000000000000000000000000000008152600401612bd2906144f1565b60405180910390fd5b5b50565b6001816000016000828254019250508190555050565b612c00838383613291565b612c1b612c0c84610ba3565b612c1584610ba3565b83612555565b505050565b600073ffffffffffffffffffffffffffffffffffffffff168273ffffffffffffffffffffffffffffffffffffffff161415612c90576040517f08c379a0000000000000000000000000000000000000000000000000000000008152600401612c8790614671565b60405180910390fd5b612c9c6000838361213b565b8060026000828254612cae919061474d565b92505081905550806000808473ffffffffffffffffffffffffffffffffffffffff1673ffffffffffffffffffffffffffffffffffffffff1681526020019081526020016000206000828254612d03919061474d565b925050819055508173ffffffffffffffffffffffffffffffffffffffff16600073ffffffffffffffffffffffffffffffffffffffff167fddf252ad1be2c89b69c2b068fc378daa952ba7f163c4a11628f55a4df523b3ef83604051612d6891906146ac565b60405180910390a3612d7c60008383612140565b5050565b60007bffffffffffffffffffffffffffffffffffffffffffffffffffffffff905090565b60008183612db2919061474d565b905092915050565b60008060008580549050905060008114612e4e5785600182612ddc919061482e565b81548110612e13577f4e487b7100000000000000000000000000000000000000000000000000000000600052603260045260246000fd5b9060005260206000200160000160049054906101000a90047bffffffffffffffffffffffffffffffffffffffffffffffffffffffff16612e51565b60005b7bffffffffffffffffffffffffffffffffffffffffffffffffffffffff169250612e7f83858763ffffffff16565b9150600081118015612ef857504386600183612e9b919061482e565b81548110612ed2577f4e487b7100000000000000000000000000000000000000000000000000000000600052603260045260246000fd5b9060005260206000200160000160009054906101000a900463ffffffff1663ffffffff16145b15612fab57612f0682613296565b86600183612f14919061482e565b81548110612f4b577f4e487b7100000000000000000000000000000000000000000000000000000000600052603260045260246000fd5b9060005260206000200160000160046101000a8154817bffffffffffffffffffffffffffffffffffffffffffffffffffffffff02191690837bffffffffffffffffffffffffffffffffffffffffffffffffffffffff16021790555061309b565b856040518060400160405280612fc043612037565b63ffffffff168152602001612fd485613296565b7bffffffffffffffffffffffffffffffffffffffffffffffffffffffff168152509080600181540180825580915050600190039060005260206000200160009091909190915060008201518160000160006101000a81548163ffffffff021916908363ffffffff16021790555060208201518160000160046101000a8154817bffffffffffffffffffffffffffffffffffffffffffffffffffffffff02191690837bffffffffffffffffffffffffffffffffffffffffffffffffffffffff16021790555050505b50935093915050565b600073ffffffffffffffffffffffffffffffffffffffff168273ffffffffffffffffffffffffffffffffffffffff161415613114576040517f08c379a000000000000000000000000000000000000000000000000000000000815260040161310b906145b1565b60405180910390fd5b6131208260008361213b565b60008060008473ffffffffffffffffffffffffffffffffffffffff1673ffffffffffffffffffffffffffffffffffffffff168152602001908152602001600020549050818110156131a6576040517f08c379a000000000000000000000000000000000000000000000000000000000815260040161319d90614411565b60405180910390fd5b8181036000808573ffffffffffffffffffffffffffffffffffffffff1673ffffffffffffffffffffffffffffffffffffffff1681526020019081526020016000208190555081600260008282546131fd919061482e565b92505081905550600073ffffffffffffffffffffffffffffffffffffffff168373ffffffffffffffffffffffffffffffffffffffff167fddf252ad1be2c89b69c2b068fc378daa952ba7f163c4a11628f55a4df523b3ef8460405161326291906146ac565b60405180910390a361327683600084612140565b505050565b60008183613289919061482e565b905092915050565b505050565b60007bffffffffffffffffffffffffffffffffffffffffffffffffffffffff80168211156132f9576040517f08c379a00000000000000000000000000000000000000000000000000000000081526004016132f090614571565b60405180910390fd5b819050919050565b6040518060400160405280600063ffffffff16815260200160007bffffffffffffffffffffffffffffffffffffffffffffffffffffffff1681525090565b60008135905061334e81614a5c565b92915050565b60008135905061336381614a73565b92915050565b60008135905061337881614a8a565b92915050565b60008135905061338d81614aa1565b92915050565b6000813590506133a281614ab8565b92915050565b6000813590506133b781614acf565b92915050565b6000602082840312156133cf57600080fd5b60006133dd8482850161333f565b91505092915050565b600080604083850312156133f957600080fd5b60006134078582860161333f565b92505060206134188582860161333f565b9150509250929050565b60008060006060848603121561343757600080fd5b60006134458682870161333f565b93505060206134568682870161333f565b92505060406134678682870161337e565b9150509250925092565b600080600080600080600060e0888a03121561348c57600080fd5b600061349a8a828b0161333f565b97505060206134ab8a828b0161333f565b96505060406134bc8a828b0161337e565b95505060606134cd8a828b0161337e565b94505060806134de8a828b016133a8565b93505060a06134ef8a828b01613354565b92505060c06135008a828b01613354565b91505092959891949750929550565b6000806040838503121561352257600080fd5b60006135308582860161333f565b92505060206135418582860161337e565b9150509250929050565b60008060008060008060c0878903121561356457600080fd5b600061357289828a0161333f565b965050602061358389828a0161337e565b955050604061359489828a0161337e565b94505060606135a589828a016133a8565b93505060806135b689828a01613354565b92505060a06135c789828a01613354565b9150509295509295509295565b600080604083850312156135e757600080fd5b60006135f58582860161333f565b925050602061360685828601613393565b9150509250929050565b60006020828403121561362257600080fd5b600061363084828501613354565b91505092915050565b6000806040838503121561364c57600080fd5b600061365a85828601613354565b925050602061366b8582860161333f565b9150509250929050565b60006020828403121561368757600080fd5b600061369584828501613369565b91505092915050565b6000602082840312156136b057600080fd5b60006136be8482850161337e565b91505092915050565b6136d081614862565b82525050565b6136df81614874565b82525050565b6136ee81614880565b82525050565b61370561370082614880565b6149b4565b82525050565b600061371682614726565b6137208185614731565b9350613730818560208601614925565b61373981614a4b565b840191505092915050565b600061374f82614726565b6137598185614742565b9350613769818560208601614925565b80840191505092915050565b6000613782601883614731565b91507f45434453413a20696e76616c6964207369676e617475726500000000000000006000830152602082019050919050565b60006137c2602083614731565b91507f537472696e67733a20686578206c656e67746820696e73756666696369656e746000830152602082019050919050565b6000613802602383614731565b91507f45524332303a207472616e7366657220746f20746865207a65726f206164647260008301527f65737300000000000000000000000000000000000000000000000000000000006020830152604082019050919050565b6000613868601f83614731565b91507f4552433230566f7465733a20626c6f636b206e6f7420796574206d696e6564006000830152602082019050919050565b60006138a8601d83614731565b91507f4552433230566f7465733a207369676e617475726520657870697265640000006000830152602082019050919050565b60006138e8602283614731565b91507f45524332303a206275726e20616d6f756e7420657863656564732062616c616e60008301527f63650000000000000000000000000000000000000000000000000000000000006020830152604082019050919050565b600061394e601f83614731565b91507f45434453413a20696e76616c6964207369676e6174757265206c656e677468006000830152602082019050919050565b600061398e601983614731565b91507f4552433230566f7465733a20696e76616c6964206e6f6e6365000000000000006000830152602082019050919050565b60006139ce602283614731565b91507f45524332303a20617070726f766520746f20746865207a65726f20616464726560008301527f73730000000000000000000000000000000000000000000000000000000000006020830152604082019050919050565b6000613a34600283614742565b91507f19010000000000000000000000000000000000000000000000000000000000006000830152600282019050919050565b6000613a74601d83614731565b91507f45524332305065726d69743a206578706972656420646561646c696e650000006000830152602082019050919050565b6000613ab4602683614731565b91507f45524332303a207472616e7366657220616d6f756e742065786365656473206260008301527f616c616e636500000000000000000000000000000000000000000000000000006020830152604082019050919050565b6000613b1a602283614731565b91507f45434453413a20696e76616c6964207369676e6174757265202773272076616c60008301527f75650000000000000000000000000000000000000000000000000000000000006020830152604082019050919050565b6000613b80602283614731565b91507f45434453413a20696e76616c6964207369676e6174757265202776272076616c60008301527f75650000000000000000000000000000000000000000000000000000000000006020830152604082019050919050565b6000613be6601e83614731565b91507f45524332305065726d69743a20696e76616c6964207369676e617475726500006000830152602082019050919050565b6000613c26602883614731565b91507f45524332303a207472616e7366657220616d6f756e742065786365656473206160008301527f6c6c6f77616e63650000000000000000000000000000000000000000000000006020830152604082019050919050565b6000613c8c603083614731565b91507f4552433230566f7465733a20746f74616c20737570706c79207269736b73206f60008301527f766572666c6f77696e6720766f746573000000000000000000000000000000006020830152604082019050919050565b6000613cf2602783614731565b91507f53616665436173743a2076616c756520646f65736e27742066697420696e203260008301527f32342062697473000000000000000000000000000000000000000000000000006020830152604082019050919050565b6000613d58602483614731565b91507f45524332303a206275726e20616d6f756e74206578636565647320616c6c6f7760008301527f616e6365000000000000000000000000000000000000000000000000000000006020830152604082019050919050565b6000613dbe602183614731565b91507f45524332303a206275726e2066726f6d20746865207a65726f2061646472657360008301527f73000000000000000000000000000000000000000000000000000000000000006020830152604082019050919050565b6000613e24602583614731565b91507f45524332303a207472616e736665722066726f6d20746865207a65726f20616460008301527f64726573730000000000000000000000000000000000000000000000000000006020830152604082019050919050565b6000613e8a602683614731565b91507f53616665436173743a2076616c756520646f65736e27742066697420696e203360008301527f32206269747300000000000000000000000000000000000000000000000000006020830152604082019050919050565b6000613ef0602483614731565b91507f45524332303a20617070726f76652066726f6d20746865207a65726f2061646460008301527f72657373000000000000000000000000000000000000000000000000000000006020830152604082019050919050565b6000613f56601783614742565b91507f416363657373436f6e74726f6c3a206163636f756e74200000000000000000006000830152601782019050919050565b6000613f96602583614731565b91507f45524332303a2064656372656173656420616c6c6f77616e63652062656c6f7760008301527f207a65726f0000000000000000000000000000000000000000000000000000006020830152604082019050919050565b6000613ffc601183614742565b91507f206973206d697373696e6720726f6c65200000000000000000000000000000006000830152601182019050919050565b600061403c602f83614731565b91507f416363657373436f6e74726f6c3a2063616e206f6e6c792072656e6f756e636560008301527f20726f6c657320666f722073656c6600000000000000000000000000000000006020830152604082019050919050565b60006140a2601f83614731565b91507f45524332303a206d696e7420746f20746865207a65726f2061646472657373006000830152602082019050919050565b6040820160008201516140eb6000850182614122565b5060208201516140fe6020850182614104565b50505050565b61410d816148d6565b82525050565b61411c816148fe565b82525050565b61412b81614908565b82525050565b61413a81614908565b82525050565b61414981614918565b82525050565b600061415a82613a27565b915061416682856136f4565b60208201915061417682846136f4565b6020820191508190509392505050565b600061419182613f49565b915061419d8285613744565b91506141a882613fef565b91506141b48284613744565b91508190509392505050565b60006020820190506141d560008301846136c7565b92915050565b60006020820190506141f060008301846136d6565b92915050565b600060208201905061420b60008301846136e5565b92915050565b600060c08201905061422660008301896136e5565b61423360208301886136c7565b61424060408301876136c7565b61424d6060830186614113565b61425a6080830185614113565b61426760a0830184614113565b979650505050505050565b600060808201905061428760008301876136e5565b61429460208301866136c7565b6142a16040830185614113565b6142ae6060830184614113565b95945050505050565b600060a0820190506142cc60008301886136e5565b6142d960208301876136e5565b6142e660408301866136e5565b6142f36060830185614113565b61430060808301846136c7565b9695505050505050565b600060808201905061431f60008301876136e5565b61432c6020830186614140565b61433960408301856136e5565b61434660608301846136e5565b95945050505050565b60006020820190508181036000830152614369818461370b565b905092915050565b6000602082019050818103600083015261438a81613775565b9050919050565b600060208201905081810360008301526143aa816137b5565b9050919050565b600060208201905081810360008301526143ca816137f5565b9050919050565b600060208201905081810360008301526143ea8161385b565b9050919050565b6000602082019050818103600083015261440a8161389b565b9050919050565b6000602082019050818103600083015261442a816138db565b9050919050565b6000602082019050818103600083015261444a81613941565b9050919050565b6000602082019050818103600083015261446a81613981565b9050919050565b6000602082019050818103600083015261448a816139c1565b9050919050565b600060208201905081810360008301526144aa81613a67565b9050919050565b600060208201905081810360008301526144ca81613aa7565b9050919050565b600060208201905081810360008301526144ea81613b0d565b9050919050565b6000602082019050818103600083015261450a81613b73565b9050919050565b6000602082019050818103600083015261452a81613bd9565b9050919050565b6000602082019050818103600083015261454a81613c19565b9050919050565b6000602082019050818103600083015261456a81613c7f565b9050919050565b6000602082019050818103600083015261458a81613ce5565b9050919050565b600060208201905081810360008301526145aa81613d4b565b9050919050565b600060208201905081810360008301526145ca81613db1565b9050919050565b600060208201905081810360008301526145ea81613e17565b9050919050565b6000602082019050818103600083015261460a81613e7d565b9050919050565b6000602082019050818103600083015261462a81613ee3565b9050919050565b6000602082019050818103600083015261464a81613f89565b9050919050565b6000602082019050818103600083015261466a8161402f565b9050919050565b6000602082019050818103600083015261468a81614095565b9050919050565b60006040820190506146a660008301846140d5565b92915050565b60006020820190506146c16000830184614113565b92915050565b60006040820190506146dc6000830185614113565b6146e96020830184614113565b9392505050565b60006020820190506147056000830184614131565b92915050565b60006020820190506147206000830184614140565b92915050565b600081519050919050565b600082825260208201905092915050565b600081905092915050565b6000614758826148fe565b9150614763836148fe565b9250827fffffffffffffffffffffffffffffffffffffffffffffffffffffffffffffffff03821115614798576147976149be565b5b828201905092915050565b60006147ae826148fe565b91506147b9836148fe565b9250826147c9576147c86149ed565b5b828204905092915050565b60006147df826148fe565b91506147ea836148fe565b9250817fffffffffffffffffffffffffffffffffffffffffffffffffffffffffffffffff0483118215151615614823576148226149be565b5b828202905092915050565b6000614839826148fe565b9150614844836148fe565b925082821015614857576148566149be565b5b828203905092915050565b600061486d826148b6565b9050919050565b60008115159050919050565b6000819050919050565b60007fffffffff0000000000000000000000000000000000000000000000000000000082169050919050565b600073ffffffffffffffffffffffffffffffffffffffff82169050919050565b60007bffffffffffffffffffffffffffffffffffffffffffffffffffffffff82169050919050565b6000819050919050565b600063ffffffff82169050919050565b600060ff82169050919050565b60005b83811015614943578082015181840152602081019050614928565b83811115614952576000848401525b50505050565b6000614963826148fe565b91506000821415614977576149766149be565b5b600182039050919050565b6000600282049050600182168061499a57607f821691505b602082108114156149ae576149ad614a1c565b5b50919050565b6000819050919050565b7f4e487b7100000000000000000000000000000000000000000000000000000000600052601160045260246000fd5b7f4e487b7100000000000000000000000000000000000000000000000000000000600052601260045260246000fd5b7f4e487b7100000000000000000000000000000000000000000000000000000000600052602260045260246000fd5b6000601f19601f8301169050919050565b614a6581614862565b8114614a7057600080fd5b50565b614a7c81614880565b8114614a8757600080fd5b50565b614a938161488a565b8114614a9e57600080fd5b50565b614aaa816148fe565b8114614ab557600080fd5b50565b614ac181614908565b8114614acc57600080fd5b50565b614ad881614918565b8114614ae357600080fd5b5056fea26469706673582212204982459be74cf0c1b1293fb7ed51040960bd92219c0fbb3a53ed141c284521f164736f6c63430008000033",
  "immutableReferences": {
    "1766": [
      {
        "length": 32,
        "start": 4716
      }
    ],
    "2772": [
      {
        "length": 32,
        "start": 7216
      }
    ],
    "2774": [
      {
        "length": 32,
        "start": 7175
      }
    ],
    "2776": [
      {
        "length": 32,
        "start": 7089
      }
    ],
    "2778": [
      {
        "length": 32,
        "start": 7292
      }
    ],
    "2780": [
      {
        "length": 32,
        "start": 7325
      }
    ],
    "2782": [
      {
        "length": 32,
        "start": 7259
      }
    ]
  },
  "source": "// SPDX-License-Identifier: MIT\npragma solidity ^0.8.0;\n\nimport \"@openzeppelin/contracts/token/ERC20/ERC20.sol\";\nimport \"@openzeppelin/contracts/token/ERC20/extensions/ERC20Burnable.sol\";\nimport \"@openzeppelin/contracts/access/AccessControl.sol\";\nimport \"@openzeppelin/contracts/token/ERC20/extensions/draft-ERC20Permit.sol\";\nimport \"@openzeppelin/contracts/token/ERC20/extensions/ERC20Votes.sol\";\n\ncontract Rude is ERC20, ERC20Burnable, AccessControl, ERC20Permit, ERC20Votes {\n    bytes32 public constant MINTER_ROLE = keccak256(\"MINTER_ROLE\");\n\n    constructor() ERC20(\"Rude\", \"RUDE\") ERC20Permit(\"Rude\") {\n        _grantRole(DEFAULT_ADMIN_ROLE, msg.sender);\n        _grantRole(MINTER_ROLE, msg.sender);\n    }\n\n    function mint(address to, uint256 amount) public onlyRole(MINTER_ROLE) {\n        _mint(to, amount);\n    }\n    // The following functions are overrides required by Solidity.\n    function _afterTokenTransfer(address from, address to, uint256 amount)\n        internal\n        override(ERC20, ERC20Votes)\n    {\n        super._afterTokenTransfer(from, to, amount);\n    }\n\n    function _mint(address to, uint256 amount)\n        internal\n        override(ERC20, ERC20Votes)\n    {\n        super._mint(to, amount);\n    }\n\n    function _burn(address account, uint256 amount)\n        internal\n        override(ERC20, ERC20Votes)\n    {\n        super._burn(account, amount);\n    }\n}",
  "sourcePath": "/Users/alessandrodecristofaro/Desktop/DeFi Code/croskull-repo/src/contracts/Rude.sol",
  "compiler": {
    "name": "solc",
    "version": "0.8.0+commit.c7dfd78e.Emscripten.clang"
  },
  "schemaVersion": "3.4.3",
  "updatedAt": "2022-04-03T16:34:56.600Z",
  "devdoc": {
    "kind": "dev",
    "methods": {
      "DOMAIN_SEPARATOR()": {
        "details": "See {IERC20Permit-DOMAIN_SEPARATOR}."
      },
      "allowance(address,address)": {
        "details": "See {IERC20-allowance}."
      },
      "approve(address,uint256)": {
        "details": "See {IERC20-approve}. Requirements: - `spender` cannot be the zero address."
      },
      "balanceOf(address)": {
        "details": "See {IERC20-balanceOf}."
      },
      "burn(uint256)": {
        "details": "Destroys `amount` tokens from the caller. See {ERC20-_burn}."
      },
      "burnFrom(address,uint256)": {
        "details": "Destroys `amount` tokens from `account`, deducting from the caller's allowance. See {ERC20-_burn} and {ERC20-allowance}. Requirements: - the caller must have allowance for ``accounts``'s tokens of at least `amount`."
      },
      "checkpoints(address,uint32)": {
        "details": "Get the `pos`-th checkpoint for `account`."
      },
      "decimals()": {
        "details": "Returns the number of decimals used to get its user representation. For example, if `decimals` equals `2`, a balance of `505` tokens should be displayed to a user as `5.05` (`505 / 10 ** 2`). Tokens usually opt for a value of 18, imitating the relationship between Ether and Wei. This is the value {ERC20} uses, unless this function is overridden; NOTE: This information is only used for _display_ purposes: it in no way affects any of the arithmetic of the contract, including {IERC20-balanceOf} and {IERC20-transfer}."
      },
      "decreaseAllowance(address,uint256)": {
        "details": "Atomically decreases the allowance granted to `spender` by the caller. This is an alternative to {approve} that can be used as a mitigation for problems described in {IERC20-approve}. Emits an {Approval} event indicating the updated allowance. Requirements: - `spender` cannot be the zero address. - `spender` must have allowance for the caller of at least `subtractedValue`."
      },
      "delegate(address)": {
        "details": "Delegate votes from the sender to `delegatee`."
      },
      "delegateBySig(address,uint256,uint256,uint8,bytes32,bytes32)": {
        "details": "Delegates votes from signer to `delegatee`"
      },
      "delegates(address)": {
        "details": "Get the address `account` is currently delegating to."
      },
      "getPastTotalSupply(uint256)": {
        "details": "Retrieve the `totalSupply` at the end of `blockNumber`. Note, this value is the sum of all balances. It is but NOT the sum of all the delegated votes! Requirements: - `blockNumber` must have been already mined"
      },
      "getPastVotes(address,uint256)": {
        "details": "Retrieve the number of votes for `account` at the end of `blockNumber`. Requirements: - `blockNumber` must have been already mined"
      },
      "getRoleAdmin(bytes32)": {
        "details": "Returns the admin role that controls `role`. See {grantRole} and {revokeRole}. To change a role's admin, use {_setRoleAdmin}."
      },
      "getVotes(address)": {
        "details": "Gets the current votes balance for `account`"
      },
      "grantRole(bytes32,address)": {
        "details": "Grants `role` to `account`. If `account` had not been already granted `role`, emits a {RoleGranted} event. Requirements: - the caller must have ``role``'s admin role."
      },
      "hasRole(bytes32,address)": {
        "details": "Returns `true` if `account` has been granted `role`."
      },
      "increaseAllowance(address,uint256)": {
        "details": "Atomically increases the allowance granted to `spender` by the caller. This is an alternative to {approve} that can be used as a mitigation for problems described in {IERC20-approve}. Emits an {Approval} event indicating the updated allowance. Requirements: - `spender` cannot be the zero address."
      },
      "name()": {
        "details": "Returns the name of the token."
      },
      "nonces(address)": {
        "details": "See {IERC20Permit-nonces}."
      },
      "numCheckpoints(address)": {
        "details": "Get number of checkpoints for `account`."
      },
      "permit(address,address,uint256,uint256,uint8,bytes32,bytes32)": {
        "details": "See {IERC20Permit-permit}."
      },
      "renounceRole(bytes32,address)": {
        "details": "Revokes `role` from the calling account. Roles are often managed via {grantRole} and {revokeRole}: this function's purpose is to provide a mechanism for accounts to lose their privileges if they are compromised (such as when a trusted device is misplaced). If the calling account had been revoked `role`, emits a {RoleRevoked} event. Requirements: - the caller must be `account`."
      },
      "revokeRole(bytes32,address)": {
        "details": "Revokes `role` from `account`. If `account` had been granted `role`, emits a {RoleRevoked} event. Requirements: - the caller must have ``role``'s admin role."
      },
      "supportsInterface(bytes4)": {
        "details": "See {IERC165-supportsInterface}."
      },
      "symbol()": {
        "details": "Returns the symbol of the token, usually a shorter version of the name."
      },
      "totalSupply()": {
        "details": "See {IERC20-totalSupply}."
      },
      "transfer(address,uint256)": {
        "details": "See {IERC20-transfer}. Requirements: - `recipient` cannot be the zero address. - the caller must have a balance of at least `amount`."
      },
      "transferFrom(address,address,uint256)": {
        "details": "See {IERC20-transferFrom}. Emits an {Approval} event indicating the updated allowance. This is not required by the EIP. See the note at the beginning of {ERC20}. Requirements: - `sender` and `recipient` cannot be the zero address. - `sender` must have a balance of at least `amount`. - the caller must have allowance for ``sender``'s tokens of at least `amount`."
      }
    },
    "version": 1
  },
  "userdoc": {
    "kind": "user",
    "methods": {},
    "version": 1
  }
}