{
  "contractName": "SkullsRaffle",
  "abi": [
    {
      "inputs": [
        {
          "internalType": "contract IERC20Burnable",
          "name": "_grave",
          "type": "address"
        }
      ],
      "stateMutability": "nonpayable",
      "type": "constructor"
    },
    {
      "anonymous": false,
      "inputs": [
        {
          "indexed": true,
          "internalType": "bytes32",
          "name": "raffleHash",
          "type": "bytes32"
        },
        {
          "indexed": false,
          "internalType": "address",
          "name": "_token",
          "type": "address"
        },
        {
          "indexed": false,
          "internalType": "uint256",
          "name": "_raffleCounter",
          "type": "uint256"
        },
        {
          "indexed": false,
          "internalType": "uint256",
          "name": "_cost",
          "type": "uint256"
        },
        {
          "indexed": false,
          "internalType": "uint256",
          "name": "_winnersCount",
          "type": "uint256"
        },
        {
          "indexed": false,
          "internalType": "uint256",
          "name": "_endTimestamp",
          "type": "uint256"
        },
        {
          "indexed": false,
          "internalType": "string",
          "name": "_ipfsHash",
          "type": "string"
        }
      ],
      "name": "RaffleCreation",
      "type": "event"
    },
    {
      "anonymous": false,
      "inputs": [
        {
          "indexed": true,
          "internalType": "bytes32",
          "name": "raffleHash",
          "type": "bytes32"
        },
        {
          "indexed": false,
          "internalType": "uint256",
          "name": "raffleId",
          "type": "uint256"
        },
        {
          "indexed": false,
          "internalType": "uint256",
          "name": "winnersCount",
          "type": "uint256"
        }
      ],
      "name": "RaffleEnd",
      "type": "event"
    },
    {
      "inputs": [],
      "name": "GRAVE",
      "outputs": [
        {
          "internalType": "contract IERC20Burnable",
          "name": "",
          "type": "address"
        }
      ],
      "stateMutability": "view",
      "type": "function",
      "constant": true
    },
    {
      "inputs": [],
      "name": "fastRafflePercent",
      "outputs": [
        {
          "internalType": "uint256",
          "name": "",
          "type": "uint256"
        }
      ],
      "stateMutability": "view",
      "type": "function",
      "constant": true
    },
    {
      "inputs": [
        {
          "internalType": "address",
          "name": "",
          "type": "address"
        }
      ],
      "name": "managers",
      "outputs": [
        {
          "internalType": "bool",
          "name": "",
          "type": "bool"
        }
      ],
      "stateMutability": "view",
      "type": "function",
      "constant": true
    },
    {
      "inputs": [],
      "name": "maxWinners",
      "outputs": [
        {
          "internalType": "uint256",
          "name": "",
          "type": "uint256"
        }
      ],
      "stateMutability": "view",
      "type": "function",
      "constant": true
    },
    {
      "inputs": [],
      "name": "owner",
      "outputs": [
        {
          "internalType": "address",
          "name": "",
          "type": "address"
        }
      ],
      "stateMutability": "view",
      "type": "function",
      "constant": true
    },
    {
      "inputs": [
        {
          "internalType": "bytes32",
          "name": "",
          "type": "bytes32"
        }
      ],
      "name": "participants",
      "outputs": [
        {
          "internalType": "address",
          "name": "",
          "type": "address"
        }
      ],
      "stateMutability": "view",
      "type": "function",
      "constant": true
    },
    {
      "inputs": [
        {
          "internalType": "bytes32",
          "name": "",
          "type": "bytes32"
        }
      ],
      "name": "players",
      "outputs": [
        {
          "internalType": "bool",
          "name": "",
          "type": "bool"
        }
      ],
      "stateMutability": "view",
      "type": "function",
      "constant": true
    },
    {
      "inputs": [],
      "name": "raffleCounter",
      "outputs": [
        {
          "internalType": "uint256",
          "name": "",
          "type": "uint256"
        }
      ],
      "stateMutability": "view",
      "type": "function",
      "constant": true
    },
    {
      "inputs": [
        {
          "internalType": "bytes32",
          "name": "",
          "type": "bytes32"
        }
      ],
      "name": "raffles",
      "outputs": [
        {
          "internalType": "uint256",
          "name": "playersCount",
          "type": "uint256"
        },
        {
          "internalType": "uint256",
          "name": "winnersCount",
          "type": "uint256"
        },
        {
          "internalType": "uint256",
          "name": "claimedAmount",
          "type": "uint256"
        },
        {
          "internalType": "uint256",
          "name": "cost",
          "type": "uint256"
        },
        {
          "internalType": "uint256",
          "name": "fastRaffle",
          "type": "uint256"
        },
        {
          "internalType": "uint256",
          "name": "endTimestamp",
          "type": "uint256"
        },
        {
          "internalType": "uint256",
          "name": "createdAt",
          "type": "uint256"
        },
        {
          "internalType": "uint256",
          "name": "maxParticipants",
          "type": "uint256"
        },
        {
          "internalType": "address",
          "name": "createdBy",
          "type": "address"
        },
        {
          "internalType": "address",
          "name": "tokenAddress",
          "type": "address"
        },
        {
          "internalType": "string",
          "name": "ipfsHash",
          "type": "string"
        }
      ],
      "stateMutability": "view",
      "type": "function",
      "constant": true
    },
    {
      "inputs": [
        {
          "internalType": "uint256",
          "name": "",
          "type": "uint256"
        }
      ],
      "name": "rafflesHash",
      "outputs": [
        {
          "internalType": "bytes32",
          "name": "",
          "type": "bytes32"
        }
      ],
      "stateMutability": "view",
      "type": "function",
      "constant": true
    },
    {
      "inputs": [
        {
          "internalType": "bytes32",
          "name": "",
          "type": "bytes32"
        },
        {
          "internalType": "uint256",
          "name": "",
          "type": "uint256"
        }
      ],
      "name": "winners",
      "outputs": [
        {
          "internalType": "address",
          "name": "",
          "type": "address"
        }
      ],
      "stateMutability": "view",
      "type": "function",
      "constant": true
    },
    {
      "inputs": [
        {
          "internalType": "address",
          "name": "_newManager",
          "type": "address"
        }
      ],
      "name": "addManager",
      "outputs": [],
      "stateMutability": "nonpayable",
      "type": "function"
    },
    {
      "inputs": [
        {
          "internalType": "address",
          "name": "_oldManager",
          "type": "address"
        }
      ],
      "name": "removeManager",
      "outputs": [],
      "stateMutability": "nonpayable",
      "type": "function"
    },
    {
      "inputs": [
        {
          "internalType": "uint256",
          "name": "_winnersCount",
          "type": "uint256"
        },
        {
          "internalType": "address",
          "name": "_token",
          "type": "address"
        },
        {
          "internalType": "uint256",
          "name": "_cost",
          "type": "uint256"
        },
        {
          "internalType": "uint256",
          "name": "_endTimestamp",
          "type": "uint256"
        },
        {
          "internalType": "string",
          "name": "_ipfsHash",
          "type": "string"
        },
        {
          "internalType": "uint256",
          "name": "_fastRaffle",
          "type": "uint256"
        },
        {
          "internalType": "uint256",
          "name": "_maxParticipants",
          "type": "uint256"
        }
      ],
      "name": "addRaffle",
      "outputs": [],
      "stateMutability": "nonpayable",
      "type": "function"
    },
    {
      "inputs": [
        {
          "internalType": "uint256",
          "name": "_raffleId",
          "type": "uint256"
        }
      ],
      "name": "getWinners",
      "outputs": [
        {
          "internalType": "address[]",
          "name": "",
          "type": "address[]"
        }
      ],
      "stateMutability": "view",
      "type": "function",
      "constant": true
    },
    {
      "inputs": [
        {
          "internalType": "uint256",
          "name": "_raffleId",
          "type": "uint256"
        }
      ],
      "name": "generateWinners",
      "outputs": [],
      "stateMutability": "nonpayable",
      "type": "function"
    },
    {
      "inputs": [
        {
          "internalType": "uint256",
          "name": "_raffleId",
          "type": "uint256"
        }
      ],
      "name": "participateRaffle",
      "outputs": [],
      "stateMutability": "nonpayable",
      "type": "function"
    },
    {
      "inputs": [
        {
          "internalType": "uint256",
          "name": "_raffleId",
          "type": "uint256"
        }
      ],
      "name": "isParticipant",
      "outputs": [
        {
          "internalType": "bool",
          "name": "",
          "type": "bool"
        }
      ],
      "stateMutability": "view",
      "type": "function",
      "constant": true
    },
    {
      "inputs": [
        {
          "internalType": "uint256",
          "name": "_raffleId",
          "type": "uint256"
        }
      ],
      "name": "getRaffle",
      "outputs": [
        {
          "components": [
            {
              "internalType": "uint256",
              "name": "playersCount",
              "type": "uint256"
            },
            {
              "internalType": "uint256",
              "name": "winnersCount",
              "type": "uint256"
            },
            {
              "internalType": "uint256",
              "name": "claimedAmount",
              "type": "uint256"
            },
            {
              "internalType": "uint256",
              "name": "cost",
              "type": "uint256"
            },
            {
              "internalType": "uint256",
              "name": "fastRaffle",
              "type": "uint256"
            },
            {
              "internalType": "uint256",
              "name": "endTimestamp",
              "type": "uint256"
            },
            {
              "internalType": "uint256",
              "name": "createdAt",
              "type": "uint256"
            },
            {
              "internalType": "uint256",
              "name": "maxParticipants",
              "type": "uint256"
            },
            {
              "internalType": "address",
              "name": "createdBy",
              "type": "address"
            },
            {
              "internalType": "address",
              "name": "tokenAddress",
              "type": "address"
            },
            {
              "internalType": "string",
              "name": "ipfsHash",
              "type": "string"
            }
          ],
          "internalType": "struct SkullsRaffle.Raffle",
          "name": "",
          "type": "tuple"
        }
      ],
      "stateMutability": "view",
      "type": "function",
      "constant": true
    }
  ],
  "bytecode": "0x608060405260c8600355600a6004553480156200001b57600080fd5b50604051620032eb380380620032eb8339818101604052810190620000419190620000e0565b336000806101000a81548173ffffffffffffffffffffffffffffffffffffffff021916908373ffffffffffffffffffffffffffffffffffffffff16021790555080600160006101000a81548173ffffffffffffffffffffffffffffffffffffffff021916908373ffffffffffffffffffffffffffffffffffffffff160217905550506200016e565b600081519050620000da8162000154565b92915050565b600060208284031215620000f357600080fd5b60006200010384828501620000c9565b91505092915050565b6000620001198262000134565b9050919050565b60006200012d826200010c565b9050919050565b600073ffffffffffffffffffffffffffffffffffffffff82169050919050565b6200015f8162000120565b81146200016b57600080fd5b50565b61316d806200017e6000396000f3fe608060405234801561001057600080fd5b50600436106101215760003560e01c80638da5cb5b116100ad578063cde8e5d311610071578063cde8e5d31461031a578063e31ef12c14610338578063e4dafec914610372578063fdff9b4d146103a2578063fe151967146103d257610121565b80638da5cb5b146102625780639424732e14610280578063ac18de43146102b0578063c2f306a5146102cc578063c700ce6e146102ea57610121565b80633ddec61f116100f45780633ddec61f146101ac578063433b0482146101c857806347a80620146101e4578063653e0f7f146102025780636b1426a41461023257610121565b8063111953ac14610126578063213f9ad4146101565780632d06177a14610172578063325182d41461018e575b600080fd5b610140600480360381019061013b9190612020565b610402565b60405161014d91906128e8565b60405180910390f35b610170600480360381019061016b9190612020565b610472565b005b61018c60048036038101906101879190611f92565b6107c6565b005b6101966109fe565b6040516101a39190612b3b565b60405180910390f35b6101c660048036038101906101c19190612072565b610a04565b005b6101e260048036038101906101dd9190612020565b610e84565b005b6101ec6114cd565b6040516101f9919061291e565b60405180910390f35b61021c60048036038101906102179190611fbb565b6114f3565b60405161022991906127f1565b60405180910390f35b61024c60048036038101906102479190612020565b611526565b60405161025991906128c6565b60405180910390f35b61026a6115f4565b60405161027791906127f1565b60405180910390f35b61029a60048036038101906102959190611fbb565b611618565b6040516102a791906128e8565b60405180910390f35b6102ca60048036038101906102c59190611f92565b611638565b005b6102d46117ad565b6040516102e19190612b3b565b60405180910390f35b61030460048036038101906102ff9190612020565b6117b3565b6040516103119190612903565b60405180910390f35b6103226117cb565b60405161032f9190612b3b565b60405180910390f35b610352600480360381019061034d9190611fbb565b6117d1565b6040516103699b9a99989796959493929190612bc4565b60405180910390f35b61038c60048036038101906103879190612020565b6118f3565b6040516103999190612b19565b60405180910390f35b6103bc60048036038101906103b79190611f92565b611ace565b6040516103c991906128e8565b60405180910390f35b6103ec60048036038101906103e79190611fe4565b611aee565b6040516103f991906127f1565b60405180910390f35b6000806007600084815260200190815260200160002054905060008133604051602001610430929190612799565b604051602081830303815290604052805190602001209050600a600082815260200190815260200160002060009054906101000a900460ff1692505050919050565b60008054906101000a900473ffffffffffffffffffffffffffffffffffffffff1673ffffffffffffffffffffffffffffffffffffffff163373ffffffffffffffffffffffffffffffffffffffff161461055257600660003373ffffffffffffffffffffffffffffffffffffffff1673ffffffffffffffffffffffffffffffffffffffff16815260200190815260200160002060009054906101000a900460ff16610551576040517f08c379a000000000000000000000000000000000000000000000000000000000815260040161054890612a79565b60405180910390fd5b5b600081101561056057600080fd5b6000600760008381526020019081526020016000205490506000600860008381526020019081526020016000206040518061016001604052908160008201548152602001600182015481526020016002820154815260200160038201548152602001600482015481526020016005820154815260200160068201548152602001600782015481526020016008820160009054906101000a900473ffffffffffffffffffffffffffffffffffffffff1673ffffffffffffffffffffffffffffffffffffffff1673ffffffffffffffffffffffffffffffffffffffff1681526020016009820160009054906101000a900473ffffffffffffffffffffffffffffffffffffffff1673ffffffffffffffffffffffffffffffffffffffff1673ffffffffffffffffffffffffffffffffffffffff168152602001600a820180546106a590612f34565b80601f01602080910402602001604051908101604052809291908181526020018280546106d190612f34565b801561071e5780601f106106f35761010080835404028352916020019161071e565b820191906000526020600020905b81548152906001019060200180831161070157829003601f168201915b5050505050815250509050428160a001511061076f576040517f08c379a000000000000000000000000000000000000000000000000000000000815260040161076690612af9565b60405180910390fd5b60008160400151116107b6576040517f08c379a00000000000000000000000000000000000000000000000000000000081526004016107ad90612939565b60405180910390fd5b6107c1818385611b3c565b505050565b3373ffffffffffffffffffffffffffffffffffffffff1660008054906101000a900473ffffffffffffffffffffffffffffffffffffffff1673ffffffffffffffffffffffffffffffffffffffff1614610854576040517f08c379a000000000000000000000000000000000000000000000000000000000815260040161084b90612979565b60405180910390fd5b600073ffffffffffffffffffffffffffffffffffffffff168173ffffffffffffffffffffffffffffffffffffffff1614156108c4576040517f08c379a00000000000000000000000000000000000000000000000000000000081526004016108bb906129b9565b60405180910390fd5b600660008273ffffffffffffffffffffffffffffffffffffffff1673ffffffffffffffffffffffffffffffffffffffff16815260200190815260200160002060009054906101000a900460ff1615610951576040517f08c379a000000000000000000000000000000000000000000000000000000000815260040161094890612ad9565b60405180910390fd5b600660008273ffffffffffffffffffffffffffffffffffffffff1673ffffffffffffffffffffffffffffffffffffffff16815260200190815260200160002060009054906101000a900460ff166109fb576001600660008373ffffffffffffffffffffffffffffffffffffffff1673ffffffffffffffffffffffffffffffffffffffff16815260200190815260200160002060006101000a81548160ff0219169083151502179055505b50565b60035481565b60008054906101000a900473ffffffffffffffffffffffffffffffffffffffff1673ffffffffffffffffffffffffffffffffffffffff163373ffffffffffffffffffffffffffffffffffffffff1614610ae457600660003373ffffffffffffffffffffffffffffffffffffffff1673ffffffffffffffffffffffffffffffffffffffff16815260200190815260200160002060009054906101000a900460ff16610ae3576040517f08c379a0000000000000000000000000000000000000000000000000000000008152600401610ada90612a79565b60405180910390fd5b5b6000811115610b315780871115610b30576040517f08c379a0000000000000000000000000000000000000000000000000000000008152600401610b27906129d9565b60405180910390fd5b5b600087118015610b4357506004548711155b610b82576040517f08c379a0000000000000000000000000000000000000000000000000000000008152600401610b7990612a99565b60405180910390fd5b60008511610b8f57600080fd5b60008411610b9c57600080fd5b6000821480610bab5750603182115b610bea576040517f08c379a0000000000000000000000000000000000000000000000000000000008152600401610be190612959565b60405180910390fd5b600086600254604051602001610c0192919061276d565b604051602081830303815290604052805190602001209050610c21611dad565b8781610120019073ffffffffffffffffffffffffffffffffffffffff16908173ffffffffffffffffffffffffffffffffffffffff16815250506000816000018181525050888160200181815250508881604001818152505086816060018181525050858160a0018181525050428160c00181815250503381610100019073ffffffffffffffffffffffffffffffffffffffff16908173ffffffffffffffffffffffffffffffffffffffff16815250508381608001818152505084816101400181905250828160e001818152505081600760006002548152602001908152602001600020819055508060086000848152602001908152602001600020600082015181600001556020820151816001015560408201518160020155606082015181600301556080820151816004015560a0820151816005015560c0820151816006015560e082015181600701556101008201518160080160006101000a81548173ffffffffffffffffffffffffffffffffffffffff021916908373ffffffffffffffffffffffffffffffffffffffff1602179055506101208201518160090160006101000a81548173ffffffffffffffffffffffffffffffffffffffff021916908373ffffffffffffffffffffffffffffffffffffffff16021790555061014082015181600a019080519060200190610e19929190611e33565b50905050817f5cf19c9c9ef8c49754ce144697aca07ccc8edec7a95d0e7b00a8e0cc0b9c8b79896002548a8d8b8b604051610e599695949392919061285e565b60405180910390a260026000815480929190610e7490612f66565b9190505550505050505050505050565b6000811015610e9257600080fd5b6000600760008381526020019081526020016000205490506000600860008381526020019081526020016000206040518061016001604052908160008201548152602001600182015481526020016002820154815260200160038201548152602001600482015481526020016005820154815260200160068201548152602001600782015481526020016008820160009054906101000a900473ffffffffffffffffffffffffffffffffffffffff1673ffffffffffffffffffffffffffffffffffffffff1673ffffffffffffffffffffffffffffffffffffffff1681526020016009820160009054906101000a900473ffffffffffffffffffffffffffffffffffffffff1673ffffffffffffffffffffffffffffffffffffffff1673ffffffffffffffffffffffffffffffffffffffff168152602001600a82018054610fd790612f34565b80601f016020809104026020016040519081016040528092919081815260200182805461100390612f34565b80156110505780601f1061102557610100808354040283529160200191611050565b820191906000526020600020905b81548152906001019060200180831161103357829003601f168201915b505050505081525050905060008160c00151116110a2576040517f08c379a000000000000000000000000000000000000000000000000000000000815260040161109990612a59565b60405180910390fd5b600082336040516020016110b7929190612799565b604051602081830303815290604052805190602001209050600a600082815260200190815260200160002060009054906101000a900460ff1615611130576040517f08c379a000000000000000000000000000000000000000000000000000000000815260040161112790612999565b60405180910390fd5b60008260e0015111156111885781600001518260e0015111611187576040517f08c379a000000000000000000000000000000000000000000000000000000000815260040161117e906129f9565b60405180910390fd5b5b8160600151600160009054906101000a900473ffffffffffffffffffffffffffffffffffffffff1673ffffffffffffffffffffffffffffffffffffffff1663dd62ed3e33306040518363ffffffff1660e01b81526004016111ea92919061280c565b60206040518083038186803b15801561120257600080fd5b505afa158015611216573d6000803e3d6000fd5b505050506040513d601f19601f8201168201806040525081019061123a9190612049565b101561127b576040517f08c379a000000000000000000000000000000000000000000000000000000000815260040161127290612a39565b60405180910390fd5b600160009054906101000a900473ffffffffffffffffffffffffffffffffffffffff1673ffffffffffffffffffffffffffffffffffffffff166379cc67903384606001516040518363ffffffff1660e01b81526004016112dc929190612835565b600060405180830381600087803b1580156112f657600080fd5b505af115801561130a573d6000803e3d6000fd5b505050508160a001514210611354576040517f08c379a000000000000000000000000000000000000000000000000000000000815260040161134b90612ab9565b60405180910390fd5b6000826080015111156113bd576000428360a001516113739190612e1e565b90506127108360800151826113889190612dc4565b6113929190612d93565b8360a001516113a19190612e1e565b6008600086815260200190815260200160002060050181905550505b60008383600001516040516020016113d69291906127c5565b604051602081830303815290604052805190602001209050336009600083815260200190815260200160002060006101000a81548173ffffffffffffffffffffffffffffffffffffffff021916908373ffffffffffffffffffffffffffffffffffffffff1602179055506001600a600084815260200190815260200160002060006101000a81548160ff02191690831515021790555060086000858152602001908152602001600020600001600081548092919061149390612f66565b91905055508260e00151600860008681526020019081526020016000206000015414156114c6576114c5838587611b3c565b5b5050505050565b600160009054906101000a900473ffffffffffffffffffffffffffffffffffffffff1681565b60096020528060005260406000206000915054906101000a900473ffffffffffffffffffffffffffffffffffffffff1681565b6060600082101561153657600080fd5b6000600760008481526020019081526020016000205490506000600b60008381526020019081526020016000208054806020026020016040519081016040528092919081815260200182805480156115e357602002820191906000526020600020905b8160009054906101000a900473ffffffffffffffffffffffffffffffffffffffff1673ffffffffffffffffffffffffffffffffffffffff1681526020019060010190808311611599575b505050505090508092505050919050565b60008054906101000a900473ffffffffffffffffffffffffffffffffffffffff1681565b600a6020528060005260406000206000915054906101000a900460ff1681565b3373ffffffffffffffffffffffffffffffffffffffff1660008054906101000a900473ffffffffffffffffffffffffffffffffffffffff1673ffffffffffffffffffffffffffffffffffffffff16146116c6576040517f08c379a00000000000000000000000000000000000000000000000000000000081526004016116bd90612979565b60405180910390fd5b600660008273ffffffffffffffffffffffffffffffffffffffff1673ffffffffffffffffffffffffffffffffffffffff16815260200190815260200160002060009054906101000a900460ff16611752576040517f08c379a000000000000000000000000000000000000000000000000000000000815260040161174990612a19565b60405180910390fd5b6000600660008373ffffffffffffffffffffffffffffffffffffffff1673ffffffffffffffffffffffffffffffffffffffff16815260200190815260200160002060006101000a81548160ff02191690831515021790555050565b60025481565b60076020528060005260406000206000915090505481565b60045481565b60086020528060005260406000206000915090508060000154908060010154908060020154908060030154908060040154908060050154908060060154908060070154908060080160009054906101000a900473ffffffffffffffffffffffffffffffffffffffff16908060090160009054906101000a900473ffffffffffffffffffffffffffffffffffffffff169080600a01805461187090612f34565b80601f016020809104026020016040519081016040528092919081815260200182805461189c90612f34565b80156118e95780601f106118be576101008083540402835291602001916118e9565b820191906000526020600020905b8154815290600101906020018083116118cc57829003601f168201915b505050505090508b565b6118fb611dad565b6000600760008481526020019081526020016000205490506000600860008381526020019081526020016000206040518061016001604052908160008201548152602001600182015481526020016002820154815260200160038201548152602001600482015481526020016005820154815260200160068201548152602001600782015481526020016008820160009054906101000a900473ffffffffffffffffffffffffffffffffffffffff1673ffffffffffffffffffffffffffffffffffffffff1673ffffffffffffffffffffffffffffffffffffffff1681526020016009820160009054906101000a900473ffffffffffffffffffffffffffffffffffffffff1673ffffffffffffffffffffffffffffffffffffffff1673ffffffffffffffffffffffffffffffffffffffff168152602001600a82018054611a4090612f34565b80601f0160208091040260200160405190810160405280929190818152602001828054611a6c90612f34565b8015611ab95780601f10611a8e57610100808354040283529160200191611ab9565b820191906000526020600020905b815481529060010190602001808311611a9c57829003601f168201915b50505050508152505090508092505050919050565b60066020528060005260406000206000915054906101000a900460ff1681565b600b6020528160005260406000208181548110611b0a57600080fd5b906000526020600020016000915091509054906101000a900473ffffffffffffffffffffffffffffffffffffffff1681565b6000600190505b600060086000858152602001908152602001600020600201541115611d2b576000818560000151611b749190612d3d565b611b7c611d6f565b611b869190612fe7565b905060008482604051602001611b9d9291906127c5565b60405160208183030381529060405280519060200120905060006009600083815260200190815260200160002060009054906101000a900473ffffffffffffffffffffffffffffffffffffffff1690508073ffffffffffffffffffffffffffffffffffffffff16600073ffffffffffffffffffffffffffffffffffffffff1614611d1557600b6000878152602001908152602001600020819080600181540180825580915050600190039060005260206000200160009091909190916101000a81548173ffffffffffffffffffffffffffffffffffffffff021916908373ffffffffffffffffffffffffffffffffffffffff16021790555060006009600084815260200190815260200160002060006101000a81548173ffffffffffffffffffffffffffffffffffffffff021916908373ffffffffffffffffffffffffffffffffffffffff160217905550600860008781526020019081526020016000206002016000815480929190611d0f90612f0a565b91905055505b8380611d2090612f66565b945050505050611b43565b827f27b118a56abe67ba33bd016c02185e51627bc94dc7abedc7dd5231028173d23b838660200151604051611d61929190612b56565b60405180910390a250505050565b600080434233600254604051602001611d8b9493929190612b7f565b6040516020818303038152906040528051906020012060001c90508091505090565b6040518061016001604052806000815260200160008152602001600081526020016000815260200160008152602001600081526020016000815260200160008152602001600073ffffffffffffffffffffffffffffffffffffffff168152602001600073ffffffffffffffffffffffffffffffffffffffff168152602001606081525090565b828054611e3f90612f34565b90600052602060002090601f016020900481019282611e615760008555611ea8565b82601f10611e7a57805160ff1916838001178555611ea8565b82800160010185558215611ea8579182015b82811115611ea7578251825591602001919060010190611e8c565b5b509050611eb59190611eb9565b5090565b5b80821115611ed2576000816000905550600101611eba565b5090565b6000611ee9611ee484612ca7565b612c76565b905082815260208101848484011115611f0157600080fd5b611f0c848285612ec8565b509392505050565b600081359050611f23816130f2565b92915050565b600081359050611f3881613109565b92915050565b600082601f830112611f4f57600080fd5b8135611f5f848260208601611ed6565b91505092915050565b600081359050611f7781613120565b92915050565b600081519050611f8c81613120565b92915050565b600060208284031215611fa457600080fd5b6000611fb284828501611f14565b91505092915050565b600060208284031215611fcd57600080fd5b6000611fdb84828501611f29565b91505092915050565b60008060408385031215611ff757600080fd5b600061200585828601611f29565b925050602061201685828601611f68565b9150509250929050565b60006020828403121561203257600080fd5b600061204084828501611f68565b91505092915050565b60006020828403121561205b57600080fd5b600061206984828501611f7d565b91505092915050565b600080600080600080600060e0888a03121561208d57600080fd5b600061209b8a828b01611f68565b97505060206120ac8a828b01611f14565b96505060406120bd8a828b01611f68565b95505060606120ce8a828b01611f68565b945050608088013567ffffffffffffffff8111156120eb57600080fd5b6120f78a828b01611f3e565b93505060a06121088a828b01611f68565b92505060c06121198a828b01611f68565b91505092959891949750929550565b60006121348383612140565b60208301905092915050565b61214981612e52565b82525050565b61215881612e52565b82525050565b61216f61216a82612e52565b612faf565b82525050565b600061218082612ce7565b61218a8185612d0a565b935061219583612cd7565b8060005b838110156121c65781516121ad8882612128565b97506121b883612cfd565b925050600181019050612199565b5085935050505092915050565b6121dc81612e64565b82525050565b6121eb81612e70565b82525050565b6122026121fd82612e70565b612fc1565b82525050565b61221181612ea4565b82525050565b600061222282612cf2565b61222c8185612d1b565b935061223c818560208601612ed7565b612245816130d4565b840191505092915050565b600061225b82612cf2565b6122658185612d2c565b9350612275818560208601612ed7565b61227e816130d4565b840191505092915050565b6000612296601583612d2c565b91507f4552525f57494e4e4552535f47454e45524154454400000000000000000000006000830152602082019050919050565b60006122d6601183612d2c565b91507f4552525f464153545f305f4f525f3e34390000000000000000000000000000006000830152602082019050919050565b6000612316600d83612d2c565b91507f4552525f4e4f545f4f574e4552000000000000000000000000000000000000006000830152602082019050919050565b6000612356601883612d2c565b91507f4552525f414c52454144595f50415254494349504154454400000000000000006000830152602082019050919050565b6000612396601183612d2c565b91507f4552525f414444525f4e4f545f5a45524f0000000000000000000000000000006000830152602082019050919050565b60006123d6601783612d2c565b91507f4552525f57494e4e45525f4d494e5f4d41585f504152540000000000000000006000830152602082019050919050565b6000612416601683612d2c565b91507f4552525f4c494d49545f5041525449434950414e5453000000000000000000006000830152602082019050919050565b6000612456601883612d2c565b91507f4552525f4d414e414745525f4e4f545f4558495354494e4700000000000000006000830152602082019050919050565b6000612496601683612d2c565b91507f4552525f494e4352454153455f414c4c4f57414e4345000000000000000000006000830152602082019050919050565b60006124d6601483612d2c565b91507f4552525f524146464c455f4e4f545f45584953540000000000000000000000006000830152602082019050919050565b6000612516600f83612d2c565b91507f4552525f4e4f545f4d414e4147455200000000000000000000000000000000006000830152602082019050919050565b6000612556601483612d2c565b91507f4552525f4d41585f5041525449434950414e54530000000000000000000000006000830152602082019050919050565b6000612596600e83612d2c565b91507f4552525f524146464c455f454e440000000000000000000000000000000000006000830152602082019050919050565b60006125d6601883612d2c565b91507f4552525f414444525f414c52454144595f4d414e4147455200000000000000006000830152602082019050919050565b6000612616601483612d2c565b91507f4552525f524146464c455f4e4f545f454e4445440000000000000000000000006000830152602082019050919050565b6000610160830160008301516126626000860182612738565b5060208301516126756020860182612738565b5060408301516126886040860182612738565b50606083015161269b6060860182612738565b5060808301516126ae6080860182612738565b5060a08301516126c160a0860182612738565b5060c08301516126d460c0860182612738565b5060e08301516126e760e0860182612738565b506101008301516126fc610100860182612140565b50610120830151612711610120860182612140565b5061014083015184820361014086015261272b8282612217565b9150508091505092915050565b61274181612e9a565b82525050565b61275081612e9a565b82525050565b61276761276282612e9a565b612fdd565b82525050565b6000612779828561215e565b6014820191506127898284612756565b6020820191508190509392505050565b60006127a582856121f1565b6020820191506127b5828461215e565b6014820191508190509392505050565b60006127d182856121f1565b6020820191506127e18284612756565b6020820191508190509392505050565b6000602082019050612806600083018461214f565b92915050565b6000604082019050612821600083018561214f565b61282e602083018461214f565b9392505050565b600060408201905061284a600083018561214f565b6128576020830184612747565b9392505050565b600060c082019050612873600083018961214f565b6128806020830188612747565b61288d6040830187612747565b61289a6060830186612747565b6128a76080830185612747565b81810360a08301526128b98184612250565b9050979650505050505050565b600060208201905081810360008301526128e08184612175565b905092915050565b60006020820190506128fd60008301846121d3565b92915050565b600060208201905061291860008301846121e2565b92915050565b60006020820190506129336000830184612208565b92915050565b6000602082019050818103600083015261295281612289565b9050919050565b60006020820190508181036000830152612972816122c9565b9050919050565b6000602082019050818103600083015261299281612309565b9050919050565b600060208201905081810360008301526129b281612349565b9050919050565b600060208201905081810360008301526129d281612389565b9050919050565b600060208201905081810360008301526129f2816123c9565b9050919050565b60006020820190508181036000830152612a1281612409565b9050919050565b60006020820190508181036000830152612a3281612449565b9050919050565b60006020820190508181036000830152612a5281612489565b9050919050565b60006020820190508181036000830152612a72816124c9565b9050919050565b60006020820190508181036000830152612a9281612509565b9050919050565b60006020820190508181036000830152612ab281612549565b9050919050565b60006020820190508181036000830152612ad281612589565b9050919050565b60006020820190508181036000830152612af2816125c9565b9050919050565b60006020820190508181036000830152612b1281612609565b9050919050565b60006020820190508181036000830152612b338184612649565b905092915050565b6000602082019050612b506000830184612747565b92915050565b6000604082019050612b6b6000830185612747565b612b786020830184612747565b9392505050565b6000608082019050612b946000830187612747565b612ba16020830186612747565b612bae604083018561214f565b612bbb6060830184612747565b95945050505050565b600061016082019050612bda600083018e612747565b612be7602083018d612747565b612bf4604083018c612747565b612c01606083018b612747565b612c0e608083018a612747565b612c1b60a0830189612747565b612c2860c0830188612747565b612c3560e0830187612747565b612c4361010083018661214f565b612c5161012083018561214f565b818103610140830152612c648184612250565b90509c9b505050505050505050505050565b6000604051905081810181811067ffffffffffffffff82111715612c9d57612c9c6130a5565b5b8060405250919050565b600067ffffffffffffffff821115612cc257612cc16130a5565b5b601f19601f8301169050602081019050919050565b6000819050602082019050919050565b600081519050919050565b600081519050919050565b6000602082019050919050565b600082825260208201905092915050565b600082825260208201905092915050565b600082825260208201905092915050565b6000612d4882612e9a565b9150612d5383612e9a565b9250827fffffffffffffffffffffffffffffffffffffffffffffffffffffffffffffffff03821115612d8857612d87613018565b5b828201905092915050565b6000612d9e82612e9a565b9150612da983612e9a565b925082612db957612db8613047565b5b828204905092915050565b6000612dcf82612e9a565b9150612dda83612e9a565b9250817fffffffffffffffffffffffffffffffffffffffffffffffffffffffffffffffff0483118215151615612e1357612e12613018565b5b828202905092915050565b6000612e2982612e9a565b9150612e3483612e9a565b925082821015612e4757612e46613018565b5b828203905092915050565b6000612e5d82612e7a565b9050919050565b60008115159050919050565b6000819050919050565b600073ffffffffffffffffffffffffffffffffffffffff82169050919050565b6000819050919050565b6000612eaf82612eb6565b9050919050565b6000612ec182612e7a565b9050919050565b82818337600083830152505050565b60005b83811015612ef5578082015181840152602081019050612eda565b83811115612f04576000848401525b50505050565b6000612f1582612e9a565b91506000821415612f2957612f28613018565b5b600182039050919050565b60006002820490506001821680612f4c57607f821691505b60208210811415612f6057612f5f613076565b5b50919050565b6000612f7182612e9a565b91507fffffffffffffffffffffffffffffffffffffffffffffffffffffffffffffffff821415612fa457612fa3613018565b5b600182019050919050565b6000612fba82612fcb565b9050919050565b6000819050919050565b6000612fd6826130e5565b9050919050565b6000819050919050565b6000612ff282612e9a565b9150612ffd83612e9a565b92508261300d5761300c613047565b5b828206905092915050565b7f4e487b7100000000000000000000000000000000000000000000000000000000600052601160045260246000fd5b7f4e487b7100000000000000000000000000000000000000000000000000000000600052601260045260246000fd5b7f4e487b7100000000000000000000000000000000000000000000000000000000600052602260045260246000fd5b7f4e487b7100000000000000000000000000000000000000000000000000000000600052604160045260246000fd5b6000601f19601f8301169050919050565b60008160601b9050919050565b6130fb81612e52565b811461310657600080fd5b50565b61311281612e70565b811461311d57600080fd5b50565b61312981612e9a565b811461313457600080fd5b5056fea26469706673582212208f326bd5fac7c213b439c50278bddefde2f4359975482cb30c748d1a3295077f64736f6c63430008000033",
  "immutableReferences": {},
  "source": "// SPDX-License-Identifier: GPL-3.0\nimport \"./interface/IERC20Burnable.sol\";\npragma solidity <=0.8.12;\npragma abicoder v2;\n/** \n * @title Raffle\n * @dev \n */\n\ncontract SkullsRaffle {\n    address public owner;\n    IERC20Burnable public GRAVE;\n    uint public raffleCounter;\n    uint public fastRafflePercent = 200;\n    uint public maxWinners = 10;\n    bool private locked;\n\n    mapping(address => bool) public managers;\n\n    mapping(uint => bytes32) public rafflesHash;// raffle id => tokenAddress,raffleId\n    mapping(bytes32 => Raffle) public raffles;// tokenAddress,raffleId => Raffle\n\n    mapping(bytes32 => address) public participants;//raffleHash,playersCount => address\n    mapping(bytes32 => bool) public players;//raffleHash,\n    mapping(bytes32 => address[]) public winners;\n\n    struct Raffle {\n        uint playersCount;\n        uint winnersCount;\n        uint claimedAmount;\n        uint cost;\n        uint fastRaffle;\n        uint endTimestamp;\n        uint createdAt;\n        uint maxParticipants;\n        address createdBy;\n        address tokenAddress;\n        string ipfsHash;\n    }\n\n    //EVENTS\n    event RaffleCreation(bytes32 indexed raffleHash, address _token, uint _raffleCounter, uint _cost, uint _winnersCount, uint _endTimestamp, string _ipfsHash);\n    event RaffleEnd(bytes32 indexed raffleHash, uint raffleId, uint winnersCount );\n    //MODIFIERS\n    modifier isOwner {\n        require(\n            owner == msg.sender,\n            \"ERR_NOT_OWNER\"\n        );\n        _;\n    }\n\n    modifier isManager {\n        if( msg.sender != owner ){\n            require(\n                managers[msg.sender],\n                \"ERR_NOT_MANAGER\"\n            );\n        }\n        _;\n    }\n\n    modifier notReentrant {\n        require( ! locked, \"ERR_NOT_REENTRANT\");\n\n        _;\n    }\n\n    //CONSTRUCTOR\n    constructor (\n       IERC20Burnable _grave\n    ) {\n        owner = msg.sender;\n        GRAVE = _grave;\n    }\n\n    //ADMIN FUNCTIONS\n    function addManager(address _newManager) public isOwner {\n        require(\n            _newManager != address(0),\n            \"ERR_ADDR_NOT_ZERO\"\n        );\n        require(\n            ! managers[_newManager],\n            \"ERR_ADDR_ALREADY_MANAGER\"\n        );\n        if( ! managers[_newManager] ) {\n            managers[_newManager] = true;\n        }\n    }\n\n    function removeManager(address _oldManager) public isOwner {\n        require(\n            managers[_oldManager],\n            \"ERR_MANAGER_NOT_EXISTING\"\n        );\n        managers[_oldManager] = false;\n    }\n\n    //MANAGER FUNCTIONS\n    function addRaffle(uint _winnersCount, address _token , uint _cost, uint _endTimestamp, string memory _ipfsHash, uint _fastRaffle, uint _maxParticipants) public isManager {\n        if( _maxParticipants > 0 )\n            require( _winnersCount <= _maxParticipants, \"ERR_WINNER_MIN_MAX_PART\" );\n        require( _winnersCount > 0 && _winnersCount <= maxWinners, \"ERR_MAX_PARTICIPANTS\" );\n        require( _cost > 0 );\n        require( _endTimestamp > 0 );\n        require( _fastRaffle == 0 || _fastRaffle > 49, \"ERR_FAST_0_OR_>49\" );\n        bytes32 raffleHash = keccak256(\n            abi.encodePacked(\n                _token,\n                raffleCounter\n            )\n        );\n        Raffle memory newRaffle;\n        newRaffle.tokenAddress = _token;\n        newRaffle.playersCount = 0;\n        newRaffle.winnersCount = _winnersCount;\n        newRaffle.claimedAmount = _winnersCount;\n        newRaffle.cost = _cost;\n        newRaffle.endTimestamp = _endTimestamp;\n        newRaffle.createdAt = block.timestamp;\n        newRaffle.createdBy = msg.sender;\n        newRaffle.fastRaffle = _fastRaffle;\n        newRaffle.ipfsHash = _ipfsHash;\n        newRaffle.maxParticipants = _maxParticipants;\n        rafflesHash[raffleCounter] = raffleHash;\n        raffles[raffleHash] = newRaffle;\n        emit RaffleCreation(raffleHash, _token, raffleCounter, _cost, _winnersCount, _endTimestamp, _ipfsHash);\n        raffleCounter++;\n    }\n\n    function getWinners(uint _raffleId) public view returns(address[] memory ) {\n        require( _raffleId >= 0 );\n        bytes32 raffleHash = rafflesHash[_raffleId];\n        address[] memory winnersList = winners[raffleHash];\n        return winnersList;\n    }\n\n    function generateWinners(uint _raffleId) public isManager {\n        require( _raffleId >= 0 );\n        bytes32 raffleHash = rafflesHash[_raffleId];\n        Raffle memory _raffle = raffles[raffleHash];\n        require( \n            _raffle.endTimestamp < block.timestamp,\n            \"ERR_RAFFLE_NOT_ENDED\"\n        );\n        require(\n            _raffle.claimedAmount > 0, \n            \"ERR_WINNERS_GENERATED\"\n        );\n        _generateWinners(_raffle, raffleHash, _raffleId);\n    }\n\n    function _generateWinners(Raffle memory _raffle, bytes32 _raffleHash, uint _raffleId) internal {\n        uint i = 1;\n        while( raffles[_raffleHash].claimedAmount > 0 ){\n            uint rgnPlayer = random() % ( _raffle.playersCount + i );\n            bytes32 partecipationHash = keccak256(\n                abi.encodePacked(\n                    _raffleHash,\n                    rgnPlayer\n                )\n            );\n            address maybeWinner = participants[partecipationHash];\n            if( address(0) != maybeWinner ) {\n                winners[_raffleHash].push(maybeWinner);\n                participants[partecipationHash] = address(0);\n                raffles[_raffleHash].claimedAmount--;\n            }\n            i++;\n        }\n        emit RaffleEnd(_raffleHash, _raffleId, _raffle.winnersCount );\n    }\n\n    //PUBLIC FUNCTIONS\n    function participateRaffle(uint _raffleId) public {\n        require( _raffleId >= 0 );\n        bytes32 raffleHash = rafflesHash[_raffleId];\n        Raffle memory _raffle = raffles[raffleHash];\n        require( \n            _raffle.createdAt > 0,\n            \"ERR_RAFFLE_NOT_EXIST\" \n        );\n        bytes32 playerHash = keccak256(\n            abi.encodePacked(\n                raffleHash,\n                msg.sender\n            )\n        );\n        require( \n            ! players[playerHash],\n            \"ERR_ALREADY_PARTICIPATED\"\n        );\n        if( _raffle.maxParticipants > 0 ){\n            require(\n                _raffle.maxParticipants > _raffle.playersCount,\n                \"ERR_LIMIT_PARTICIPANTS\"\n            );\n        }\n        require( \n            GRAVE.allowance(msg.sender, address(this)) >= _raffle.cost,\n            \"ERR_INCREASE_ALLOWANCE\"\n        );\n        GRAVE.burnFrom( msg.sender, _raffle.cost );\n        require( \n            block.timestamp < _raffle.endTimestamp,\n            \"ERR_RAFFLE_END\"\n        );\n        \n        if( _raffle.fastRaffle > 0 ){\n            uint endDiff = _raffle.endTimestamp - block.timestamp;\n            raffles[raffleHash].endTimestamp = _raffle.endTimestamp - ( endDiff * _raffle.fastRaffle / 10000 );\n        }\n        bytes32 partecipationHash = keccak256(\n            abi.encodePacked(\n                raffleHash,\n                _raffle.playersCount\n            )\n        );\n        participants[partecipationHash] = msg.sender;\n        players[playerHash] = true;\n        raffles[raffleHash].playersCount++;\n        if( raffles[raffleHash].playersCount == _raffle.maxParticipants )\n            _generateWinners(_raffle, raffleHash, _raffleId);\n\n    }\n\n    function isParticipant(uint _raffleId) public view returns(bool) {\n        bytes32 raffleHash = rafflesHash[_raffleId];\n        bytes32 playerHash = keccak256(\n            abi.encodePacked(\n                raffleHash,\n                msg.sender\n            )\n        );\n        return players[playerHash];\n    }\n\n    function getRaffle(uint _raffleId) public view returns(Raffle memory){\n        bytes32 raffleHash = rafflesHash[_raffleId];\n        Raffle memory _raffle = raffles[raffleHash];\n        return _raffle;\n    }\n\n    //INTERNAL FUNCTIONS\n    function random() internal view returns (uint) {\n        uint randomNumber = uint(keccak256(\n            abi.encode(\n                block.number, \n                block.timestamp,\n                msg.sender,\n                raffleCounter\n            ) \n        ));\n        return randomNumber;\n    }\n}",
  "sourcePath": "/Users/alessandrodecristofaro/Desktop/DeFi Code/croskull-repo/src/contracts/SkullsRaffle.sol",
  "compiler": {
    "name": "solc",
    "version": "0.8.0+commit.c7dfd78e.Emscripten.clang"
  },
  "schemaVersion": "3.4.3",
  "updatedAt": "2022-03-24T19:39:55.733Z",
  "networkType": "ethereum",
  "devdoc": {
    "kind": "dev",
    "methods": {},
    "title": "Raffle",
    "version": 1
  },
  "userdoc": {
    "kind": "user",
    "methods": {},
    "version": 1
  }
}