{
  "contractName": "SkullsFarm",
  "abi": [
    {
      "inputs": [
        {
          "internalType": "contract IERC20",
          "name": "_erc20",
          "type": "address"
        },
        {
          "internalType": "uint256",
          "name": "_rewardPerBlock",
          "type": "uint256"
        },
        {
          "internalType": "uint256",
          "name": "_startBlock",
          "type": "uint256"
        }
      ],
      "stateMutability": "nonpayable",
      "type": "constructor"
    },
    {
      "anonymous": false,
      "inputs": [
        {
          "indexed": true,
          "internalType": "address",
          "name": "user",
          "type": "address"
        },
        {
          "indexed": true,
          "internalType": "uint256",
          "name": "pid",
          "type": "uint256"
        },
        {
          "indexed": false,
          "internalType": "uint256",
          "name": "amount",
          "type": "uint256"
        }
      ],
      "name": "Deposit",
      "type": "event"
    },
    {
      "anonymous": false,
      "inputs": [
        {
          "indexed": true,
          "internalType": "address",
          "name": "user",
          "type": "address"
        },
        {
          "indexed": true,
          "internalType": "uint256",
          "name": "pid",
          "type": "uint256"
        },
        {
          "indexed": false,
          "internalType": "uint256",
          "name": "amount",
          "type": "uint256"
        }
      ],
      "name": "EmergencyWithdraw",
      "type": "event"
    },
    {
      "anonymous": false,
      "inputs": [
        {
          "indexed": true,
          "internalType": "address",
          "name": "previousOwner",
          "type": "address"
        },
        {
          "indexed": true,
          "internalType": "address",
          "name": "newOwner",
          "type": "address"
        }
      ],
      "name": "OwnershipTransferred",
      "type": "event"
    },
    {
      "anonymous": false,
      "inputs": [
        {
          "indexed": true,
          "internalType": "address",
          "name": "user",
          "type": "address"
        },
        {
          "indexed": true,
          "internalType": "uint256",
          "name": "pid",
          "type": "uint256"
        },
        {
          "indexed": false,
          "internalType": "uint256",
          "name": "amount",
          "type": "uint256"
        }
      ],
      "name": "Withdraw",
      "type": "event"
    },
    {
      "inputs": [],
      "name": "endBlock",
      "outputs": [
        {
          "internalType": "uint256",
          "name": "",
          "type": "uint256"
        }
      ],
      "stateMutability": "view",
      "type": "function",
      "constant": true
    },
    {
      "inputs": [],
      "name": "erc20",
      "outputs": [
        {
          "internalType": "contract IERC20",
          "name": "",
          "type": "address"
        }
      ],
      "stateMutability": "view",
      "type": "function",
      "constant": true
    },
    {
      "inputs": [],
      "name": "owner",
      "outputs": [
        {
          "internalType": "address",
          "name": "",
          "type": "address"
        }
      ],
      "stateMutability": "view",
      "type": "function",
      "constant": true
    },
    {
      "inputs": [],
      "name": "paidOut",
      "outputs": [
        {
          "internalType": "uint256",
          "name": "",
          "type": "uint256"
        }
      ],
      "stateMutability": "view",
      "type": "function",
      "constant": true
    },
    {
      "inputs": [
        {
          "internalType": "uint256",
          "name": "",
          "type": "uint256"
        }
      ],
      "name": "poolInfo",
      "outputs": [
        {
          "internalType": "contract IERC20",
          "name": "lpToken",
          "type": "address"
        },
        {
          "internalType": "uint256",
          "name": "allocPoint",
          "type": "uint256"
        },
        {
          "internalType": "uint256",
          "name": "lastRewardBlock",
          "type": "uint256"
        },
        {
          "internalType": "uint256",
          "name": "accERC20PerShare",
          "type": "uint256"
        }
      ],
      "stateMutability": "view",
      "type": "function",
      "constant": true
    },
    {
      "inputs": [],
      "name": "renounceOwnership",
      "outputs": [],
      "stateMutability": "nonpayable",
      "type": "function"
    },
    {
      "inputs": [],
      "name": "rewardPerBlock",
      "outputs": [
        {
          "internalType": "uint256",
          "name": "",
          "type": "uint256"
        }
      ],
      "stateMutability": "view",
      "type": "function",
      "constant": true
    },
    {
      "inputs": [],
      "name": "startBlock",
      "outputs": [
        {
          "internalType": "uint256",
          "name": "",
          "type": "uint256"
        }
      ],
      "stateMutability": "view",
      "type": "function",
      "constant": true
    },
    {
      "inputs": [],
      "name": "totalAllocPoint",
      "outputs": [
        {
          "internalType": "uint256",
          "name": "",
          "type": "uint256"
        }
      ],
      "stateMutability": "view",
      "type": "function",
      "constant": true
    },
    {
      "inputs": [
        {
          "internalType": "address",
          "name": "newOwner",
          "type": "address"
        }
      ],
      "name": "transferOwnership",
      "outputs": [],
      "stateMutability": "nonpayable",
      "type": "function"
    },
    {
      "inputs": [
        {
          "internalType": "uint256",
          "name": "",
          "type": "uint256"
        },
        {
          "internalType": "address",
          "name": "",
          "type": "address"
        }
      ],
      "name": "userInfo",
      "outputs": [
        {
          "internalType": "uint256",
          "name": "amount",
          "type": "uint256"
        },
        {
          "internalType": "uint256",
          "name": "rewardDebt",
          "type": "uint256"
        }
      ],
      "stateMutability": "view",
      "type": "function",
      "constant": true
    },
    {
      "inputs": [],
      "name": "poolLength",
      "outputs": [
        {
          "internalType": "uint256",
          "name": "",
          "type": "uint256"
        }
      ],
      "stateMutability": "view",
      "type": "function",
      "constant": true
    },
    {
      "inputs": [
        {
          "internalType": "uint256",
          "name": "_amount",
          "type": "uint256"
        }
      ],
      "name": "fund",
      "outputs": [],
      "stateMutability": "nonpayable",
      "type": "function"
    },
    {
      "inputs": [
        {
          "internalType": "uint256",
          "name": "_allocPoint",
          "type": "uint256"
        },
        {
          "internalType": "contract IERC20",
          "name": "_lpToken",
          "type": "address"
        },
        {
          "internalType": "bool",
          "name": "_withUpdate",
          "type": "bool"
        }
      ],
      "name": "add",
      "outputs": [],
      "stateMutability": "nonpayable",
      "type": "function"
    },
    {
      "inputs": [
        {
          "internalType": "uint256",
          "name": "_pid",
          "type": "uint256"
        },
        {
          "internalType": "uint256",
          "name": "_allocPoint",
          "type": "uint256"
        },
        {
          "internalType": "bool",
          "name": "_withUpdate",
          "type": "bool"
        }
      ],
      "name": "set",
      "outputs": [],
      "stateMutability": "nonpayable",
      "type": "function"
    },
    {
      "inputs": [
        {
          "internalType": "uint256",
          "name": "_pid",
          "type": "uint256"
        },
        {
          "internalType": "address",
          "name": "_user",
          "type": "address"
        }
      ],
      "name": "deposited",
      "outputs": [
        {
          "internalType": "uint256",
          "name": "",
          "type": "uint256"
        }
      ],
      "stateMutability": "view",
      "type": "function",
      "constant": true
    },
    {
      "inputs": [
        {
          "internalType": "uint256",
          "name": "_pid",
          "type": "uint256"
        },
        {
          "internalType": "address",
          "name": "_user",
          "type": "address"
        }
      ],
      "name": "pending",
      "outputs": [
        {
          "internalType": "uint256",
          "name": "",
          "type": "uint256"
        }
      ],
      "stateMutability": "view",
      "type": "function",
      "constant": true
    },
    {
      "inputs": [],
      "name": "totalPending",
      "outputs": [
        {
          "internalType": "uint256",
          "name": "",
          "type": "uint256"
        }
      ],
      "stateMutability": "view",
      "type": "function",
      "constant": true
    },
    {
      "inputs": [],
      "name": "massUpdatePools",
      "outputs": [],
      "stateMutability": "nonpayable",
      "type": "function"
    },
    {
      "inputs": [
        {
          "internalType": "uint256",
          "name": "_pid",
          "type": "uint256"
        }
      ],
      "name": "updatePool",
      "outputs": [],
      "stateMutability": "nonpayable",
      "type": "function"
    },
    {
      "inputs": [
        {
          "internalType": "uint256",
          "name": "_pid",
          "type": "uint256"
        },
        {
          "internalType": "uint256",
          "name": "_amount",
          "type": "uint256"
        }
      ],
      "name": "deposit",
      "outputs": [],
      "stateMutability": "nonpayable",
      "type": "function"
    },
    {
      "inputs": [
        {
          "internalType": "uint256",
          "name": "_pid",
          "type": "uint256"
        },
        {
          "internalType": "uint256",
          "name": "_amount",
          "type": "uint256"
        }
      ],
      "name": "withdraw",
      "outputs": [],
      "stateMutability": "nonpayable",
      "type": "function"
    },
    {
      "inputs": [
        {
          "internalType": "uint256",
          "name": "_pid",
          "type": "uint256"
        }
      ],
      "name": "emergencyWithdraw",
      "outputs": [],
      "stateMutability": "nonpayable",
      "type": "function"
    }
  ],
  "bytecode": "0x6080604052600060025560006006553480156200001b57600080fd5b506040516200289b3803806200289b8339818101604052810190620000419190620001ba565b6200006162000055620000c060201b60201c565b620000c860201b60201c565b82600160006101000a81548173ffffffffffffffffffffffffffffffffffffffff021916908373ffffffffffffffffffffffffffffffffffffffff16021790555081600381905550806007819055508060088190555050505062000296565b600033905090565b60008060009054906101000a900473ffffffffffffffffffffffffffffffffffffffff169050816000806101000a81548173ffffffffffffffffffffffffffffffffffffffff021916908373ffffffffffffffffffffffffffffffffffffffff1602179055508173ffffffffffffffffffffffffffffffffffffffff168173ffffffffffffffffffffffffffffffffffffffff167f8be0079c531659141344cd1fd0a4f28419497f9722a3daafe3b4186f6b6457e060405160405180910390a35050565b6000815190506200019d8162000262565b92915050565b600081519050620001b4816200027c565b92915050565b600080600060608486031215620001d057600080fd5b6000620001e0868287016200018c565b9350506020620001f386828701620001a3565b92505060406200020686828701620001a3565b9150509250925092565b60006200021d8262000238565b9050919050565b6000620002318262000210565b9050919050565b600073ffffffffffffffffffffffffffffffffffffffff82169050919050565b6000819050919050565b6200026d8162000224565b81146200027957600080fd5b50565b620002878162000258565b81146200029357600080fd5b50565b6125f580620002a66000396000f3fe608060405234801561001057600080fd5b506004361061014d5760003560e01c8063630b5ba1116100c357806393f1a40b1161007c57806393f1a40b14610333578063a238310614610364578063ca1d209d14610394578063e2bbb158146103b0578063e4c75c27146103cc578063f2fde38b146103fc5761014d565b8063630b5ba1146102a957806364482f79146102b3578063715018a6146102cf578063785e9e86146102d95780638ae39cac146102f75780638da5cb5b146103155761014d565b80633f90916a116101155780633f90916a146101fb578063441a3e701461021957806348cd4cb11461023557806351eb05a6146102535780635312ea8e1461026f5780635c76ca2d1461028b5761014d565b8063081e3eda14610152578063083c6323146101705780631526fe271461018e57806317caf6f1146101c15780631eaaa045146101df575b600080fd5b61015a610418565b604051610167919061226f565b60405180910390f35b610178610425565b604051610185919061226f565b60405180910390f35b6101a860048036038101906101a39190611bfe565b61042b565b6040516101b89493929190612128565b60405180910390f35b6101c961048b565b6040516101d6919061226f565b60405180910390f35b6101f960048036038101906101f49190611c8c565b610491565b005b61020361061e565b604051610210919061226f565b60405180910390f35b610233600480360381019061022e9190611cdb565b610686565b005b61023d6108de565b60405161024a919061226f565b60405180910390f35b61026d60048036038101906102689190611bfe565b6108e4565b005b61028960048036038101906102849190611bfe565b610ae6565b005b610293610c45565b6040516102a0919061226f565b60405180910390f35b6102b1610c4b565b005b6102cd60048036038101906102c89190611d17565b610c7e565b005b6102d7610dd6565b005b6102e1610e5e565b6040516102ee919061210d565b60405180910390f35b6102ff610e84565b60405161030c919061226f565b60405180910390f35b61031d610e8a565b60405161032a9190612092565b60405180910390f35b61034d60048036038101906103489190611c50565b610eb3565b60405161035b92919061228a565b60405180910390f35b61037e60048036038101906103799190611c50565b610ee4565b60405161038b919061226f565b60405180910390f35b6103ae60048036038101906103a99190611bfe565b610f47565b005b6103ca60048036038101906103c59190611cdb565b61100a565b005b6103e660048036038101906103e19190611c50565b61122b565b6040516103f3919061226f565b60405180910390f35b61041660048036038101906104119190611bac565b6114c9565b005b6000600480549050905090565b60085481565b6004818154811061043b57600080fd5b90600052602060002090600402016000915090508060000160009054906101000a900473ffffffffffffffffffffffffffffffffffffffff16908060010154908060020154908060030154905084565b60065481565b6104996115c1565b73ffffffffffffffffffffffffffffffffffffffff166104b7610e8a565b73ffffffffffffffffffffffffffffffffffffffff161461050d576040517f08c379a0000000000000000000000000000000000000000000000000000000008152600401610504906121cf565b60405180910390fd5b801561051c5761051b610c4b565b5b6000600754431161052f57600754610531565b435b9050610548846006546115c990919063ffffffff16565b600681905550600460405180608001604052808573ffffffffffffffffffffffffffffffffffffffff1681526020018681526020018381526020016000815250908060018154018082558091505060019003906000526020600020906004020160009091909190915060008201518160000160006101000a81548173ffffffffffffffffffffffffffffffffffffffff021916908373ffffffffffffffffffffffffffffffffffffffff160217905550602082015181600101556040820151816002015560608201518160030155505050505050565b600060075443116106325760009050610683565b6000600854431061064557600854610647565b435b905061067f6002546106716007548461066091906123c6565b6003546115df90919063ffffffff16565b6115f590919063ffffffff16565b9150505b90565b6000600483815481106106c2577f4e487b7100000000000000000000000000000000000000000000000000000000600052603260045260246000fd5b9060005260206000209060040201905060006005600085815260200190815260200160002060003373ffffffffffffffffffffffffffffffffffffffff1673ffffffffffffffffffffffffffffffffffffffff1681526020019081526020016000209050828160000154101561076d576040517f08c379a00000000000000000000000000000000000000000000000000000000081526004016107649061220f565b60405180910390fd5b610776846108e4565b60006107ca82600101546107bc6ec097ce7bc90715b34b9f10000000006107ae876003015487600001546115df90919063ffffffff16565b61160b90919063ffffffff16565b6115f590919063ffffffff16565b90506107d63382611621565b6107ed8483600001546115f590919063ffffffff16565b82600001819055506108316ec097ce7bc90715b34b9f1000000000610823856003015485600001546115df90919063ffffffff16565b61160b90919063ffffffff16565b826001018190555061088833858560000160009054906101000a900473ffffffffffffffffffffffffffffffffffffffff1673ffffffffffffffffffffffffffffffffffffffff166116ee9092919063ffffffff16565b843373ffffffffffffffffffffffffffffffffffffffff167ff279e6a1f5e320cca91135676d9cb6e44ca8a08c0b88342bcdb1144f6511b568866040516108cf919061226f565b60405180910390a35050505050565b60075481565b600060048281548110610920577f4e487b7100000000000000000000000000000000000000000000000000000000600052603260045260246000fd5b906000526020600020906004020190506000600854431061094357600854610945565b435b905081600201548111610959575050610ae3565b60008260000160009054906101000a900473ffffffffffffffffffffffffffffffffffffffff1673ffffffffffffffffffffffffffffffffffffffff166370a08231306040518263ffffffff1660e01b81526004016109b89190612092565b60206040518083038186803b1580156109d057600080fd5b505afa1580156109e4573d6000803e3d6000fd5b505050506040513d601f19601f82011682018060405250810190610a089190611c27565b90506000811415610a2457818360020181905550505050610ae3565b6000610a3d8460020154846115f590919063ffffffff16565b90506000610a80600654610a728760010154610a64600354876115df90919063ffffffff16565b6115df90919063ffffffff16565b61160b90919063ffffffff16565b9050610acc610ab984610aab6ec097ce7bc90715b34b9f1000000000856115df90919063ffffffff16565b61160b90919063ffffffff16565b86600301546115c990919063ffffffff16565b856003018190555043856002018190555050505050505b50565b600060048281548110610b22577f4e487b7100000000000000000000000000000000000000000000000000000000600052603260045260246000fd5b9060005260206000209060040201905060006005600084815260200190815260200160002060003373ffffffffffffffffffffffffffffffffffffffff1673ffffffffffffffffffffffffffffffffffffffff1681526020019081526020016000209050610bd93382600001548460000160009054906101000a900473ffffffffffffffffffffffffffffffffffffffff1673ffffffffffffffffffffffffffffffffffffffff166116ee9092919063ffffffff16565b823373ffffffffffffffffffffffffffffffffffffffff167fbb757047c2b5f3974fe26b7c10f732e7bce710b0952a71082702781e62ae05958360000154604051610c24919061226f565b60405180910390a36000816000018190555060008160010181905550505050565b60025481565b6000600480549050905060005b81811015610c7a57610c69816108e4565b80610c73906124ab565b9050610c58565b5050565b610c866115c1565b73ffffffffffffffffffffffffffffffffffffffff16610ca4610e8a565b73ffffffffffffffffffffffffffffffffffffffff1614610cfa576040517f08c379a0000000000000000000000000000000000000000000000000000000008152600401610cf1906121cf565b60405180910390fd5b8015610d0957610d08610c4b565b5b610d7b82610d6d60048681548110610d4a577f4e487b7100000000000000000000000000000000000000000000000000000000600052603260045260246000fd5b9060005260206000209060040201600101546006546115f590919063ffffffff16565b6115c990919063ffffffff16565b6006819055508160048481548110610dbc577f4e487b7100000000000000000000000000000000000000000000000000000000600052603260045260246000fd5b906000526020600020906004020160010181905550505050565b610dde6115c1565b73ffffffffffffffffffffffffffffffffffffffff16610dfc610e8a565b73ffffffffffffffffffffffffffffffffffffffff1614610e52576040517f08c379a0000000000000000000000000000000000000000000000000000000008152600401610e49906121cf565b60405180910390fd5b610e5c6000611774565b565b600160009054906101000a900473ffffffffffffffffffffffffffffffffffffffff1681565b60035481565b60008060009054906101000a900473ffffffffffffffffffffffffffffffffffffffff16905090565b6005602052816000526040600020602052806000526040600020600091509150508060000154908060010154905082565b6000806005600085815260200190815260200160002060008473ffffffffffffffffffffffffffffffffffffffff1673ffffffffffffffffffffffffffffffffffffffff1681526020019081526020016000209050806000015491505092915050565b6008544310610f8b576040517f08c379a0000000000000000000000000000000000000000000000000000000008152600401610f82906121ef565b60405180910390fd5b610fda333083600160009054906101000a900473ffffffffffffffffffffffffffffffffffffffff1673ffffffffffffffffffffffffffffffffffffffff16611838909392919063ffffffff16565b610fef6003548261160b90919063ffffffff16565b6008600082825461100091906122e5565b9250508190555050565b600060048381548110611046577f4e487b7100000000000000000000000000000000000000000000000000000000600052603260045260246000fd5b9060005260206000209060040201905060006005600085815260200190815260200160002060003373ffffffffffffffffffffffffffffffffffffffff1673ffffffffffffffffffffffffffffffffffffffff16815260200190815260200160002090506110b3846108e4565b60008160000154111561112257600061111482600101546111066ec097ce7bc90715b34b9f10000000006110f8876003015487600001546115df90919063ffffffff16565b61160b90919063ffffffff16565b6115f590919063ffffffff16565b90506111203382611621565b505b6111733330858560000160009054906101000a900473ffffffffffffffffffffffffffffffffffffffff1673ffffffffffffffffffffffffffffffffffffffff16611838909392919063ffffffff16565b61118a8382600001546115c990919063ffffffff16565b81600001819055506111ce6ec097ce7bc90715b34b9f10000000006111c0846003015484600001546115df90919063ffffffff16565b61160b90919063ffffffff16565b8160010181905550833373ffffffffffffffffffffffffffffffffffffffff167f90890809c654f11d6e72a28fa60149770a0d11ec6c92319d6ceb2bb0a4ea1a158560405161121d919061226f565b60405180910390a350505050565b60008060048481548110611268577f4e487b7100000000000000000000000000000000000000000000000000000000600052603260045260246000fd5b9060005260206000209060040201905060006005600086815260200190815260200160002060008573ffffffffffffffffffffffffffffffffffffffff1673ffffffffffffffffffffffffffffffffffffffff168152602001908152602001600020905060008260030154905060008360000160009054906101000a900473ffffffffffffffffffffffffffffffffffffffff1673ffffffffffffffffffffffffffffffffffffffff166370a08231306040518263ffffffff1660e01b81526004016113349190612092565b60206040518083038186803b15801561134c57600080fd5b505afa158015611360573d6000803e3d6000fd5b505050506040513d601f19601f820116820180604052508101906113849190611c27565b9050600060085443106113995760085461139b565b435b90508460020154811180156113b35750846002015443115b80156113c0575060008214155b1561146e5760006113de8660020154836115f590919063ffffffff16565b905060006114216006546114138960010154611405600354876115df90919063ffffffff16565b6115df90919063ffffffff16565b61160b90919063ffffffff16565b905061146961145a8561144c6ec097ce7bc90715b34b9f1000000000856115df90919063ffffffff16565b61160b90919063ffffffff16565b866115c990919063ffffffff16565b945050505b6114bc84600101546114ae6ec097ce7bc90715b34b9f10000000006114a08789600001546115df90919063ffffffff16565b61160b90919063ffffffff16565b6115f590919063ffffffff16565b9550505050505092915050565b6114d16115c1565b73ffffffffffffffffffffffffffffffffffffffff166114ef610e8a565b73ffffffffffffffffffffffffffffffffffffffff1614611545576040517f08c379a000000000000000000000000000000000000000000000000000000000815260040161153c906121cf565b60405180910390fd5b600073ffffffffffffffffffffffffffffffffffffffff168173ffffffffffffffffffffffffffffffffffffffff1614156115b5576040517f08c379a00000000000000000000000000000000000000000000000000000000081526004016115ac9061218f565b60405180910390fd5b6115be81611774565b50565b600033905090565b600081836115d791906122e5565b905092915050565b600081836115ed919061236c565b905092915050565b6000818361160391906123c6565b905092915050565b60008183611619919061233b565b905092915050565b600160009054906101000a900473ffffffffffffffffffffffffffffffffffffffff1673ffffffffffffffffffffffffffffffffffffffff1663a9059cbb83836040518363ffffffff1660e01b815260040161167e9291906120e4565b602060405180830381600087803b15801561169857600080fd5b505af11580156116ac573d6000803e3d6000fd5b505050506040513d601f19601f820116820180604052508101906116d09190611bd5565b5080600260008282546116e391906122e5565b925050819055505050565b61176f8363a9059cbb60e01b848460405160240161170d9291906120e4565b604051602081830303815290604052907bffffffffffffffffffffffffffffffffffffffffffffffffffffffff19166020820180517bffffffffffffffffffffffffffffffffffffffffffffffffffffffff83818316178352505050506118c1565b505050565b60008060009054906101000a900473ffffffffffffffffffffffffffffffffffffffff169050816000806101000a81548173ffffffffffffffffffffffffffffffffffffffff021916908373ffffffffffffffffffffffffffffffffffffffff1602179055508173ffffffffffffffffffffffffffffffffffffffff168173ffffffffffffffffffffffffffffffffffffffff167f8be0079c531659141344cd1fd0a4f28419497f9722a3daafe3b4186f6b6457e060405160405180910390a35050565b6118bb846323b872dd60e01b858585604051602401611859939291906120ad565b604051602081830303815290604052907bffffffffffffffffffffffffffffffffffffffffffffffffffffffff19166020820180517bffffffffffffffffffffffffffffffffffffffffffffffffffffffff83818316178352505050506118c1565b50505050565b6000611923826040518060400160405280602081526020017f5361666545524332303a206c6f772d6c6576656c2063616c6c206661696c65648152508573ffffffffffffffffffffffffffffffffffffffff166119889092919063ffffffff16565b905060008151111561198357808060200190518101906119439190611bd5565b611982576040517f08c379a00000000000000000000000000000000000000000000000000000000081526004016119799061224f565b60405180910390fd5b5b505050565b606061199784846000856119a0565b90509392505050565b6060824710156119e5576040517f08c379a00000000000000000000000000000000000000000000000000000000081526004016119dc906121af565b60405180910390fd5b6119ee85611ab4565b611a2d576040517f08c379a0000000000000000000000000000000000000000000000000000000008152600401611a249061222f565b60405180910390fd5b6000808673ffffffffffffffffffffffffffffffffffffffff168587604051611a56919061207b565b60006040518083038185875af1925050503d8060008114611a93576040519150601f19603f3d011682016040523d82523d6000602084013e611a98565b606091505b5091509150611aa8828286611ac7565b92505050949350505050565b600080823b905060008111915050919050565b60608315611ad757829050611b27565b600083511115611aea5782518084602001fd5b816040517f08c379a0000000000000000000000000000000000000000000000000000000008152600401611b1e919061216d565b60405180910390fd5b9392505050565b600081359050611b3d81612563565b92915050565b600081359050611b528161257a565b92915050565b600081519050611b678161257a565b92915050565b600081359050611b7c81612591565b92915050565b600081359050611b91816125a8565b92915050565b600081519050611ba6816125a8565b92915050565b600060208284031215611bbe57600080fd5b6000611bcc84828501611b2e565b91505092915050565b600060208284031215611be757600080fd5b6000611bf584828501611b58565b91505092915050565b600060208284031215611c1057600080fd5b6000611c1e84828501611b82565b91505092915050565b600060208284031215611c3957600080fd5b6000611c4784828501611b97565b91505092915050565b60008060408385031215611c6357600080fd5b6000611c7185828601611b82565b9250506020611c8285828601611b2e565b9150509250929050565b600080600060608486031215611ca157600080fd5b6000611caf86828701611b82565b9350506020611cc086828701611b6d565b9250506040611cd186828701611b43565b9150509250925092565b60008060408385031215611cee57600080fd5b6000611cfc85828601611b82565b9250506020611d0d85828601611b82565b9150509250929050565b600080600060608486031215611d2c57600080fd5b6000611d3a86828701611b82565b9350506020611d4b86828701611b82565b9250506040611d5c86828701611b43565b9150509250925092565b611d6f816123fa565b82525050565b6000611d80826122b3565b611d8a81856122c9565b9350611d9a818560208601612478565b80840191505092915050565b611daf81612454565b82525050565b6000611dc0826122be565b611dca81856122d4565b9350611dda818560208601612478565b611de381612552565b840191505092915050565b6000611dfb6026836122d4565b91507f4f776e61626c653a206e6577206f776e657220697320746865207a65726f206160008301527f64647265737300000000000000000000000000000000000000000000000000006020830152604082019050919050565b6000611e616026836122d4565b91507f416464726573733a20696e73756666696369656e742062616c616e636520666f60008301527f722063616c6c00000000000000000000000000000000000000000000000000006020830152604082019050919050565b6000611ec76020836122d4565b91507f4f776e61626c653a2063616c6c6572206973206e6f7420746865206f776e65726000830152602082019050919050565b6000611f076022836122d4565b91507f66756e643a20746f6f206c6174652c20746865206661726d20697320636c6f7360008301527f65640000000000000000000000000000000000000000000000000000000000006020830152604082019050919050565b6000611f6d602a836122d4565b91507f77697468647261773a2063616e2774207769746864726177206d6f726520746860008301527f616e206465706f736974000000000000000000000000000000000000000000006020830152604082019050919050565b6000611fd3601d836122d4565b91507f416464726573733a2063616c6c20746f206e6f6e2d636f6e74726163740000006000830152602082019050919050565b6000612013602a836122d4565b91507f5361666545524332303a204552433230206f7065726174696f6e20646964206e60008301527f6f742073756363656564000000000000000000000000000000000000000000006020830152604082019050919050565b6120758161244a565b82525050565b60006120878284611d75565b915081905092915050565b60006020820190506120a76000830184611d66565b92915050565b60006060820190506120c26000830186611d66565b6120cf6020830185611d66565b6120dc604083018461206c565b949350505050565b60006040820190506120f96000830185611d66565b612106602083018461206c565b9392505050565b60006020820190506121226000830184611da6565b92915050565b600060808201905061213d6000830187611da6565b61214a602083018661206c565b612157604083018561206c565b612164606083018461206c565b95945050505050565b600060208201905081810360008301526121878184611db5565b905092915050565b600060208201905081810360008301526121a881611dee565b9050919050565b600060208201905081810360008301526121c881611e54565b9050919050565b600060208201905081810360008301526121e881611eba565b9050919050565b6000602082019050818103600083015261220881611efa565b9050919050565b6000602082019050818103600083015261222881611f60565b9050919050565b6000602082019050818103600083015261224881611fc6565b9050919050565b6000602082019050818103600083015261226881612006565b9050919050565b6000602082019050612284600083018461206c565b92915050565b600060408201905061229f600083018561206c565b6122ac602083018461206c565b9392505050565b600081519050919050565b600081519050919050565b600081905092915050565b600082825260208201905092915050565b60006122f08261244a565b91506122fb8361244a565b9250827fffffffffffffffffffffffffffffffffffffffffffffffffffffffffffffffff038211156123305761232f6124f4565b5b828201905092915050565b60006123468261244a565b91506123518361244a565b92508261236157612360612523565b5b828204905092915050565b60006123778261244a565b91506123828361244a565b9250817fffffffffffffffffffffffffffffffffffffffffffffffffffffffffffffffff04831182151516156123bb576123ba6124f4565b5b828202905092915050565b60006123d18261244a565b91506123dc8361244a565b9250828210156123ef576123ee6124f4565b5b828203905092915050565b60006124058261242a565b9050919050565b60008115159050919050565b6000612423826123fa565b9050919050565b600073ffffffffffffffffffffffffffffffffffffffff82169050919050565b6000819050919050565b600061245f82612466565b9050919050565b60006124718261242a565b9050919050565b60005b8381101561249657808201518184015260208101905061247b565b838111156124a5576000848401525b50505050565b60006124b68261244a565b91507fffffffffffffffffffffffffffffffffffffffffffffffffffffffffffffffff8214156124e9576124e86124f4565b5b600182019050919050565b7f4e487b7100000000000000000000000000000000000000000000000000000000600052601160045260246000fd5b7f4e487b7100000000000000000000000000000000000000000000000000000000600052601260045260246000fd5b6000601f19601f8301169050919050565b61256c816123fa565b811461257757600080fd5b50565b6125838161240c565b811461258e57600080fd5b50565b61259a81612418565b81146125a557600080fd5b50565b6125b18161244a565b81146125bc57600080fd5b5056fea26469706673582212207b777a26f98b6bbd56df05cc00c0679d0d179fb03a24b2d58051a8299a54471d64736f6c63430008000033",
  "immutableReferences": {},
  "source": "\n// SPDX-License-Identifier: MIT\npragma solidity ^0.8.0;\n\nimport \"@openzeppelin/contracts/token/ERC20/IERC20.sol\";\nimport \"@openzeppelin/contracts/utils/structs/EnumerableSet.sol\";\nimport \"@openzeppelin/contracts/utils/math/SafeMath.sol\";\nimport \"@openzeppelin/contracts/access/Ownable.sol\";\nimport \"@openzeppelin/contracts/token/ERC20/utils/SafeERC20.sol\";\n\n// Farm distributes the ERC20 rewards based on staked LP to each user.\n//\n// Cloned from https://github.com/ltonetwork/uniswap-farming\n// Modified by LTO Network to work for non-mintable ERC20.\ncontract SkullsFarm is Ownable {\n    using SafeMath for uint256;\n    using SafeERC20 for IERC20;\n    // Info of each user.\n    struct UserInfo {\n        uint256 amount;     // How many LP tokens the user has provided.\n        uint256 rewardDebt; // Reward debt. See explanation below.\n        //\n        // We do some fancy math here. Basically, any point in time, the amount of ERC20s\n        // entitled to a user but is pending to be distributed is:\n        //\n        //   pending reward = (user.amount * pool.accERC20PerShare) - user.rewardDebt\n        //\n        // Whenever a user deposits or withdraws LP tokens to a pool. Here's what happens:\n        //   1. The pool's `accERC20PerShare` (and `lastRewardBlock`) gets updated.\n        //   2. User receives the pending reward sent to his/her address.\n        //   3. User's `amount` gets updated.\n        //   4. User's `rewardDebt` gets updated.\n    }\n\n    // Info of each pool.\n    struct PoolInfo {\n        IERC20 lpToken;             // Address of LP token contract.\n        uint256 allocPoint;         // How many allocation points assigned to this pool. ERC20s to distribute per block.\n        uint256 lastRewardBlock;    // Last block number that ERC20s distribution occurs.\n        uint256 accERC20PerShare;   // Accumulated ERC20s per share, times 1e36.\n    }\n\n    // Address of the ERC20 Token contract.\n    IERC20 public erc20;\n    // The total amount of ERC20 that's paid out as reward.\n    uint256 public paidOut = 0;\n    // ERC20 tokens rewarded per block.\n    uint256 public rewardPerBlock;\n\n    // Info of each pool.\n    PoolInfo[] public poolInfo;\n    // Info of each user that stakes LP tokens.\n    mapping (uint256 => mapping (address => UserInfo)) public userInfo;\n    // Total allocation points. Must be the sum of all allocation points in all pools.\n    uint256 public totalAllocPoint = 0;\n\n    // The block number when farming starts.\n    uint256 public startBlock;\n    // The block number when farming ends.\n    uint256 public endBlock;\n\n    event Deposit(address indexed user, uint256 indexed pid, uint256 amount);\n    event Withdraw(address indexed user, uint256 indexed pid, uint256 amount);\n    event EmergencyWithdraw(address indexed user, uint256 indexed pid, uint256 amount);\n\n    constructor(IERC20 _erc20, uint256 _rewardPerBlock, uint256 _startBlock) {\n        erc20 = _erc20;\n        rewardPerBlock = _rewardPerBlock;\n        startBlock = _startBlock;\n        endBlock = _startBlock;\n    }\n\n    // Number of LP pools\n    function poolLength() external view returns (uint256) {\n        return poolInfo.length;\n    }\n\n    // Fund the farm, increase the end block\n    function fund(uint256 _amount) public {\n        require(block.number < endBlock, \"fund: too late, the farm is closed\");\n\n        erc20.safeTransferFrom(address(msg.sender), address(this), _amount);\n        endBlock += _amount.div(rewardPerBlock);\n    }\n\n    // Add a new lp to the pool. Can only be called by the owner.\n    // DO NOT add the same LP token more than once. Rewards will be messed up if you do.\n    function add(uint256 _allocPoint, IERC20 _lpToken, bool _withUpdate) public onlyOwner {\n        if (_withUpdate) {\n            massUpdatePools();\n        }\n        uint256 lastRewardBlock = block.number > startBlock ? block.number : startBlock;\n        totalAllocPoint = totalAllocPoint.add(_allocPoint);\n        poolInfo.push(PoolInfo({\n            lpToken: _lpToken,\n            allocPoint: _allocPoint,\n            lastRewardBlock: lastRewardBlock,\n            accERC20PerShare: 0\n        }));\n    }\n\n    // Update the given pool's ERC20 allocation point. Can only be called by the owner.\n    function set(uint256 _pid, uint256 _allocPoint, bool _withUpdate) public onlyOwner {\n        if (_withUpdate) {\n            massUpdatePools();\n        }\n        totalAllocPoint = totalAllocPoint.sub(poolInfo[_pid].allocPoint).add(_allocPoint);\n        poolInfo[_pid].allocPoint = _allocPoint;\n    }\n\n    // View function to see deposited LP for a user.\n    function deposited(uint256 _pid, address _user) external view returns (uint256) {\n        UserInfo storage user = userInfo[_pid][_user];\n        return user.amount;\n    }\n\n    // View function to see pending ERC20s for a user.\n    function pending(uint256 _pid, address _user) external view returns (uint256) {\n        PoolInfo storage pool = poolInfo[_pid];\n        UserInfo storage user = userInfo[_pid][_user];\n        uint256 accERC20PerShare = pool.accERC20PerShare;\n        uint256 lpSupply = pool.lpToken.balanceOf(address(this));\n        uint256 lastBlock = block.number < endBlock ? block.number : endBlock;\n\n        if (lastBlock > pool.lastRewardBlock && block.number > pool.lastRewardBlock && lpSupply != 0) {\n            uint256 nrOfBlocks = lastBlock.sub(pool.lastRewardBlock);\n            uint256 erc20Reward = nrOfBlocks.mul(rewardPerBlock).mul(pool.allocPoint).div(totalAllocPoint);\n            accERC20PerShare = accERC20PerShare.add(erc20Reward.mul(1e36).div(lpSupply));\n        }\n\n        return user.amount.mul(accERC20PerShare).div(1e36).sub(user.rewardDebt);\n    }\n\n    // View function for total reward the farm has yet to pay out.\n    function totalPending() external view returns (uint256) {\n        if (block.number <= startBlock) {\n            return 0;\n        }\n\n        uint256 lastBlock = block.number < endBlock ? block.number : endBlock;\n        return rewardPerBlock.mul(lastBlock - startBlock).sub(paidOut);\n    }\n\n    // Update reward variables for all pools. Be careful of gas spending!\n    function massUpdatePools() public {\n        uint256 length = poolInfo.length;\n        for (uint256 pid = 0; pid < length; ++pid) {\n            updatePool(pid);\n        }\n    }\n\n    // Update reward variables of the given pool to be up-to-date.\n    function updatePool(uint256 _pid) public {\n        PoolInfo storage pool = poolInfo[_pid];\n        uint256 lastBlock = block.number < endBlock ? block.number : endBlock;\n\n        if (lastBlock <= pool.lastRewardBlock) {\n            return;\n        }\n        uint256 lpSupply = pool.lpToken.balanceOf(address(this));\n        if (lpSupply == 0) {\n            pool.lastRewardBlock = lastBlock;\n            return;\n        }\n\n        uint256 nrOfBlocks = lastBlock.sub(pool.lastRewardBlock);\n        uint256 erc20Reward = nrOfBlocks.mul(rewardPerBlock).mul(pool.allocPoint).div(totalAllocPoint);\n\n        pool.accERC20PerShare = pool.accERC20PerShare.add(erc20Reward.mul(1e36).div(lpSupply));\n        pool.lastRewardBlock = block.number;\n    }\n\n    // Deposit LP tokens to Farm for ERC20 allocation.\n    function deposit(uint256 _pid, uint256 _amount) public {\n        PoolInfo storage pool = poolInfo[_pid];\n        UserInfo storage user = userInfo[_pid][msg.sender];\n        updatePool(_pid);\n        if (user.amount > 0) {\n            uint256 pendingAmount = user.amount.mul(pool.accERC20PerShare).div(1e36).sub(user.rewardDebt);\n            erc20Transfer(msg.sender, pendingAmount);\n        }\n        pool.lpToken.safeTransferFrom(address(msg.sender), address(this), _amount);\n        user.amount = user.amount.add(_amount);\n        user.rewardDebt = user.amount.mul(pool.accERC20PerShare).div(1e36);\n        emit Deposit(msg.sender, _pid, _amount);\n    }\n\n    // Withdraw LP tokens from Farm.\n    function withdraw(uint256 _pid, uint256 _amount) public {\n        PoolInfo storage pool = poolInfo[_pid];\n        UserInfo storage user = userInfo[_pid][msg.sender];\n        require(user.amount >= _amount, \"withdraw: can't withdraw more than deposit\");\n        updatePool(_pid);\n        uint256 pendingAmount = user.amount.mul(pool.accERC20PerShare).div(1e36).sub(user.rewardDebt);\n        erc20Transfer(msg.sender, pendingAmount);\n        user.amount = user.amount.sub(_amount);\n        user.rewardDebt = user.amount.mul(pool.accERC20PerShare).div(1e36);\n        pool.lpToken.safeTransfer(address(msg.sender), _amount);\n        emit Withdraw(msg.sender, _pid, _amount);\n    }\n\n    // Withdraw without caring about rewards. EMERGENCY ONLY.\n    function emergencyWithdraw(uint256 _pid) public {\n        PoolInfo storage pool = poolInfo[_pid];\n        UserInfo storage user = userInfo[_pid][msg.sender];\n        pool.lpToken.safeTransfer(address(msg.sender), user.amount);\n        emit EmergencyWithdraw(msg.sender, _pid, user.amount);\n        user.amount = 0;\n        user.rewardDebt = 0;\n    }\n\n    // Transfer ERC20 and update the required ERC20 to payout all rewards\n    function erc20Transfer(address _to, uint256 _amount) internal {\n        erc20.transfer(_to, _amount);\n        paidOut += _amount;\n    }\n}",
  "sourcePath": "/Users/alessandrodecristofaro/Desktop/DeFi Code/croskull-repo/src/contracts/SkullsFarm.sol",
  "compiler": {
    "name": "solc",
    "version": "0.8.0+commit.c7dfd78e.Emscripten.clang"
  },
  "schemaVersion": "3.4.3",
  "updatedAt": "2022-04-02T13:53:37.828Z",
  "networkType": "ethereum",
  "devdoc": {
    "kind": "dev",
    "methods": {
      "owner()": {
        "details": "Returns the address of the current owner."
      },
      "renounceOwnership()": {
        "details": "Leaves the contract without owner. It will not be possible to call `onlyOwner` functions anymore. Can only be called by the current owner. NOTE: Renouncing ownership will leave the contract without an owner, thereby removing any functionality that is only available to the owner."
      },
      "transferOwnership(address)": {
        "details": "Transfers ownership of the contract to a new account (`newOwner`). Can only be called by the current owner."
      }
    },
    "version": 1
  },
  "userdoc": {
    "kind": "user",
    "methods": {},
    "version": 1
  }
}