{
  "contractName": "SkullsBank",
  "abi": [
    {
      "inputs": [],
      "stateMutability": "nonpayable",
      "type": "constructor"
    },
    {
      "anonymous": false,
      "inputs": [
        {
          "indexed": false,
          "internalType": "bytes32",
          "name": "contractHash",
          "type": "bytes32"
        },
        {
          "indexed": false,
          "internalType": "address",
          "name": "account",
          "type": "address"
        },
        {
          "indexed": false,
          "internalType": "uint256",
          "name": "contractId",
          "type": "uint256"
        },
        {
          "indexed": false,
          "internalType": "uint256",
          "name": "amount",
          "type": "uint256"
        },
        {
          "indexed": false,
          "internalType": "uint256",
          "name": "rewardsAmount",
          "type": "uint256"
        },
        {
          "indexed": false,
          "internalType": "uint256",
          "name": "creationTimestamp",
          "type": "uint256"
        },
        {
          "indexed": false,
          "internalType": "uint256",
          "name": "unlockTimestamp",
          "type": "uint256"
        }
      ],
      "name": "ContractClaimed",
      "type": "event"
    },
    {
      "anonymous": false,
      "inputs": [
        {
          "indexed": false,
          "internalType": "bytes32",
          "name": "contractHash",
          "type": "bytes32"
        },
        {
          "indexed": false,
          "internalType": "address",
          "name": "account",
          "type": "address"
        },
        {
          "indexed": false,
          "internalType": "uint256",
          "name": "contractId",
          "type": "uint256"
        },
        {
          "indexed": false,
          "internalType": "uint256",
          "name": "amount",
          "type": "uint256"
        },
        {
          "indexed": false,
          "internalType": "uint256",
          "name": "creationTimestamp",
          "type": "uint256"
        },
        {
          "indexed": false,
          "internalType": "uint256",
          "name": "unlockTimestamp",
          "type": "uint256"
        }
      ],
      "name": "ContractCreated",
      "type": "event"
    },
    {
      "inputs": [],
      "name": "GRAVE",
      "outputs": [
        {
          "internalType": "contract IERC20Burnable",
          "name": "",
          "type": "address"
        }
      ],
      "stateMutability": "view",
      "type": "function",
      "constant": true
    },
    {
      "inputs": [],
      "name": "RUDE",
      "outputs": [
        {
          "internalType": "contract IERC20Mintable",
          "name": "",
          "type": "address"
        }
      ],
      "stateMutability": "view",
      "type": "function",
      "constant": true
    },
    {
      "inputs": [],
      "name": "activeContracts",
      "outputs": [
        {
          "internalType": "uint256",
          "name": "",
          "type": "uint256"
        }
      ],
      "stateMutability": "view",
      "type": "function",
      "constant": true
    },
    {
      "inputs": [],
      "name": "activeWishbones",
      "outputs": [
        {
          "internalType": "uint256",
          "name": "",
          "type": "uint256"
        }
      ],
      "stateMutability": "view",
      "type": "function",
      "constant": true
    },
    {
      "inputs": [],
      "name": "bankFee",
      "outputs": [
        {
          "internalType": "uint256",
          "name": "",
          "type": "uint256"
        }
      ],
      "stateMutability": "view",
      "type": "function",
      "constant": true
    },
    {
      "inputs": [],
      "name": "depositedGrave",
      "outputs": [
        {
          "internalType": "uint256",
          "name": "",
          "type": "uint256"
        }
      ],
      "stateMutability": "view",
      "type": "function",
      "constant": true
    },
    {
      "inputs": [],
      "name": "locked",
      "outputs": [
        {
          "internalType": "bool",
          "name": "",
          "type": "bool"
        }
      ],
      "stateMutability": "view",
      "type": "function",
      "constant": true
    },
    {
      "inputs": [],
      "name": "maxApy",
      "outputs": [
        {
          "internalType": "uint256",
          "name": "",
          "type": "uint256"
        }
      ],
      "stateMutability": "view",
      "type": "function",
      "constant": true
    },
    {
      "inputs": [],
      "name": "owner",
      "outputs": [
        {
          "internalType": "address",
          "name": "",
          "type": "address"
        }
      ],
      "stateMutability": "view",
      "type": "function",
      "constant": true
    },
    {
      "inputs": [],
      "name": "rate",
      "outputs": [
        {
          "internalType": "uint256",
          "name": "",
          "type": "uint256"
        }
      ],
      "stateMutability": "view",
      "type": "function",
      "constant": true
    },
    {
      "inputs": [],
      "name": "totalContractsVolume",
      "outputs": [
        {
          "internalType": "uint256",
          "name": "",
          "type": "uint256"
        }
      ],
      "stateMutability": "view",
      "type": "function",
      "constant": true
    },
    {
      "inputs": [],
      "name": "totalGraveVolume",
      "outputs": [
        {
          "internalType": "uint256",
          "name": "",
          "type": "uint256"
        }
      ],
      "stateMutability": "view",
      "type": "function",
      "constant": true
    },
    {
      "inputs": [],
      "name": "totalWishbonesVolume",
      "outputs": [
        {
          "internalType": "uint256",
          "name": "",
          "type": "uint256"
        }
      ],
      "stateMutability": "view",
      "type": "function",
      "constant": true
    },
    {
      "inputs": [
        {
          "internalType": "address",
          "name": "",
          "type": "address"
        }
      ],
      "name": "userContractCount",
      "outputs": [
        {
          "internalType": "uint256",
          "name": "",
          "type": "uint256"
        }
      ],
      "stateMutability": "view",
      "type": "function",
      "constant": true
    },
    {
      "inputs": [
        {
          "internalType": "bytes32",
          "name": "",
          "type": "bytes32"
        }
      ],
      "name": "userContracts",
      "outputs": [
        {
          "internalType": "address",
          "name": "owner",
          "type": "address"
        },
        {
          "internalType": "uint256",
          "name": "amount",
          "type": "uint256"
        },
        {
          "internalType": "uint256",
          "name": "startTimestamp",
          "type": "uint256"
        },
        {
          "internalType": "uint256",
          "name": "unlockTimestamp",
          "type": "uint256"
        },
        {
          "internalType": "uint256",
          "name": "usedWishbones",
          "type": "uint256"
        },
        {
          "internalType": "uint256",
          "name": "duration",
          "type": "uint256"
        }
      ],
      "stateMutability": "view",
      "type": "function",
      "constant": true
    },
    {
      "inputs": [],
      "name": "wishboneCost",
      "outputs": [
        {
          "internalType": "uint256",
          "name": "",
          "type": "uint256"
        }
      ],
      "stateMutability": "view",
      "type": "function",
      "constant": true
    },
    {
      "inputs": [
        {
          "internalType": "uint256",
          "name": "_wishbonesToAdd",
          "type": "uint256"
        }
      ],
      "name": "increaseWishbone",
      "outputs": [],
      "stateMutability": "nonpayable",
      "type": "function"
    },
    {
      "inputs": [],
      "name": "toggleLock",
      "outputs": [],
      "stateMutability": "nonpayable",
      "type": "function"
    },
    {
      "inputs": [
        {
          "internalType": "uint256",
          "name": "_newApy",
          "type": "uint256"
        }
      ],
      "name": "updateAPY",
      "outputs": [],
      "stateMutability": "nonpayable",
      "type": "function"
    },
    {
      "inputs": [
        {
          "internalType": "uint256",
          "name": "_newRate",
          "type": "uint256"
        }
      ],
      "name": "updateRate",
      "outputs": [],
      "stateMutability": "nonpayable",
      "type": "function"
    },
    {
      "inputs": [
        {
          "internalType": "uint256",
          "name": "_newCost",
          "type": "uint256"
        }
      ],
      "name": "updateWishboneCost",
      "outputs": [],
      "stateMutability": "nonpayable",
      "type": "function"
    },
    {
      "inputs": [
        {
          "internalType": "contract IERC20Burnable",
          "name": "_GRAVE",
          "type": "address"
        }
      ],
      "name": "updateGraveAddress",
      "outputs": [],
      "stateMutability": "nonpayable",
      "type": "function"
    },
    {
      "inputs": [
        {
          "internalType": "contract IERC20Mintable",
          "name": "_RUDE",
          "type": "address"
        }
      ],
      "name": "updateRudeAddress",
      "outputs": [],
      "stateMutability": "nonpayable",
      "type": "function"
    },
    {
      "inputs": [
        {
          "internalType": "uint256",
          "name": "_newFee",
          "type": "uint256"
        }
      ],
      "name": "updateBankFee",
      "outputs": [],
      "stateMutability": "nonpayable",
      "type": "function"
    },
    {
      "inputs": [
        {
          "internalType": "uint256",
          "name": "_amount",
          "type": "uint256"
        },
        {
          "internalType": "uint256",
          "name": "_duration",
          "type": "uint256"
        },
        {
          "internalType": "uint256",
          "name": "_wishbones",
          "type": "uint256"
        }
      ],
      "name": "createContract",
      "outputs": [],
      "stateMutability": "nonpayable",
      "type": "function"
    },
    {
      "inputs": [],
      "name": "getActiveContracts",
      "outputs": [
        {
          "internalType": "uint256[]",
          "name": "",
          "type": "uint256[]"
        }
      ],
      "stateMutability": "view",
      "type": "function",
      "constant": true
    },
    {
      "inputs": [
        {
          "internalType": "uint256",
          "name": "contractId",
          "type": "uint256"
        }
      ],
      "name": "getPassedDays",
      "outputs": [
        {
          "internalType": "uint256",
          "name": "",
          "type": "uint256"
        }
      ],
      "stateMutability": "view",
      "type": "function",
      "constant": true
    },
    {
      "inputs": [
        {
          "internalType": "uint256",
          "name": "_contractId",
          "type": "uint256"
        }
      ],
      "name": "claimRewards",
      "outputs": [],
      "stateMutability": "nonpayable",
      "type": "function"
    },
    {
      "inputs": [
        {
          "internalType": "uint256",
          "name": "_contractId",
          "type": "uint256"
        }
      ],
      "name": "panicWithdraw",
      "outputs": [],
      "stateMutability": "nonpayable",
      "type": "function"
    },
    {
      "inputs": [
        {
          "internalType": "uint256",
          "name": "_contractId",
          "type": "uint256"
        }
      ],
      "name": "currentRewards",
      "outputs": [
        {
          "internalType": "uint256",
          "name": "",
          "type": "uint256"
        },
        {
          "internalType": "uint256",
          "name": "",
          "type": "uint256"
        },
        {
          "internalType": "bool",
          "name": "",
          "type": "bool"
        }
      ],
      "stateMutability": "view",
      "type": "function",
      "constant": true
    },
    {
      "inputs": [
        {
          "internalType": "uint256",
          "name": "contractId",
          "type": "uint256"
        }
      ],
      "name": "getAPY",
      "outputs": [
        {
          "internalType": "uint256",
          "name": "",
          "type": "uint256"
        },
        {
          "internalType": "uint256",
          "name": "",
          "type": "uint256"
        },
        {
          "internalType": "bool",
          "name": "",
          "type": "bool"
        }
      ],
      "stateMutability": "view",
      "type": "function",
      "constant": true
    },
    {
      "inputs": [
        {
          "internalType": "uint256",
          "name": "_amount",
          "type": "uint256"
        },
        {
          "internalType": "uint256",
          "name": "_duration",
          "type": "uint256"
        },
        {
          "internalType": "uint256",
          "name": "_wishbones",
          "type": "uint256"
        }
      ],
      "name": "simulateAPY",
      "outputs": [
        {
          "internalType": "uint256",
          "name": "",
          "type": "uint256"
        },
        {
          "internalType": "uint256",
          "name": "",
          "type": "uint256"
        }
      ],
      "stateMutability": "view",
      "type": "function",
      "constant": true
    }
  ],
  "bytecode": "0x6080604052620186a0600055670de0b6b3a76400006001556000600260146101000a81548160ff02191690831515021790555060005461014d620000449190620000da565b600355600054611770620000599190620000da565b6004556000600755600060085560006009556000600a55611a0a600b556000600c55601e600d55601e600e553480156200009257600080fd5b5033600260006101000a81548173ffffffffffffffffffffffffffffffffffffffff021916908373ffffffffffffffffffffffffffffffffffffffff16021790555062000174565b6000620000e7826200013b565b9150620000f4836200013b565b9250817fffffffffffffffffffffffffffffffffffffffffffffffffffffffffffffffff048311821515161562000130576200012f62000145565b5b828202905092915050565b6000819050919050565b7f4e487b7100000000000000000000000000000000000000000000000000000000600052601160045260246000fd5b613aa380620001846000396000f3fe608060405234801561001057600080fd5b50600436106101ef5760003560e01c8063772e74b01161010f578063eacfd74d116100a2578063f248a9f011610071578063f248a9f0146105a2578063f3482ee6146105be578063fae728cd146105dc578063ff9413d8146105f8576101ef565b8063eacfd74d14610504578063ec25c60c14610534578063eeee849b14610552578063f072e41014610584576101ef565b8063b2fa72b9116100de578063b2fa72b91461047c578063c275f14e14610498578063cf309012146104b4578063ea60459a146104d2576101ef565b8063772e74b0146103f35780638da5cb5b1461040f578063a139ee1f1461042d578063aa9e3d6a1461045e576101ef565b80633442cdb8116101875780636062948611610156578063606294861461038157806369ea17711461039f57806371b9c20f146103bb5780637713e319146103d7576101ef565b80633442cdb8146102f257806338f2f916146103105780633e92115d1461032e57806347a8062014610363576101ef565b80631055df8d116101c35780631055df8d1461027c5780631ff1d6d31461029a5780632c4e722e146102b857806331653fdd146102d6576101ef565b80629adbb3146101f4578063022edd35146102125780630962ef79146102305780630e82b06c1461024c575b600080fd5b6101fc610602565b604051610209919061362d565b60405180910390f35b61021a610608565b604051610227919061325b565b60405180910390f35b61024a60048036038101906102459190612b2d565b610792565b005b61026660048036038101906102619190612b2d565b610cb7565b604051610273919061362d565b60405180910390f35b610284610cf6565b604051610291919061362d565b60405180910390f35b6102a2610cfc565b6040516102af919061362d565b60405180910390f35b6102c0610d02565b6040516102cd919061362d565b60405180910390f35b6102f060048036038101906102eb9190612adb565b610d08565b005b6102fa610e4c565b604051610307919061362d565b60405180910390f35b610318610e52565b604051610325919061362d565b60405180910390f35b61034860048036038101906103439190612ab2565b610e58565b60405161035a969594939291906131fa565b60405180910390f35b61036b610eb4565b60405161037891906133d7565b60405180910390f35b610389610eda565b604051610396919061362d565b60405180910390f35b6103b960048036038101906103b49190612b2d565b610ee0565b005b6103d560048036038101906103d09190612b2d565b610fcb565b005b6103f160048036038101906103ec9190612b2d565b611077565b005b61040d60048036038101906104089190612b2d565b611154565b005b61041761124b565b6040516104249190613156565b60405180910390f35b61044760048036038101906104429190612b7f565b611271565b604051610455929190613648565b60405180910390f35b61046661151b565b60405161047391906133f2565b60405180910390f35b61049660048036038101906104919190612b04565b611541565b005b6104b260048036038101906104ad9190612b7f565b611685565b005b6104bc611e06565b6040516104c9919061327d565b60405180910390f35b6104ec60048036038101906104e79190612b2d565b611e19565b6040516104fb93929190613671565b60405180910390f35b61051e60048036038101906105199190612a60565b611f81565b60405161052b919061362d565b60405180910390f35b61053c611f99565b604051610549919061362d565b60405180910390f35b61056c60048036038101906105679190612b2d565b611f9f565b60405161057b93929190613671565b60405180910390f35b61058c611fe7565b604051610599919061362d565b60405180910390f35b6105bc60048036038101906105b79190612b2d565b611fed565b005b6105c6612284565b6040516105d3919061362d565b60405180910390f35b6105f660048036038101906105f19190612b2d565b61228a565b005b610600612375565b005b60095481565b60606000601060003373ffffffffffffffffffffffffffffffffffffffff1673ffffffffffffffffffffffffffffffffffffffff16815260200190815260200160002054905060008167ffffffffffffffff811115610690577f4e487b7100000000000000000000000000000000000000000000000000000000600052604160045260246000fd5b6040519080825280602002602001820160405280156106be5781602001602082028036833780820191505090505b5090506000805b8381101561078857600033826040516020016106e292919061312a565b6040516020818303038152906040528051906020012090506000600f600083815260200190815260200160002060010154905060008111156107735782858581518110610758577f4e487b7100000000000000000000000000000000000000000000000000000000600052603260045260246000fd5b602002602001018181525050838061076f90613901565b9450505b5050808061078090613901565b9150506106c5565b5081935050505090565b600260149054906101000a900460ff16156107e2576040517f08c379a00000000000000000000000000000000000000000000000000000000081526004016107d99061344d565b60405180910390fd5b6001600260146101000a81548160ff0219169083151502179055506000338260405160200161081292919061312a565b6040516020818303038152906040528051906020012090506000600f60008381526020019081526020016000206040518060c00160405290816000820160009054906101000a900473ffffffffffffffffffffffffffffffffffffffff1673ffffffffffffffffffffffffffffffffffffffff1673ffffffffffffffffffffffffffffffffffffffff168152602001600182015481526020016002820154815260200160038201548152602001600482015481526020016005820154815250509050600081602001511161091b576040517f08c379a0000000000000000000000000000000000000000000000000000000008152600401610912906135ed565b60405180910390fd5b4281606001511115610962576040517f08c379a00000000000000000000000000000000000000000000000000000000081526004016109599061342d565b60405180910390fd5b600061096d84611e19565b505090506000600f600085815260200190815260200160002060010154905060006109b76127106109a9600e548561243190919063ffffffff16565b61244790919063ffffffff16565b905080826109c591906137d3565b91506000600f600087815260200190815260200160002060010181905550600c60008154809291906109f6906138d7565b919050555081600a6000828254610a0d91906137d3565b925050819055508360800151600b6000828254610a2a91906137d3565b92505081905550600660009054906101000a900473ffffffffffffffffffffffffffffffffffffffff1673ffffffffffffffffffffffffffffffffffffffff166340c10f1933856040518363ffffffff1660e01b8152600401610a8e9291906131d1565b600060405180830381600087803b158015610aa857600080fd5b505af1158015610abc573d6000803e3d6000fd5b50505050600560009054906101000a900473ffffffffffffffffffffffffffffffffffffffff1673ffffffffffffffffffffffffffffffffffffffff166342966c68826040518263ffffffff1660e01b8152600401610b1b919061362d565b600060405180830381600087803b158015610b3557600080fd5b505af1158015610b49573d6000803e3d6000fd5b50505050600560009054906101000a900473ffffffffffffffffffffffffffffffffffffffff1673ffffffffffffffffffffffffffffffffffffffff1663a9059cbb33846040518363ffffffff1660e01b8152600401610baa9291906131d1565b602060405180830381600087803b158015610bc457600080fd5b505af1158015610bd8573d6000803e3d6000fd5b505050506040513d601f19601f82011682018060405250810190610bfc9190612a89565b610c3b576040517f08c379a0000000000000000000000000000000000000000000000000000000008152600401610c329061356d565b60405180910390fd5b7f68a87afe1bce050b393030ced0942bee5aa2f952f0dfee810b72c6c05a67937d8533888587600f60008c81526020019081526020016000206002015442604051610c8c9796959493929190613368565b60405180910390a150505050506000600260146101000a81548160ff02191690831515021790555050565b6000803383604051602001610ccd92919061312a565b604051602081830303815290604052805190602001209050610cee8161245d565b915050919050565b600c5481565b600b5481565b60045481565b600260009054906101000a900473ffffffffffffffffffffffffffffffffffffffff1673ffffffffffffffffffffffffffffffffffffffff163373ffffffffffffffffffffffffffffffffffffffff1614610d98576040517f08c379a0000000000000000000000000000000000000000000000000000000008152600401610d8f9061346d565b60405180910390fd5b600073ffffffffffffffffffffffffffffffffffffffff168173ffffffffffffffffffffffffffffffffffffffff161415610e08576040517f08c379a0000000000000000000000000000000000000000000000000000000008152600401610dff906135cd565b60405180910390fd5b80600560006101000a81548173ffffffffffffffffffffffffffffffffffffffff021916908373ffffffffffffffffffffffffffffffffffffffff16021790555050565b60075481565b600a5481565b600f6020528060005260406000206000915090508060000160009054906101000a900473ffffffffffffffffffffffffffffffffffffffff16908060010154908060020154908060030154908060040154908060050154905086565b600560009054906101000a900473ffffffffffffffffffffffffffffffffffffffff1681565b600e5481565b600260009054906101000a900473ffffffffffffffffffffffffffffffffffffffff1673ffffffffffffffffffffffffffffffffffffffff163373ffffffffffffffffffffffffffffffffffffffff1614610f70576040517f08c379a0000000000000000000000000000000000000000000000000000000008152600401610f679061346d565b60405180910390fd5b6000546001610f7f9190613779565b811015610fc1576040517f08c379a0000000000000000000000000000000000000000000000000000000008152600401610fb89061360d565b60405180910390fd5b8060048190555050565b600260009054906101000a900473ffffffffffffffffffffffffffffffffffffffff1673ffffffffffffffffffffffffffffffffffffffff163373ffffffffffffffffffffffffffffffffffffffff161461105b576040517f08c379a00000000000000000000000000000000000000000000000000000000081526004016110529061346d565b60405180910390fd5b80600b600082825461106d91906136f2565b9250508190555050565b600260009054906101000a900473ffffffffffffffffffffffffffffffffffffffff1673ffffffffffffffffffffffffffffffffffffffff163373ffffffffffffffffffffffffffffffffffffffff1614611107576040517f08c379a00000000000000000000000000000000000000000000000000000000081526004016110fe9061346d565b60405180910390fd5b6000811161114a576040517f08c379a00000000000000000000000000000000000000000000000000000000081526004016111419061348d565b60405180910390fd5b80600e8190555050565b600260009054906101000a900473ffffffffffffffffffffffffffffffffffffffff1673ffffffffffffffffffffffffffffffffffffffff163373ffffffffffffffffffffffffffffffffffffffff16146111e4576040517f08c379a00000000000000000000000000000000000000000000000000000000081526004016111db9061346d565b60405180910390fd5b606460015460016111f59190613779565b6111ff9190613748565b811015611241576040517f08c379a00000000000000000000000000000000000000000000000000000000081526004016112389061350d565b60405180910390fd5b80600d8190555050565b600260009054906101000a900473ffffffffffffffffffffffffffffffffffffffff1681565b60008060006112a662015180611298670de0b6b3a76400008861243190919063ffffffff16565b61244790919063ffffffff16565b905060006112df6112c4633b9aca008961244790919063ffffffff16565b6112d96004805461244790919063ffffffff16565b896124dd565b9050600061135e866112fd600260045461244790919063ffffffff16565b611359600c5461134b60646113318d611323600c54600b5461257c90919063ffffffff16565b61257c90919063ffffffff16565b600161133d91906136f2565b61243190919063ffffffff16565b61244790919063ffffffff16565b6124dd565b9050600061139761137c633b9aca008661244790919063ffffffff16565b6113916004805461244790919063ffffffff16565b866124dd565b905060006113d4846113c6846113b88760045461257c90919063ffffffff16565b61257c90919063ffffffff16565b61257c90919063ffffffff16565b905060006114136113f364174876e8008861244790919063ffffffff16565b60035461140e6402540be4008661243190919063ffffffff16565b6124dd565b90506000620186a090506000611432838e61243190919063ffffffff16565b905061144d6509184e72a0008961244790919063ffffffff16565b97506114758261146760648461244790919063ffffffff16565b61244790919063ffffffff16565b905060006114c561149060648561244790919063ffffffff16565b6114b761016d6114a98d8861243190919063ffffffff16565b61244790919063ffffffff16565b61244790919063ffffffff16565b90506000611501846114f360646114e5868861243190919063ffffffff16565b61244790919063ffffffff16565b61244790919063ffffffff16565b905080859b509b5050505050505050505050935093915050565b600660009054906101000a900473ffffffffffffffffffffffffffffffffffffffff1681565b600260009054906101000a900473ffffffffffffffffffffffffffffffffffffffff1673ffffffffffffffffffffffffffffffffffffffff163373ffffffffffffffffffffffffffffffffffffffff16146115d1576040517f08c379a00000000000000000000000000000000000000000000000000000000081526004016115c89061346d565b60405180910390fd5b600073ffffffffffffffffffffffffffffffffffffffff168173ffffffffffffffffffffffffffffffffffffffff161415611641576040517f08c379a00000000000000000000000000000000000000000000000000000000081526004016116389061352d565b60405180910390fd5b80600660006101000a81548173ffffffffffffffffffffffffffffffffffffffff021916908373ffffffffffffffffffffffffffffffffffffffff16021790555050565b600260149054906101000a900460ff16156116d5576040517f08c379a00000000000000000000000000000000000000000000000000000000081526004016116cc9061344d565b60405180910390fd5b6001600260146101000a81548160ff02191690831515021790555062015180821015611736576040517f08c379a000000000000000000000000000000000000000000000000000000000815260040161172d9061358d565b60405180910390fd5b60008311611779576040517f08c379a0000000000000000000000000000000000000000000000000000000008152600401611770906135ad565b60405180910390fd5b600033601060003373ffffffffffffffffffffffffffffffffffffffff1673ffffffffffffffffffffffffffffffffffffffff168152602001908152602001600020546040516020016117cd92919061312a565b6040516020818303038152906040528051906020012090506000611823611800606460015461244790919063ffffffff16565b611815600d548661243190919063ffffffff16565b61243190919063ffffffff16565b9050600061183a828761259290919063ffffffff16565b90506000600f60008581526020019081526020016000206001015414611895576040517f08c379a000000000000000000000000000000000000000000000000000000000815260040161188c906134ad565b60405180910390fd5b80600560009054906101000a900473ffffffffffffffffffffffffffffffffffffffff1673ffffffffffffffffffffffffffffffffffffffff166370a08231336040518263ffffffff1660e01b81526004016118f19190613156565b60206040518083038186803b15801561190957600080fd5b505afa15801561191d573d6000803e3d6000fd5b505050506040513d601f19601f820116820180604052508101906119419190612b56565b1015611982576040517f08c379a00000000000000000000000000000000000000000000000000000000081526004016119799061354d565b60405180910390fd5b80600560009054906101000a900473ffffffffffffffffffffffffffffffffffffffff1673ffffffffffffffffffffffffffffffffffffffff1663dd62ed3e33306040518363ffffffff1660e01b81526004016119e0929190613171565b60206040518083038186803b1580156119f857600080fd5b505afa158015611a0c573d6000803e3d6000fd5b505050506040513d601f19601f82011682018060405250810190611a309190612b56565b1015611a71576040517f08c379a0000000000000000000000000000000000000000000000000000000008152600401611a68906134cd565b60405180910390fd5b600560009054906101000a900473ffffffffffffffffffffffffffffffffffffffff1673ffffffffffffffffffffffffffffffffffffffff166323b872dd3330846040518463ffffffff1660e01b8152600401611ad09392919061319a565b602060405180830381600087803b158015611aea57600080fd5b505af1158015611afe573d6000803e3d6000fd5b505050506040513d601f19601f82011682018060405250810190611b229190612a89565b611b61576040517f08c379a0000000000000000000000000000000000000000000000000000000008152600401611b589061340d565b60405180910390fd5b611b69612981565b33816000019073ffffffffffffffffffffffffffffffffffffffff16908173ffffffffffffffffffffffffffffffffffffffff16815250508681602001818152505042816040018181525050611bc8864261259290919063ffffffff16565b81606001818152505084816080018181525050858160a001818152505080600f600086815260200190815260200160002060008201518160000160006101000a81548173ffffffffffffffffffffffffffffffffffffffff021916908373ffffffffffffffffffffffffffffffffffffffff1602179055506020820151816001015560408201518160020155606082015181600301556080820151816004015560a08201518160050155905050600c6000815480929190611c8890613901565b919050555060096000815480929190611ca090613901565b91905055508160076000828254611cb791906136f2565b925050819055508460086000828254611cd091906136f2565b9250508190555084600b6000828254611ce991906136f2565b9250508190555086600a6000828254611d0291906136f2565b925050819055507f625999fdeaeadd9801c103c49689f042dccb56d271bb5f219c4f414358399cc98433601060003373ffffffffffffffffffffffffffffffffffffffff1673ffffffffffffffffffffffffffffffffffffffff168152602001908152602001600020548a428660600151604051611d8596959493929190613307565b60405180910390a1601060003373ffffffffffffffffffffffffffffffffffffffff1673ffffffffffffffffffffffffffffffffffffffff1681526020019081526020016000206000815480929190611ddd90613901565b9190505550505050506000600260146101000a81548160ff021916908315150217905550505050565b600260149054906101000a900460ff1681565b6000806000803385604051602001611e3292919061312a565b6040516020818303038152906040528051906020012090506000600f60008381526020019081526020016000206001015490506000811115611f6c576000806000611e7c856125a8565b9250925092506000620186a090506000611e9f858761243190919063ffffffff16565b9050611ec782611eb960648461244790919063ffffffff16565b61244790919063ffffffff16565b90506000611f17611ee260648561244790919063ffffffff16565b611f0961016d611efb898861243190919063ffffffff16565b61244790919063ffffffff16565b61244790919063ffffffff16565b90506000611f5384611f456064611f37868861243190919063ffffffff16565b61244790919063ffffffff16565b61244790919063ffffffff16565b90508087869b509b509b50505050505050505050611f7a565b600080600194509450945050505b9193909250565b60106020528060005260406000206000915090505481565b600d5481565b6000806000803385604051602001611fb892919061312a565b604051602081830303815290604052805190602001209050611fd9816125a8565b935093509350509193909250565b60085481565b600260149054906101000a900460ff161561203d576040517f08c379a00000000000000000000000000000000000000000000000000000000081526004016120349061344d565b60405180910390fd5b6001600260146101000a81548160ff0219169083151502179055506000338260405160200161206d92919061312a565b6040516020818303038152906040528051906020012090506000600f60008381526020019081526020016000206001015490506000600f600084815260200190815260200160002060010181905550600c60008154809291906120cf906138d7565b919050555080600a60008282546120e691906137d3565b92505081905550600f600083815260200190815260200160002060040154600b600082825461211591906137d3565b92505081905550600560009054906101000a900473ffffffffffffffffffffffffffffffffffffffff1673ffffffffffffffffffffffffffffffffffffffff1663a9059cbb33836040518363ffffffff1660e01b81526004016121799291906131d1565b602060405180830381600087803b15801561219357600080fd5b505af11580156121a7573d6000803e3d6000fd5b505050506040513d601f19601f820116820180604052508101906121cb9190612a89565b61220a576040517f08c379a00000000000000000000000000000000000000000000000000000000081526004016122019061356d565b60405180910390fd5b7f68a87afe1bce050b393030ced0942bee5aa2f952f0dfee810b72c6c05a67937d823385846000600f6000898152602001908152602001600020600201544260405161225c9796959493929190613298565b60405180910390a150506000600260146101000a81548160ff02191690831515021790555050565b60035481565b600260009054906101000a900473ffffffffffffffffffffffffffffffffffffffff1673ffffffffffffffffffffffffffffffffffffffff163373ffffffffffffffffffffffffffffffffffffffff161461231a576040517f08c379a00000000000000000000000000000000000000000000000000000000081526004016123119061346d565b60405180910390fd5b60005460016123299190613779565b81101561236b576040517f08c379a0000000000000000000000000000000000000000000000000000000008152600401612362906134ed565b60405180910390fd5b8060038190555050565b600260009054906101000a900473ffffffffffffffffffffffffffffffffffffffff1673ffffffffffffffffffffffffffffffffffffffff163373ffffffffffffffffffffffffffffffffffffffff1614612405576040517f08c379a00000000000000000000000000000000000000000000000000000000081526004016123fc9061346d565b60405180910390fd5b600260149054906101000a900460ff1615600260146101000a81548160ff021916908315150217905550565b6000818361243f9190613779565b905092915050565b600081836124559190613748565b905092915050565b600080600f60008481526020019081526020016000206002015490506000612484846128ca565b905060006124b5670de0b6b3a76400006124a7858561257c90919063ffffffff16565b61243190919063ffffffff16565b905060006124cf620151808361244790919063ffffffff16565b905080945050505050919050565b6000806124f3858661243190919063ffffffff16565b9050600061251261250d838661259290919063ffffffff16565b612901565b9050600061252d633b9aca008861243190919063ffffffff16565b9050600061255683612548848a61243190919063ffffffff16565b61244790919063ffffffff16565b905061256f633b9aca008261244790919063ffffffff16565b9450505050509392505050565b6000818361258a91906137d3565b905092915050565b600081836125a091906136f2565b905092915050565b6000806000806125b78561245d565b90506000600f60008781526020019081526020016000206040518060c00160405290816000820160009054906101000a900473ffffffffffffffffffffffffffffffffffffffff1673ffffffffffffffffffffffffffffffffffffffff1673ffffffffffffffffffffffffffffffffffffffff1681526020016001820154815260200160028201548152602001600382015481526020016004820154815260200160058201548152505090506000806000905061269e62015180612690670de0b6b3a76400008660a0015161243190919063ffffffff16565b61244790919063ffffffff16565b8414156126ed57600190506126e66126c7633b9aca00856020015161244790919063ffffffff16565b6126dc6004805461244790919063ffffffff16565b85602001516124dd565b915061273f565b61273c61270b633b9aca00856020015161244790919063ffffffff16565b6127206004805461244790919063ffffffff16565b612737600c54600a5461244790919063ffffffff16565b6124dd565b91505b60006127b0846080015161275f600260045461244790919063ffffffff16565b6127ab600c5461279d60646127838b60800151600b5461257c90919063ffffffff16565b600161278f91906136f2565b61243190919063ffffffff16565b61244790919063ffffffff16565b6124dd565b9050600061281c6127ce633b9aca008861244790919063ffffffff16565b6127e36004805461244790919063ffffffff16565b61281762015180612809670de0b6b3a76400008b60a0015161243190919063ffffffff16565b61244790919063ffffffff16565b6124dd565b905060006128598561284b8461283d8760045461257c90919063ffffffff16565b61257c90919063ffffffff16565b61257c90919063ffffffff16565b9050600061289861287864174876e8008a61244790919063ffffffff16565b6003546128936402540be4008661243190919063ffffffff16565b6124dd565b9050806128b46509184e72a0008a61244790919063ffffffff16565b869a509a509a5050505050505050509193909250565b600080600f6000848152602001908152602001600020600301549050428111156128f757429150506128fc565b809150505b919050565b60008061292b600261291d60018661259290919063ffffffff16565b61244790919063ffffffff16565b90508291505b8181101561297b57809150612974600261296683612958858861244790919063ffffffff16565b61259290919063ffffffff16565b61244790919063ffffffff16565b9050612931565b50919050565b6040518060c00160405280600073ffffffffffffffffffffffffffffffffffffffff16815260200160008152602001600081526020016000815260200160008152602001600081525090565b6000813590506129dc816139e3565b92915050565b6000815190506129f1816139fa565b92915050565b600081359050612a0681613a11565b92915050565b600081359050612a1b81613a28565b92915050565b600081359050612a3081613a3f565b92915050565b600081359050612a4581613a56565b92915050565b600081519050612a5a81613a56565b92915050565b600060208284031215612a7257600080fd5b6000612a80848285016129cd565b91505092915050565b600060208284031215612a9b57600080fd5b6000612aa9848285016129e2565b91505092915050565b600060208284031215612ac457600080fd5b6000612ad2848285016129f7565b91505092915050565b600060208284031215612aed57600080fd5b6000612afb84828501612a0c565b91505092915050565b600060208284031215612b1657600080fd5b6000612b2484828501612a21565b91505092915050565b600060208284031215612b3f57600080fd5b6000612b4d84828501612a36565b91505092915050565b600060208284031215612b6857600080fd5b6000612b7684828501612a4b565b91505092915050565b600080600060608486031215612b9457600080fd5b6000612ba286828701612a36565b9350506020612bb386828701612a36565b9250506040612bc486828701612a36565b9150509250925092565b6000612bda83836130f5565b60208301905092915050565b612bef81613807565b82525050565b612c06612c0182613807565b61394a565b82525050565b6000612c17826136b8565b612c2181856136d0565b9350612c2c836136a8565b8060005b83811015612c5d578151612c448882612bce565b9750612c4f836136c3565b925050600181019050612c30565b5085935050505092915050565b612c7381613819565b82525050565b612c8281613825565b82525050565b612c918161387d565b82525050565b612ca0816138a1565b82525050565b612caf816138c5565b82525050565b6000612cc2600c836136e1565b91507f4552525f54585f4552524f5200000000000000000000000000000000000000006000830152602082019050919050565b6000612d026016836136e1565b91507f4552525f434f4e54524143545f4e4f545f454e444544000000000000000000006000830152602082019050919050565b6000612d42600d836136e1565b91507f4e4f545f5245454e5452414e54000000000000000000000000000000000000006000830152602082019050919050565b6000612d82600d836136e1565b91507f4552525f4e4f545f4f574e4552000000000000000000000000000000000000006000830152602082019050919050565b6000612dc2600e836136e1565b91507f4552525f4645455f4d4f52455f300000000000000000000000000000000000006000830152602082019050919050565b6000612e026019836136e1565b91507f4552525f434f4e54524143545f414c52454144595f494e4954000000000000006000830152602082019050919050565b6000612e426016836136e1565b91507f4552525f494e4352454153455f414c4c4f57414e4345000000000000000000006000830152602082019050919050565b6000612e82600e836136e1565b91507f4552525f4150595f4d4f52455f300000000000000000000000000000000000006000830152602082019050919050565b6000612ec26013836136e1565b91507f4552525f57495348434f53545f4d4f52455f30000000000000000000000000006000830152602082019050919050565b6000612f026016836136e1565b91507f4552525f525544455f414444524553535f4e4f545f30000000000000000000006000830152602082019050919050565b6000612f426016836136e1565b91507f4552525f494e53554646494349454e545f4752415645000000000000000000006000830152602082019050919050565b6000612f82600d836136e1565b91507f4552525f54585f4641494c4544000000000000000000000000000000000000006000830152602082019050919050565b6000612fc26011836136e1565b91507f4552525f4455524154494f4e5f5a45524f0000000000000000000000000000006000830152602082019050919050565b6000613002600f836136e1565b91507f4552525f414d4f554e545f5a45524f00000000000000000000000000000000006000830152602082019050919050565b60006130426017836136e1565b91507f4552525f47524156455f414444524553535f4e4f545f300000000000000000006000830152602082019050919050565b60006130826014836136e1565b91507f4552525f434f4e54524143545f434c41494d45440000000000000000000000006000830152602082019050919050565b60006130c2600f836136e1565b91507f4552525f524154455f4d4f52455f3000000000000000000000000000000000006000830152602082019050919050565b6130fe81613873565b82525050565b61310d81613873565b82525050565b61312461311f82613873565b61396e565b82525050565b60006131368285612bf5565b6014820191506131468284613113565b6020820191508190509392505050565b600060208201905061316b6000830184612be6565b92915050565b60006040820190506131866000830185612be6565b6131936020830184612be6565b9392505050565b60006060820190506131af6000830186612be6565b6131bc6020830185612be6565b6131c96040830184613104565b949350505050565b60006040820190506131e66000830185612be6565b6131f36020830184613104565b9392505050565b600060c08201905061320f6000830189612be6565b61321c6020830188613104565b6132296040830187613104565b6132366060830186613104565b6132436080830185613104565b61325060a0830184613104565b979650505050505050565b600060208201905081810360008301526132758184612c0c565b905092915050565b60006020820190506132926000830184612c6a565b92915050565b600060e0820190506132ad600083018a612c79565b6132ba6020830189612be6565b6132c76040830188613104565b6132d46060830187613104565b6132e16080830186612ca6565b6132ee60a0830185613104565b6132fb60c0830184613104565b98975050505050505050565b600060c08201905061331c6000830189612c79565b6133296020830188612be6565b6133366040830187613104565b6133436060830186613104565b6133506080830185613104565b61335d60a0830184613104565b979650505050505050565b600060e08201905061337d600083018a612c79565b61338a6020830189612be6565b6133976040830188613104565b6133a46060830187613104565b6133b16080830186613104565b6133be60a0830185613104565b6133cb60c0830184613104565b98975050505050505050565b60006020820190506133ec6000830184612c88565b92915050565b60006020820190506134076000830184612c97565b92915050565b6000602082019050818103600083015261342681612cb5565b9050919050565b6000602082019050818103600083015261344681612cf5565b9050919050565b6000602082019050818103600083015261346681612d35565b9050919050565b6000602082019050818103600083015261348681612d75565b9050919050565b600060208201905081810360008301526134a681612db5565b9050919050565b600060208201905081810360008301526134c681612df5565b9050919050565b600060208201905081810360008301526134e681612e35565b9050919050565b6000602082019050818103600083015261350681612e75565b9050919050565b6000602082019050818103600083015261352681612eb5565b9050919050565b6000602082019050818103600083015261354681612ef5565b9050919050565b6000602082019050818103600083015261356681612f35565b9050919050565b6000602082019050818103600083015261358681612f75565b9050919050565b600060208201905081810360008301526135a681612fb5565b9050919050565b600060208201905081810360008301526135c681612ff5565b9050919050565b600060208201905081810360008301526135e681613035565b9050919050565b6000602082019050818103600083015261360681613075565b9050919050565b60006020820190508181036000830152613626816130b5565b9050919050565b60006020820190506136426000830184613104565b92915050565b600060408201905061365d6000830185613104565b61366a6020830184613104565b9392505050565b60006060820190506136866000830186613104565b6136936020830185613104565b6136a06040830184612c6a565b949350505050565b6000819050602082019050919050565b600081519050919050565b6000602082019050919050565b600082825260208201905092915050565b600082825260208201905092915050565b60006136fd82613873565b915061370883613873565b9250827fffffffffffffffffffffffffffffffffffffffffffffffffffffffffffffffff0382111561373d5761373c613978565b5b828201905092915050565b600061375382613873565b915061375e83613873565b92508261376e5761376d6139a7565b5b828204905092915050565b600061378482613873565b915061378f83613873565b9250817fffffffffffffffffffffffffffffffffffffffffffffffffffffffffffffffff04831182151516156137c8576137c7613978565b5b828202905092915050565b60006137de82613873565b91506137e983613873565b9250828210156137fc576137fb613978565b5b828203905092915050565b600061381282613853565b9050919050565b60008115159050919050565b6000819050919050565b600061383a82613807565b9050919050565b600061384c82613807565b9050919050565b600073ffffffffffffffffffffffffffffffffffffffff82169050919050565b6000819050919050565b60006138888261388f565b9050919050565b600061389a82613853565b9050919050565b60006138ac826138b3565b9050919050565b60006138be82613853565b9050919050565b60006138d082613873565b9050919050565b60006138e282613873565b915060008214156138f6576138f5613978565b5b600182039050919050565b600061390c82613873565b91507fffffffffffffffffffffffffffffffffffffffffffffffffffffffffffffffff82141561393f5761393e613978565b5b600182019050919050565b60006139558261395c565b9050919050565b6000613967826139d6565b9050919050565b6000819050919050565b7f4e487b7100000000000000000000000000000000000000000000000000000000600052601160045260246000fd5b7f4e487b7100000000000000000000000000000000000000000000000000000000600052601260045260246000fd5b60008160601b9050919050565b6139ec81613807565b81146139f757600080fd5b50565b613a0381613819565b8114613a0e57600080fd5b50565b613a1a81613825565b8114613a2557600080fd5b50565b613a318161382f565b8114613a3c57600080fd5b50565b613a4881613841565b8114613a5357600080fd5b50565b613a5f81613873565b8114613a6a57600080fd5b5056fea2646970667358221220451434ca4f3c626e7c6185121ec24e424ac78c9ebed016a779fd6ffd8bd467b964736f6c63430008000033",
  "immutableReferences": {},
  "source": "// SPDX-License-Identifier: Unlicensed\n/**\n    CroSkull Bank System\n    Powered by: @hiutaky \n */\npragma solidity ^0.8.0;\npragma abicoder v2;\n\nimport \"@openzeppelin/contracts/utils/math/SafeMath.sol\";\nimport \"@openzeppelin/contracts/token/ERC20/IERC20.sol\";\nimport \"./interface/IERC20Mintable.sol\";\nimport \"./interface/IERC20Burnable.sol\";\n\ncontract SkullsBank {\n    using SafeMath for uint;\n    //immutable\n    uint internal mathOperator = 10 ** 5;\n    uint internal decimals = 10 ** 18;\n    address public owner;\n\n    //reentrancy\n    bool public locked = false;\n\n    //mutable\n    uint public maxApy = 333 * mathOperator;\n    uint public rate = 6000 * mathOperator;\n\n    IERC20Burnable public GRAVE;\n    IERC20Mintable public RUDE;\n\n    uint public totalGraveVolume = 0;\n    uint public totalWishbonesVolume = 0;\n    uint public totalContractsVolume = 0;\n\n    uint public depositedGrave = 0;\n    uint public activeWishbones = 6666;\n\n    uint public activeContracts = 0;\n\n    uint public wishboneCost = 30;//0,3 * 100\n    uint public bankFee = 30; // 0,3 * 100\n\n    struct UserContract{\n        address owner;\n        uint amount;\n        uint startTimestamp;\n        uint unlockTimestamp;\n        uint usedWishbones;\n        uint duration;\n    }\n\n    mapping( bytes32 => UserContract ) public userContracts;\n    mapping( address => uint ) public userContractCount;\n\n    //EVENTS\n    event ContractCreated( bytes32 contractHash, address account, uint contractId, uint amount, uint creationTimestamp, uint unlockTimestamp );\n    event ContractClaimed( bytes32 contractHash, address account, uint contractId, uint amount, uint rewardsAmount, uint creationTimestamp, uint unlockTimestamp );\n\n    //MODIFIERS\n    modifier isOwner {\n        require(\n            msg.sender == owner,\n            \"ERR_NOT_OWNER\"\n        );\n        _;\n    }\n\n    modifier notReentrant {\n        require( ! locked, \"NOT_REENTRANT\" );\n        locked = true;\n        _;\n        locked = false;\n    }\n\n    //INIT\n    constructor () {\n        owner = msg.sender;\n    }\n\n    /** \n        ADMIN FUNCTIONS\n    */\n    function increaseWishbone(uint _wishbonesToAdd ) public isOwner {\n        activeWishbones += _wishbonesToAdd;\n    }\n    function toggleLock() public isOwner {\n        locked = ! locked;\n    }\n    function updateAPY(uint _newApy) public isOwner {\n        require(_newApy >= 1 * mathOperator, \"ERR_APY_MORE_0\");\n        maxApy = _newApy;\n    }\n    function updateRate(uint _newRate) public isOwner {\n        require(_newRate >= 1 * mathOperator,  \"ERR_RATE_MORE_0\");\n        rate = _newRate;\n    }\n    function updateWishboneCost(uint _newCost) public isOwner {\n        require(_newCost >= 1 * decimals / 100,  \"ERR_WISHCOST_MORE_0\");\n        wishboneCost = _newCost;\n    }\n    function updateGraveAddress(IERC20Burnable _GRAVE) public isOwner {\n        require( _GRAVE != IERC20Burnable(address(0)), \"ERR_GRAVE_ADDRESS_NOT_0\");\n        GRAVE = _GRAVE;\n    }\n    function updateRudeAddress(IERC20Mintable _RUDE) public isOwner {\n        require( _RUDE != IERC20Mintable(address(0)), \"ERR_RUDE_ADDRESS_NOT_0\");\n        RUDE = _RUDE;\n    }\n    function updateBankFee(uint _newFee) public isOwner {\n        require( _newFee > 0, \"ERR_FEE_MORE_0\");\n        bankFee = _newFee;\n    }\n    /** \n        PUBLIC FUNCTIONS \n    */\n    function createContract(uint _amount, uint _duration, uint _wishbones) public notReentrant {\n        require( _duration >= 1 days, \"ERR_DURATION_ZERO\" );\n        require( _amount > 0, \"ERR_AMOUNT_ZERO\");\n        bytes32 contractHash = keccak256(\n                abi.encodePacked(\n                    msg.sender,\n                    userContractCount[msg.sender]\n                )\n            );\n        uint wishboneFinalCost = _wishbones.mul(wishboneCost).mul(decimals.div(100));\n        uint amountPWishbone = _amount.add( wishboneFinalCost );\n\n        require( userContracts[contractHash].amount == 0 , \"ERR_CONTRACT_ALREADY_INIT\");\n        require( GRAVE.balanceOf(msg.sender) >= amountPWishbone, \"ERR_INSUFFICIENT_GRAVE\" );\n        require( GRAVE.allowance(msg.sender, address(this)) >= amountPWishbone, \"ERR_INCREASE_ALLOWANCE\");\n        require( GRAVE.transferFrom(msg.sender, address(this), amountPWishbone), \"ERR_TX_ERROR\");\n\n        UserContract memory currentContract;\n        currentContract.owner = msg.sender;\n        currentContract.amount = _amount;\n        currentContract.startTimestamp = block.timestamp;\n        currentContract.unlockTimestamp = block.timestamp.add(_duration);\n        currentContract.usedWishbones = _wishbones;\n        currentContract.duration = _duration;\n        userContracts[contractHash] = currentContract;\n\n        activeContracts++;\n        totalContractsVolume++;\n        totalGraveVolume += amountPWishbone;\n        totalWishbonesVolume += _wishbones;\n\n        activeWishbones += _wishbones;\n        depositedGrave += _amount;\n\n        emit ContractCreated(contractHash, msg.sender, userContractCount[msg.sender], _amount, block.timestamp, currentContract.unlockTimestamp);\n        userContractCount[msg.sender]++;\n    }\n\n    function getActiveContracts() public view returns(uint[] memory) {\n        uint contractCount = userContractCount[msg.sender];\n        uint[] memory rActiveContracts = new uint[](contractCount);\n        uint validCounter = 0;\n        for(uint i = 0; i < contractCount; i++){\n            bytes32 contractHash = keccak256(\n                abi.encodePacked(\n                    msg.sender,\n                    i\n                )\n            );\n            uint active = userContracts[contractHash].amount; \n            if( active > 0 ){\n                rActiveContracts[validCounter] = i;\n                validCounter++;\n            }\n        }\n        return rActiveContracts;\n    }\n\n    function getPassedDays(uint contractId) public view returns(uint) {\n        bytes32 contractHash = keccak256(\n                abi.encodePacked(\n                    msg.sender,\n                    contractId\n                )\n            );\n        return _getPassedDays(contractHash);\n    }\n\n    function claimRewards(uint _contractId) public notReentrant {\n        bytes32 contractHash = keccak256(\n                abi.encodePacked(\n                    msg.sender,\n                    _contractId\n                )\n            );\n        UserContract memory currentContract = userContracts[contractHash];\n        require( currentContract.amount > 0, \"ERR_CONTRACT_CLAIMED\" );\n        require( currentContract.unlockTimestamp <= block.timestamp, \"ERR_CONTRACT_NOT_ENDED\");\n        (uint rewards,,) = currentRewards(_contractId);\n        uint graveAmount = userContracts[contractHash].amount;\n        uint feeAmount = graveAmount.mul(bankFee).div(10000);\n        graveAmount -= feeAmount;\n        userContracts[contractHash].amount = 0;//disable contract\n        activeContracts--;\n        depositedGrave -= graveAmount;\n        activeWishbones -= currentContract.usedWishbones;\n        RUDE.mint( msg.sender, rewards );\n        GRAVE.burn( feeAmount );\n        require( GRAVE.transfer(msg.sender, graveAmount), \"ERR_TX_FAILED\");\n        emit ContractClaimed( contractHash, msg.sender, _contractId, graveAmount, rewards, userContracts[contractHash].startTimestamp, block.timestamp );\n    }\n\n    function panicWithdraw(uint _contractId) public notReentrant {\n        bytes32 contractHash = keccak256(\n                abi.encodePacked(\n                    msg.sender,\n                    _contractId\n                )\n            );\n        uint graveAmount = userContracts[contractHash].amount;\n        userContracts[contractHash].amount = 0;\n        activeContracts--;\n        depositedGrave -= graveAmount;\n        activeWishbones -= userContracts[contractHash].usedWishbones;\n        require( GRAVE.transfer(msg.sender, graveAmount), \"ERR_TX_FAILED\");\n        emit ContractClaimed( contractHash, msg.sender, _contractId, graveAmount, 0, userContracts[contractHash].startTimestamp, block.timestamp );\n    }\n\n    function currentRewards(uint _contractId) public view returns(uint, uint, bool) {\n        bytes32 contractHash = keccak256(\n                abi.encodePacked(\n                    msg.sender,\n                    _contractId\n                )\n            );\n        uint amount = userContracts[contractHash].amount;\n        if(amount > 0 ){\n            (uint userApy, uint daysPassed, bool finished) = _getAPY(contractHash);\n            uint percentOperator = 10 ** 5;\n            uint rawRewards = amount.mul(userApy);\n            rawRewards = rawRewards.div(100).div(percentOperator);\n            uint durationPercent = percentOperator.mul( daysPassed ).div(365).div( percentOperator.div(100) );\n            uint rewards = rawRewards.mul(durationPercent).div(100).div(percentOperator);\n            return (rewards, userApy, finished);\n        }else{\n            return (0, 0, true);\n        }\n    }\n\n    function getAPY(uint contractId) public view returns(uint, uint, bool) {\n        bytes32 contractHash = keccak256(\n                abi.encodePacked(\n                    msg.sender,\n                    contractId\n                )\n            );\n        return _getAPY(contractHash);\n    }\n\n    function simulateAPY( uint _amount, uint _duration, uint _wishbones ) public view returns(uint, uint){\n        uint daysPassed = _duration.mul( 10 ** 18 ).div( 1 days);\n        uint depositPower = _sigmoid(_amount.div(10 ** 9), rate.div(4), _amount );\n        uint stonesPower = _sigmoid(_wishbones, rate.div(2), (1 + ( activeWishbones.sub(activeContracts).sub(_wishbones) ) ).mul( 10 ** 2 ).div( activeContracts ) );\n        uint durationPower = _sigmoid(daysPassed.div(10 ** 9), rate.div(4) , daysPassed);\n        uint userRate = rate.sub(stonesPower).sub(durationPower).sub(depositPower);\n        uint finalApy = _sigmoid(daysPassed.div( 10 ** 11), maxApy, userRate.mul(10 ** 10) );\n        uint percentOperator = 10 ** 5;\n        uint rawRewards = _amount.mul(finalApy);\n        daysPassed = daysPassed.div( 10 ** 13);\n        rawRewards = rawRewards.div(100).div(percentOperator);\n        uint durationPercent = percentOperator.mul( daysPassed ).div(365).div( percentOperator.div(100) );\n        uint rewards = rawRewards.mul(durationPercent).div(100).div(percentOperator);\n        return (rewards, finalApy);\n    }\n\n    /** \n        INTERNAL FUNCTIONS \n    */\n    function _contractTimestamp(bytes32 contractHash) internal view returns(uint) {\n        uint unlockTimestamp = userContracts[contractHash].unlockTimestamp;\n        if( unlockTimestamp > block.timestamp ){\n            return block.timestamp;\n        }else{\n            return unlockTimestamp;\n        }\n    }\n\n    function _getPassedDays(bytes32 contractHash) internal view returns(uint) {\n        uint start = userContracts[contractHash].startTimestamp;\n        uint currentContractTimestamp = _contractTimestamp(contractHash);\n        uint diff = currentContractTimestamp.sub(start).mul( 10 ** 18);\n        uint daysP = diff.div( 1 days );\n        return daysP;\n    }\n\n    function _getAPY(bytes32 contractHash) internal view returns(uint, uint, bool){\n        uint daysPassed = _getPassedDays(contractHash);\n        UserContract memory currentContract = userContracts[contractHash];\n        uint depositPower;\n        bool finished = false;\n        if( daysPassed == currentContract.duration.mul( 10 ** 18 ).div( 1 days ) ) {\n            finished = true;\n            depositPower = _sigmoid(currentContract.amount.div(10 ** 9), rate.div(4), currentContract.amount );\n        }else{\n            depositPower = _sigmoid(currentContract.amount.div(10 ** 9), rate.div(4), depositedGrave.div(activeContracts) );\n        }\n        uint stonesPower = _sigmoid(currentContract.usedWishbones, rate.div(2), (1 + activeWishbones.sub(currentContract.usedWishbones) ).mul( 10 ** 2 ).div(activeContracts) );\n        uint durationPower = _sigmoid(daysPassed.div(10 ** 9), rate.div(4), currentContract.duration.mul( 10 ** 18 ).div( 1 days ) );\n        uint userRate = rate.sub(stonesPower).sub(durationPower).sub(depositPower);\n        uint finalApy = _sigmoid(daysPassed.div( 10 ** 11 ), maxApy, userRate.mul( 10 ** 10 ) );\n        return (finalApy, daysPassed.div(10 ** 13), finished);\n    }\n\n    //MATH FUNCTIONS\n    function _sigmoid(uint x, uint a, uint b) internal pure returns(uint) {\n        uint j = x.mul(x);\n        uint z = sqrt( b.add(j) );\n        uint _x = x.mul(10 ** 9);\n        uint sig = a.mul(_x).div(z);\n        return sig.div( 10 ** 9 );\n    }\n\n    function sqrt(uint x) internal pure returns (uint y) {\n        uint z = x.add(1).div(2);\n        y = x;\n        while (z < y) {\n            y = z;\n            z = x.div(z).add(z).div(2);\n        }\n        return y;\n    }\n}",
  "sourcePath": "/Users/alessandrodecristofaro/Desktop/DeFi Code/croskull-repo/src/contracts/SkullsBank.sol",
  "compiler": {
    "name": "solc",
    "version": "0.8.0+commit.c7dfd78e.Emscripten.clang"
  },
  "schemaVersion": "3.4.3",
  "updatedAt": "2022-03-31T23:50:42.985Z",
  "networkType": "ethereum",
  "devdoc": {
    "kind": "dev",
    "methods": {},
    "version": 1
  },
  "userdoc": {
    "kind": "user",
    "methods": {
      "createContract(uint256,uint256,uint256)": {
        "notice": "PUBLIC FUNCTIONS "
      },
      "increaseWishbone(uint256)": {
        "notice": "ADMIN FUNCTIONS"
      }
    },
    "version": 1
  }
}